:020000040001F9
:10B0000070300020F5B001000FB1010011B1010056
:10B010000000000000000000000000000000000030
:10B0200000000000000000000000000013B101005B
:10B03000000000000000000015B1010017B1010080
:10B0400019B1010019B10100F9B5010019B10100F0
:10B0500019B101000000000009B2010019B101009E
:10B0600019B1010019B1010019B1010019B10100B4
:10B0700019B1010019B1010019B1010019B10100A4
:10B0800019B1010029B5010019B1010019B1010080
:10B0900051B5010019B1010059B5010019B1010004
:10B0A00019B1010019B1010000000000000000000A
:10B0B0000000000000000000000000000000000090
:10B0C0000348854600F08EF800480047F5F101007E
:10B0D00070300020401E00BF00BF00BF00BF00BF97
:10B0E00000BF00BF00BF00BF00BF00BF00BFF1D165
:10B0F000704700000321094802680A4302600848BB
:10B1000002680A4302600748804707480047FEE795
:10B11000FEE7FEE7FEE7FEE7FEE70000240500404D
:10B120005405004095B50100C1B0010030B50B4693
:10B13000014600202022012409E00D46D5409D4211
:10B1400005D31D469540491B254695404019154697
:10B15000521E002DF1DC30BD70B5002425460028BC
:10B1600001DA01244042002901DA01254942FFF7B2
:10B17000DDFFAC4200D04042002C00D0494270BDFF
:10B1800003460B439B0703D009E008C9121F08C000
:10B19000042AFAD203E00B780370401C491C521EAB
:10B1A000F9D27047D2B201E00270401C491EFBD2B6
:10B1B00070470022F6E710B513460A4604461946C2
:10B1C000FFF7F0FF204610BD30B5044600200346CF
:10B1D00000E05B1C934203D2E05CCD5C401BF8D0E6
:10B1E00030BD0000064C0125064E05E0E36807CCA3
:10B1F0002B430C3C98471034B442F7D3FFF764FF5D
:10B200003015020050150200F0B58BB00027002069
:10B210000A90FF20013009900125002416E00998CA
:10B2200004F052FA00280BD000BF70484068284054
:10B23000002805D0099804F03FFA3846284307460D
:10B240006D000998001D80B20990641C042CE6D39F
:10B25000FF207D3004F038FA00280AD0FF207D302E
:10B2600004F02AFA0120C007074300BF60480069C4
:10B270000A903807000F00282AD00125002425E075
:10B280002846384000281FD000BF5A4851210901E4
:10B290004018A10040581F2109020840000A0890E8
:10B2A00000BF5448512109014018A1004058032112
:10B2B00009040840000C0790204601F00FFF0646E5
:10B2C00007990898B04700BF6D00641C042CD7D3C1
:10B2D000F80FC00700287DD0002008900790401E7E
:10B2E000069000BF00200890002464E04248005D02
:10B2F0000590C0210598884306463F480057401CEA
:10B30000002857D00120B04006990840002851D0AD
:10B31000C0210598084080110490304601F022FFBA
:10B32000029001F0DBFE03900398002802D10498FC
:10B3300003283ED10120B04005460498032802D1DD
:10B3400007982843079000BF05200007072109023E
:10B350004018B1004058032109040840000C029035
:10B360000A982840002802D00298022806D00A989D
:10B37000284000281CD10298032819D104980328DA
:10B380000FD10298022801D1032000E00220019091
:10B390003046019904F067F90898401CC0B2089043
:10B3A00000BF0398002803D03046039A04999047C1
:10B3B00000BF00BF641C042C98D3089800280ED04E
:10B3C00000BF0B49096908460A99884203D1002148
:10B3D000089103E008E00A900799069100BF0898D9
:10B3E000002800D07EE700BF0BB0F0BD0063004036
:10B3F0000005005000600040D0260020C206D20E9A
:10B4000001219140014A11607047000080E200E094
:10B41000C206D20E01219140014A1160704700001E
:10B4200000E100E0C206D20E01219140014A116004
:10B430007047000000E200E010B5002819DA1A4A4F
:10B4400003071B0F083B9B089B00D2588307DC0EA9
:10B45000FF23A3409A438B071B0E8407E40EA340EF
:10B460001A43114B0407240F083CA408A4001A51E6
:10B4700018E00E4A03231B02D21883089B00D258FF
:10B480008307DC0EFF23A3409A438B071B0E840720
:10B49000E40EA3401A43054B032424021B1984081D
:10B4A000A4001A5110BD00001CED00E000E100E016
:10B4B00010B5002819DA1A4A03071B0F083B9B082E
:10B4C0009B00D2588307DC0EFF23A3409A438B07CF
:10B4D0001B0E8407E40EA3401A43114B0407240FEC
:10B4E000083CA408A4001A5118E00E4A03231B02CA
:10B4F000D21883089B00D2588307DC0EFF23A34099
:10B500009A438B071B0E8407E40EA3401A43054B96
:10B51000032424021B198408A4001A5110BD000042
:10B520001CED00E000E100E010B5002007490860D4
:10B530000021064841608160C16000200349403914
:10B540000860486005F06EFC10BD0000401101402D
:10B5500010B505F07BFB10BD70B50C4800680028E5
:10B5600011D00A4800688047044600BF2546002DD8
:10B5700007D000BF064AFF216731284600F056FA7F
:10B5800000BF00BF01E003F0D1FB70BD5C210020D3
:10B59000D814020010B503F057FC002805D010485D
:10B5A00010494860C8131049886103F031FC002835
:10B5B00002D001200D49886003F0A8FC00280ED0BD
:10B5C0000B480068012807D00A480949086000BFF5
:10B5D000074800680128FBD1C0200549486110BD1B
:10B5E000DFFF07C000050040006C0040000600407F
:10B5F00000EC06407593000010B505F0F7FC10BD97
:10B6000030B47446641E2578641CAB4204D3635D79
:10B610005B00E31830BC18471D46F8E702E008C895
:10B62000121F08C1002AFAD170477047002001E0BC
:10B6300001C1121F002AFBD17047F7B582B0044642
:10B6400016460025378800203080606B00280ED019
:10B65000616B08783B463246039904F063FF054668
:10B6600000BF002D02D0284605B0F0BD00BF206B02
:10B6700000280CD03B463246206B039905F044FC71
:10B68000054600BF002D01D02846EDE700BF2E2063
:10B69000005D00280DD02E21085D3B4632460399FF
:10B6A00003F08FFC054600BF002D01D02846DBE7E4
:10B6B00000BF2D20005D00280BD03A46314603988C
:10B6C00000F0F5FE054600BF002D01D02846CBE76F
:10B6D00000BFA07800280BD03A463146039800F00E
:10B6E000FDFA054600BF002D01D02846BCE700BF8B
:10B6F000E07800280DD0E17848B23B463246039905
:10B7000003F058F8054600BF002D01D02846ABE7EE
:10B7100000BF606800280ED00020616808563B46D4
:10B720003246039905F046FC054600BF002D01D0C6
:10B73000284699E700BF208900280FDD0197009671
:10B740000622022120460830039B05F099FD05469C
:10B7500000BF002D01D0284686E700BF208A0028C0
:10B760000FDD019700960722032120461030039B2E
:10B7700005F086FD054600BF002D01D0284673E781
:10B7800000BF208B00280FDD0197009615221421A1
:10B7900020461830039B05F073FD054600BF002DC1
:10B7A00001D0284660E700BF206A00280CD03B4645
:10B7B0003246206A039901F0B5FE054600BF002D10
:10B7C00001D0284650E700BF606A00280CD03B46F5
:10B7D0003246606A039903F04FFD054600BF002D15
:10B7E00001D0284640E700BF2C20005D00280CDD7A
:10B7F0003B4632462046039904F0AFFE054600BFA3
:10B80000002D01D028462FE700BF207800280CD05B
:10B810003B4632462046039903F06AFD054600BFC9
:10B82000002D01D028461FE700BF28461CE701462F
:10B83000C87804221040002801D10720704700205A
:10B84000FCE710B501220221002001F067F8044650
:10B8500000BF002C03D0072C01D0204610BD00BF34
:10B8600007220221012001F059F8044600BF002CF4
:10B8700003D0072C01D02046F0E700BF0A220021A8
:10B88000084601F04BF8044600BF002C03D0072CFB
:10B8900001D02046E2E700BF0020DFE730B599B0D5
:10B8A00038210BA8FFF785FC022108A801730621A7
:10B8B000C17301218173242102A8FFF77AFC0121C1
:10B8C00068460175FF202D300690B42007900020B7
:10B8D0000B4B02AA014600900BA800F075FA044633
:10B8E00000BF2546002D07D000BF06A2FF21E13191
:10B8F000284600F09BF800BF00BF19B030BD000023
:10B9000041F701002E2E5C2E2E5C2E2E5C6D61699F
:10B910006E2E6300014600BF064A50680122D20520
:10B920008243044B9A600122D2050240DA6000BFD4
:10B93000704700000005005010B5002407E0E1004A
:10B94000064A1268505C012103F05AFD641C044849
:10B9500000788442F3D3002010BD00001C21002099
:10B9600020210020FEB506460C461746052F01D2C1
:10B970000720FEBD03F05AFE002808D103F02EFE7A
:10B98000054600BF002D01D02846F2E700BF17484A
:10B9900006601748047017480760002016490860C1
:10B9A0001649086017E0E00080190190144800680B
:10B9B0000090019880786946487001990878114A8A
:10B9C000694603F081FD054600BF002D01D02846E1
:10B9D000CFE700BF00BF2046611ECCB20028E2D1F5
:10B9E000094A0021094800F0AFF8C2E71C210020F5
:10B9F0002021002024210020282100202C210020AB
:10BA0000881402003DEC0100A9D801008414020052
:10BA100070B504460D4616460C2000F0ADFF3246C8
:10BA20002946204600F012F870BD0000FEB504461D
:10BA30000E46154669460E80019502946A4600211D
:10BA40000148FFF7E5FFFEBD0140000018B50124E5
:10BA500000946B461B781E4B186059609A601D4B12
:10BA6000C318002B0CD0012B19D1194BDA60DB68FD
:10BA70001B88174CA3612346DB685B68E3610EE01B
:10BA8000134B1A611B699B68114C636123461B6948
:10BA90001B88A36123461B695B68E36100BF00BF8D
:10BAA0000B4B1B680A4B5B68094B9B68084BDB68B8
:10BAB000074B1B69064B5B69054B9B69044BDB69B4
:10BAC00072B600BF6B461B78002BFBD162B618BD67
:10BAD000F8270020FFBFFFFFF8B504460D461646C5
:10BAE00003480768324629462046B847F8BD00009B
:10BAF0006C260020F8B505460C4627780C21A06876
:10BB0000484306490E580648006800902A463946C0
:10BB1000204608302369B047F8BD0000C027002048
:10BB20001421002010B50446064800781422504322
:10BB3000044A121D81182046FFF7DCFF042004F0A0
:10BB400097FD10BDF426002010B503460C4600BF3B
:10BB50000D480068002801D1082010BD00BF002A50
:10BB600001D10720F9E7002B01D10720F5E718687C
:10BB7000007C002801D00820EFE719680020087435
:10BB80004C744A6100BFE8E734210020FFB581B062
:10BB90000E4614461F4620468107890F002901D111
:10BBA000012100E00021002902D1072005B0F0BDED
:10BBB000002C04D100201C4908600720F6E704F09F
:10BBC000CFFB1A4807600320194908701648046023
:10BBD000183400250CE0E900134A12688818002187
:10BBE0000170417086704460182171430C196D1CFE
:10BBF000032DF0DB00200F4908600F4908700F4942
:10BC000008701420FFF7FAFB03211420FFF750FC03
:10BC10001420FFF7FDFB019804F078FB04F070FBA3
:10BC2000074908600020C1E7342100204C21002092
:10BC30003021002038210020482100204921002007
:10BC40003C210020FEB504460D461746264600BF9F
:10BC500012480068002801D10820FEBD00BF002C5A
:10BC600001D10820F9E7052D01D20720F5E7706919
:10BC7000002801D10820F0E7707C012801D1284676
:10BC800000E00020029005F0D1FA009701902A46CA
:10BC90003146029B05F07AF8DFE7000034210020EE
:10BCA00070B50446254600BF0B480068002801D146
:10BCB000082070BD00BF002C02D06869002801D1A7
:10BCC0000820F6E70020287405F0B0FA0646294659
:10BCD00005F088F8EDE7000034210020F8B50546AE
:10BCE0000C4617462088001DB84201D90C20F8BD2B
:10BCF000684679DF064600BF002E01D03046F6E7E1
:10BD000000BF0320218868542088401C208019200F
:10BD1000218868542088401C20802088411968466A
:10BD2000008805F01DFA2188401820800020DEE7F9
:10BD3000F3B593B00D461F2112911191139800286D
:10BD400018D01398FFF773FD044600BF002C02D0F3
:10BD5000204615B0F0BD00BF12AA09A91398FFF73D
:10BD60006CFC044600BF002C01D02046F1E700BF68
:10BD700009AE02E0002600201290002D17D02846C0
:10BD800004F002FD044600BF002C01D02046E0E78D
:10BD900000BF11AA01A92846FFF74FFC044600BFC7
:10BDA000002C01D02046D4E700BF01AF02E00027FD
:10BDB0000020119010A88088C3B210A80089C1B2D9
:10BDC0003A46304672DFC4E7F8B504460F461546DA
:10BDD0001E4600BF002C01D10E20F8BD00BF00BFE1
:10BDE000002D01D10E20F8E700BF0020484908705F
:10BDF0004848066048490698086024222946474872
:10BE0000FFF7BEF900F050F945484649086046483A
:10BE1000886038214548FFF7CCF9207843490870FD
:10BE2000A0788870E078C87060784870626920698E
:10BE30004A6108610846E268A168C2608160E269FF
:10BE4000A169C2618161606A00281BD03848374906
:10BE5000486238498160606A00883449496A0880CC
:10BE6000606A80883149496A8880002005E0616AFB
:10BE70008968095C2F4A1154401C2C49496A8988F9
:10BE80008142F4D8A06A002824D02B492B48816035
:10BE90002649886228492548806A8160A06A80888E
:10BEA0002249896A8880A06A00882049896A0880B6
:10BEB000002005E0A16A8968095C1F4A1154401CF2
:10BEC0001A49896A89888142F4D82C20015D174873
:10BED00020300173206A00280BD0194813490862EA
:10BEE000206A4088096A4880206A00880F49096AE8
:10BEF00008806068002804D012480C4948606068D7
:10BF0000486039460948FFF713FF0090009864E73E
:10BF1000BC200020B4200020B820002038240020BD
:10BF20006C2400205C2400208C24002000240020AD
:10BF3000AC240020B8240020E4240020D8240020D1
:10BF4000C0200020C420002070B50446208810289E
:10BF500004D0112809D01B286CD11DE0A07D012838
:10BF600002D1A0883549088065E000203449087076
:10BF7000A0883249098888420DD1012000F0DEF8FE
:10BF80000546002D07D02F480068002803D028461A
:10BF90002C49096888474EE0207A002849D12A4870
:10BFA0000078012806D0022813D0032820D00428C6
:10BFB0003DD12FE0022000F0C1F80546002D07D04A
:10BFC00020480068002803D028461E490968884791
:10BFD0002EE0032000F0B2F80546002D07D01948E6
:10BFE0000068002803D028461649096888471FE0E2
:10BFF000032016490870042000F0A0F80546002D23
:10C0000007D010480068002803D028460D49096869
:10C0100088470DE000200D4908700D480068002891
:10C0200004D0084600780A490968884700E000BF44
:10C0300000BF00E000BF00BF70BD0000C6200020B0
:10C04000BD200020B8200020BC200020B02000200F
:10C05000B420002070B504460025022C02D0032C29
:10C0600018D100E000BF0D480078002811D0002052
:10C070000A4908700A48007800F060F80546002D6B
:10C0800007D008480068002803D0284605490968F9
:10C09000884700E000BF00BF70BD0000A82000205E
:10C0A000BC200020B820002010B507210148FFF770
:10C0B00080F810BDA920002010B51B480078012889
:10C0C0002FD11A48007800282BD119480078002871
:10C0D00007D074DF044600BF002C01D0204610BDFD
:10C0E00000BF01201149087006201249C8700021C4
:10C0F0001048FFF71DFE044600BF002C01D020466B
:10C10000EDE700BF0A48007800F018F80446002C5C
:10C1100007D009480068002803D02046064909686E
:10C1200088470020DBE7000038240020BD200020E5
:10C13000BC20002000240020B820002030B587B0AB
:10C140000546A248057002F050FB002805D00120EA
:10C150009F490870002007B030BDFFF7A5FF9D483C
:10C160004078002803D09948007801280FD09948DA
:10C170008078002803D095480078012807D095489A
:10C180008078002812D09148007802280ED1924879
:10C190000068002807D001209049087008208E49C7
:10C1A0000968884702E000208C49087087480078B9
:10C1B00001280BD187484078002804D0884803F034
:10C1C000A9FC002802D10220804908707F4800782D
:10C1D00002280BD17F488078002804D0804803F0E3
:10C1E00099FC002802D10320784908707948007B27
:10C1F000002806D175480078032802D1042073492D
:10C2000008707448007E002808D17048007804281F
:10C2100004D100206D490870724908706E480068AA
:10C22000002817D069480078032803D067480078B1
:10C2300004280FD16748007800280BD06A4800789E
:10C24000002807D101206949087007206249096860
:10C25000884702E0002065490870182101A8FEF710
:10C26000A8FF002168460171002002906846017312
:10C270000020049055480078012806D0022811D0EB
:10C28000032823D004287CD152E05548401E029058
:10C290000121684601710021C1828182012051493A
:10C2A000087079E04E48401E0290012168460171F5
:10C2B0004848008981B26846C1824648808881B278
:10C2C0006846818202204749087065E04148808ABB
:10C2D00081B26846C1823F48008A81B26846818245
:10C2E000434805F063F800281ED03A48007800283B
:10C2F0001AD03D480078002816D1022069460873FC
:10C300003B48049004203B49C87000213948FFF79E
:10C310000FFD044600BF002C01D020461BE700BFE4
:10C3200005203049087002E003202E49087033E0F0
:10C330002848808B81B2684681822648008C81B271
:10C340006846C1822A4805F031F800281FD02148EC
:10C35000007800281BD024480078002817D102203C
:10C36000694608732248049004202249C8700021BD
:10C370002048FFF7DDFC044600BF002C02D0204619
:10C38000E9E608E000BF06201649087002E0042034
:10C390001449087000E000BF00BF0C480078002876
:10C3A00008D001A873DF044600BF002C01D020464E
:10C3B000D1E600BF08480068002804D0094800788A
:10C3C0000549096888470020C5E60000BC20002018
:10C3D000A820002038240020B4200020BF20002006
:10C3E000AA200020B0200020BD200020BE20002078
:10C3F0005C2400200024002070B505461C2229463C
:10C400001448FEF7BDFE0020134908702868002874
:10C410000BD0082211482968FEF7B2FE0F487ADFD8
:10C420000446002C08D0204670BD0C487BDF044633
:10C43000002C01D02046F7E70020C04308490880BF
:10C44000002008490870084A00210848FFF77CFBD3
:10C45000EAE7000004250020DC200020C82000209E
:10C46000D2200020D02000209111020024140200CC
:10C4700010B504462088102806D0112808D01228AC
:10C480000ED0502810D107E0204603F0DDF90CE073
:10C49000204603F0F7F908E0204603F015FA04E01F
:10C4A000204603F0C5F900E000BF00BF10BDFEB597
:10C4B00005460C46174620880930B84201D90C20A1
:10C4C000FEBD684671DF064600BF002E01D0304633
:10C4D000F6E700BF0820218868542088401C20808F
:10C4E0001B20218868542088401C208021884819FE
:10C4F000062200A90131FEF743FE2088801D20801E
:10C5000068460078002802D12188685402E00120A2
:10C51000218868542088401C20800020D0E710B576
:10C520000446204601F084FB2046FFF7A1FF204689
:10C5300000F0DAF8204603F029F92046FFF704FD61
:10C5400010BD000070B586B03A480068059000BF85
:10C5500000234822384905A804F0D2F8054600BF58
:10C560002E46002E07D000BF34A2FF21583130469E
:10C57000FFF75CFA00BF00BF00BF6A460121002040
:10C5800004F09CF8044600BF2546002D07D000BFEC
:10C590002AA2FF215E312846FFF748FA00BF00BFFC
:10C5A00000BF2A4E304603F047FF044600BF254631
:10C5B000002D07D000BF21A2FF2161312846FFF7DF
:10C5C00035FA00BF00BF00BF684604F069F80446B2
:10C5D00000BF2546002D07D000BF18A2FF216531FE
:10C5E0002846FFF723FA00BF00BF194804F04AF8B5
:10C5F000044600BF2546002D07D000BF0FA2FF2133
:10C6000069312846FFF712FA00BF00BF114804F055
:10C61000ADF8044600BF2546002D07D000BF07A295
:10C62000FF216D312846FFF701FA00BF00BF06B0B9
:10C6300070BD0000C41302004C2300202E2E5C2E7F
:10C640002E5C2E2E5C6D61696E2E6300E81F00204B
:10C650001FC50100390B02007CB50446A1786A466B
:10C660000D4803F0F7FA0546002D13D161781C221E
:10C6700051430A4A88181C231A46694603F026FCCF
:10C680000748807A800007490A5821466846904743
:10C69000054600BF7CBD0000E020002020260020D1
:10C6A0006C2600203814020070B505460C460026A2
:10C6B0000B480560002C09D0204604F06DF80646B2
:10C6C00000BF002E01D0304670BD00BF0548006895
:10C6D000002802D1FFF7B5F806463046F4E700001F
:10C6E000A0200020A420002070B50546288810282E
:10C6F00002D0112832D118E01A48006800280ED163
:10C7000000F0D8FF044600BF002C07D01648006890
:10C71000002803D0204614490968884700BF114803
:10C720000068401C0F49086019E00E480068401E70
:10C730000C4908600846006800280ED1FFF781F810
:10C74000044600BF002C07D007480068002803D02B
:10C75000204605490968884700BF00E000BF00BFC8
:10C7600070BD0000A4200020A020002010B50320F0
:10C7700000F032FC044600BF002C03D0062C01D090
:10C78000204610BD00BF0020FBE70000F3B581B0DC
:10C7900006460025002400E0641C042C04D2A000FE
:10C7A00029490858B042F7D1042C42D202980028F7
:10C7B00025D0012802D002283AD133E060002018A9
:10C7C00022490D5C600020184018407800280ED0E7
:10C7D0001F4800680A22504301461E4A1E4800684E
:10C7E000FFF730FA0746002F01D11A4806706000A3
:10C7F00020181649401880781849085518E016483E
:10C800000068FFF74DFA1548005D610061180F4A96
:10C8100089188978884204D1600020181146401890
:10C82000857805E06000201808494018457800BF69
:10C8300000BF002D07D00A480068002803D0284612
:10C84000074909688847FEBDF4130200D42300207D
:10C850008820002098200020F0130200992000205A
:10C860009420002010B50246042A0FD2094B1B6900
:10C87000D8439300084CE45C0123A3400340002B01
:10C8800001D0012300E000230B7001E000200870BC
:10C89000002010BD00050050F413020070B50546DD
:10C8A000042D06D0072D19D00A2D2AD103F0A8FE99
:10C8B00028E013211448008876DF0446082C0CD0A9
:10C8C00000BF2646002E07D000BF10A2FF218231F4
:10C8D0003046FFF7ABF800BF00BF13E0FFF7ECFBFB
:10C8E0000446082C0CD000BF2646002E07D000BFFF
:10C8F00006A2FF218A313046FFF798F800BF00BF3B
:10C9000000E000BF00BF70BD822000202E2E5C2EF4
:10C910002E5C2E2E5C6D61696E2E630030B5034671
:10C920000020042B24D2012A07D1012903D11C465F
:10C930000D34E4B200E00024224600290FD0012982
:10C9400002D0022911D104E05C001C19094D2A55BE
:10C950000DE05C001C19074D6419627007E05C0073
:10C960001C19044D6419A27001E0072000BF00E00B
:10C97000072030BDD423002070B5044600250648AA
:10C980000078C007C00F002803D0204600F070F8E0
:10C990000546284670BD00008C200020F7B50546EE
:10C9A0000E4600242748066027480560274902985C
:10C9B000086002202840002822D0002706E001223B
:10C9C00011463846FFF7AAFF04467F1C042F01D208
:10C9D000002CF4D0002C05D1720804211C48FEF76D
:10C9E000C1FF0446002C02D1FEF7A6FF0446002C2E
:10C9F00005D1184A00211848FFF7A6F8044600BFE1
:10CA0000E807C00F00280AD000BF0F2040051349D7
:10CA100088600020C86000BF0F2040058861002C9E
:10CA200005D10F4A00210F48FFF78EF80446002C6D
:10CA300005D10D4A01210D48FFF786F8044620462E
:10CA4000FEBD0000882000208C20002094200020C3
:10CA50000414020035D00100F0130200000500505C
:10CA60002DF00100E813020015B90100EC130200DB
:10CA7000F8B50446002500262300FEF7C1FD180D79
:10CA80001E1F68B1F9F8F7F6F5F4F3F2F1F0EFEEE6
:10CA9000EDECEBEAE9E8E7E600BFF74801680F20B4
:10CAA000400588430F2149050840F449886000206B
:10CAB000C86000BFF248047080E200BF00BFEE48CB
:10CAC00001680720800588430F2149050840EB498C
:10CAD00088600020C86000BF084640680F214905F3
:10CAE000484001214905084000280FD000BF0846F2
:10CAF000E24988600020C86000BF022C02D1E1201A
:10CB0000C00001E07D20400106460EE000BF01208C
:10CB10004005DA49C8600020886000BF022C01D1BE
:10CB2000C82001E0FF2091300646D54804706421FA
:10CB30003046FEF7FBFAD34909684843074600220E
:10CB40003946D1480068FFF77DF8054636E200BF58
:10CB5000C94801680720800588430F21490508401E
:10CB6000C64988600020C86000BF084640680F21A1
:10CB70004905484001214905084000280FD000BF61
:10CB80000846BE4988600020C86000BF032C02D15F
:10CB90001920400101E07D20400106460EE000BF63
:10CBA00001204005B549C8600020886000BF032C03
:10CBB00001D1C82001E0FF2091300646B048047042
:10CBC00064213046FEF7B2FAAE4909684843074689
:10CBD00000223946AC480068FFF734F80546EDE11D
:10CBE00000BFA54801680720800588430F2149053B
:10CBF0000840A24988600020C86000BF084640681D
:10CC00000F214905484001214905084000280FD05F
:10CC100000BF0846994988600020C86000BF042C06
:10CC200002D17D20400101E07D204001064623E045
:10CC300000BF012040059149C8600020886000BF06
:10CC4000042C16D1FF20913015E0B6E1AAE1A8E14D
:10CC500095E182E16FE163E127E125E123E121E153
:10CC60001FE113E1F0E0D9E0C0E0A9E090E05DE071
:10CC700014E0FF209130064681480470642130465C
:10CC8000FEF754FA7F4909684843074600223946AF
:10CC90007D480068FEF7D6FF05468FE100BF764865
:10CCA00001680720800588430F2149050840734922
:10CCB00088600020C86000BF084640680F21490511
:10CCC000484001214905084000280ED000BF084611
:10CCD0006A4988600020C86000BF052C01D1C820C7
:10CCE00001E07D20400106460EE000BF0120400526
:10CCF0006249C8600020886000BF052C01D1C820AF
:10CD000001E0FF20913006465D4804706421304602
:10CD1000FEF70CFA5B49096848430746002239468A
:10CD200059480068FEF78EFF054647E100BF5248AC
:10CD300001680720800588430F21490508404F49B5
:10CD400088600020C86000BF084640680F21490580
:10CD50004840012149050840002806D000BF084688
:10CD6000464988600020C86007E000BF01204005F8
:10CD70004249C8600020886000BF414804704148B3
:10CD80000022016840480068FEF75CFF054615E197
:10CD900000BF394801680720800588430F214905F5
:10CDA0000840364988600020C86000BF00BF0120ED
:10CDB0004005C8600020886000BF31480470FDE075
:10CDC00000BF2E4948680121890581432B4A9160A3
:10CDD000012189050140D16000BF2A480022016875
:10CDE00029480068FEF72EFF0546E7E000BF23490B
:10CDF0004868012189058143204A91600121890504
:10CE00000140D16000BF1F480068820081180022E5
:10CE10001D480068FEF716FF0546CFE000BF174922
:10CE20004868012189058143144A916001218905DF
:10CE30000140D16000BF1348002201681248006819
:10CE4000FEF700FF0546B9E000BF0C494868012124
:10CE500089058143094A9160012189050140D1601A
:10CE600000BF084800688200811800220648006858
:10CE7000FEF7E8FE0546A1E09020002000050050E6
:10CE80008420002088200020E813020000BF0F202B
:10CE900040054C49C8600020886000BF4A480470C3
:10CEA0008CE000BF00BF00BF00BF48480068FEF72D
:10CEB000F7FE05461120061B002E23D0002D21D1A0
:10CEC0000120C00542490860012E10D9C8217143D4
:10CED00008466421FEF72AF93E4909684843074697
:10CEE0000022394639480068FEF7ACFE054600BF0F
:10CEF000374800680F21490508403249C8600020C2
:10CF000088600CE000BF324800680F2149050840E6
:10CF10002C4988600020C86000BF2D4908604DE0A2
:10CF200000BF0F204005274988600020C86000BF6F
:10CF30002548047042E000BF072080052149886031
:10CF40000020C86000BF00BF01204005C86000206D
:10CF5000886000BF1C48047030E000BF0D20400511
:10CF6000184988600020C86000BF00BF012080050C
:10CF7000C8600020886000BF134804701EE000BF36
:10CF80000320C0050F4988600020C86000BF00BFB3
:10CF900003204005C8600020886000BF0A48047074
:10CFA0000CE000BF00BF0F2040050649C86000200C
:10CFB000886000BF0448047000E000BF00BF28463E
:10CFC000F8BD00000005005084200020EC13020092
:10CFD000902000208820002070B50246002021E02B
:10CFE0008400124D2C59A400114D641921680124AC
:10CFF00084401440002C01D0032400E00024234688
:10D0000003252D040C46AC4321461C042143052472
:10D01000240707252D0264198500044E7559AD00BB
:10D020006151401C0428DBD3002070BDF4130200C2
:10D030000007005010B5044620780221FFF7A6FB38
:10D0400010BD0000F8B50546164A17490320FFF742
:10D05000A5FC044600BF2646002E07D000BF13A241
:10D06000FF21F0313046FEF7E1FC00BF00BF69460A
:10D070000020FFF719FB044600BF2646002E07D00C
:10D0800000BF0AA2FF21F3313046FEF7CFFC00BFFC
:10D0900000BF68460078022801D1012000E000208E
:10D0A0002870F8BD9DC80100CD0C00002E2E5C2E0E
:10D0B0002E5C2E2E5C6D61696E2E63000021C943CB
:10D0C0008200054B9950042804DB0B46011F024ADD
:10D0D00040325354704700009026002001468800DB
:10D0E000014A10587047000090260020F7B585B01F
:10D0F0000B460020C0430490002A01D0002000E02D
:10D1000004200390002A01D0042000E008200290AF
:10D1100003991EE08800124C2058401C002817D1AB
:10D120000846059C0093019246B20D4D20352E55C0
:10D1300085000B4E009B7351019A002A04D166B200
:10D14000051F074F40377E5500BF48B2049003E0EB
:10D15000491C02988142DDD300BF049808B0F0BD9D
:10D16000902600200146014840567047B026002016
:10D17000F0B587B03E480078142148433C49091D6A
:10D180004418E7680C21A06848433A4940180089D0
:10D1900006900C21A0684843364940184089059004
:10D1A0000C21A0684843334940184068049002F0BD
:10D1B00043FE014602903846FDF7B8FF002901D131
:10D1C000012000E000200390059906984843049947
:10D1D00046186088C019A1884518002026490860B3
:10D1E0000398002804D002F027FE618888420AD004
:10D1F0000398002804D0B54202D1A088002802D0AC
:10D20000A06803280CD102F017FE014602903846B0
:10D21000FDF78CFF19490860032003F029FA24E088
:10D2200002F00AFE0190A188C8190199FDF77EFF5E
:10D2300088081349086002F0FFFD01460190284666
:10D24000FDF774FF002901D1012000E000200290C9
:10D25000B54206D00298002803D1B1B2A8B203F0BB
:10D2600085FC022003F004FA00BF07B0F0BD000007
:10D27000F4260020C02700200421002008210020DF
:10D280000021002010B508480078142148430649C1
:10D29000091D44182078042802D000F0A5F801E008
:10D2A00003F0D8FB10BD0000F426002010B50F4895
:10D2B0000078142148430D49091D441860880C4921
:10D2C00008602078012804D0032805D0042809D15B
:10D2D00005E003F0BFFB06E0FFF74AFF03E003F0C1
:10D2E00048FF00E000BF00BF10BD0000F426002092
:10D2F0001421002010B503484078002801D0FFF722
:10D30000D5FF10BDF42600200023142141430C4A10
:10D3100053541421414389184B8002231421414363
:10D3200089188B600023142141438918CB60142194
:10D33000414389180B611421414389188B80704740
:10D34000F8260020FFB581B0064617461C484078F5
:10D350000A2830D01A4800781949497844180A2C0C
:10D3600000D30A3C142060431549091D0E541420B3
:10D37000604340180761142060434118029805C8B3
:10D38000CA608860142161430D4A121D89180498EF
:10D3900048801421614389180A988880101F4078BA
:10D3A000401C111F487007480078002801D1FFF782
:10D3B0007DFF002500E00425284605B0F0BD0000F3
:10D3C000F4260020FC20002010B50020054908703C
:10D3D0004870002403E02046FFF796FF641C0A2CE7
:10D3E000F9D310BDF426002010B5084800781422A7
:10D3F0005043064A121D81180020FEF77BFB00F007
:10D4000007F8002003F034F910BD0000F4260020D6
:10D4100010B509490878FFF777FF07484078401EA4
:10D420000549487008460078401CC0B208700A28B8
:10D4300001D10020087010BDF4260020FEB51F4861
:10D440000068002836D01D480068056802F058FFC3
:10D4500001901B4804682146019803F0B3FBC61CE9
:10D4600018480078002801D102F05CFFAE4201D2DA
:10D47000284600E0304604192402240A204602F01F
:10D4800039FF02F03DFF00900199009803F09AFBEC
:10D49000C71C2046019903F095FB874209D902F089
:10D4A0002FFF074602F026FF2F20FDF713FE03F0A3
:10D4B00003FD01E002F054FFFEBD00003821002012
:10D4C0003C2100205021002001460888062808DB66
:10D4D00008881922D201904205DD0888104A90423E
:10D4E00001D0072070474888062808DB48881922A1
:10D4F000D201904205DD4888094A904201D00720B8
:10D50000F0E70888064A904208D04888904205D043
:10D5100008884A88904201DD0720E3E70020E1E720
:10D52000FFFF0000FFB581B006460D461446208877
:10D53000801D0499884202D90C2005B0F0BD304608
:10D54000FFF7C2FF074600BF002F01D03846F4E7BF
:10D5500000BF0520218868542088401C20801220AC
:10D56000218868542088401C2080228851193088E6
:10D5700003F0F6FD21884018208022885119708818
:10D5800003F0EEFD2188401820800020D5E7000040
:10D5900010B5044600BF03A2CB212046FEF746FA91
:10D5A00000BF10BD2E2E5C2E2E5C2E2E5C6D616990
:10D5B0006E2E630030B587B01C216846FDF7F9FD7B
:10D5C000002000900520C00301900F20000402906D
:10D5D0000321684601730021C18101740A48059046
:10D5E0000A4806906846FEF707FF044600BF254636
:10D5F000002D06D000BF06A2E2212846FEF716FA4B
:10D6000000BF00BF07B030BDEDF7010091D50100AC
:10D610002E2E5C2E2E5C2E2E5C6D61696E2E6300AC
:10D6200038B51F4801F0E2FB002829D11D480078D9
:10D6300000280AD01C484069002820D00020009013
:10D64000194841696846884719E018480078002859
:10D6500002D11548456801E0134885680022294633
:10D6600013480068FEF7EEFA0446002C07D00E4877
:10D670008069002803D00C488169204688470AE069
:10D6800009484069002806D00120009006484169F9
:10D690006846884700BF00200249087038BD000076
:10D6A000D4200020DC20002004250020D0200020F1
:10D6B0002414020010B5012200210846FFF72EF9BC
:10D6C000044600BF002C03D0072C01D0204610BD1B
:10D6D00000BF072202210120FFF720F9044600BF06
:10D6E000002C03D0072C01D02046F0E700BF042215
:10D6F00002210020FFF712F9044600BF002C03D0DE
:10D70000072C01D02046E2E700BF0020DFE7000041
:10D7100070B503460C460820002115E00C254D434A
:10D720000B4EAD19AD7A2540002D0CD0094DAB4202
:10D7300005D00C254D43AD192D899D4202D11160B4
:10D74000002003E00520491C0029E7D000BF70BD80
:10D7500060260020FFFF000010B5044601210C20C8
:10D7600060430A4A80188172891E0C206043801829
:10D770000181FF210C2060438018C1720C2161439C
:10D7800088180721FDF715FD10BD00006026002058
:10D7900010B500BFEFF30580C105C90D00291FD0EA
:10D7A0000A46103A50B200280CDA0E4B0407240F38
:10D7B000083CA408A4001B598407E40EE3401B06A0
:10D7C0009B0F0BE0084B032424021B198408A400C0
:10D7D0001B598407E40EE3401B069B0FD8B210BD13
:10D7E0000420FCE71CED00E000E100E010B51C485F
:10D7F00000680821084000282FD11A480068401C02
:10D800001849086018480068002803D0042003F075
:10D8100089F924E001F04EFB002803D0022003F038
:10D8200081F91CE011480068002813D00C480078EA
:10D83000C007C00F002809D109480068012108432A
:10D8400007490860002003F06DF908E0032003F0A9
:10D8500069F904E003F03AF901E003F047F910BD7B
:10D860001821002008210020002100200421002090
:10D8700010B50C4800680821084000280FD109485D
:10D88000006802210840002805D0064800680121F0
:10D89000084304490860022003F044F901E003F062
:10D8A00025F910BD18210020F8B5002535E0E80065
:10D8B0001C490968441821780120884006461A4806
:10D8C00000683040002826D017480068B043164949
:10D8D0000860207801F072FE074621780120884018
:10D8E000124909680840227839469140884211D18E
:10D8F0006078012800D100E00020784001214840F4
:10D9000000906068002804D0009BD9B2207862683B
:10D91000904700BF00BF681CC5B20548007885422B
:10D92000C5DBF8BD1C2100202C210020282100206F
:10D9300020210020FEB504460E46A1786A462848FC
:10D9400002F088F90546002D49D160780C21484342
:10D9500024494018807A40210840402801D0022EF6
:10D9600001D1214F04E0012E01D1204F00E0204FD2
:10D97000A0781C2250431F4A811800231C226846AD
:10D98000B8470546002D1AD1022E18D060780C2118
:10D99000484314494018807A4021884361780C221A
:10D9A0005143104A8918887260781C225043124AE9
:10D9B00081181C231A466846B847054600BF022E48
:10D9C0000DD020780C2148430C494018807A800003
:10D9D0000B490A58214668469047054600BFFEBDE0
:10D9E000E02000206026002015020200E90002006D
:10D9F000E90902005C250020202600206C2600207A
:10DA000028140200F8B505460E461B4F00242EE0F0
:10DA10001C20604319494018807EFF2826D13078A9
:10DA2000022814D01C2060434018807E02218843C5
:10DA30001C216143114A891888761C216143891889
:10DA40000846103007223146FDF79AFB0BE01C20F8
:10DA500060430A494018807E410849001C20604309
:10DA6000064A801881762C70002702E0641C072C7F
:10DA7000CED300BF3846F8BD438000005C250020AF
:10DA8000F8B505460E4617460520009000241BE019
:10DA9000002D06D11C2060430E494018008BB8426F
:10DAA0000DD0002D0FD01C2161430A4A8918084669
:10DAB000103007222946FDF787FB002803D1346088
:10DAC0000020009002E0641C072CE1D300BF009806
:10DAD000F8BD00005C2500207CB50546A9B26A4669
:10DAE000084802F0B7F80446002C09D174216846B2
:10DAF00002F002F90446002C02D1284602F018F880
:10DB000020467CBDE0200020F8B506460F461446AE
:10DB100000BF2546002D07D000BF05A2FF219C3184
:10DB20002846FDF783FF00BF00BF0020F8BD0000BE
:10DB30002E2E5C2E2E5C2E2E5C6D61696E2E630087
:10DB40007FB50546039502F07DF9044600BF2646E1
:10DB5000002E07D000BF30A2FF21B6313046FDF7BE
:10DB600065FF00BF00BF03A800F098FB044600BF9C
:10DB70002646002E07D000BF27A2FF21B93130462C
:10DB8000FDF754FF00BF00BF052101A80130FDF7DC
:10DB900010FB6846407941084900491C68464171BC
:10DBA0004079022188430146684641714079042149
:10DBB00088430146684641714079082188430146FF
:10DBC000684641714079702188430146303168468A
:10DBD000417140798021884301466846417107219F
:10DBE00081711021C17110480090012168460171B6
:10DBF00069460E4800F0FEFC044600BF2646002E93
:10DC000007D000BF04A2FF21C9313046FDF70EFF47
:10DC100000BF00BF7FBD00002E2E5C2E2E5C2E2E7E
:10DC20005C6D61696E2E630009DB010080200020BD
:10DC3000F0B591B00446FF200F9000260020099017
:10DC400000BFF9480078002801D111B0F0BD00BF35
:10DC500000BFF6480068002800D1F6E700BF0EA814
:10DC600000F00EFB054600BF2F46002F06D000BF78
:10DC7000EF4AF0493846FDF7D9FE00BF00BF00204B
:10DC80000A900025201D0C902C2168468186FF21DA
:10DC900008A88176002101760020109020881028A5
:10DCA00013D0A08810AA0221FFF732FD0546002DEF
:10DCB0000BD10C2110984843DF494018C17A08A8BD
:10DCC00081761098C1B208A84176208819287DD0A5
:10DCD00008DC10280DD011287ED0132878D0142805
:10DCE00077D1B7E01A2875D01E2874D05228F7D102
:10DCF0008DE210AF3A460121D048FFF709FD0890A8
:10DD00000898002807D102210C2238685043CA4ADB
:10DD10008018817201E00420089008980546002DC3
:10DD200053D10126112108A801731098C1B208A887
:10DD30004176A1880C2210985043BF4A8018018177
:10DD400002210C2210985043BB4A801881720C2289
:10DD500010995143B84A8818072221460831FDF727
:10DD60000FFAE07D304000280AD0E07D4008B44939
:10DD7000085CFF280BD0E07D4008085C0F9006E0AF
:10DD8000AE4A0FA920460830FFF77AFE0546002D5F
:10DD90001BD10F98C1B20C2210985043A64A80188C
:10DDA000C1720C211098484311464018807A08210E
:10DDB00008430C22109951439F4A8918887208A978
:10DDC0000F9888760EA8FEF747FC2FE2FCE003E0F0
:10DDD00085E02AE2B8E123E20C21109848439649F5
:10DDE0004018807A022188430C2210995143924AAC
:10DDF000891888720C211098484311464018807A7F
:10DE00000821084008280ED10C21109848431146DB
:10DE10004018807A8021084080280FD100210EA868
:10DE2000FFF788FD0AE008A8807EFF2806D008A931
:10DE3000887E01F07DFEFF2008A9887610210C2243
:10DE4000109850437C4A801881720126122008A93C
:10DE50000873EBE10C211098484377494018C07AC9
:10DE6000FF2823D1228A0FA90020FFF709FE0546CB
:10DE7000002D1BD10F98C1B20C22109850436E4A4E
:10DE80008018C1720C211098484311464018807ABE
:10DE9000082108430C2210995143674A8918887257
:10DEA00008A90F9888760EA8FEF7D6FB0C211098CB
:10DEB000484361494018C07AFF2805D01C211098BA
:10DEC00048436049401809901C23109959435E4B00
:10DED000CA18A0880023099986DF0546A6E1132009
:10DEE00008A908730C211098484353494018807AB8
:10DEF000042108430C22109951434F4A8918887213
:10DF000001260C211098484311464018C07AFF287A
:10DF10003ED10C22109850430A4681180FA8FFF7F3
:10DF200071FD0546002D0BD108A90F9888760F9832
:10DF3000C1B20C22109850433F4A8018C17201E0D0
:10DF40000A950126002005900C21109848433A4973
:10DF50004018C07A1C2148433B49411806910021D2
:10DF6000079108911C2110984843364940180190A8
:10DF70000020029003900490A08801AB2B4A121D50
:10DF800000217FDF0546002D01D00A9500261AE00A
:10DF90000C211098484328494018807A40210843B2
:10DFA0000C2210995143244A89188872162008A916
:10DFB0000873A08800231A4685217FDF0546002DBF
:10DFC00001D00A95002631E11848407A4008400007
:10DFD000164948720C211098484317494018807A16
:10DFE000042188430C2210995143134A89188872DE
:10DFF000142008A908730126207A002826D00C21B5
:10E000001098484311464018807A40210840402823
:10E0100009D00C2210995143074A8918C87AFFF792
:10E020005BFD207A0A908EE0EC2000206C26002018
:10E030008C140200F109000060260020FFFF0000A0
:10E04000ED200020202600205C250020607A40077B
:10E05000C00F002877D008A8807EFF2873D00C213D
:10E06000109848437F494018807A082108430C22C1
:10E07000109951437B4A89188872607B8007C00FD2
:10E0800000280FD008A8807E1C21484376494018FC
:10E09000807E4108490008A8807E1C225043724AB5
:10E0A000801881760C21109848436E494018C07A38
:10E0B000FF2848D00C21109848436A49085C022880
:10E0C00020D00C23109A5A430B46D11808AA927EEE
:10E0D0001C235A43644BD218104610300722FDF718
:10E0E0004FF808A8807E1C2148435F494018807E75
:10E0F0000221884308A9897E1C2251435A4A891863
:10E1000088761CE01C211098484358494018418AE1
:10E1100008A8807E1C225043534A8018018308A817
:10E12000807E1C21484311464018807E41084900EA
:10E1300008A8807E1C2250434B4A8018817601211A
:10E140000EA8FFF7F7FB71E0207A000901283DD106
:10E15000207A0007000F012838D10C21109848437D
:10E1600040494018807A0821084008282ED12422EE
:10E17000109951433E4A891808181A21FDF719F8D9
:10E18000162008A908730C211098484335494018F7
:10E19000807A202108430C2210995143314A891872
:10E1A00088720C211098484311464018807A40210B
:10E1B00008430C22109951432A4A891888722D4825
:10E1C000407A022108432B4948721CE00C21109828
:10E1D000484324494018807A802108430C22109932
:10E1E0005143204A89188872152008A908732148CC
:10E1F000807A8000204A11580EA888470546002DD5
:10E2000001D01E480A9000200A9001260EE019480D
:10E21000807A8000184A11580EA888470A9005E0B5
:10E22000132008A90873012600E000BF00BF002EDC
:10E2300016D00BA90EA80A9AFDF74EFC08A8007B81
:10E2400012280DD100BF0C211098484305494018F1
:10E25000807A012802D01098FFF77EFA00BF00BF35
:10E2600000BFF2E4602600205C250020202600206C
:10E270003C2600206C26002048140200418000004B
:10E280000146002901D104487047FF2008704870FA
:10E290008870C8700020F7E70E8000007FB5064642
:10E2A000002E02D1374804B070BD00240FE000BF3B
:10E2B00000210C206043344A11500C206043801828
:10E2C00041720C2060438018817200BF641C002CD6
:10E2D000EDD0002403E02046FFF73EFA641C002C3A
:10E2E000F9D024212948FCF764FF002406E02046E9
:10E2F00001F01EFCFF2026490855641C072CF6D3AC
:10E300007421684681810721C181224802902249F7
:10E3100002A801F059FE0546002D30D101201F4909
:10E3200008703078002821D100241CE0A1B26A4690
:10E33000194801F08FFC0546002D0FD11C216143C7
:10E34000174A881800231C22694601F0BFFD0546C4
:10E35000002D07D000201149087006E000200F4969
:10E36000087002E0641C072CE0D308E06A4690893C
:10E37000D289504381B2084801F0BEFC05462846C8
:10E3800091E700000E8000006C2600203C26002053
:10E39000ED200020A5E30100E0200020EC2000207B
:10E3A0005C250020FFB593B01D4600BF854800687E
:10E3B000002801D117B0F0BD00BF1C98742800D907
:10E3C000F8E7012009900FA8FFF75AFF064600BFA3
:10E3D0003746002F06D000BF7B4A7C493846FDF700
:10E3E00025FB00BF00BF002108A8017710A801701D
:10E3F0000E951C980D90002712E0B9B20AAA744835
:10E4000001F028FC0646002E09D108220AA913981B
:10E41000FCF7DAFE002802D108A98F7702E07F1C02
:10E42000072FEAD300BF08A8807FFF2879D014986F
:10E4300003280AD11C98742803D1202010A9087041
:10E440009AE0402010A9087096E06249681A1C21E1
:10E45000FCF76CFE0446072C1DD20CA811901598F1
:10E46000002810D108A9887F012181405A4A1268EA
:10E470001140002901D0012100E00021002902D132
:10E480000020099078E008A9887F02F077FE20201C
:10E4900010A9087070E05149681A1C21FCF746FE6B
:10E4A0000446002C1BD10CA81190202110A801704B
:10E4B00008A8447700200590494906911C20604334
:10E4C00046494018019008A8807F1C2148434149D3
:10E4D0004018029001A80E9020200D904CE0414978
:10E4E000681A2421FCF722FE0446002C1AD13021A0
:10E4F00010A8017008A844770121C1770C2060435F
:10E5000039494018807A02210840022834D008A9ED
:10E51000497F24225143334A88182421FCF749FEBD
:10E520002AE04DE000200990402010A908702F48F3
:10E53000854204D103201490012009901CE008A812
:10E54000807F80002A490858A84215D101200990EF
:10E550000CA8119000200CE008A98A7F0C214143EF
:10E56000214BC918C97A8A4202D108AA507702E021
:10E57000401C0028F0D000BF0998012820D1149831
:10E58000032806D110A908780321084310A90870B0
:10E590000FE01498022806D110A908780121084339
:10E5A00010A9087005E010A908780221084310A9F5
:10E5B00008700CA8119010A90FA8159AFDF78CFAF5
:10E5C00000BFF7E66C2600208C140200A1050000B5
:10E5D000E02000205C250020E820002020260020EC
:10E5E000782600203C2600206026002058140200D7
:10E5F0004025002070B505460C4600BF294800782C
:10E60000002801D1284870BD00BF002D02D1264846
:10E61000801DF8E7002C02D12348801DF3E7206815
:10E62000002802D12048801DEDE72048006800281E
:10E6300034D11E49206808600522611D1B48001D59
:10E64000FCF79EFD2079194988720846007A400837
:10E65000400008720846007A02218843801C134952
:10E6600008720846007A0421884310490872084657
:10E67000C07940084000401CC8710846C07902219A
:10E680008843801C0949C8710846C0790421884321
:10E690000649C87100202870002601E0024E361F8E
:10E6A0003046B0E7EC200020088000006C260020F7
:10E6B000014614480078144A127890421DD011483F
:10E6C0000078401C0F4A107010460078022801D1D3
:10E6D000002010700B48007880000C4A1058086029
:10E6E0000B4A086812688018094A106010460068D2
:10E6F0000002000A1060012070470020086000BF7F
:10E70000FAE7000048210020492100204021002094
:10E710003C21002010B50D48006808210840002861
:10E7200010D10B480068401C0949086000F0C2FB8A
:10E73000002802D1FEF7A6FD06E00648007801F0A9
:10E7400097FF01E000F088FD10BD000018210020B7
:10E7500008210020FC200020F0B50346002420E022
:10E76000134E306806689E4203D90668F61A0660A2
:10E770001BE006689B1B06683419002606600C4ED9
:10E7800035680B4FC6693E60C668002E08D00E196A
:10E790003602360A4660C66886601668C66115602D
:10E7A00000BF034800680028DAD100BFF0BD0000B8
:10E7B0003821002030B504461088C01C984201D989
:10E7C0000C2030BD0220158848551088401C108050
:10E7D0000120158848551088401C108015884C551C
:10E7E0001088401C10800020EBE738B50020009016
:10E7F000684601F017FA0446082C03D0002C01D01B
:10E80000012038BD082C07D1684600F071F8044695
:10E81000002C01D00020F4E70098002801D001204E
:10E82000EFE70020EDE7000010B50446002C02D011
:10E83000112C08D100E00AE00648006808210843CE
:10E840000449086003E02046FDF76CF900BF00BFF3
:10E8500010BD00001821002010B50C480068401CB5
:10E860000A49086003280DD009480078022804D01E
:10E870000748007801F0FCFE07E00648007802F047
:10E8800051F902E00D20FDF74DF910BD0C210020DB
:10E89000FC200020FD20002010B50A480078012847
:10E8A00004D0022808D0032809D102E002F0D8F8E9
:10E8B00006E0FFF72FFF03E002F028F900E000BFB9
:10E8C00000BF10BDFC20002070B50446204628DFA4
:10E8D0000546FFF7A9FF70BDF8B504460D4616467C
:10E8E00032462946204629DF0746FFF79DFFF8BD3F
:10E8F0000146002901D1032070470248406D08609D
:10E900000020F9E7182800203EB500BF68460078CF
:10E9100001090901491C009168460078F0218843EB
:10E920001030009000BF05221DA168467CDF044620
:10E9300000BF2546002D06D000BF1BA29821284607
:10E94000FDF774F800BF00BF002001900290502135
:10E9500068468180A021C18000210181FF21913181
:10E96000418101A87ADF044600BF2546002D06D06C
:10E9700000BF0DA2A6212846FDF758F800BF00BF32
:10E98000002078DF00BF2546002D06D000BF06A27C
:10E99000AA212846FDF74AF800BF00BF3EBD00008F
:10E9A00050656767790000002E2E5C2E2E5C2E2E9F
:10E9B0005C6D61696E2E630001460020704702465F
:10E9C000002070470246002070470000F8B5054659
:10E9D000002700200090002668782421484333490E
:10E9E00040184068002827D068780C2148433049F7
:10E9F0004018807A8021084080281DD168780C2139
:10EA000048432B494018807A40210840402813D0C1
:10EA10006878242148432549401807460837687814
:10EA20002421484321494018808880B200906878AA
:10EA3000242148431D490E5869780C2251431C4A31
:10EA40008918088933463946009AA9DF04460B2CF9
:10EA50000BD1012669780C225143154A891808897F
:10EA600033463946009AA9DF0446002C00D0114CE9
:10EA7000012E18D169780C2251430D4A8918088952
:10EA80000D4A0C21A7DF0446002C0CD00B48844211
:10EA900008D0082C06D0801C844203D0112C01D051
:10EAA000002400E0034C2046F8BD00003C26002076
:10EAB0006026002041800000FFFF000002300000BF
:10EAC00070B505460C466178242251430D4A8818DA
:10EAD00038232422294601F0F9F90646002E0FD1E9
:10EAE000607824214843074940184068401C0028AA
:10EAF00006D10021607824225043024A80184160E8
:10EB0000304670BD3C260020F3B589B00C46032783
:10EB10001A20089061780C2251432E4A89180889DE
:10EB20003B4608AA01A9AADF0646002E4FD161780C
:10EB300024225143284A89180846083069460A8C1D
:10EB400001A9FCF741FB002812D160780C21484351
:10EB500020494018807A02210840022837D0617885
:10EB6000242251431C4A88182421FCF722FB2EE062
:10EB7000607824214843184940184068002801D093
:10EB8000164D00E0164D60782421484312490F507D
:10EB90006946098C6078242250430F4A80184160EE
:10EBA0006178242251430C4A891808460830694686
:10EBB0000A8C01A9FCF7E4FA607824225043064A43
:10EBC0008118382324220998A847064600BF002050
:10EBD0000BB0F0BD602600203C260020150202008C
:10EBE000E900020070B505462846FFF7EFFE04462F
:10EBF000002C02D100BF00BF0446204670BD70B596
:10EC000005460E4631462846FFF75AFF0446002CBB
:10EC100002D100BF00BF0446204670BD70B5054656
:10EC20000E4631462846FFF76FFF0446002C02D1FE
:10EC300000BF00BF0446204670BD0000F8B5054681
:10EC40000F460120A840044618480068FDF728F840
:10EC50000646002E00D0F8BD154800682040002868
:10EC60001DD1284600F0AAFC002805D011480068F4
:10EC700020431049086004E00E480068A0430D4995
:10EC800008600B48006820430949086000220A48D0
:10EC9000016806480068FCF7D5FF064604E0044812
:10ECA0000068A0430249086000BFD4E78414020052
:10ECB0002C210020282100202421002010B51848F4
:10ECC000006808210840002826D100F049F90028F2
:10ECD0000CD0002013490860114800680121084346
:10ECE0000F490860002001F01DFF17E000F0E2F876
:10ECF000002806D000200B490860022001F012FF16
:10ED00000CE009480068002803D0032001F00AFF46
:10ED100004E001F0DBFE01E001F0E8FE10BD0000C0
:10ED2000182100200021002004210020F8B52948E6
:10ED30000078002800D1F8BD27480068002801D1DC
:10ED4000012000E00020054624480068002801D189
:10ED5000012000E00020064600BF002D14D16846C7
:10ED600052DF0446052C01D101250CE0002C06D011
:10ED700000BF1B4A93212046FCF758FE03E01649CA
:10ED800000980968884700BF002E1AD115480088EE
:10ED9000009069461448006861DF0446052C01D1E3
:10EDA00001260DE0002C06D000BF0D4AB2212046FE
:10EDB000FCF73CFE04E00C480068084909688847F5
:10EDC00000BF002D02D0002E00D000E0C5E700BF3C
:10EDD00000BFB0E760210020702100206C210020DE
:10EDE000D8140200682100206421002001464888D0
:10EDF000064A1288904206DB4888044A52889042AC
:10EE000001DC012070470020FCE70000C820002042
:10EE10000C48008CC0B2012812D10A48808C00072F
:10EE2000000F00280CD10748806AF02108404028D4
:10EE300006D10448C06A0840002801D1012070476B
:10EE40000020FCE7C00F00F01948008CC0B2012878
:10EE50002CD11748808C0007000F002826D11448B9
:10EE6000806AF0210840002806D11148C06A084095
:10EE7000002801D1012070470D48806AF021084028
:10EE8000102806D10A48C06A0840002801D1012094
:10EE9000F1E70748806AF0210840302806D104488D
:10EEA000C06A0840002801D10120E4E70020E2E721
:10EEB000C00F00F0F8B512480078142148431049FB
:10EEC000091D4518EF6800F0B7FF00906988C9195F
:10EED000AA888918481E0099FCF728F906460948AF
:10EEE0000068B04207D307480068B04205D1064821
:10EEF0000068002801D1012400E000242046F8BD6C
:10EF0000F426002008210020042100201348008C52
:10EF1000C0B201281FD11148808C0007000F0028C3
:10EF200019D10E48806AF0210840A02806D10B486C
:10EF3000C06A0840002801D1012070470748806A54
:10EF4000F0210840D02806D10448C06A08400028B3
:10EF500001D10120F1E70020EFE70000C00F00F031
:10EF6000F8B510480078142148430E49091D45188A
:10EF7000EE6800F061FF009069888919AA888918F5
:10EF8000481E0099FCF7D2F8074607480068002899
:10EF900005D006480068B84201D1012400E00024F1
:10EFA0002046F8BDF426002004210020082100207E
:10EFB00001468807800F002801D1012070470020FA
:10EFC000FCE730B504461088C01C984201D90C20DB
:10EFD00030BD0220158848551088401C10801C2028
:10EFE000158848551088401C1080012C06D0022C32
:10EFF00008D0032C0AD0042C10D10BE00020158877
:10F0000048550DE001201588485509E00220158873
:10F01000485505E003201588485501E00720D7E74B
:10F0200000BF1088401C10800020D1E710B50446B6
:10F0300005480078C007C00F002803D003480078B7
:10F04000FDF716FD10BD00008C200020842000205C
:10F05000F8B5214800680090204806782EE0F000BE
:10F060001F4909684418257824E01820684361681E
:10F070000F18681CC5B2A078A84200D100253878C6
:10F08000022802D0032812D103E0786801F046FE7E
:10F090000EE007E010490868002101740E4AC169BA
:10F0A000116000BF0C4800680028F3D100E000BFE9
:10F0B00000BF00BF6078A842D7D100BF3046711EA4
:10F0C000CEB20028CBD1044801680098814201D01B
:10F0D0000120F8BD0020FCE738210020302100206D
:10F0E00034210020FEB506463C48006801903C48AB
:10F0F0000078009063E00098C0003A49096845181C
:10F1000056E0002E02D03446E66924E02978182320
:10F1100059436A6850182978491C29702978AA78B7
:10F12000914201D10021297044680178012902D15E
:10F13000217C002900D03BE081686160C168A1604A
:10F140000169E1604169A16127490978002901D07D
:10F150000021616000BF254960680968401A00020B
:10F16000000A2349884208D220496068096801F0F2
:10F1700029FDA168401820600FE01C486168006804
:10F1800001F020FD0746A068B84203D9A068C01B63
:10F19000206001E00020206000BF00206060A060CF
:10F1A000012020740020E061204601F081FD00BFB5
:10F1B000002EA6D1287869788842A2D100BF009895
:10F1C000411EC9B20091002895D1044801680198F8
:10F1D000814201D00120FEBD0020FCE73821002043
:10F1E0003021002034210020512100203C2100202A
:10F1F000FFFF7F0008B501F065FE6846FDF722FFBE
:10F20000FDF7A0F968460078FEF79AFCFFF77CFB53
:10F21000FCF744FBFEF7CEF901F0EAF90320FCF716
:10F220008DFF044600BF2546002D07D000BF06A273
:10F23000852189002846FCF7F9FB00BF00BF00BF0D
:10F2400000F0D6FCFCE700002E2E5C2E2E5C2E2E4D
:10F250005C6D61696E2E630010B505480068082179
:10F260008843034908600348007801F001FA10BDA3
:10F2700018210020FC200020FFB581B005460E4675
:10F280001446A888871C2088801CC11904988142D4
:10F2900002D90C2005B0F0BDFE2F01D90C20F9E7F2
:10F2A000781C218870542088401C2080FF202188F1
:10F2B00070542088401C208022889119288801F0F1
:10F2C0004FFF218840182080A88800280EDDA868FC
:10F2D000002801D10720DDE7AA8823889819A968AA
:10F2E000FBF74EFF2088A988401820800020D1E736
:10F2F000FFB583B005460F4614462878012805D18E
:10F300006878002802D1072007B0F0BD2088801C53
:10F310000699884209D82878012808D12088801CBD
:10F32000697841180698814201D90C20ECE72188C0
:10F330000698401A801E86B201962188891CC81939
:10F3400001A97DDF029000BF0298002801D0029839
:10F35000DAE700BF2878022806D168468088B042E4
:10F3600002DC092000900BE008200090287801289A
:10F3700005D16878B04202DC6878019000E001961F
:10F3800068468088FE2801D90C20BDE76846808841
:10F39000401C218878542088401C208021880098B7
:10F3A00078542088401C208021886846808808186E
:10F3B00020800020A8E70146002070470246002078
:10F3C000704702460020704770B504460D46294636
:10F3D0002046FCF731F800BFE106C90E0120884045
:10F3E0000549086000BF00BFE106C90E0120884042
:10F3F0000249086000BF70BD80E200E000E100E06B
:10F40000FEB505460E46284600F0CEFB002820D06B
:10F410002846FDF7A7FE001F28490F5CBC11032CEE
:10F420000CD100BF264800690121A94008400028EE
:10F4300001D0032000E00220019005E0012C01D161
:10F44000022000E0032001902846019900F00BF90A
:10F4500032E0284600F0B4FB00282DD02846FDF706
:10F4600081FE0446A000FF30013080B201902046AA
:10F47000144951221201891882008958012211432E
:10F48000104A51231B01D2188300D15000BF0198AC
:10F4900000F012F9002E0ED02846FDF763FE009012
:10F4A000FDF71CFE0746002F04D00121A1400846AD
:10F4B00000F016F900BF00BFFEBD0000D0260020FE
:10F4C0000005005000600040F7B584B004460E46C9
:10F4D00000200390204600F059FB002802D00820AD
:10F4E000039060E0F27820460699FDF7FFFD05469F
:10F4F000681C002854D0B078002810D000BFA100AC
:10F500002A4A8918096802229143084605210907F9
:10F51000072212028918A200885000BF0BE07778FA
:10F52000002000903B46024601460190204600F034
:10F5300087F800BF00BFF078002826D037781C4835
:10F54000512109014018A90040581A49084018499A
:10F55000512212018918AA00885015485121090129
:10F560004018A900415820021F22120210403A04FC
:10F5700003231B041A40104301430D48512212017A
:10F580008018AA00815000BF0CE0281F0A49085CBF
:10F5900031788901084342B2281F07490A5401E023
:10F5A0000420039000BF039807B0F0BD000700508F
:10F5B00000600040FFE0FCFFD0260020014600BFB5
:10F5C00005480069C840C007C00F002801D00120CD
:10F5D00070470020FCE700000005005010B51248FD
:10F5E0000079002801D0082010BD002404E0204646
:10F5F00000F0F6FA601CC4B2202CF8DB002404E012
:10F600002046FDF75BFD601CC4B2082CF8DB03212B
:10F610000620FFF7D9FE0120C00700F061F80121A4
:10F62000014801710020DFE7D0260020034800795F
:10F63000002801D0012070470020FCE7D0260020E0
:10F64000F0B5059C55000D439E0035432602354319
:10F65000069E360435430526360707273F02F6196E
:10F660008700F551F0BD10B50522120707231B02D4
:10F67000D2188300D25803231B049A4305231B0787
:10F68000072424021B1984001A510522120707239C
:10F690001B02D2188300D2580B041A4305231B0700
:10F6A000072424021B1984001A5110BD0146014889
:10F6B000081870470060004010B504462046FFF768
:10F6C000F5FF0021016010BD10B504462046FFF78C
:10F6D000EDFF0068012800D110BD0020FCE700000C
:10F6E000014948607047000000630040014609225C
:10F6F000D2018A1810680922D2018A181060704756
:10F7000002465058002801D0012070470020FCE735
:10F710000022425070470322120282189160704703
:10F72000024603200002101840680840002801D05B
:10F73000012070470020FCE7012242507047000082
:10F7400070B50546002D13D0032D14D10220FDF70E
:10F7500013F9044600BF2646002E07D000BF07A2BB
:10F76000FF2108313046FCF761F900BF00BF03E01C
:10F7700000F046FF00E000BF00BF70BD2E2E5C2EE3
:10F780002E5C2E2E5C6D61696E2E630070B5054691
:10F790002888102802D011281AD114E00720FDF77C
:10F7A000EBF8044600BF2646002E07D000BF0AA291
:10F7B000FF211F313046FCF739F900BF00BFA88890
:10F7C0000949088005E00020C0430749088000E09F
:10F7D00000BF00BF70BD00002E2E5C2E2E5C2E2EB2
:10F7E0005C6D61696E2E63008220002070B5054655
:10F7F0002878002810D13B210848008876DF04468D
:10F8000000BF2646002E06D000BF05A2C02130460C
:10F81000FCF70CF900BF00BF70BD00008220002083
:10F820002E2E5C2E2E5C2E2E5C6D61696E2E63007A
:10F8300010B504460822A1180248FBF7A1FCFDF709
:10F84000EFFE10BDD420002010B50446A088094961
:10F8500008800822214618310748FBF791FC002058
:10F86000064908700648C089002801D1FDF7D8FE76
:10F8700010BD0000D2200020D4200020D020002085
:10F880000425002070B505460020C0430A490880C1
:10F8900000200A4908700A480068FCF701FA04468B
:10F8A000002C07D007488069002803D005488169EB
:10F8B0002046884770BD0000D2200020D0200020C4
:10F8C000241402000425002070B50546AC1D2088D4
:10F8D0001249C989884220D1608902281DD100BF00
:10F8E00000BF217B627B120211430846C107C90F8A
:10F8F000002902D0FDF794FE0FE009480068FCF7EC
:10F90000CFF90646002E07D004488069002803D0AE
:10F91000024881693046884700BF70BD0425002039
:10F920002414020070B594B00546504B0FCB0FACB9
:10F930000FC44F4810A988810E310FA863DF044619
:10F9400000BF2646002E06D000BF4AA24B213046FB
:10F95000FCF76CF800BF00BF1C2108A8FBF729FCCE
:10F9600008A8007802218843811C08A8017000784B
:10F9700008218843083008A908700020079000BFBC
:10F980006846007F01090901491C68460177007F2C
:10F99000F021884310306946087700BF00BF6846F1
:10F9A000407F01090901491C68464177407FF021E9
:10F9B000884310306946487700BF6846807F06213B
:10F9C0008843811C6846817707A80D9008A80078B5
:10F9D00010218843411808A801700020069068464D
:10F9E000807E06218843801C6946887600BF684671
:10F9F000007E01090901491C68460176007EF0215C
:10FA0000884310306946087600BF00BF6846407ED4
:10FA100001090901491C68464176407EF02188436E
:10FA200010306946487600BF142101A8FBF7C1FBDE
:10FA300013A8019006A802900421684601828181E2
:10FA4000059068882B1D01AA08A9A2DF044600BF03
:10FA50002646002E06D000BF06A277213046FBF7CF
:10FA6000E5FF00BF00BF002014B070BDC813020046
:10FA7000EFBE00002E2E5C2E2E5C2E2E5C70656775
:10FA800067795F736572766963652E6300000000B5
:10FA900070B586B00546164B0FCB01AC0FC41548A8
:10FAA00069468882163101A863DF044600BF2646F6
:10FAB000002E06D000BF10A289213046FBF7B6FF0A
:10FAC00000BF00BFAA1C05A90120A0DF044600BF9B
:10FAD0002646002E06D000BF07A28F213046FBF736
:10FAE000A5FF00BF00BF2846FFF71CFF06B070BD92
:10FAF000D8130200CDAB00002E2E5C2E2E5C2E2ED5
:10FB00005C70656767795F736572766963652E639C
:10FB1000000000000246002105E0505C002801D0F2
:10FB200001207047491C0629F7D30020F9E700009F
:10FB300010B504461C216143124A89180846113049
:10FB40000621FBF736FB1C2161430E4A8818102161
:10FB5000FBF72FFBFF211C2060430A4A8018017429
:10FB60001C206043801881760021C9431C2060431B
:10FB700080180183204601F001FB0020A100024A09
:10FB8000505010BD5C25002040250020014605484E
:10FB90004056C017401C002801D0012070470020AB
:10FBA000FCE70000B0260020014604484056042827
:10FBB00001DB012070470020FCE70000B026002098
:10FBC000014606484056002805DB044840560428F4
:10FBD00001DA012070470020FCE70000B026002079
:10FBE0000022D24301490A5470470000B026002089
:10FBF00070B548DF044600BF2546002D07D000BF82
:10FC000004A2FF21FE312846FBF710FF00BF00BF12
:10FC100070BD00002E2E5C2E2E5C2E2E5C6D616958
:10FC20006E2E6300014600BF0848006804221040A1
:10FC3000002801D10820704700BF002901D10E2003
:10FC4000F9E70348407808600020F4E71821002015
:10FC5000F42600203CB5034600BF25480068042474
:10FC60002040002801D108203CBD00BF002B01D15D
:10FC70000E20F9E7002A01D10E20F5E718680228C6
:10FC800006D20C24186860431A4C2058002801D171
:10FC90000720E9E75C68186801940090019C0C2536
:10FCA00018686843134D4019008948432018019093
:10FCB0000C24009860432C46001940890C25009CB8
:10FCC0006C430C4D6419248960430C25009C6C43E3
:10FCD000084D641964680019019CA04201D80720EE
:10FCE000C2E7019C0098546010600020BCE700004F
:10FCF00018210020C0270020FEB504460D4600BF95
:10FD00004148006804210840002801D10820FEBDB8
:10FD100000BF002C01D10E20F9E72068022806D28E
:10FD20000C212068484339490858002801D1072090
:10FD3000EDE70C21206848433449401840890C22E3
:10FD400021685143314A8918098948430C222168A6
:10FD500051432E4A8918496840186168884201D881
:10FD60000720D4E76068FFF723F9002801D11020AD
:10FD7000CDE70C2320685843244BC01862684068C4
:10FD8000101A00900C22206850431A4680180189EE
:10FD90000098FBF7CBF9002901D00720B7E70C2228
:10FDA00020685043194A801801892846FBF7D4F986
:10FDB000002901D1002D01D10720A8E70C212068DE
:10FDC00048431249401806890C22216851430F4AC2
:10FDD000891849894E43606847190C2120684843B7
:10FDE000114640184068801901900198874201D956
:10FDF00007208CE700202B46024621460090032076
:10FE0000FDF7A0FA83E7000018210020C02700209A
:10FE100070B508484469601C002807D000F00CF851
:10FE2000054629462046FBF781F970BD01200007F1
:10FE30004069FAE70010001001200007006980B255
:10FE40007047000010B5FDF7BFFA00201749088081
:10FE5000FFF7DEFFC41EFFF7EFFF444314480460C2
:10FE600000201449086000BF0DE000220C2141432E
:10FE7000114B5A500C214143C9180A810C214143AE
:10FE8000C9184A81401C0228EFD300200B49087092
:10FE90000B4908600B4908600B4908600948006875
:10FEA0000421084307490860002010BDF420002009
:10FEB000F820002008210020C0270020FC2000207E
:10FEC0000C2100201821002010210020FFB581B056
:10FED0000C4615461E4600BF3948006804210840FC
:10FEE000002802D1082005B0F0BD00BF002C01D1D0
:10FEF0000E20F8E70198002801D10E20F3E72068D2
:10FF0000022806D20C21206848432E4908580028B0
:10FF100001D10720E7E70C21206848432949401810
:10FF200040890C2221685143264A8918098948438F
:10FF30000C2221685143234A891849684018616896
:10FF4000884201D80720CEE7002D07D00C21206879
:10FF500048431C4940180089A84201DA0720C2E73B
:10FF6000A9190C2220685043164A80180089814242
:10FF700001DD0720B7E70198FFF71AF8002809D03C
:10FF80003046FFF715F8002804D06068FFF710F836
:10FF9000002801D11020A6E7606881192A4601983F
:10FFA000FBF7EEF800950C212068484305490F58EF
:10FFB000002202212046019BB847002093E7000061
:10FFC00018210020C0270020F8B504460D4600BFC8
:10FFD0004148006804210840002801D10820F8BDEC
:10FFE00000BF002C01D10E20F9E7002D01D10E2019
:10FFF000F5E72068002801D10E20F0E7FFF71CFF8D
:020000040002F8
:10000000A188884202DBA088102801DA0720E6E7F1
:10001000E08800280DD0FFF7FBFE471EFFF70CFF1E
:100020004743E088A18848432C4909684018874223
:1000300001D20720D3E720798007800F002801D064
:100040000720CCE726480088022801D10420C6E713
:10005000234800882860214800686860204800889C
:100060000C2250431F4A8018696841601C48008870
:100070000C2250431B4A21681150A188184800885F
:100080000C225043174A80180181E18814480088E7
:100090000C225043134A80184181FFF7CDFE009097
:1000A000FFF7CAFEA188E28851434018471E384630
:1000B0000099FBF751F80646FFF7BEFE704307496B
:1000C000096840180549086005480088401C044933
:1000D0000880002083E7000018210020F82000207D
:1000E000F4200020C0270020F8B504460E4615462F
:1000F0001F4600BF3248006804210840002801D193
:100100000820F8BD00BF002E01D10E20F9E7002C19
:1001100001D10E20F5E72068022806D20C212068C4
:10012000484328490858002801D10720E9E70C2155
:10013000206848432349401840890C2221685143D4
:10014000204A8918098948430C22216851431D4AD5
:100150008918496840186168884201D80720D0E7AB
:10016000002D07D00C21206848431649401800890B
:10017000A84201DA0720C4E7E9190C22206850439D
:10018000104A80180089814201DD0720B9E7304616
:10019000FEF70EFF002809D03846FEF709FF0028B9
:1001A00004D06068FEF704FF002801D11020A8E702
:1001B0002B463246214601200097FDF7C3F8A0E701
:1001C00018210020C027002010B504460F480078F1
:1001D000002819D00D480078042815D0022C02D030
:1001E000032C0FD102E0FEF757FB0CE00848006833
:1001F00008210840002802D1FEF72EFB01E0FEF79F
:100200004BFB00E000BF00BF10BD0000FC20002041
:1002100018210020F8B504460E4615461F4600BFBB
:100220003248006804210840002801D10820F8BDA8
:1002300000BF002E01D10E20F9E7002C01D10E20C5
:10024000F5E72068022806D20C2120684843284997
:100250000858002801D10720E9E70C21206848430D
:100260002349401840890C2221685143204A8918AB
:10027000098948430C22216851431D4A891849685D
:1002800040186168884201D80720D0E7002D07D0C8
:100290000C2120684843164940180089A84201DA19
:1002A0000720C4E7E9190C2220685043104A80183F
:1002B0000089814201DD0720B9E73046FEF778FE6C
:1002C000002809D03846FEF773FE002804D0606885
:1002D000FEF76EFE002801D11020A8E72B4632461B
:1002E000214604200097FDF72DF8A0E718210020F3
:1002F000C0270020014908607047000040150140F8
:1003000001484068704700000015014010B50446E0
:100310000348846003211120FBF7CAF810BD0000D8
:100320000015014010B5012000040A494860094940
:10033000403948601120FBF761F81120FBF768F89D
:100340000120054908602F20FAF7C4FE0120034967
:10035000087010BD401301400010014050210020E2
:1003600010B51120012181400E4A116000BF01200B
:1003700000040D4988600C494039886001200B4910
:1003800048602F20FAF7A6FE012008498860002067
:10039000074908602F20FAF79DFE002005490870E4
:1003A00010BD000080E100E040130140001001405A
:1003B0003C2100205021002010B51448C07D0028A9
:1003C0000BD1FF2109311248FFF7A2F900BF1048F5
:1003D000052109024018806910BDFF2109310C4830
:1003E000FFF796F900BF0A48052109024018806905
:1003F000C0B20649C968054A527E88540348407E07
:10040000401C0249487600BFE6E70000D8260020DD
:10041000002000407FB504460D4601206946087063
:10042000684604720195034801684268684690472F
:100430007FBD0000D826002008B501460448009082
:100440000098884201D0002008BD0020FCE7000091
:100450008020002010B501460846202809DA012234
:1004600082402B4B1A40002A01D0012202E00022D8
:1004700000E00122002A01D1264810BD08460028CC
:100480000CDA254B0407240F083CA408A4001B59D0
:100490008407E40EE3401B069B0F0BE01F4B032475
:1004A00024021B198408A4001B598407E40EE340AE
:1004B0001B069B0F1A46042A01D3002006E0002ADF
:1004C00001D0022A01D1002000E00120002802D141
:1004D0001048401CD1E71248406800280DD0480958
:1004E00080000F4A1058CB06DB0E01229A401043C1
:1004F0004A0992000A4B985008E000BFCA06D20E83
:1005000001209040054A106000BF00BF0020B4E702
:10051000FC06FFBC012000001CED00E000E100E053
:100520005421002030B504461088C01C984201D9DF
:100530000C2030BD0220158848551088401C1080C2
:100540001120158848551088401C108010880C54C4
:100550001088401C10800020EBE7FEB507460E46D1
:100560001446B86A002801D10720FEBD0020019082
:1005700037E0B96A0C22019850430D18A888801CF6
:1005800000900098FE2801D90C20EEE70098401C4E
:10059000218870542088401C2080162021887054A7
:1005A0002088401C208022889119288800F0D8FDDE
:1005B000218840182080A88800280EDDA86800281F
:1005C00001D10720D1E7AA8823889819A968FAF7EA
:1005D000D7FD2088A988401820800198401CC0B20F
:1005E00001902C20C15D01988142C2DC0020BCE753
:1005F00010B50248FFF74CFA10BD0000782100202A
:1006000070B50020FCF7B8F9044600BF2546002D60
:1006100006D000BF12A2ED212846FBF707FA00BF63
:1006200000BFFCF7A3F8044600BF2546002D06D006
:1006300000BF0BA2F1212846FBF7F8F900BF00BF6D
:100640003CDF044600BF2546002D06D000BF04A2B3
:10065000F5212846FBF7EAF900BF00BF70BD000096
:100660002E2E5C2E2E5C2E2E5C6D61696E2E63002C
:1006700010B504460248047000F00CF910BD0000EB
:10068000FC200020014600BF002901D10E20704748
:1006900000BF024801600020F9E700006C21002043
:1006A0007CB50446044800900098019001A92046BA
:1006B00060DF054628467CBD8020002070B50546D9
:1006C0000E46144614212046FAF773FD01202080BF
:1006D000002121610020207326726572607A002853
:1006E00001D00121A172002070BD70B504460D46F5
:1006F0001646324629462046FBF78AF970BD0000AF
:10070000FFB581B00C4616461F46002C02D10720CB
:1007100005B0F0BD20468107890F002901D10121D4
:1007200000E00021002901D10720F1E70A48046018
:100730000A4806800A4807600A49019810DF054602
:10074000002D01D02846E3E7012007490870162054
:10075000FFF780FEDCE70000642100206821002014
:100760005C210020EB06020060210020014600BF52
:10077000002901D10E20704700BF0248016000200F
:10078000F9E70000702100200146C878002801D058
:10079000072070470020FCE77CB5044601A9002033
:1007A000FCF760F8054600BF002D01D028467CBD4F
:1007B00000BF69460120FCF755F8054600BF002D33
:1007C00001D02846F3E700BF68460078002802D031
:1007D0000220207008E068460079002802D00B2033
:1007E000207001E0002020700020E0E710B50248F2
:1007F0000068FEF769F810BD08210020F8B521480F
:100800000068400840001F4908601F480078142114
:1008100048431D49091D4418E568FFF70DFB0146D3
:1008200000902846FAF782FC064618480660FFF753
:1008300003FB009061884919481E0099FAF776FC7D
:100840000746BE4206D10F480068022108430D4901
:10085000086005E00B4800680221884309490860E8
:100860000B480068002809D10648006802210840AA
:10087000002803D1022000F055F902E0002000F02A
:1008800051F9F8BD18210020F4260020082100208D
:100890000021002010B50D480078002806D001285E
:1008A00007D0022808D003280CD108E000F018F87F
:1008B00009E000F067F806E0FFF7A0FF03E0FFF7AC
:1008C00095FF00E000BF00BF10BD0000FC2000202D
:1008D00010B502480068FDF7F7FF10BD08210020A1
:1008E00010B500200349086003490860FCF702FDC9
:1008F00010BD00000C2100201021002070B5FFF772
:1009000087FA461EFFF798FA46433446FFF794FAF3
:1009100005490968491E48430546044821460268BE
:100920002846FDF7D9FF70BD0821002000210020D6
:10093000F8B512480078142148431049091D44189D
:10094000E568FFF779FA064661884919A288881890
:100950003146FAF7EBFB0091FFF75AFA471EFFF713
:100960006BFA474300983E1861884919A288881895
:1009700003490A683146FDF7AFFFF8BDF4260020B1
:100980000421002010B500F033F810BDF8B5FFF7D2
:1009900053FA0646FFF73CFA471EFFF74DFA474366
:1009A0003D4631462846FAF7C1FB0446FDF78CFF69
:1009B000F8BD0000F8B5FFF73FFA8408FFF73CFAEE
:1009C0000849096848430546FFF722FA471EFFF722
:1009D00033FA47433E46224629463046FDF77CFF20
:1009E000F8BD00000821002010B50446002010BD0D
:1009F00070B516480078142148431449091D44185D
:100A0000FFF71AFA6188884214DAFFF715FA61884D
:100A10000D1AFFF711FA8608A388E268D218501958
:100A2000226951193246FDF757FFFFF705FA0849C9
:100A300008600AE0A588E368581963889A08216964
:100A4000FDF74AFF60880249086070BDF426002067
:100A50001021002010B50120FFF70AFE10BD000094
:100A600010B50F48006808210840002814D10D482F
:100A70000078142148430B49091D441860880A492D
:100A80000988401A60806088002802D1FCF7ACFC1D
:100A900001E0FFF7ADFF01E0FEF7DEFB10BD000057
:100AA00018210020F42600201021002010B506484F
:100AB000006808210840002803D1012000F032F826
:100AC00001E000F013F810BD1821002010B5FCF76C
