:020000040001F9
:10B0000000350020F5B001000FB1010011B10100C1
:10B010000000000000000000000000000000000030
:10B0200000000000000000000000000013B101005B
:10B03000000000000000000015B1010017B1010080
:10B0400019B1010019B1010041B5010019B10100A8
:10B0500019B101000000000029B2010019B101007E
:10B0600019B1010019B1010019B1010019B10100B4
:10B0700019B1010019B1010019B1010019B10100A4
:10B0800019B10100C1B3010019B1010019B10100EA
:10B0900079B4010019B1010081B4010019B10100B6
:10B0A00019B1010019B1010000000000000000000A
:10B0B0000000000000000000000000000000000090
:10B0C0000348854600F09EF80048004791E10100E2
:10B0D00000350020401E00BF00BF00BF00BF00BF02
:10B0E00000BF00BF00BF00BF00BF00BF00BFF1D165
:10B0F000704700000321094802680A4302600848BB
:10B1000002680A4302600748804707480047FEE795
:10B11000FEE7FEE7FEE7FEE7FEE70000240500404D
:10B1200054050040A1B40100C1B0010030B50B4688
:10B13000014600202022012409E00D46D5409D4211
:10B1400005D31D469540491B254695404019154697
:10B15000521E002DF1DC30BD70B5002425460028BC
:10B1600001DA01244042002901DA01254942FFF7B2
:10B17000DDFFAC4200D04042002C00D0494270BDFF
:10B1800003460B439B0703D009E008C9121F08C000
:10B19000042AFAD203E00B780370401C491C521EAB
:10B1A000F9D27047D2B201E00270401C491EFBD2B6
:10B1B00070470022F6E710B513460A4604461946C2
:10B1C000FFF7F0FF204610BD421C0178401C00290B
:10B1D000FBD1801A704730B504460020034600E0DA
:10B1E0005B1C934203D2E05CCD5C401BF8D030BDC9
:10B1F00003460A780270401C491C002AF9D11846FF
:10B2000070470000064C0125064E05E0E36807CCB8
:10B210002B430C3C98471034B442F7D3FFF754FF4C
:10B22000F8F7010018F80100F0B50025FF248BB0F5
:10B23000013401262F460195204603F027FA002805
:10B2400008D047484068304204D0464800212018C2
:10B2500035430160241D76007F1CA4B2042FEBD37C
:10B26000FF207D3003F012FA002807D03E4800216D
:10B270000160400705433D48006901903C4C2807A8
:10B2800012D0012700262F420AD03A48B2001118E6
:10B2900008690969C004C00E8903A258890F904744
:10B2A0007F00761C042EEED3002D57DA0020059087
:10B2B000401E4DE0A119403108788506AD0E42B21E
:10B2C000521C39D00121A940089A0091114233D073
:10B2D00080090390284601F035FC80002058049036
:10B2E000002802D10398032826D103980099032847
:10B2F00002D10598084305901F4AA80080180068ED
:10B30000019A8003800F114202D0022802D013E07C
:10B31000032811D10399032907D102281CD0022147
:10B32000284603F0A3F97F1CFFB20498002803D03D
:10B33000049A284603999047761C042EBAD3002F0E
:10B340000CD00A4800690199884207D001900598FD
:10B3500000273E460890ADE70321E1E70BB0F0BDC2
:10B3600000630040006000407C6100400005005028
:10B37000C426002000650040000700508307FF221C
:10B38000DB0E9A408907090E994000280BDA000766
:10B39000000F0838830808489B001818C3699343B6
:10B3A0000B43C3617047830804489B001B1818684F
:10B3B000904308431860704700ED00E000E400E0AF
:10B3C00010B506490020086048608860C8600349DD
:10B3D00040390860486003F0C3FF10BD40110140D0
:10B3E00070B5074B0646187814460D46002801D163
:10B3F00000F0AAF822462946304600F003F870BD56
:10B40000882C002070B50E46182148431349144675
:10B410004518E86A1835002804D001280FD0022802
:10B4200005D113E0284600F0C5F8A04201D200245F
:10B4300011E022463146284600F0F7F80BE0284696
:10B4400000F0B8F8A042F4D20446F2E731462846AC
:10B4500000F0BBF80446204670BD0000882C002098
:10B4600070B505460C460846FFF7AEFE024621467B
:10B470002846FFF7B5FF70BD10B503F007FF10BDFC
:10B4800010B506484068002805D08047002801D044
:10B4900000F094FA10BD02F0E7FC10BD5C21002022
:10B4A00010B502F02BFD002805D01F491D4848604B
:10B4B000C8131E4988611E48018CC9B201290BD1ED
:10B4C000828C120708D1028D1206120F042A03D1B2
:10B4D000828D1206120F0AD0012921D1818C090711
:10B4E0001ED1018D0906090F0A2904D007E0114A6F
:10B4F00001219160F5E7828D1206120F05D00D290A
:10B500000ED1808D0006000F0AD10B480168012979
:10B5100004D00A49016001680129FCD1C0214161C0
:10B5200010BD0000DFFF07C000050040006C0040B8
:10B53000C00F00F00006004000EC064075930000CC
:10B5400010B503F073FF10BD10B5124C022020613E
:10B55000606111A0A0611348E061012080022062B7
:10B560000020A06260620CA1A1642146E062103953
:10B57000E16410212165A0656065E0650AA1E01D18
:10B58000FFF736FE09A12046FFF732FE2020A0710A
:10B5900010BD0000882C00205465726D696E616CCE
:10B5A00000000000782800205254540053454747BB
:10B5B000455200000269C1688A4203D88068401A77
:10B5C000801800E0501A401E7047F7B5064682B05A
:10B5D00000200090F46817463069A04201D9051B8D
:10B5E00002E0B168201A0D1AB0686D1E001BA84257
:10B5F00000D80546BD4200D33D4670682A46001972
:10B600000399FFF7BDFD00987F1B40190090039838
:10B61000641940190390B068A04200D10024F4607E
:10B62000002FD9D1009805B0F0BDF7B5C668174610
:10B6300004468068851B6068BD4206D9801901995F
:10B64000FFF79EFDF019E060FEBD2A4680190199C2
:10B65000FFF796FD01987E1B411932466068FFF79F
:10B660008FFDE660FEBD30B47446641E2578641C10
:10B67000AB4200D21D46635D5B00E31830BC184747
:10B6800002E008C8121F08C1002AFAD170477047AB
:10B69000002001E001C1121F002AFBD17047F7B55D
:10B6A00084B00025168807461580406B1446002894
:10B6B00013D003780598032E51D3022101702188FD
:10B6C0001122491C89B2218042542188491C89B227
:10B6D000218043542088401C2080386B00281DD0D6
:10B6E00005462088059902461232B24237D8112207
:10B6F0000A5420881022401C80B220800A542088DE
:10B70000401C20800F202A5C2388401ECA542288B7
:10B7100040B2521C22800028F5DA0025384620303D
:10B720000290807B002806D033462246059902F01D
:10B7300031FC050014D10298407B002806D0324627
:10B740002146059800F0F0FC050009D1B8780028E2
:10B7500023D0059886462088001DB04202D90C20CF
:10B7600007B0F0BD684679DF0028F9D121880320B1
:10B770007246505420881921401C80B220801154F8
:10B7800020887146401C80B220804118684600889D
:10B7900003F0E0FE218840182080F878002817D0B8
:10B7A000218803230A46FB56C91C0598B142D6D806
:10B7B0000221815421880122491C89B221804254EE
:10B7C0002188491C89B2218043542088401C208054
:10B7D0007868002817D021880023C3560A46C91C60
:10B7E0000598B142BBD80221815421880A22491C04
:10B7F00089B2218042542188491C89B22180435456
:10B800002088401C2080388900280AD000943846BF
:10B810000196062202210830059B03F01AFF05005D
:10B820009ED1388A00280AD0009438460196072213
:10B8300003211030059B03F00CFF050090D1388BDD
:10B8400000280AD000943846019615221421183099
:10B85000059B03F0FEFE050082D1386A002806D061
:10B8600033462246059901F099FB0500D8D1786A44
:10B87000002806D033462246059902F04DFD05000A
:10B88000CED10298007B002807D0334622463846A6
:10B89000059903F0FFFA0500C2D13878002807D0D7
:10B8A000334622463846059902F06AFD0500B7D1B5
:10B8B000284655E710B501220221002000F06EFF56
:10B8C000002801D0072812D107220221012000F010
:10B8D00065FF002801D0072809D100210A22084667
:10B8E00000F05CFF002801D0072800D1002010BD27
:10B8F000044842680121C9050B46934383600A400E
:10B90000C26070470005005070B50024064D06E087
:10B910006968E000085C012102F0B8FD641C287829
:10B920008442F5D3002070BD28210020F8B51546CB
:10B930000C460646052A01D20720F8BD02F07CFE1F
:10B94000002803D102F04EFE0028F6D11049002055
:10B950004E600C70C8608D6008610E4D0DE0E00017
:10B9600069688019009181786A46517000780A4AA6
:10B97000694602F0DBFD0028DFD12046641EE4B2F8
:10B980000028ECD1054A0021024800F04FF8F8BD2C
:10B9900028210020F0F70100A1DD010065D10100A0
:10B9A000BFF34F8F04490348C860BFF34F8F00BFF8
:10B9B000FDE700000400FA0500ED00E00EB50021EF
:10B9C000029000916A4601910148FFF7E9FF0EBD20
:10B9D00001400000014B1B6818470000A026002012
:10B9E00038B50C46A2680C235A43064B09789D587B
:10B9F000054A126A00920246204608302369A84789
:10BA000038BD0000F42700200421002010B50649AD
:10BA100014230A785A435118091DFFF7E1FF042047
:10BA200003F0AAFA10BD000028270020094B9B68EC
:10BA3000002B07D0002A07D0002805D00068037C1F
:10BA4000002B03D0082070470720704741744261E3
:10BA5000002070473C210020FFB59007002581B0F1
:10BA600014460E46002832D11B4F002C31D003F073
:10BA700077F90498786103203870334618212246FC
:10BA800000204B43BC601834C10089180D704D7004
:10BA90008E704C601C19401C0328F5DBFD607D7026
:10BAA00001240E48BD702405046003211420FFF713
:10BAB00065FC0B4804600B4C0198A0600321112029
:10BAC000FFF75CFC60683861002005B0F0BD07201E
:10BAD000FBE7BD60FBE700003C21002080E200E0C6
:10BAE00000E100E000150140FEB50D461B49174678
:10BAF0008968044600292AD0002C28D0052D01D2BF
:10BB00000720FEBD6069002821D0607C012820D07C
:10BB1000002603F061FDC0001049019089684018BB
:10BB2000694603F083FD002815D0012101700C49FE
:10BB3000446049680830E2C00849019889684118A2
:10BB400068460078487003F0E3FB0020FEBD082043
:10BB5000FEBD2E46DDE70420FEBD00003C21002096
:10BB600000150140F8B5134D0446A96800291CD002
:10BB7000002C1AD06069002817D00026267403F024
:10BB80002BFDC700A8686946381803F04FFD002850
:10BB90000DD0022101704460A86839186846007809
:10BBA000487003F0B5FB3046F8BD0820F8BD04200E
:10BBB000F8BD00003C210020F0B50C4693B01F21D9
:10BBC0006A461180072600279180002809D0C17895
:10BBD00049070DD502A9FFF762FD002809D102AD82
:10BBE00001E000251780002C0ED0E078002802D05C
:10BBF000304613B0F0BD01AA0AA92046FFF74FFD59
:10BC00000028F6D10AAA02E068460022878068462A
:10BC10008088C3B268460088C1B2284672DFE8E770
:10BC200070B50D4604991646040042D0002E40D04F
:10BC3000424800224271C3600161242231464048DB
:10BC4000FFF79EFA00F0D4F83D4934310846103829
:10BC500001602031816038215C38FFF7AAFA38484A
:10BC6000217838380170A1788170E178C1706178ED
:10BC700041706269216942610161E268A168C26044
:10BC800081600146E369A269CB618A61616A00292A
:10BC900019D00146AC310246B83241628A60636A0B
:10BCA0001B880B80616A436A898899800021436AF6
:10BCB00006E00E2070BD666AB668765C5654491C74
:10BCC0009E888E42F7D8A16A00291CD01C4AAC324B
:10BCD00011460C398A608162A36A9B888B80A16AB5
:10BCE000836A098819800021836A04E0A66AB6681D
:10BCF000765C5654491C9E888E42F7D82C210A5DEA
:10BD00000F4918390A73216A002909D00B491431E7
:10BD10000162226A52884A80216A026A0988118077
:10BD20006168002904D00549891D4160616841604E
:10BD3000034829463838FFF73FFF70BDB820002080
:10BD40006C24002010B502881C4C102A17D000214A
:10BD5000112A1AD01B2A11D1007A00280ED160793D
:10BD600001281ED0022822D0032822D0042805D181
:10BD70002171E2680846002A00D0904710BD817DFD
:10BD80000129FBD18088208110BD617080882189C4
:10BD90008842F9D1012005E021690029F4D08847C3
:10BDA00010BD022000F058F80028F5D110BD032086
:10BDB000F8E7032020710420F4E70000B8200020F9
:10BDC00010B5022801D003280ED1084C2078002895
:10BDD0000AD000202070607900F03EF8002803D0DF
:10BDE0002169002900D0884710BD0000B82000203C
:10BDF00010B507210148FFF7DCF910BDD020002065
:10BE000010B51348007801281FD1124C6078002823
:10BE10001BD16079002802D074DF002816D10120E0
:10BE20000B49607006203839C8700948002138383D
:10BE3000FFF7C2FE002809D1607900F00DF8002854
:10BE400003D02169002900D08847002010BD0000E0
:10BE50006C240020B8200020F0B5784C87B06071C9
:10BE6000002606A8069602F045FD0127082802D004
:10BE7000002808D104E006A801F0AEFE002804D195
:10BE80000698002801D02770D4E0FFF7B1FF6C4D71
:10BE90006878002802D06079012807D0A8780028A7
:10BEA0000CD06079012801D0022824D1E168002952
:10BEB00003D0E7700820884700E0E6706079012829
:10BEC00008D16878002809D05C48193002F0B4FC29
:10BED000002803D06079022802D00CE002206071B3
:10BEE000A878002805D05548193002F0A5FC002894
:10BEF00001D103206071287B002804D160790328D8
:10BF000001D104206071287E002804D160790428C2
:10BF100001D166712671E16800290AD06079032891
:10BF200001D0042805D12878002802D060780028A4
:10BF300017D0A67018216846FFF73BF968460670CF
:10BF4000019606720396607901280ED0022815D05A
:10BF50003B4E243637465C3F03281BD004285DD176
:10BF60003AE0A77007208847E4E73448183001908A
:10BF70006846077046820682277152E02F481830C3
:10BF800001906846077029894182A98801820220B0
:10BF9000207146E0A88A69464882288A0882284893
:10BFA000243003F0C5FB002805D02878002802D0F3
:10BFB0006078002801D003202FE002206946087233
:10BFC00004200396F8701E4800213838FFF7F4FD6E
:10BFD000002830D1052020E0A88B69460882288CF3
:10BFE00048821748243003F0A3FB002805D02878A6
:10BFF000002802D06078002801D004200DE0022043
:10C000006946087204200396F8700D4800213838FC
:10C01000FFF7D2FD00280ED106202071607900289C
:10C0200003D0684673DF002805D1E168002901D0FC
:10C0300020798847002007B0F0BD0000B82000201C
:10C040006C24002070B5054601461C220E48FFF7FF
:10C0500097F80E4C002626702968002906D0082281
:10C06000201DFFF78DF8201D7ADF02E00748001D34
:10C070007BDF002807D1401E60806670044A0021E3
:10C080000448FFF7D3FC70BD58250020D8200020BD
:10C0900075F5010090F70100F8B5214C02880027E2
:10C0A0001E4DE689102A15D01E49112A21D0122AC8
:10C0B0002DD0502A1CD1C288801DB24218D142898D
:10C0C000022A15D1427B037B10021843C007C00F20
:10C0D0000CD112E08188698001461048082218318D
:10C0E0000C30FFF74DF86F70002E01D100F09EFF6D
:10C0F000F8BD0020C04368806F700868FFF732FD0C
:10C100000028F5D0A1690029F2D08847F8BD08229F
:10C11000811802480C30FFF733F8E7E7D8200020F9
:10C120005825002090F701007CB5054608880C468C
:10C130000930904201D90C207CBD684671DF00288F
:10C14000FAD121880820685420881B21401C80B225
:10C1500020802954208800A9401C80B220804019EA
:10C1600006220131FFF70CF820886946801D80B255
:10C1700020800978002900D0012129542088401C02
:10C18000208000207CBD000070B5044601F018F945
:10C190002046FFF781FF204600F028FA2046FFF7EF
:10C1A000D1FD20880A4D102802D011280CD108E0BA
:10C1B000072000F017FB002801D0FFF7FFFBA08845
:10C1C00001E00020C0436880204600F0B9F970BD4E
:10C1D0008020002030B50A460446408F10498BB0BD
:10C1E00088421AD0002500950195029504A91046B1
:10C1F000039500F05DFE014668468184E188018078
:10C200000121817009A802906846858004A80390E6
:10C21000608F6946A6DF0BB030BD0820FBE7000049
:10C22000FFFF0000F0B5C7B004460868206000209A
:10C23000C043608777480E460FC825AD0FC532A9A9
:10C2400025A863DF00287DD130A8017A20A8817459
:10C25000292109020182221D24A90120A0DF002832
:10C2600070D1706831901C211DA8FEF7A2FF6A49A9
:10C2700010A8818620A8817C18A88175142710A891
:10C28000078733A931A800F013FE014610A84187A3
:10C2900033A81F9020A841781020014320A84170A6
:10C2A000012585710570A088A21D1DA900F052FC12
:10C2B000002847D13046083007C82EAB07C3707935
:10C2C000A0731C2116A8FEF774FF534910A8891CFF
:10C2D000018320A8817C10A88176878338A92EA8A5
:10C2E00002F0D6FA014610A8C18338A8189018A801
:10C2F0004179FD200140A07B2246C007800F014309
:10C3000018A8417105720571A088103216A900F0B5
:10C3100021FC00287BD11C210EA8FEF74AFF3E49D4
:10C320006846491C018720A8817C08A881761421D1
:10C33000684681870021C1873DA8109010A84179E7
:10C34000202000E063E0014310A84171857205716F
:10C350002246A08818320EA900F0FCFB002856D116
:10C36000717F10A801752746307F203738721C2155
:10C3700007A8FEF71EFF28496846091D818320A8EB
:10C38000817C68468177142101840021418442A880
:10C39000099008A8417AF7200140387A2246C00760
:10C3A000000F014308A8417245730572A0882A3224
:10C3B00007A900F0CFFB002829D1F18B10A88182BA
:10C3C000368CC6821C216846FEF7F3FE1249684689
:10C3D000491D018020A8817C6846817014218180DC
:10C3E00028A80671310A417102216846C18029A836
:10C3F00002906846417B08200143684641734574BA
:10C4000005732246A0883232694600F0A3FB47B08C
:10C41000F0BD000044F701000129000070B50A8852
:10C42000102A23D0112A23D0502A25D0512A1CD1DA
:10C4300005468C1D8879091D022816D1887A0428A2
:10C4400013D0062811D005280FD06088698D884246
:10C4500003D1A11C284602F09DF96088698E8842AC
:10C4600003D1A11C284602F095F970BD898801E02E
:10C470000021C943418770BD891DF4E700B51A4802
:10C4800087B00068059000234822184905A802F0EB
:10C49000C3FD002801D0FFF791FA6A460121002070
:10C4A00002F0A2FD002801D0FFF788FA104802F040
:10C4B000A3FC002801D0FFF781FA684602F08AFD4C
:10C4C000002801D0FFF77AFA0A4802F079FD002827
:10C4D00001D0FFF773FA084802F0B8FD002801D038
:10C4E000FFF76CFA07B000BD40F7010044230020BD
:10C4F000E81F002089C1010041F2010000B589B0A8
:10C5000024216846FEF755FE0B48009000206A463D
:10C5100010710121517102901073507304901075C5
:10C520000690117750779077108469460348FFF79B
:10C5300079FE09B000BD0000FDE601008C2300205B
:10C5400010B501460148FFF769FF10BD8C2300209C
:10C550001CB5044681786A460C4802F0DFF90028D1
:10C5600012D160781C21484309491C2340181A46FF
:10C57000694602F08DFA064806494C30807A800000
:10C580000A582146684690471CBD0000FC20002048
:10C5900054260020A8F701007CB5134E00250C4658
:10C5A0003060002918D06946002000F0B5F8002856
:10C5B00019D101A9012000F0AFF8002813D1684675
:10C5C00001790020002901D0022004E069460978A1
:10C5D000002900D00B2020707068002802D1FFF7DE
:10C5E00069F9054628467CBDB020002010B51C4CDA
:10C5F0000188606810290DD011290AD1401E6060A1
:10C6000007D1FFF757F9002803D02168002900D08F
:10C61000884710BD00281ED100210122084600F0E5
:10C62000BDF8002801D0072811D1072202210120DE
:10C6300000F0B4F8002801D0072808D10422022114
:10C64000002000F0ABF8002805D0072803D02168AF
:10C65000002900D088476068401C606010BD000061
:10C66000B020002010B5032000F016FA002801D0F9
:10C67000062800D1002010BDF8B507460024234845
:10C6800002E0641C042C1AD2A2008258BA42F8D1EB
:10C69000042C14D21D481E4E0C38002929D0012923
:10C6A0000ED002290BD16000201880194578002D8A
:10C6B00005D018480169002901D028468847F8BDEF
:10C6C00061006118755C8E19717800290CD01149D0
:10C6D0000A224968806851430E4A521CFFF704FA47
:10C6E000002801D10B4847700A48B1781430015531
:10C6F000DDE78068FFF736FA0648610061181430FC
:10C700008919005D8D78A842D1D0F8BD60F701008D
:10C71000082400209820002004280CD2074A12691F
:10C72000074B80001B5C01209840904300D0012003
:10C730000870002070470020FAE700000005005054
:10C7400060F7010010B5001F0300FEF78CFF0D0B12
:10C750000A0A150A0A080A0A1A1C1E200A0002F010
:10C76000F7FB10BD0C481321408876DF06E0002857
:10C77000F7D0FFF723F910BDFFF742FB0828F6D1E9
:10C7800010BD202004E0102002E0602000E05020D6
:10C7900002F06CFD10BD00008020002070B5002369
:10C7A000042811D2440004190D4D012A02D1012997
:10C7B0000DD0002246008019094E801900290CD0A6
:10C7C000012906D0022906D00723184670BD0D3076
:10C7D000C2B22A55F9E74270F7E78270F5E7000028
:10C7E0000824002010B5054A0146127A0020D2071D
:10C7F00002D0084600F054F810BD00009820002038
:10C8000070B50E46204905464E608D6000200A61D5
:10C81000A9071ED50024012211462046FFF7BEFFBE
:10C82000641C042C02D20028F5D012E0002810D19C
:10C83000720804211548FFF779F8002809D1FFF79D
:10C8400063F8002805D11148114A00211438FFF778
:10C85000EDF8E90706D00F220E4952058A60002341
:10C86000CB608A6100280DD108480B4A00211C3892
:10C87000FFF7DCF8002805D10448084A01211838E0
:10C88000FFF7D4F870BD00009820002070F7010079
:10C89000D5CA010000050050E9DF0100F1B8010030
:10C8A000FEB57A4D0722EB6892059A4302936B68B6
:10C8B00000939C0006461B190020012101934905A5
:10C8C0000746734C3300FEF7CEFE180D151537479B
:10C8D00055677C887F8891DE9E9E9E9E9EC8CED1A5
:10C8E000D8DEDE140F21029A49059143A160E7606A
:10C8F0002F70FEBDA260E76060680F2252055040B5
:10C90000800209D5A160E760022E02D1E120C000BB
:10C910000AE07D20400107E0E160A760022E01D11E
:10C92000C82001E0FF2091302E706421FEF7FEFB4D
:10C930000099414300223FE0A260E76060680F2257
:10C9400052055040800204D5A160E76019204001E3
:10C95000EAE7E160A760E3E7A260E76060680F22B2
:10C9600052055040800202D5A160E760D1E7E16046
:10C97000A760D7E7A260E76060680F2252055040C9
:10C98000800202D5A160E76001E0E160A7602E703F
:10C990000098410000220FE0A260E76060680F226B
:10C9A00052055040800202D5A160E76001E0E160DD
:10C9B000A7602E700099002236480068FFF794F8AF
:10C9C000FEBDA260E7601BE06168012080050246B1
:10C9D0008A43A2600140E16010E06068012189059E
:10C9E0000A468243A2600840E060E3E760680121F4
:10C9F00089050A468243A2600840E0600199C9E7C0
:10CA0000E160A7602DE023484068FFF7ABF81121F3
:10CA10008A1B01D0002807D00F22E9685205114077
:10CA2000A160E760EF60FEBD0121C905E960012A50
:10CA30000CD91046C82148436421FEF777FB69688A
:10CA40000022414313484068FFF74EF80F22E9687F
:10CA500052051140E160A760FEBD0F214905A160AC
:10CA6000E7602E70FEBD07229205AAE70D21490559
:10CA7000A160E76001218905C2E70321C905A16022
:10CA8000E7608910BCE70F214905B9E7982000202D
:10CA90000005005054F70100F0B500210B4C0C4D7F
:10CAA00003273F048A00A2589200561932680123D6
:10CAB0008B40034000D00323BA431B04134333606D
:10CAC000491C0429EED30020F0BD000060F70100EE
:10CAD0000007005010B500780221FFF7CDFD10BD12
:10CAE0000022D243830004490428CA5002D3081804
:10CAF0002030027770470000C4260020F0B50025E2
:10CB0000ED43002A02D00023042601E00423082676
:10CB10000B4C04E09F00E7597F1C04D05B1CB34220
:10CB2000F8D32846F0BD26185DB2203635709E0039
:10CB3000A151002AF5D1E11820310877F1E7000072
:10CB4000C42600200249091820200856704700001A
:10CB5000C4260020F7B58878012592B00C4600283D
:10CB600017D008A988772088694688870026079605
:10CB7000207C07A902F0D5F907A9607C013102F0F9
:10CB8000D0F9A07B00286846807F05D008210843A3
:10CB900004E008A88577E6E7F7210840694688772A
:10CBA000E17B002902D01021084301E0EF21084079
:10CBB00069468877217B002901D0284301E040089D
:10CBC000400069468877F927E17C3840002901D088
:10CBD000022100E0012149000843694688771C21B1
:10CBE0006846FEF7E6FA607BC10601D4800610D5E0
:10CBF0000E960EA9A07C013102F093F901200146A6
:10CC000008A810310176817E3940891C81760EA8F2
:10CC10000590617B68460170142109A8FEF7C9FAE6
:10CC20000FA8099007A80A90A18868460186A06805
:10CC3000002804D0E08869468885A0680D90606966
:10CC4000002844D00896018868460181606908AED2
:10CC5000418868464181606908A94068049601904E
:10CC60006069007B02F05DF96069711C407B02F035
:10CC700058F96069807A002808A8807802D00821D5
:10CC8000084301E0F721084008A988706169C97A62
:10CC9000002902D01021084301E0EF21084008A933
:10CCA00088706169097A002901D0284301E04008B1
:10CCB000400008A9887061693840897B002901D04B
:10CCC000022100E001214900084308A98870A069F9
:10CCD000002800D0039009AA6946149B1298A2DF8D
:10CCE00015B0F0BDF8B53E481422017851430C1838
:10CCF000E0680C2148433A492769CC31401805893E
:10CD000041890091241D466801F096FE014638468F
:10CD1000FEF70CFA002932D000200099A2884D437A
:10CD20006188AE198918CD1900222E4900280A61A0
:10CD300009D001F081FE6188884222D0B54202D13B
:10CD4000A08800281DD0A06802281AD001F074FE27
:10CD5000A188CA1901461046FEF7E8F9214C880857
:10CD6000E06001F069FE01462846FEF7DFF9002980
:10CD700011D00020B5422FD000280ED02CE0012089
:10CD8000CBE701F059FE01463846FEF7CFF91549C9
:10CD90004861032021E00120ECE7ADB2B7B201F019
:10CDA0004BFE01463846FEF7C1F9064601F044FE47
:10CDB00001462846FEF7BAF9864201D1781B09E000
:10CDC00001F03AFE064601F037FE01462846FEF71E
:10CDD000ADF9701A80082061022002F0CDF8F8BD8C
:10CDE000282700200421002010B5074814220178CC
:10CDF000514308180079042802D000F05DF810BDF6
:10CE0000012002F0B9F810BD2827002010B50B480A
:10CE10001422017851430818094AC1881162007927
:10CE2000012806D0032801D0042801D1FFF75AFFBA
:10CE300010BD012002F0A0F810BD0000282700203E
:10CE40000421002014225043054A0021801801715A
:10CE5000C18001220161C26041610181704700000F
:10CE600028270020F8B5104C069E65780A2D19D0A9
:10CE700027787D190A2D00D30A3D14277D432D19EB
:10CE800028716A6103C92961E860EB802E816078AE
:10CE9000401C607005480078002801D1FFF7B6FFFC
:10CEA0000020F8BD0420F8BD282700200421002020
:10CEB000007808700120704710B50D4C14212078BF
:10CEC000484301190020091DFEF78AFD2078FFF76D
:10CED000B9FF6078401E60702078401CC0B220709E
:10CEE0000A2801D100202070002002F045F810BD72
:10CEF00028270020F8B52348C16800293ED00E68D5
:10CF000021494C680769C078E11B0D022D0AED1C10
:10CF1000002814D101201D4A000450601B4A403AE9
:10CF200050601B49400008601A4908601A490120F6
:10CF300008602F20FEF7CEF812490120C870B542D4
:10CF400000D23546E81900020F4B000A4033186042
:10CF50000D4A5168001B091B0902090A0002000A58
:10CF6000C91C814209D9506818602F20FEF7B2F819
:10CF700001200749400480390860F8BD01F0F0FE47
:10CF8000F8BD00003C210020001501404013014085
:10CF900080E200E000E100E000100140F8B5064644
:10CFA000108814468446801D0D46984201D90C20F5
:10CFB000F8BD32880720062AFAD31927FF01184B3B
:10CFC000BA4201D99A42F3D171880629F0D3B94205
:10CFD00001D99942ECD19A4203D0994201D08A42B8
:10CFE000E6D805216046295420881221401C80B2D1
:10CFF000208029542088401C80B22080411930882C
:10D0000002F0A8FA2188401880B220804119708867
:10D0100002F0A0FA2188401820800020F8BD00000E
:10D02000FFFF000010B5FEF7C9FC10BDF8B51648AB
:10D0300000F056FF144D00260C3D144C002807D07C
:10D04000616900291CD001206A461070684616E00C
:10D050002878002805D06169002911D0684606703B
:10D060000DE0687800280DD0A1680948002200680A
:10D07000FEF73AFD002803D0A169002900D08847B7
:10D080002E70F8BD6168F0E7E420002058250020EC
:10D0900090F7010070B5094B04469E7A08200025E0
:10D0A0000E4207D00648844202D01889A04202D11D
:10D0B0000020156070BD052070BD00009426002082
:10D0C000FFFF00000C214843064910B5012240181B
:10D0D0008272911E0181FF21C1720721FEF769F85A
:10D0E00010BD00009426002010B5134C20790007D5
:10D0F0001FD46069401C6061E068002801D00420F2
:10D1000004E000F01FFF002803D0022002F08EF898
:10D1100010BD2069002809D06068C10701D0032034
:10D12000F4E70121084360600020EFE7FFF75CFEB1
:10D1300010BD02F06FF810BD0421002010B50848A2
:10D1400041680A0708D48A0702D5012211434160C9
:10D15000022002F06BF810BD02F05CF810BD000078
:10D1600004210020F8B500260124154D23E069684C
:10D17000F0004718387821462A698140114218D0BA
:10D180008A432A6101F024FA3A782146EB689140FB
:10D1900019400346934099420BD17978012901D077
:10D1A000012100E000217B684140002B01D01046A6
:10D1B0009847761CF6B228788642D8D3F8BD00008E
:10D1C00028210020FEB50E46044681786A46234891
:10D1D00001F0A4FB002826D160780C21204F4843A1
:10D1E000C019807A40061FD4022E1DD0012E1DD0FA
:10D1F0001C4DA0781C2148431B49002341181C22C8
:10D200006846A847002813D0022E0CD020780C21A5
:10D21000484313490C314018807A144980000A5859
:10D22000214668469047FEBD114DE2E7114DE0E70B
:10D23000022EF8D060780C214843C019817ABF22B1
:10D240001140817260781C214843054940394118DA
:10D250001C231A466846A847D8E70000FC20002097
:10D260009426002099F101009025002098F70100F4
:10D27000D1EC0100F5EB010070B50546114A1248EA
:10D2800000241C2363431B189B7EFF2B04D0641CCB
:10D29000072CF6D3104670BD0A78022A09D01C224A
:10D2A00062431018FD22827607221030FDF768FFD6
:10D2B00004E01C2161430818FE2181762C700022B5
:10D2C000E8E700004380000090250020F7B5052521
:10D2D0000F4F06460024002E0AD01C206043C019C0
:10D2E000072231461030FDF776FF002807D00AE00C
:10D2F0001C206043C019018B0298814203D1019820
:10D300000025046002E0641C072CE4D32846FEBD1F
:10D31000902500207CB5054681B26A46074801F099
:10D32000FDFA040008D17421684601F021FB0400D5
:10D3300002D1284601F08CFA20467CBDFC2000205A
:10D3400010B5100001D0FEF739FB002010BD000021
:10D350001FB56946087301F075FB002801D0FEF780
:10D360002DFB03A800F05EFA002801D0FEF726FB93
:10D3700001A805210130FDF71CFF6946497901200C
:10D3800001438122114030314A06520E69464A71EA
:10D3900007228A711022CA710749009169460871F3
:10D3A000064801F043FA6946044800F061FB002892
:10D3B00001D0FEF703FB1FBD41D3010080200020F8
:10D3C000F0B591B00546FF24002007940290EE4886
:10D3D000007800284BD0ED4F3868002847D001A8CE
:10D3E00000F012FA002801D0FEF7E8FA281D059097
:10D3F0002C2069460883FF20002688710E71039651
:10D40000E24C28880C3C10280ED0A88803AA0221E0
:10D41000FFF740FE002807D103980C21414309196A
:10D42000CA7A69468A7148712A881320192A7DD0E0
:10D430000FDC102A1DD0112A57D0132A77D0142AB6
:10D4400015D103980C2148430019C07AFF2877D0E2
:10D4500093E0CF491A2A6CD01E2A6ED0232A6AD0B4
:10D46000522A04D1B87A8000095801A8884711B01F
:10D47000F0BDC84F03AA01213846FFF70BFE002874
:10D48000F5D103990C20484302220019827211231E
:10D490006A4613745171A98801812946083107220F
:10D4A0000091FDF76DFEE87DC10707D04108B64841
:10D4B0000830405CFF2808D0079006E03A4607A9EC
:10D4C0000098FFF703FF00280ED103990C22514367
:10D4D00009190798C8728A7A08231A438A7269461A
:10D4E000887101A8FFF734F834E103980C21484310
:10D4F0000119887AFD2210408872010706D5C009FB
:10D500000DD0002101A8FFF75DFE08E06846807994
:10D51000FF2804D001F09CF9FF2069468871039828
:10D520000C22102150430019817205E07DE035E0A6
:10D5300006E0D6E001E021E112206946087409E125
:10D540002A8A07A90020FFF7C1FE00280ED10399FF
:10D550000C22514309190798C8728A7A08231A4382
:10D560008A726946887101A8FEF7F2FF03980C21C0
:10D5700048430019C07AFF2806D003981C2148436D
:10D5800082494C394018029003981C214843824933
:10D590004218A8880023029986DF68E76946087464
:10D5A00003980C2148430119887A04221043887299
:10D5B000CA7AFF2A0BD0402210438872162069468F
:10D5C00008740023A8881A4685217FDF21E007A878
:10D5D000FFF752FE00281FD0064600200D90039949
:10D5E0000C224A431219D27A1C235A436A4B0F90D9
:10D5F000D2180E921C2251431A46C4328918109038
:10D6000009910A900B900C903A1DA88809AB002153
:10D610007FDF0028C1D19DE0694607988871039992
:10D620000C2251430919C872D7E7787A0C214008B7
:10D630004000787203986F460246484301198446B9
:10D640008B7AFB2003408B7214203874287A0028D0
:10D6500006D058067ED4C87AFFF75CFE2E7A79E0B1
:10D66000687A400776D5B879FF2873D008273B43FE
:10D670008B726B7B9B0708D51C2503466B43464D7D
:10D680005B199D7E6D086D009D76CB7AFF2B61D076
:10D690006346E35C022B10D01C2250433E4D072210
:10D6A00040191030FDF76CFD684680791C21484315
:10D6B0004019817EFD2211400DE01C214A4333496F
:10D6C0004C3951184A8A1C21484333494018028377
:10D6D000817E490849008176012101A8FFF772FD8A
:10D6E00038E0287A0209012A23D10007000F012817
:10D6F0001FD103980C2242431219927A120718D5AF
:10D70000242148432149303940181A210830FDF7B7
:10D7100050FD16206946087403980C2148430119EE
:10D72000887A602210438872787A022108437872DE
:10D730000FE003980C2250430019827A80231A4389
:10D74000827215206A461074B87A8000095801A8C0
:10D7500088470026324604A901A8FEF73BF968462F
:10D76000007C122800D082E603980C21414309195D
:10D77000897A0129F7D0FFF7A5FC78E607A10020F8
:10D78000FDF76EFE73E60000EC200020A0260020CE
:10D79000B8F70100FFFF0000902500204C454433FE
:10D7A000205357495443480A0000000070B51249FD
:10D7B0000A781249002A1CD0002803D000780028DB
:10D7C00017D102E00D48801D70BD0D48006800288B
:10D7D0000FD000200B4D04461C2161434919897E5E
:10D7E000FF2902D02046FFF795FD641C072CF3D3D8
:10D7F00070BD084670BD0000EC20002008800000CD
:10D80000A026002090250020002806D0FF210170CE
:10D8100041708170C170002070470148704700005E
:10D820000E800000F0B585B0040036D029480025F0
:10D830000560457285722846FFF744FC254824217F
:10D840003038FDF7B6FC0026FF27304601F000F81F
:10D8500021488755761C072EF7D3742168468180AE
:10D860000721C1801D481C4900900831684601F01D
:10D8700063F900280FD1184E0120083E307020783F
:10D8800000280CD069468888C988484381B2304650
:10D89000103001F06DF805B0F0BD1148FBE7114FF5
:10D8A00000240D48A1B202AA083001F037F8002880
:10D8B00009D11C206043C01900231C2202A901F0D9
:10D8C000E7F8002801D03570E5E7641C072CE8D3A1
:10D8D000E1E70000A0260020F4200020E9D80100A4
:10D8E0000E80000090250020FFB55C4891B00068D4
:10D8F0001A9F1E46002873D0742F71D86846FFF710
:10D9000083FF002801D0FEF759F800246846047010
:10D910000471254605970696A9B20FAA504800F053
:10D92000FDFF002806D108220FA91198FDF753FC2E
:10D93000002817D06D1C072DEED368468578FF2D83
:10D940004ED01298032810D046481C21301AFDF7FB
:10D95000EDFB012707281ED204A802901398002887
:10D960000BD011E068468570E7E7742F03D04020A4
:10D97000694608716BE02020FAE738463849A8402C
:10D9800010394968084260D0284601F0E9FD20209E
:10D990006946087149E031481C214C38301AFDF7BE
:10D9A000C5FB00281DD02D4824213038301AFDF742
:10D9B000BDFB01002C482BD040216A4611712B4938
:10D9C0008E4244D0274AA9001C3A5158B1423CD15A
:10D9D00004A90291C07A854227D16846447024E0A8
:10D9E00033E004A802902020694608714C701B495E
:10D9F0000B940C310C9158390791694689781C2297
:10DA00005143184A05908918089107A906910CE01E
:10DA1000302269460A714C70CF70807A800704D436
:10DA2000114824212438FDF7C4FB129869460228C6
:10DA3000087910D0022108436946087104A80290B1
:10DA400001A96846139AFDF7C5FF15B0F0BD6946F8
:10DA500008790321EFE73843EFE70000A026002014
:10DA6000FC200020902500209426002094F701003F
:10DA700070B5064618480D46007800280ED01749A4
:10DA8000002E0ED0002D0CD02868002809D0144C90
:10DA90002168002907D011480A3870BD0F48801F3F
:10DAA00070BD084670BD20600522691D201DFDF770
:10DAB00067FB2879A072207A0221400840000843C1
:10DAC000FB2210402072E0790123184308431040E4
:10DAD000E0710020307070BDEC2000200E8000004E
:10DAE000A026002010B50E4900234A788C78A24267
:10DAF00012D0521CD2B24A70022A00D14B704A781E
:10DB0000074B920018339A580260086910180002F7
:10DB1000000A0861012010BD0360002010BD000054
:10DB20003C21002010B5002803D0112802D0FDF7B9
:10DB30006DFF10BD0248082241681143416010BDCD
:10DB40000421002010B51C4C217820464068012992
:10DB500006D0022929D0032912D1000717D513E0D6
:10DB6000000711D415481422017851430818C188C0
:10DB7000A28B891A0904090CC18002D001F00EFBA6
:10DB800010BDFFF799F910BD00F0BAFB10BD606938
:10DB9000401C606100F0D6F9002803D0207801F025
:10DBA000EBF910BDFFF720F910BD60780449800043
:10DBB0000858804710BD00000421002028270020BD
:10DBC000DCF7010010B528DFFFF7ACFF10BD10B582
:10DBD00029DFFFF7A7FF10BD002804D00349496DD6
:10DBE00001600020704703207047000020280020BB
:10DBF000002070470020704700207047F8B50646A7
:10DC00004078242104464C4324490C225043611897
:10DC1000224A00254B6824328018AE462F469C4687
:10DC2000002B0CD0827A1346D20908D05A0606D4AB
:10DC30000D461A4A614689B2175908358E46174C67
:10DC4000008924343B4672462946A9DF0B2819D0A7
:10DC5000002800D01248012F13D170780C214843BE
:10DC6000001900890F4AA7DF00280AD00E49884210
:10DC700012D0082810D0891C88420DD011280BD052
:10DC80000020F8BD70780C21484301230019008959
:10DC900072462946A9DFE0E70148F8BD702600205A
:10DCA00041800000FFFF00000230000070B50C460C
:10DCB000014660782422084D50434019382300F073
:10DCC000E7FE002807D161782422514349194A68A8
:10DCD000521C00D14A6070BD70260020F3B589B097
:10DCE0000D461A206946888368780C21032748432B
:10DCF000224E3B468019008907AA6946AADF002800
:10DD000038D1687824214843741A001969468A8BEF
:10DD10000830FDF760FA0028687807D024214843CE
:10DD20000119496800290DD0154E0CE00C21414322
:10DD30008919897A89071DD4242148430019FDF7E0
:10DD400038FA17E00F4E27506846828B68782421F6
:10DD50004843001942606878484300196946083012
:10DD6000FDF70EFA6878242148430119382324224C
:10DD70000998B04700200BB0F0BD000094260020A9
:10DD8000D1EC0100F5EB010010B5FFF737FF10BD36
:10DD900010B5FFF78BFF10BD10B5FFF79FFF10BD4B
:10DDA000F8B50746104E0125BD403068FDF7DAFE94
:10DDB00000280DD10D4C2069284207D1384600F0CB
:10DDC00007FC0028E06804D0284303E0A843206152
:10DDD000F8BDA843E0602069002228432061A168C3
:10DDE0003068FDF781FEF8BDF0F701002821002022
:10DDF00070B51B4C207900072ED41A4814220178E4
:10DE000051430D182E6900F017FE0146E8882A8953
:10DE1000761E80188019FDF789F9216900250029EF
:10DE200009D06169814206D1E5606068012108433B
:10DE3000606000200AE000F085F8002802D002208F
:10DE4000E56003E02069002803D0032001F0EEF92B
:10DE500070BDFEF7C9FF70BD01F0DCF970BD0000B8
:10DE60000421002028270020F8B51C4C2078002829
:10DE700033D02069002807D00026E068002805D0AC
:10DE80000025002E04D011E00126F6E70125F8E771
:10DE9000684652DF052804D0002804D0FDF78EFD27
:10DEA00004E0012602E0216900988847002D10D186
:10DEB000608869460880A06861DF052804D00028D2
:10DEC00004D0FDF77BFD04E0012502E0E168A068D5
:10DED0008847002EDCD0002DD3D0F8BD5C21002077
:10DEE000418805480288914204D34088814201D884
:10DEF0000120704700207047DC2000201048018C72
:10DF0000C9B2012917D1818C090714D1018D0906E5
:10DF10000A0F03D1828D1206120F0ED0090F0129AC
:10DF200003D1828D1206120F07D0032903D1808DF1
:10DF30000006000F01D0002070470120704700004C
:10DF4000C00F00F070B50E481422017851430C1830
:10DF5000256900F071FD0146E08822896D1E801858
:10DF60004019FDF7E3F807494A69824206D3824225
:10DF700002D10869002801D0002070BD012070BDC9
:10DF80002827002004210020800701D000207047AE
:10DF90000120704730B51588EC1C9C4201D90C203B
:10DFA00030BD02244C5513881C255B1C9BB213808A
:10DFB000CD5413885B1C9BB21380012807D0022824
:10DFC00007D0032807D0042807D0072030BD002041
:10DFD00004E0012002E0CC5401E00320C854108882
:10DFE000401C1080002030BD10B50448017AC907DC
:10DFF00002D00078FEF754FC10BD000098200020ED
:10E00000F8B52C49C8680A690C780F798968864682
:10E01000944600913EE00099E20055182A7836E0D7
:10E02000182353436968521CC918AB78D2B2934283
:10E0300000D100220B78022B02D0032B27D123E042
:10E040004E680346014603E0B14204D00B46C9695D
:10E0500000291CD0F8E7002919D08B4208D1C069EB
:10E06000002805D1144F0126BE600026B4460127C2
:10E070000E68C969D961002909D00B689B190B602A
:10E0800005E00174C06900E000210028F9D1697839
:10E090009142C5D12146641EE4B20029BBD1054995
:10E0A00062460A61C8600F71704501D00120F8BD59
:10E0B0000020F8BD3C21002000100140F8B50446C6
:10E0C00031480026C168009107784EE02E48F900DB
:10E0D00080680D1843E0002C02D02046E4691FE060
:10E0E0002878182141436A68401CC0B25118287032
:10E0F000AA78904200D12E700A784868012A30D15F
:10E10000027C002A2DD18A684260CA6882600A694E
:10E11000C260496981611C490979002900D04660C3
:10E12000194943680A699C46991A0902174B090A5A
:10E13000994202D28268891807E06146511A0902A1
:10E140008268090A8A4202D9511A016000E0066019
:10E150004660012186600174C66101F0E1F8002C7F
:10E16000B9D1287869788842BAD138467F1EFFB283
:10E170000028ABD10448C1680098814201D0012039
:10E18000F8BD0020F8BD00003C210020FFFF7F000B
:10E19000002398B04D4A05211846FDF75DFC002884
:10E1A00001D0FDF70BFC4A4A4A490320FEF728FB41
:10E1B000002801D0FDF702FC69460020FEF7ECF9CB
:10E1C000002801D0FDF7FAFB68460078022874D0D9
:10E1D000002168460171FEF751F968460079FFF7A2
:10E1E000B7F80120014610316846017305223AA1B3
:10E1F00003A87CDF002801D0FDF7E0FB0024009499
:10E200005021684601940180A0214180FF21848033
:10E210009131C1807ADF002801D0FDF7CFFB382192
:10E2200001A8FCF7C6FF022168460171012585712E
:10E230000621C17185822A48069024210FA8FCF787
:10E24000B8FF10A80572FF202D301390B420009461
:10E250001490244B0FAA002101A8FDF7E1FC00282F
:10E2600001D0FDF7ABFBFEF749F9002801D0FDF71F
:10E27000A5FB1C216846FCF79CFF0520C00301900C
:10E280000F20000402900094032168460173C481AA
:10E29000047415480590154806906846FDF7D2FEAF
:10E2A000002801D0FDF78AFB11A10020FDF7D8F866
:10E2B0000320FDF7D1FD03E0FFE7012189E748DFF7
:10E2C0000028FCD0FDF77AFBF9E700007C21002054
:10E2D00045C70100CD0C000050656767790000005C
:10E2E00084200020BBE60100DDE6010025D001000E
:10E2F00048656C6C6F20576F726C64210A000000D7
:10E3000010B504480822416891434160007800F04C
:10E3100033FE10BD0421002070B5144682880E46DD
:10E3200005462088111D4118921C994201D8FE2AE9
:10E3300001D90C2070BD521C32542088FF21401C92
:10E3400080B2208031542088401C80B22080811906
:10E35000288801F0FFF82188401880B22080AA8820
:10E36000002A09D0A968002908D08019FCF708FF05
:10E370002088A98840182080002070BD072070BD2B
:10E38000F8B50F46017814460546012902D1687890
:10E39000002806D02088821C9A422DD8012902D05C
:10E3A00006E00720F8BD69784118891C994223D8F6
:10E3B000181A801E86B2684606802188B81C081884
:10E3C00069467DDF0028EDD12878022805D169460D
:10E3D0000988B14201D809210AE00821012805D1A4
:10E3E0006878B04202D86A46108001E0684606802C
:10E3F00068460088FE2801D90C20F8BD2288401C00
:10E40000B8542088401C80B2208039542088694646
:10E41000401C20800988401820800020F8BD002082
:10E420007047002070470020704700008207D30E1D
:10E43000FF229A408907090E10B5994000280BDA8F
:10E4400003071B0F083B9C080C4BA400E318DC6976
:10E4500094430C43DC6107E08408094BA400E418F2
:10E46000236893430B432360C106C90E01208840F3
:10E47000044908600449086010BD000000ED00E098
:10E4800000E400E080E200E000E100E0F3B581B0EC
:10E490000F46019800F016FA012400281E4E01983C
:10E4A00017D0FEF74FFB80192030007F800903282A
:10E4B00002D0012806D007E01848006901998C4075
:10E4C000204201D1022100E00321019800F0CEF8A2
:10E4D000FEBD00F003FA0028FAD00198FEF732FBE7
:10E4E00005468100C81D0E4AF93089180A6980B2B4
:10E4F00022430A610B49401800210160002FE7D038
:10E500000198FEF71FFB800030580028E0D0064835
:10E51000AC404460FEBD0000C42600200005005051
:10E52000006500400060004000630040FEB5044606
:10E5300023480E460019202141560027C8171346CC
:10E54000401C01D0082738E0F27819462046FEF733
:10E55000D5FA0546401C2FD0B078002807D01948BE
:10E56000A1000918086802229043086007E0002112
:10E570007378204600910A46019100F065F8F07822
:10E58000002810D01048AA001018317802690F4BEB
:10E590001A400261E206D20C8907890B0A4301691D
:10E5A0000A43026109E00648327840192030017FB1
:10E5B00092011143017700E004273846FEBD0000B8
:10E5C000C42600200007005000650040FFE0FCFF6B
:10E5D00003490969C140C807C00F00D00120704736
:10E5E0000005005070B5124D2879002801D0082090
:10E5F00070BD0F4900204039421E0B182033401CCB
:10E60000C0B21A702028F8D300242046FEF768FA1A
:10E61000641CE4B2082CF8D303210620FFF706FFA0
:10E6200001200449C007486001202871002070BD06
:10E63000042700200063004002480079002800D031
:10E64000012070470427002030B552000A4399008A
:10E65000039C0A432102049D0A4329040A430249F8
:10E6600080004018026030BD00070050820006485C
:10E670001018026803231B049A430260026809040D
:10E680000A43026070470000000700500349401829
:10E690000068012800D000207047000000600040A2
:10E6A0004058002800D00120704703221202801831
:10E6B0004068084000D00120704710B5002809D0FC
:10E6C000032806D10220FEF78DF8002801D0FDF7BF
:10E6D00075F910BD00F03CFC10BD000010B50078CD
:10E6E000002807D104483B21408876DF002801D06C
:10E6F000FDF764F910BD000080200020F8B508780F
:10E7000000261A4C01271A4D0300FCF7ACFF100934
:10E710000D0D0D0D0D0D0D0D0D0D0D0E0D0D1E0D17
:10E7200014A10020FCF79CFEF8BD01202968C0055B
:10E73000002903D0A060E6602E60F8BDE060A6600E
:10E740002F60A868FFF732F8F8BD0EA10020FCF793
:10E7500087FE012069680006002903D0A060E660FA
:10E760006E60F8BDE060A6606F60F8BD0005005007
:10E770008820002048656C6C6F20576F726C642194
:10E780000A0000004C454433205357495443480A7B
:10E79000000000007CB50D4604460988428902202D
:10E7A00091420DD1216800290AD069460870687B22
:10E7B000297B00020843694648802268204690472A
:10E7C0002888A18B88420ED1206800280BD0072012
:10E7D00069460870687B297B0002084369464880C7
:10E7E0002268204690472888618D884208D1206899
:10E7F000002805D00C206946087022682046904702
:10E800002888618E88420FD1206800280CD00F2103
:10E8100068460170687B2A7B01021143684681804B
:10E8200022686946204690477CBD0000014AD160BD
:10E8300090607047882000200021425C002A01D0AF
:10E8400001207047491C0629F7D3002070470000BB
:10E8500070B505461C200D49684344182046113008
:10E860000621FCF7A6FC20461021FCF7A2FCFF21A4
:10E8700021740020A176C0432083284600F070FE5A
:10E88000024A0020A9001C3A505070BD902500207B
:10E8900002780A7042784A7082788A70C278CA70A8
:10E8A00002790A7142794A71027A8A710289120ADE
:10E8B000CA718268120C0A728068000E48720A20BF
:10E8C000704700000449081820214156042901DB43
:10E8D0000120704700207047C42600200449081812
:10E8E00020214156042901D20120704700207047A1
:10E8F000C426002007490979490701D40820704738
:10E90000002804D0044949780160002070470E2097
:10E9100070470000042100202827002030B5124B4A
:10E920001B795B0701D4082030BD002805D0002AE0
:10E9300003D00468002C10D101E00E2030BD0B4B39
:10E940001D68002D09D045681889414369185D8903
:10E95000454358682818884201D8072030BD146004
:10E960000020516030BD000004210020F427002069
:10E97000FEB5054625480E460079400701D408201B
:10E98000FEBD002D03D02868002834D101E00E2000
:10E99000FEBD1F4C216800292DD060892189484384
:10E9A000616841186868814225D9FFF7EDFA0028AF
:10E9B0000FD06868019029680C2251430F197968BB
:10E9C0000091401A39890C46FCF7B0FB002912D19E
:10E9D00001E01020FEBD21463046FCF7A7FB0029D0
:10E9E00009D1002E07D078894443019881190098F5
:10E9F0000019814201D90720FEBD00200246009087
:10EA0000334629460320FEF72DFAFEBD04210020DF
:10EA1000F427002010B507484469601C06D000F0B8
:10EA20000BF801462046FCF781FB10BD01200007D2
:10EA3000406910BD0010001001200007006980B27D
:10EA40007047000070B500240F48254604704470DC
:10EA50002846FEF7F7F96D1C0A2DF9D30B4D6C8093
:10EA6000FFF7D8FF861EFFF7E7FF46430648AE6074
:10EA7000CC306C610460048144812C70AC61042052
:10EA8000EC616860002070BD282700200421002070
:10EA9000FFB5274881B000791F4616460D4640074E
:10EAA00002D4082005B0F0BD002D06D00198002842
:10EAB00003D02868002815D101E00E20F2E71D4C94
:10EAC000206800280ED06189208962684143891836
:10EAD0006A68914206D9002E04D0B04202D3F119DF
:10EAE000814201D90720DDE70198FFF74DFA0028A0
:10EAF0001BD03846FFF748FA002816D06868FFF7A1
:10EB000043FA002811D068683246C1190198FCF711
:10EB100037FB009628680C21484324580022022124
:10EB20002846019BA0470020BCE71020BAE7000060
:10EB300004210020F4270020F8B52C4D0446287944
:10EB40000E46400701D40820F8BD002C20D0002E2E
:10EB50001ED0206800281BD0FFF76EFF0146A0885A
:10EB6000814213D3102811D3E08800280ED0FFF77C
:10EB700051FF471EFFF760FF4743E288A188A8685E
:10EB80004A431218974201D3890703D00720F8BDE2
:10EB90000E20F8BD6988012926D031600C22144B63
:10EBA00051437060CA18506020685850A088108186
:10EBB000E0885081FFF740FF0646FFF73DFFA18840
:10EBC000E288401E514340183146FCF7C5FA04461E
:10EBD000FFF732FF0146A86861430818A8606888FB
:10EBE000401C68800020F8BD0420F8BD04210020EE
:10EBF000F4270020F8B5044620481E460079154643
:10EC00000F46400701D40820F8BD002F05D0002C86
:10EC100003D02068002815D101E00E20F8BD184867
:10EC2000016800290ED04289018940684A431018C2
:10EC30006268904206D9002D04D0A94202D3A819D7
:10EC4000884201D90720F8BD3846FFF79DF9002812
:10EC500011D03046FFF798F900280CD06068FFF714
:10EC600093F9002807D02B463A462146012000960A
:10EC7000FEF7F8F8F8BD1020F8BD000004210020D0
:10EC8000F427002010B5114902460878002811D059
:10EC900004280FD0022A16D0032A0BD10A791207B2
:10ECA00011D48A69521C8A61032A08D0022802D032
:10ECB00000F062F910BD487800F0B8FA10BD0D20E0
:10ECC000FCF7A4FE10BDFEF73DFF10BD042100209F
:10ECD000F8B5044620481E46007915460F46400701
:10ECE00001D40820F8BD002F05D0002C03D02068E7
:10ECF000002815D101E00E20F8BD18480168002950
:10ED00000ED04289018940684A43101862689042D7
:10ED100006D9002D04D0A94202D3A819884201D9EE
:10ED20000720F8BD3846FFF72FF9002811D03046EC
:10ED3000FFF72AF900280CD06068FFF725F90028B2
:10ED400007D02B463A46214604200096FEF78AF863
:10ED5000F8BD1020F8BD000004210020F427002099
:10ED600070B501240B49600408600B4940108860AD
:10ED7000094940398860094D6C602F20FCF7AAF9D9
:10ED8000AC60074D00242F202C61FCF7A3F9EC7038
:10ED900070BD000080E100E0401301400010014020
:10EDA0003C21002030B50A48FF21C57D0022094CD6
:10EDB0000931094B002D625007D09969437EC26822
:10EDC000D154417E491C417630BD986930BD000068
:10EDD0000C27002000200040002500401FB5012323
:10EDE0006A46137010720348019106C8684690473E
:10EDF0001FBD00000C27002008B50249002000912B
:10EE000008BD00008020002010B50121202805DA6F
:10EE10001A4A8140114201D1194810BD8107C90E1B
:10EE2000002808DA0207120F083A9208154B9200E0
:10EE3000D218D26904E08208134B9200D2181268EB
:10EE4000CA401106890F042911D200290FD00229C6
:10EE50000DD00E494C68C306DB0E01229A40002CEF
:10EE600008D0400980000B5813430B5004E00448BD
:10EE7000401C10BD06480260002010BDFC06FFBC0F
:10EE80000120000000ED00E000E400E0702100201F
:10EE900000E100E0FFB50746806A81B01446002813
:10EEA0003DD0002538462030009033E00C20B96A70
:10EEB00068430E18B088801CFE2802D90C2005B0CB
:10EEC000F0BD22880299401C885420881622401CDC
:10EED00080B2208002990A542088401C80B2208091
:10EEE00002994118308800F035FB2188401880B223
:10EEF0002080B288002A0AD0B16800290FD0029B76
:10EF0000C018FCF73DF92088B188401820806D1C9E
:10EF10000098EDB2007BA842C8D80020CFE70720B8
:10EF2000CDE700B500220A700300FCF79CFB060445
:10EF300006080A0C0E10002008E0112006E021202F
:10EF400004E0312002E0122000E02220087000BD21
:10EF500010B50020FDF746FC002801D0FCF72EFD7F
:10EF6000FDF780FB002801D0FCF728FD3CDF0028DE
:10EF700001D0FCF723FD10BD10B50F490028087023
:10EF800009D0012811D0022812D0032802D14869E3
:10EF9000FEF718FE10BD00208861C8610748407860
:10EFA0000028F7D0FDF732FF10BD00F0F7F810BDD4
:10EFB00000F056F810BD0000042100202827002092
:10EFC000002803D00249C860002070470E20704717
:10EFD0005C2100201CB5034901910091694660DF66
:10EFE0001CBD00008020002070B50E46054614466A
:10EFF00014211046FCF7DDF801200021208021615A
:10F00000217326726572002D00D0A072002070BDA1
:10F0100010B5FCF7C5FC10BD70B5002901D08C07F8
:10F0200001D0072070BD074C0125A1606280064910
:10F03000636010DF0028F5D125701620FFF7E4FE8D
:10F0400070BD00005C21002011F00100002803D0F9
:10F0500002490861002070470E2070475C210020A3
:10F06000F8B5164C142260684008400060601448EF
:10F07000017851430E183769FFF7DEFC0146384628
:10F08000FCF754F805466061FFF7D6FC0146F088AE
:10F090007F1EC019FCF74AF802228542606801D140
:10F0A000104300E090436060E1681040084303D0E3
:10F0B000002000F0BBF8F8BD0220FAE70421002090
:10F0C0002827002010B502484069FEF77BFD10BDDF
:10F0D0000421002010B5FFF79DFC441EFFF7ACFC97
:10F0E0004443FFF7A9FC04494A69521E5043CA68C9
:10F0F0002146FEF76CFD10BD04210020F8B5104834
:10F100001422017851430C182569FFF795FC01463C
:10F11000E088228980184019FCF708F80F46FFF7AD
:10F1200079FC461EFFF788FC4643E0882289F119E6
:10F130008018044A40191269FEF749FDF8BD000025
:10F14000282700200421002070B5FFF775FC054634
:10F15000FFF760FC441EFFF76FFC60432946FBF796
:10F16000E5FFFEF72FFD70BD70B5FFF765FC860863
:10F17000FFF762FC0749496948430446FFF74AFC28
:10F18000451EFFF759FC684332462146FEF71FFD36
:10F1900070BD0000042100200020704770B51448A5
:10F1A0001422017851430C18241DFFF745FC618897
:10F1B000104E884211D2FFF73FFC61880D1AFFF70D
:10F1C0003BFC8208A188E068401821694019491970
:10F1D000FEF7FDFCFFF730FC07E0A288E06880182E
:10F1E0008A082169FEF7F3FC6088F06170BD0000B9
:10F1F000282700200421002010B5054800790007C9
:10F2000003D4012000F012F810BD00F003F810BD87
:10F210000421002010B50448082241689143416050
:10F22000407800F003F810BD042100200249487026
:10F23000024980000858004704210020C8F7010057
:10F2400010B50446FFF71EFD2046FCF7B9FD10BDC2
:10F2500010B505480079000702D4FDF7C5FD10BDC3
:10F26000FFF7D8FF10BD00000421002008B50549B4
:10F27000054A498F914204D0694608700148FCF75D
:10F28000A9FF08BD8C230020FFFF0000FEB51F4C26
:10F2900000252769E06802906846FEF723FC01908C
:10F2A000FEF7AEFE06460198002822D00023009803
:10F2B000E16817E00E680A46864202D9301A0860F3
:10F2C00012E0801BF31800261660D668D169B44698
:10F2D000002E07D0FE183602360A56606646966043
:10F2E000D56115460029E5D12846E160FEF7E6FE26
:10F2F00006E02846FEF7E2FE002801D1002E02D0EB
:10F300000298FDF7F7FD00202071FEBD3C21002092
:10F3100001200249000508607047000000E200E09B
:10F3200010B50E4BD968002906D002680C68A242BD
:10F3300004D8A21A0A60C161D86010BD0B4604E06F
:10F340000B46C969121B002904D00C689442F7D3FC
:10F35000A41A0C600260C161D86110BD3C2100207C
:10F36000F8B51D4DEC68002C34D01C4800274068CF
:10F370002969401A0602360A2068B04218D8361A9F
:10F38000C7192246107CE46900280FD000201074B1
:10F390006B69002B07D0916950699847002805D008
:10F3A000FCF70CFB02E0516990698847002CE3D11F
:10F3B0006978A878814206D1401CC0B2A8700228A2
:10F3C00001D10020A87004490006800D18310F50AB
:10F3D000FFF79EFFF8BD00003C2100200015014012
:10F3E000FF2107481D31002242500648828A816869
:10F3F000895C828A521C82820348C1617047000086
:10F40000002000400C270020002500401FB50021EF
:10F410006A4611701072044882680192817506C8AC
:10F42000684690471FBD00000C270020F0B5454DF1
:10F43000012185B049022846FFF737F90127002648
:10F44000414C002824D0FF2125312846FFF728F918
:10F4500000281DD0FF2025302E5081203B49800000
:10F460008860A07E002800D16F600221684601708C
:10F470003749086808600390E17D68460172E068DA
:10F480000190E675267606CC6846083C90472BE04E
:10F4900004212846FFF709F9002825D0FF2109316A
:10F4A0002846FFF7FDF800281ED0FFF77BFCE07D23
:10F4B000617E884218D1207E002808D0627EE168F3
:10F4C000E0752069E0602676667610460AE0A07E48
:10F4D000002800D16F6081201C4980008860E6759B
:10F4E000607EE168FFF77AFCFF211D312846FFF7B7
:10F4F000D7F800280DD0A18AA07D814202D2FFF763
:10F500006FFF06E0FF211D316E50002801D0FFF78C
:10F510007DFFFF2145312846FFF7C2F800280ED0B5
:10F52000FF2045302E50A07E002800D02F60E07DC7
:10F53000002804D0E675607EE168FFF74FFC05B057
:10F54000F0BD0000002000400C27002000230040F8
:10F55000802400400870000A4870022070470000B4
:10F5600001218140024842688A434260704700009E
:10F57000EC20002038B51549154A488890420FD034
:10F580004A78144C521CD2B24A70237B934208D35F
:10F59000091D75DF002803D0A169002900D0884724
:10F5A00038BD00254D70217C002907D03B2176DF36
:10F5B000002803D0A169002900D08847616900298B
:10F5C000EED068460570884738BD0000D82000207E
:10F5D000FFFF000058250020EFF30580C005C00D97
:10F5E0001AD0103840B2002808DA0107090F08398C
:10F5F00089080C4A89008918C96904E081080A4A07
:10F600008900891809688007C00EC1400806800F6C
:10F61000012803D0032803D0022070470020704740
:10F620000120704700ED00E000E400E042788378BC
:10F63000521CD2B2934200D100220378934201D1EE
:10F64000002070470A70416840781822504308181B
:10F650007047FFB583B016460C9D0D9C1F460222D5
:10F6600000950194039800F00CF8002807D13B4660
:10F670001022314600950194039800F002F807B07B
:10F68000F0BDFFB583B0074600200C9C8646268857
:10F6900005463AE07868A9004218118868468180DA
:10F6A0005188C1800022694601A865DF002839D150
:10F6B000684601780598814226D17046002801D01D
:10F6C000002200E002222088891842180D998A42FF
:10F6D00027D8714600290AD1401C80B22080069AA2
:10F6E000049911542088401C2080012086462188DE
:10F6F00006980A18694601A865DF002812D16946F4
:10F7000020880978401820806D1C3888A842C1DC08
:10F71000704600280AD02088801B401E80B2FF2837
:10F7200002D90C2007B0F0BD069988550020F9E7F2
:10F730000179002902D1007B002800D00120704708
:10F7400001000007636289CDD6A0AEAE78418EEE8F
:10F750000000BEDEC8230020E8230020142400207F
:10F76000110000001200000013000000140000004F
:10F770001100030079C601001200030079C60100E0
:10F780001300030079C601001400030079C60100CC
:10F7900038250020FFFFFFFF27E40100DDDC01002A
:10F7A000F9DB010099DD010023E40100ADDC01007B
:10F7B000F5DB010091DD01001FE40100FDDB01002C
:10F7C000F1DB010089DD010049F1010069F101006F
:10F7D000C5F00100FDF00100D5F00100F9F10100D4
:10F7E0003DD10100E9D0010051F20100F1DD01003D
:10F7F000002800200300000018F8010080200020ED
:10F80000FC00000080B6010014F901007C210020FA
:10F810008413000090B601000000FFFF0A180100E9
:10F8200000000000000000000000000000000000D8
:10F8300000000000000000000000000000000000C8
:10F8400000000000000000000000000000000000B8
:10F850000000000000000000FFFF000000000000AA
:10F860000000000000000000000000000000000098
:10F870000000000000000000000000000000000088
:10F880000000000000000000000000000000000078
:10F890000000000000000000000000000000000068
:10F8A0000000000000000000000000000000000058
:10F8B0000000000000000000000000000000000048
:10F8C0000000000000000000000000000000000038
:10F8D0000000000000000000000000000000000028
:10F8E0000000000000000000000000000000000018
:10F8F0000000000000000000000000000000000008
:10F9000000000000000000000000000000000000F7
:04F910000024F400DB
:040000050001B0C185
:00000001FF
