:020000040000FA
:10000000F8210020490100006301000065010000A3
:1000100000000000000000000000000000000000E0
:100020000000000000000000000000006701000068
:100030000000000000000000690100006B010000EA
:100040006D0100006D010000050600006D0100005B
:100050006D01000000000000910200006D01000031
:100060006D010000D5050000ED0500006D010000E8
:100070006D0100006D0100006D0100006D010000C8
:100080006D010000550400006D010000E503000053
:100090000D0500006D010000150500006D01000058
:1000A0006D0100006D010000000000000000000074
:1000B0000000000000000000000000000000000040
:1000C0000348854600F0D2F800480047FD3A00009A
:1000D000F8210020401E00BF00BF00BF00BF00BFCE
:1000E00000BF00BF00BF00BF00BF00BF00BFF1D115
:1000F00070470000401E00BF00BF00BF00BF00BF30
:1001000000BF00BF00BF00BF00BF00BF00BFF1D1F4
:1001100070470000056885F308884068FF2464B2D2
:10012000EFF30585002D01D1A6460047254606467A
:1001300021273FBAF0B40024002500260027F0B4A0
:10014000F92040B2004700000321094802680A4331
:100150000260084802680A4302600748804707486F
:100160000047FEE7FEE7FEE7FEE7FEE7FEE70000EA
:10017000240500405405004035050000C100000082
:1001800030B50B46014600202022012409E00D462F
:10019000D5409D4205D31D469540491B25469540B7
:1001A00040191546521E002DF1DC30BD70B50024FB
:1001B0002546002801DA01244042002901DA012500
:1001C0004942FFF7DDFFAC4200D04042002C00D096
:1001D000494270BD03460B439B0703D009E008C9A1
:1001E000121F08C0042AFAD203E00B780370401CE7
:1001F000491C521EF9D27047D2B201E00270401C75
:10020000491EFBD270470022F6E710B513460A4696
:1002100004461946FFF7F0FF204610BD421C017846
:10022000401C0029FBD1801A704730B504460020DD
:10023000034600E05B1C934203D2E05CCD5C401BB4
:10024000F8D030BD03460A780270401C491C002AD1
:10025000F9D1184670470321001D401E0378120291
:100260001A43491EF9D5104670470000064C012577
:10027000064E05E0E36807CC2B430C3C984710344E
:10028000B442F7D3FFF720FFE855000008560000FE
:10029000F0B50025FF248BB0013401262F460195CF
:1002A000204603F03FFF002808D04748406830420E
:1002B00004D046480021201835430160241D7600F3
:1002C0007F1CA4B2042FEBD3FF207D3003F02AFF64
:1002D000002807D03E4800210160400705433D4803
:1002E000006901903C4C280712D0012700262F42BC
:1002F0000AD03A48B200111808690969C004C00E52
:100300008903A258890F90477F00761C042EEED3F4
:10031000002D57DA00200590401E4DE0A119403114
:10032000087D8506AD0E42B2521C39D00121A9408C
:10033000089A0091114233D080090390284601F0B9
:1003400079FD800020580490002802D103980328EA
:1003500026D103980099032802D1059808430590F7
:100360001F4AA80080180068019A8003800F11427C
:1003700002D0022802D013E0032811D103990329E7
:1003800007D102281CD00221284603F0BBFE7F1CA7
:10039000FFB20498002803D0049A28460399904796
:1003A000761C092EBAD3002F0CD00A480069019997
:1003B000884207D00190059800273E460890ADE797
:1003C0000321E1E70BB0F0BD006300400060004096
:1003D0007C610040000500504C1300200065004087
:1003E0000007005010B50121080203F06FFBFF2049
:1003F0000221053003F06AFBFF200421093003F0DD
:1004000065FBFF2008210D3003F060FB10BD0000EC
:100410008307FF22DB0E9A408907090E99400028C6
:100420000BDA0007000F0838830808489B001818EB
:10043000C36993430B43C3617047830804489B001F
:100440001B181868904308431860704700ED00E0DF
:1004500000E400E010B506490020086048608860AC
:10046000C860034940390860486004F025FE10BDAB
:100470004011014070B5074B0646187814460D46EA
:10048000002801D100F0C2F822462946304600F08B
:1004900003F870BD7C19002070B50E461821484342
:1004A000134914464518E86A1835002804D0012875
:1004B0000FD0022805D113E0284600F0DDF8A04255
:1004C00001D2002411E022463146284600F00FF9FF
:1004D0000BE0284600F0D0F8A042F4D20446F2E740
:1004E0003146284600F0D3F80446204670BD00008F
:1004F0007C19002070B505460C460846FFF78EFEB5
:10050000024621462846FFF7B5FF70BD10B504F03E
:1005100069FD10BD10B506484068002805D0804729
:10052000002801D000F0E8FA10BD03F01BF910BD5F
:10053000EC00002010B503F07FF9002805D01F491A
:100540001D484860C8131E4988611E48018CC9B205
:1005500001290BD1828C120708D1028D1206120FCD
:10056000042A03D1828D1206120F0AD0012921D14B
:10057000818C09071ED1018D0906090F0A2904D0B3
:1005800007E0114A01219160F5E7828D1206120FF2
:1005900005D00D290ED1808D0006000F0AD10B4821
:1005A0000168012904D00A49016001680129FCD1D0
:1005B000C021416110BD0000DFFF07C00005004001
:1005C000006C0040C00F00F00006004000EC064048
:1005D0007593000010B504220249034803F0FEF8A9
:1005E00010BD0000A01400200090004010B50422AF
:1005F0000249034803F0F2F810BD0000AC140020DB
:1006000000A0004010B504F0BDFD10BD10B5124CA7
:1006100002202061606111A0A0611348E061012007
:10062000800220620020A06260620CA1A1642146C9
:10063000E0621039E16410212165A0656065E06524
:100640000AA1E01DFFF7FEFD09A12046FFF7FAFD14
:100650002020A07110BD00007C1900205465726D2F
:10066000696E616C000000006C150020525454004B
:1006700053454747455200000269C1688A4203D882
:100680008068401A801800E0501A401E7047F7B585
:10069000064682B000200090F46817463069A042F8
:1006A00001D9051B02E0B168201A0D1AB0686D1E51
:1006B000001BA84200D80546BD4200D33D467068E5
:1006C0002A4600190399FFF785FD00987F1B401902
:1006D00000900398641940190390B068A04200D1BB
:1006E0000024F460002FD9D1009805B0F0BDF7B513
:1006F000C668174604468068851B6068BD4206D9F7
:1007000080190199FFF766FDF019E060FEBD2A46E9
:1007100080190199FFF75EFD01987E1B4119324651
:100720006068FFF757FDE660FEBD30B47446641E96
:100730002578641CAB4200D21D46635D5B00E31864
:1007400030BC184702E008C8121F08C1002AFAD1BD
:1007500070477047002001E001C1121F002AFBD141
:100760007047F7B584B00025168807461580406BA2
:100770001446002813D003780598032E51D3022184
:10078000017021881122491C89B22180425421889C
:10079000491C89B2218043542088401C2080386B3A
:1007A00000281DD005462088059902461232B24223
:1007B00037D811220A5420881022401C80B2208091
:1007C0000A542088401C20800F202A5C2388401E69
:1007D000CA54228840B2521C22800028F5DA002533
:1007E000384620300290807B002806D033462246CF
:1007F000059903F06DF8050014D10298407B00289C
:1008000006D032462146059800F050FD050009D17A
:10081000B878002823D0059886462088001DB0426D
:1008200002D90C2007B0F0BD684679DF0028F9D165
:10083000218803207246505420881921401C80B220
:100840002080115420887146401C80B220804118BD
:100850006846008804F02AFD218840182080F87836
:10086000002817D0218803230A46FB56C91C059887
:10087000B142D6D80221815421880122491C89B273
:10088000218042542188491C89B221804354208808
:10089000401C20807868002817D021880023C35688
:1008A0000A46C91C0598B142BBD80221815421884F
:1008B0000A22491C89B2218042542188491C89B2EC
:1008C000218043542088401C2080388900280AD089
:1008D000009438460196062202210830059B04F058
:1008E0007FFD05009ED1388A00280AD00094384642
:1008F0000196072203211030059B04F071FD0500CD
:1009000090D1388B00280AD00094384601961522E1
:1009100014211830059B04F063FD050082D1386A6C
:10092000002806D033462246059901F0AFFC0500A9
:10093000D8D1786A002806D033462246059903F0BC
:10094000C9F90500CED10298007B002807D03346B4
:1009500022463846059904F0AFF80500C2D1387830
:10096000002807D0334622463846059903F02EFA70
:100970000500B7D1284655E710B501220221002015
:1009800001F040F9002801D0072812D107220221E6
:10099000012001F037F9002801D0072809D10021F2
:1009A0000A22084601F02EF9002801D0072800D1BC
:1009B000002010BD0448426840210B4693438360E9
:1009C0000A40C260704700000005005070B5002466
:1009D000064D06E06968E000085C012103F08AFA30
:1009E000641C28788442F5D3002070BDA800002044
:1009F000F8B515460C460646052A01D20720F8BD73
:100A000003F04EFB002803D103F020FB0028F6D1B1
:100A1000104900204E600C70C8608D6008610E4D5A
:100A20000DE0E00069688019009181786A46517094
:100A300000780A4A694603F0ADFA0028DFD1204663
:100A4000641EE4B20028ECD1054A0021024800F0FF
:100A50008BF8F8BDA8000020D05500009D3600009E
:100A60005D2400003EB50446042001901648029023
:100A70006946204601F0B0FF002805D0134988429E
:100A800001D000F039F83EBD0F48001F0179C907B9
:100A900014D00F4A0C214088A7DF00280ED00D4942
:100AA00088420BD0082809D0891C884206D011281A
:100AB00004D00949884201D000F01EF8204601F018
:100AC00041FF0028DDD13EBD040000204080000031
:100AD000FFFF00000230000001340000BFF34F8F21
:100AE00004490348C860BFF34F8F00BFFDE7000013
:100AF0000400FA0500ED00E00EB50021029000911F
:100B00006A4601910148FFF7E9FF0EBD0140000070
:100B1000014B1B68184700002813002038B50C460D
:100B2000A2680C235A43064B09789D58054A126A5D
:100B300000920246204608302369A84738BD0000CD
:100B4000941400207C00002010B5064914230A7874
:100B50005A435118091DFFF7E1FF042004F01EF865
:100B600010BD0000C8130020094B9B68002B07D064
:100B7000002A07D0002805D00068037C002B03D092
:100B80000820704707207047417442610020704779
:100B9000BC000020FFB59007002581B014460E462A
:100BA000002832D11B4F002C31D003F0C5FE049831
:100BB00078610320387033461821224600204B43C9
:100BC000BC601834C10089180D704D708E704C6077
:100BD0001C19401C0328F5DBFD607D7001240E48C4
:100BE000BD702405046003211420FFF711FC0B489D
:100BF00004600B4C0198A06003211120FFF708FC52
:100C000060683861002005B0F0BD0720FBE7BD60DB
:100C1000FBE70000BC00002080E200E000E100E013
:100C200000150140FEB50D461B491746896804466C
:100C300000292AD0002C28D0052D01D20720FEBD86
:100C40006069002821D0607C012820D0002604F0B3
:100C50006FFBC0001049019089684018694604F094
:100C600091FB002815D0012101700C4944604968AE
:100C70000830E2C008490198896841186846007840
:100C8000487004F0F1F90020FEBD0820FEBD2E469C
:100C9000DDE70420FEBD0000BC000020001501407F
:100CA000F8B5134D0446A96800291CD0002C1AD0B1
:100CB0006069002817D00026267404F039FBC700AD
:100CC000A8686946381804F05DFB00280DD00221A1
:100CD00001704460A868391868460078487004F0CC
:100CE000C3F93046F8BD0820F8BD0420F8BD000067
:100CF000BC00002070B515460C460846FFF7ABFA5D
:100D00000002E178000A090608432860042070BD4B
:100D100002780A700288120A4A700268120C8A70FD
:100D20000068000EC87004207047F0B50C4693B000
:100D30001F216A461180072600279180002809D0CC
:100D4000C17849070DD502A9FFF70BFD002809D18D
:100D500002AD01E000251780002C0ED0E0780028BD
:100D600002D0304613B0F0BD01AA0AA92046FFF711
:100D7000F8FC0028F6D10AAA02E068460022878023
:100D800068468088C3B268460088C1B2284672DFD0
:100D9000E8E7000070B50D4604991646040042D0FD
:100DA000002E40D0424800224271C36001612422DB
:100DB00031464048FFF70EFA00F0D4F83D4934318F
:100DC0000846103801602031816038215C38FFF717
:100DD0001AFA3848217838380170A1788170E178A2
:100DE000C170617841706269216942610161E268A4
:100DF000A168C26081600146E369A269CB618A6132
:100E0000616A002919D00146AC310246B83241620C
:100E10008A60636A1B880B80616A436A898899804B
:100E20000021436A06E00E2070BD666AB668765CF3
:100E30005654491C9E888E42F7D8A16A00291CD0BE
:100E40001C4AAC3211460C398A608162A36A9B88C5
:100E50008B80A16A836A098819800021836A04E073
:100E6000A66AB668765C5654491C9E888E42F7D8AE
:100E70002C210A5D0F4918390A73216A002909D00B
:100E80000B4914310162226A52884A80216A026A3F
:100E9000098811806168002904D00549891D4160D5
:100EA00061684160034829463838FFF73EFF70BD4E
:100EB00030000020E810002010B502881C4C102AD9
:100EC00017D00021112A1AD01B2A11D1007A00282C
:100ED0000ED1607901281ED0022822D0032822D00A
:100EE000042805D12171E2680846002A00D0904705
:100EF00010BD817D0129FBD18088208110BD6170EA
:100F0000808821898842F9D1012005E021690029E2
:100F1000F4D0884710BD022000F058F80028F5D121
:100F200010BD0320F8E7032020710420F4E700003F
:100F30003000002010B5022801D003280ED1084C43
:100F4000207800280AD000202070607900F03EF858
:100F5000002803D02169002900D0884710BD000077
:100F60003000002010B507210148FFF74CF910BDF3
:100F70004800002010B51348007801281FD1124CFA
:100F8000607800281BD16079002802D074DF002827
:100F900016D101200B49607006203839C870094805
:100FA00000213838FFF7C1FE002809D1607900F030
:100FB0000DF8002803D02169002900D088470020BF
:100FC00010BD0000E810002030000020F0B5784C83
:100FD00087B06071002606A8069603F051FA012733
:100FE000082802D0002808D104E006A802F072FA0E
:100FF000002804D10698002801D02770D4E0FFF71C
:10100000B1FF6C4D6878002802D06079012807D0C4
:10101000A87800280CD06079012801D0022824D1BA
:10102000E168002903D0E7700820884700E0E670F7
:101030006079012808D16878002809D05C48193007
:1010400003F0C3F9002803D06079022802D00CE035
:1010500002206071A878002805D05548193003F0A7
:10106000B4F9002801D103206071287B002804D145
:101070006079032801D104206071287E002804D102
:101080006079042801D166712671E16800290AD0CF
:101090006079032801D0042805D12878002802D0DF
:1010A0006078002817D0A67018216846FFF7ABF8C3
:1010B00068460670019606720396607901280ED084
:1010C000022815D03B4E243637465C3F03281BD000
:1010D00004285DD13AE0A77007208847E4E7344848
:1010E000183001906846077046820682277152E0E8
:1010F0002F48183001906846077029894182A988D5
:1011000001820220207146E0A88A69464882288A26
:1011100008822848243004F0D2F9002805D0287825
:10112000002802D06078002801D003202FE00220A0
:101130006946087204200396F8701E48002138386A
:10114000FFF7F3FD002830D1052020E0A88B694689
:101150000882288C48821748243004F0B0F900280F
:1011600005D02878002802D06078002801D004201B
:101170000DE002206946087204200396F8700D48BD
:1011800000213838FFF7D1FD00280ED1062020714C
:101190006079002803D0684673DF002805D1E16834
:1011A000002901D020798847002007B0F0BD000059
:1011B00030000020E810002070B5054601461C22D2
:1011C0000E48FFF707F80E4C002626702968002904
:1011D00006D00822201DFEF7FDFF201D7ADF02E069
:1011E0000748001D7BDF002807D1401E6080667025
:1011F000044A00210448FFF7B7FC70BDD411002059
:1012000050000020CD52000070550000F8B5214C70
:10121000028800271E4DE689102A15D01E49112A82
:1012200021D0122A2DD0502A1CD1C288801DB24252
:1012300018D14289022A15D1427B037B1002184340
:10124000C007C00F0CD112E08188698001461048A8
:10125000082218310C30FEF7BDFF6F70002E01D14F
:1012600001F05CF8F8BD0020C04368806F7008682A
:10127000FFF716FD0028F5D0A1690029F2D08847B4
:10128000F8BD0822811802480C30FEF7A3FFE7E7FB
:1012900050000020D41100207055000010B5024805
:1012A0000068FFF7FDFC10BD705500007CB50546D9
:1012B00008880C460930904201D90C207CBD684654
:1012C00071DF0028FAD121880820685420881B216A
:1012D000401C80B220802954208800A9401C80B284
:1012E0002080401906220131FEF774FF20886946EC
:1012F000801D80B220800978002900D00121295466
:101300002088401C208000207CBD000030B585B0C6
:101310000D46040039D0002D37D06868002834D03D
:101320000020C0431A4B20800FCB049301AB07C3AE
:1013300018486946088001A8811E63DF002822D171
:10134000221D69460120A0DF00281CD16846807854
:10135000A071204601F06CFA002814D1204601F05B
:1013600023FA00280FD12946204601F0A3FA0028CD
:1013700009D16868A062A868002800D0E062064928
:1013800001200870002005B030BD0E20FBE70000F2
:10139000D855000030150000DC0000203EB50028C4
:1013A00028D0002926D0826A002A23D00A88102A51
:1013B00021D0112A30D0502A1FD0512A1AD10A46E2
:1013C0000446891D0878022814D14888238A984247
:1013D00010D1907B04280DD006280BD0052809D009
:1013E0002046891C02F0D6FE002803D0E16A0029BD
:1013F00000D088473EBD898810E0CB88028993429F
:10140000F8D108226B461A700A7C1A7212310191C7
:10141000826A694690473EBD0021C94301803EBDB6
:1014200030B585B0002822D00388134CA34220D0C9
:10143000124B1B78002B1CD0104B10255B1C1D7011
:101440005970002401259A70032269460A8200948B
:10145000019402940394028A0A808D708C8004A9FE
:101460000291039300886946A6DF05B030BD0E20C7
:10147000FBE70820F9E70000FFFF0000DC00002088
:1014800070B5044601F08CFB2046FFF7BFFE2046F6
:1014900000F0DAFA21460E48FFF780FF2046FFF7FA
:1014A0000BFD20880B4D102802D011280CD108E02C
:1014B000072000F0CBFB002801D0FFF71DFBA08820
:1014C00001E00020C0436880204600F01DFA70BD96
:1014D0005C0300200000002030B50A460446808FDF
:1014E00010498BB088421AD00025009501950295CD
:1014F00004A91046039500F053FE01466846818416
:10150000E18801800121817009A8029068468580E8
:1015100004A80390A08F6946A6DF0BB030BD082059
:10152000FBE70000FFFF0000F0B5D9B004460868F3
:1015300020600020C043A0879F480D460FC830AEF2
:101540000FC644A930A863DF00287DD140A8017CE4
:1015500028A881732921090220A88185221D2BA991
:101560000120A0DF00286FD1686843901C2124A8C7
:10157000FEF749FE914920A8018228A8817B20A876
:1015800081741427878245A943A800F009FE01460B
:1015900020A8C18245A8269020A8417F10200143A1
:1015A00020A84177012628A8867020A80677A08861
:1015B000A21D24A900F046FC002845D12846083089
:1015C00007C83AAB07C36879A0731C211DA8FEF7B2
:1015D0001AFE7A4910A8891C818628A8817B18A840
:1015E000817510A807874AA93AA802F019FF014699
:1015F00010A841874AA81F9020A84178FD200140EB
:10160000A07B2246C007800F014320A841700671CD
:101610000670A08810321DA900F014FC002813D118
:10162000686942901C2116A8FEF7EDFD634910A8D9
:10163000491C018328A8817B10A8817687834FA944
:1016400042A802F001FF00E094E0014610A8C18327
:101650004FA8189018A841792020014318A841717B
:101660000121817201712246A088183216A900F06A
:10167000E9FB00287ED1284618300FC82CAE0FC6D3
:101680002646687D20363070A87D70701C21684623
:10169000FEF7B9FD49496846C91C018028A8817B2D
:1016A000684681701421818054A92CA803F07DFE26
:1016B00001466846C18054A802906846417BFD20DF
:1016C000014030780122C007800F01436846417312
:1016D0000274F72001407078C007000F014368468C
:1016E000417342740273A088B21C694600F0AAFBE1
:1016F00000285ED12920475D10A807752820405D8D
:10170000B0721C210EA8FEF77EFD2C496846091D0B
:10171000018728A8817B08A88176142168468187E3
:1017200038A8077501276846C7873DA8109010A8FC
:101730004179F7200140B07A2246C007000F0143EB
:1017400010A8417147720771A0882C320EA900F0D1
:1017500079FB00282DD1698D10A881821C2107A852
:10176000FEF751FD15496846491D818328A8817BF4
:10177000684600E01DE081771421018410A8017DF6
:1017800030A8017510A8417D30A841750221684636
:10179000418435A8099008A8417A0820014308A887
:1017A0004172477307722246A088343207A900F0BD
:1017B00049FB59B0F0BD0000DC54000001290000D5
:1017C00070B50A88102A2BD0112A2BD0502A2DD080
:1017D000512A24D105468C1D8879091D02281ED165
:1017E000887A04281BD0062819D0052817D06088CD
:1017F000698C884203D1A11C284602F062FD6088F2
:10180000A98D884203D1A11C284602F05AFD6088A8
:10181000A98E884203D1A11C284602F052FD70BD5A
:10182000898801E00021C943818770BD891DF4E7E3
:1018300000B51C4887B080680590002348221A49EB
:1018400005A803F0FDF9002801D0FFF755F96A4615
:101850000121002003F0DAF9002801D0FFF74CF94C
:10186000012069460873114803F0B2F8002801D03E
:10187000FFF742F9684603F0BFF9002801D0FFF7EF
:101880003BF90B4803F0AEF9002801D0FFF734F91B
:10189000084803F0EFF9002801D0FFF72DF907B051
:1018A00000BD0000D054000014030020E81F0020F9
:1018B00081140000914F000000B58BB02C216846C8
:1018C000FEF7A1FC0E48009000206A46107101212D
:1018D0005171029010735073049010755175917589
:1018E00006900790089008AA0990117250729072A1
:1018F000D07269460348FFF717FE0BB000BD000029
:10190000854200008C03002010B501460148FFF716
:1019100057FF10BD8C0300201CB5044681786A4631
:101920000C4802F0C1FD002812D160781C21484308
:1019300009491C2340181A46694602F06FFE064802
:1019400006495830807A80000A58214668469047F8
:101950001CBD000074000020D0120020885500003B
:10196000F8B5054608206946088001236A461A49E9
:101970002846AADF194800688047B12044DF0028C4
:1019800001D0FFF7B9F811DF002801D0FFF7B4F854
:10199000134C606913DF002801D0FFF7ADF828462B
:1019A00000F0ACFE01210F4A880510600E48026865
:1019B0000D4B002080330D468540154204D0C606ED
:1019C000F60E0D46B5401D60401C2028F3D360691B
:1019D00000F00CF8F8BD00000C150020E400002019
:1019E0000010001080E200E000E100E010B5FEF71A
:1019F00091FB10BD7CB5134E00250C4630600029CC
:101A000018D06946002000F0B5F8002819D101A9C6
:101A1000012000F0AFF8002813D1684601790020BA
:101A2000002901D0022004E069460978002900D08D
:101A30000B2020707068002802D1FEF79DFF05463C
:101A400028467CBD2800002010B51C4C0188606829
:101A500010290DD011290AD1401E606007D1FEF770
:101A60008BFF002803D02168002900D0884710BDD3
:101A700000281ED100210122084600F0C3F80028EA
:101A800001D0072811D107220221012000F0BAF865
:101A9000002801D0072808D104220221002000F0EC
:101AA000B1F8002805D0072803D02168002900D00C
:101AB00088476068401C606010BD0000280000205E
:101AC00010B5032000F060F9002801D0062800D1ED
:101AD000002010BDF8B507460024234802E0641C2E
:101AE000092C1AD2A2008258BA42F8D1092C14D279
:101AF0001D481E4E0C38002929D001290ED002297C
:101B00000BD16000201880194578002D05D01848A9
:101B1000C168002901D028468847F8BD61006118D6
:101B2000755C8E19717800290CD011490A22496818
:101B3000806851430E4A521CFFF774F8002801D107
:101B40000B4847700948B1781B300155DDE78068C4
:101B5000FFF7A6F80548610061181B308919005D80
:101B60008D78A842D1D0F8BD005500004C1000205F
:101B70001800002009280CD2074A1269074B800080
:101B80001B5C01209840904300D001200870002089
:101B900070470020FAE700000005005000550000E3
:101BA00010B5001F0300FEF7C0FD120D0C0C170C42
:101BB0000C0A0C0C0C0C1C1E1C202224260C02F0FF
:101BC000D9FF10BD0E481321408876DF06E00028BB
:101BD000F7D0FEF791FF10BDFFF7CCF90828F6D13A
:101BE00010BD502008E0602006E0482004E04420BA
:101BF00002E0422000E0412003F0E0F910BD0000C7
:101C00000000002070B50023092811D244000419F7
:101C10000D4D012A02D101290DD000224600801964
:101C2000094E801900290CD0012906D0022906D0BE
:101C30000723184670BD0D30C2B22A55F9E742702D
:101C4000F7E78270F5E700004C10002010B5054A58
:101C50000146127A0020D20702D0084600F054F85C
:101C600010BD00001800002070B50E461F49054643
:101C70004E608D600020CA60A9071ED50024012295
:101C800011462046FFF7BEFF641C092C02D2002833
:101C9000F5D012E0002810D1720809211448FEF78F
:101CA000A7FE002809D1FEF791FE002805D11048B3
:101CB000104A00212838FEF757FFE90705D00F49E1
:101CC0000D4ACA6000238B608A6100280DD1084844
:101CD0000B4A00213038FEF747FF002805D10448A1
:101CE000084A01212C38FEF73FFF70BD1800002084
:101CF00024550000C51D00004855A10200050050F4
:101D000025390000B509000010B5002308221A4C3F
:101D10001A49012806D0022804D0072823D00C280D
:101D200023D124E04B681B0708D5CA60022802D0E3
:101D30007D22520107E0E122D20004E08A600228FD
:101D40000FD0FF229132207064211046FEF718FA5E
:101D50006168002241430A480068FEF763FF0346BA
:101D600003E0C822EFE78A602070184610BD054ADC
:101D7000CA600022F7E700001800002000050050AC
:101D8000F45400004855A102F0B500210B4C0C4D55
:101D900003273F048A00A258920056193268012393
:101DA0008B40034000D00323BA431B04134333602A
:101DB000491C0929EED30020F0BD000000550000A9
:101DC0000007005010B500780221FFF783FE10BD18
:101DD0000022D243830004490428CA5002D30818C1
:101DE00040300274704700004C130020F0B500250D
:101DF000ED43002A02D00023042601E004230D262F
:101E00000B4C04E09F00E7597F1C04D05B1CB342DD
:101E1000F8D32846F0BD26185DB2203635759E00F1
:101E2000A151002AF5D1E11840310874F1E7000012
:101E30004C1300200249091834200856704700004E
:101E40004C130020F7B58878012592B00C46002885
:101E500017D008A9887720886946888700260796C2
:101E6000207C07A902F06FFE07A9607C013102F017
:101E70006AFEA07B00286846807F05D008210843C1
:101E800004E008A88577E6E7F721084069468877E7
:101E9000E17B002902D01021084301E0EF21084036
:101EA00069468877217B002901D0284301E040085A
:101EB000400069468877F927E17C3840002901D045
:101EC000022100E0012149000843694688771C216E
:101ED0006846FEF798F9607BC10601D4800610D5EC
:101EE0000E960EA9A07C013102F02DFE01200146C4
:101EF00008A810310176817E3940891C81760EA8B0
:101F00000590617B68460170142109A8FEF77BF9F2
:101F10000FA8099007A80A90A18868460186A068C2
:101F2000002804D0E08869468885A0680D90606923
:101F3000002844D00896018868460181606908AE8F
:101F4000418868464181606908A94068049601900B
:101F50006069007B02F0F7FD6069711C407B02F054
:101F6000F2FD6069807A002808A8807802D00821F4
:101F7000084301E0F721084008A988706169C97A1F
:101F8000002902D01021084301E0EF21084008A9F0
:101F900088706169097A002901D0284301E040086E
:101FA000400008A9887061693840897B002901D008
:101FB000022100E001214900084308A98870A069B6
:101FC000002800D0039009AA6946149B1298A2DF4A
:101FD00015B0F0BDF8B53E481422017851430C18F5
:101FE000E0680C2148433A492769CC3140180589FB
:101FF00041890091241D466802F0E4FA0146384602
:10200000FEF7BEF8002932D000200099A2884D4387
:102010006188AE198918CD1900222E4900280A615D
:1020200009D002F0CFFA6188884222D0B54202D1AD
:10203000A08800281DD0A06802281AD002F0C2FA99
:10204000A188CA1901461046FEF79AF8214C880863
:10205000E06002F0B7FA01462846FEF791F8002941
:1020600011D00020B5422FD000280ED02CE0012046
:10207000CBE702F0A7FA01463846FEF781F815498A
:102080004861032021E00120ECE7ADB2B7B202F0D5
:1020900099FA01463846FEF773F8064602F092FABE
:1020A00001462846FEF76CF8864201D1781B09E00C
:1020B00002F088FA064602F085FA01462846FEF745
:1020C0005FF8701A80082061022002F067FDF8BDF9
:1020D000C81300207C00002010B5074814220178A6
:1020E000514308180079042802D000F05DF810BDB3
:1020F000012002F053FD10BDC813002010B50B489D
:102100001422017851430818094AC18811620079E4
:10211000012806D0032801D0042801D1FFF75AFF77
:1021200010BD012002F03AFD10BD0000C8130020D0
:102130007C00002014225043054A002180180171C0
:10214000C18001220161C2604161018170470000CC
:10215000C8130020F8B5104C069E65780A2D19D0DA
:1021600027787D190A2D00D30A3D14277D432D19A8
:1021700028716A6103C92961E860EB802E8160786B
:10218000401C607005480078002801D1FFF7B6FFB9
:102190000020F8BD0420F8BDC81300207C000020FA
:1021A000007808700120704710B50D4C142120787C
:1021B000484301190020091DFEF7B0FC2078FFF705
:1021C000B9FF6078401E60702078401CC0B220705B
:1021D0000A2801D100202070002002F0DFFC10BD91
:1021E000C8130020F8B52348C16800293ED00E6806
:1021F00021494C680769C078E11B0D022D0AED1CCE
:10220000002814D101201D4A000450601B4A403AA6
:1022100050601B49400008601A4908601A490120B3
:1022200008602F20FDF766FF12490120C870B542F3
:1022300000D23546E81900020F4B000A40331860FF
:102240000D4A5168001B091B0902090A0002000A15
:10225000C91C814209D9506818602F20FDF74AFF38
:1022600001200749400480390860F8BD02F064FB92
:10227000F8BD0000BC0000200015014040130140E3
:1022800080E200E000E100E000100140F8B5064601
:10229000108814468446801D0D46984201D90C20B2
:1022A000F8BD32880720062AFAD31927FF01184BF8
:1022B000BA4201D99A42F3D171880629F0D3B942C2
:1022C00001D99942ECD19A4203D0994201D08A4275
:1022D000E6D805216046295420881221401C80B28E
:1022E000208029542088401C80B2208041193088E9
:1022F00002F0DCFF2188401880B2208041197088EC
:1023000002F0D4FF2188401820800020F8BD000092
:10231000FFFF000010B5FEF7EFFB10BDF8B5164843
:1023200001F07CFA144D00260C3D144C002807D017
:10233000616900291CD001206A461070684616E0C9
:102340002878002805D06169002911D068460670F8
:102350000DE0687800280DD0A168094800220068C7
:10236000FEF760FC002803D0A169002900D088474F
:102370002E70F8BD6168F0E75C000020D4110020E9
:102380007055000070B5094B04469E7A0820002560
:102390000E4207D00648844202D01889A04202D1DA
:1023A0000020156070BD052070BD00001C130020CA
:1023B000FFFF00000C214843064910B501224018D8
:1023C0008272911E0181FF21C1720721FDF71BFF5F
:1023D00010BD00001C13002010B5134C207900071D
:1023E0001FD46069401C6061E068002801D00420AF
:1023F00004E001F045FA002803D0022002F0BEFDFF
:1024000010BD2069002809D06068C10701D00320F1
:10241000F4E70121084360600020EFE7FFF75CFE6E
:1024200010BD02F09FFD10BD7C00002010B50848D3
:1024300041680A0708D48A0702D501221143416086
:10244000022002F09BFD10BD02F08CFD10BD0000CB
:102450007C00002010B501F02BFE10BDF8B5002661
:102460000124154D23E06968F000471838782146AB
:102470002A698140114218D08A432A6101F0DCFDAB
:102480003A782146EB6891401940034693409942BF
:102490000BD17978012901D0012100E000217B686E
:1024A0004140002B01D010469847761CF6B22878A0
:1024B0008642D8D3F8BD0000A8000020FEB50E4625
:1024C000044681786A46234801F0EEFF002826D1B1
:1024D00060780C21204F4843C019807A40061FD4F1
:1024E000022E1DD0012E1DD01C4DA0781C2148436A
:1024F0001B49002341181C226846A847002813D016
:10250000022E0CD020780C21484313490C3140187E
:10251000807A144980000A58214668469047FEBDDB
:10252000114DE2E7114DE0E7022EF8D060780C2162
:102530004843C019817ABF221140817260781C2102
:10254000484305494C3941181C231A466846A84798
:10255000D8E70000740000201C130020C14D0000CB
:102560000C120020785500005D48000081470000F3
:1025700070B50546114A124800241C2363431B18FA
:102580009B7EFF2B04D0641C072CF6D3104670BD35
:102590000A78022A09D01C2262431018FD22827692
:1025A00007221030FDF716FE04E01C2161430818D5
:1025B000FE2181762C700022E8E7000043800000B5
:1025C0000C120020F7B505250F4F06460024002EFB
:1025D0000AD01C206043C019072231461030FDF795
:1025E00024FE002807D00AE01C206043C019018B9C
:1025F0000298814203D101980025046002E0641C26
:10260000072CE4D32846FEBD0C1200207CB50546FD
:1026100081B26A46074801F047FF040008D18021D3
:10262000684601F06BFF040002D1284601F0D8FE95
:1026300020467CBD7400002070B505460C46100095
:1026400001D0FEF759FA2078152802D12846FEF766
:1026500009FA002070BD00001FB56946087301F03B
:10266000B7FF002801D0FEF747FA03A800F018FDD5
:10267000002801D0FEF740FA01A805210130FDF73E
:10268000C2FD694649790120014381221140303160
:102690004A06520E69464A7107228A711022CA718F
:1026A0000549009169460871044800F05FFE002862
:1026B00001D0FEF721FA1FBD3926000001000020DD
:1026C00001B50449684600F04BFA002801D0FEF736
:1026D00013FA08BDE800002010B50978002908D0D9
:1026E00003220121FEF79CFE002801D0FEF704FA28
:1026F00010BD0088FFF734F910BD000010B58AB096
:1027000000242349009400F099FC002813D101A96A
:102710001F4800F03BFC00280FD01E491C4800F069
:1027200021FD002801D0FEF7E7F91A4800DF002854
:1027300001D0FEF7E1F90AB010BD0599072215484E
:102740001031FDF747FD13481022C01D0599FDF714
:1027500041FD1048112218300199FDF73BFD0D484D
:1027600001990A222A301231FDF734FD094800DFB1
:10277000002801D0FEF7C0F9012000900420089045
:102780006846099007A90794014800F07FF9CEE751
:10279000E8000020D81400207047000001490860BC
:1027A00070470000E400002030B58FB005461C21C2
:1027B0006846FDF728FD694608780821084310227D
:1027C000104369460870002401940394049405940E
:1027D0000694A87908A98870144869460884601C82
:1027E00000070794000F0C7710304877887FF92195
:1027F0000840F721801C0840104301210843694626
:102800008877142109A8FDF7FEFC08A8099007A8FD
:102810000A9069468C851720CC8508860D942B4636
:10282000A888103309AAA2DF0FB030BD311500000F
:1028300030B58FB005461C216846FDF7E4FC6946BB
:102840000878042108436946087000240194039421
:10285000049405940694A87908A9887014486946D8
:102860000884601C00070794000F0C77103048772D
:102870008A7FF9200240F720921C0240EF2002409C
:10288000012002438A77142109A8FDF7BCFC08A89F
:10289000099007A80A9069468C851420CC85088683
:1028A0000D942B46A888083309AAA2DF0FB030BDCB
:1028B00032150000F0B58FB00F4605461C21684662
:1028C000FDF7A1FC6846017802263143017000241F
:1028D00001940394049405940694A97908A881703E
:1028E000174968460184601C0107090F68461031CA
:1028F000079401770020014668464177817FF920DF
:102900000140F720891C0140EF20014001200143D4
:1029100068468177142109A8FDF775FC08A809907D
:1029200007A80A9068468685C48506860D972B46BB
:10293000A888203309AA6946A2DF0FB0F0BD0000C5
:10294000341500003EB504461E4801781E48002993
:1029500030D0002C2FD0217800292BD11B49002505
:102960000968002926D0A178072927D21C20184AF7
:1029700048438018807EFF2820D012486A461030D5
:1029800001F092FD002815D16C230422694602A8AB
:1029900001F044FE0299491C0CD06C2304220D491D
:1029A000684601F05BFF002804D1A178084A89003D
:1029B0001C3A55503EBD0448801D3EBD02480830BB
:1029C0003EBD0000640000200880000028130020A5
:1029D0000C120020745500003EB50C4627490A78B9
:1029E0002749002A30D08A1D002805D0002C03D0AA
:1029F0000278002A28D101E010463EBD214A126823
:102A0000002A21D08178072920D21C221E4B4A435C
:102A1000D218927EFF2A19D01B4AA3681C3A002BB9
:102A200017D089005350817814486A46103001F05D
:102A30003BFD0028E1D16C230422694602A801F085
:102A4000EDFD002809D016E008463EBD0C480830D0
:102A50003EBD89005158A160E5E70298401C0AD0AC
:102A6000702310226946A06801F0D8FD0028EFD13C
:102A7000029961603EBD024838303EBD64000020CE
:102A800008800000281300200C120020FEB5054627
:102A90002D480C4601782D48002925D0811D002D98
:102AA00023D0002C21D0A268002A1ED0297800292A
:102AB0001AD127490968002916D0A978072916D202
:102AC0001C22244B4A43D218927EFF2A0FD06A78E8
:102AD0000C235A431E4B0C3BD218927A120703D593
:102AE0006068042806D20720FEBD0846FEBD1748D0
:102AF0000830FEBD1448184E6A46103001F0D4FC70
:102B00000028F6D16C230422694602A801F086FD54
:102B1000002803D10298401C00D0104E6C230422E0
:102B2000211D6846B0470028E3D170231022684673
:102B3000A16801F093FE0028DBD1AA78054B920032
:102B40001C3BA1689950FEBD640000200880000075
:102B5000281300200C120020814700005D4800006F
:102B60000C4A13780C4A002B11D0931D002905D074
:102B7000002803D00078002809D101E018467047EA
:102B8000064B1B68002B02D00870002070471046CF
:102B90007047000064000020088000002813002017
:102BA000F0B591B00546FF24002007940290EE484E
:102BB000007800284BD0ED4F3868002847D001A896
:102BC00000F060FA002801D0FDF796FF281D05905F
:102BD0002C2069460883FF20002688710E71039619
:102BE000E24C28880C3C10280ED0A88803AA0221A9
:102BF000FFF7C8FB002807D103980C2141430919AE
:102C0000CA7A69468A7148712A881320192A7DD0A8
:102C10000FDC102A1DD0112A57D0132A77D0142A7E
:102C200015D103980C2148430019C07AFF2877D0AA
:102C300093E0CF491A2A6CD01E2A6ED0232A6AD07C
:102C4000522A04D1B87A8000095801A8884711B0E7
:102C5000F0BDC84F03AA01213846FFF793FB0028B7
:102C6000F5D103990C2048430222001982721123E6
:102C70006A4613745171A9880181294608310722D7
:102C80000091FDF7A7FAE87DC10707D04108B648D3
:102C90000830405CFF2808D0079006E03A4607A9B4
:102CA0000098FFF78FFC00280ED103990C225143A6
:102CB00009190798C8728A7A08231A438A726946E2
:102CC000887101A8FEF728FE34E103980C214843DF
:102CD0000119887AFD2210408872010706D5C009C3
:102CE0000DD0002101A8FFF7E9FB08E068468079D4
:102CF000FF2804D001F074FBFF2069468871039817
:102D00000C22102150430019817205E07DE035E06E
:102D100006E0D6E001E021E112206946087409E1ED
:102D20002A8A07A90020FFF74DFC00280ED103993D
:102D30000C22514309190798C8728A7A08231A434A
:102D40008A726946887101A8FEF7E6FD03980C2196
:102D500048430019C07AFF2806D003981C21484335
:102D6000824958394018029003981C2148438249EF
:102D70004218A8880023029986DF68E7694608742C
:102D800003980C2148430119887A04221043887261
:102D9000CA7AFF2A0BD04022104388721620694657
:102DA00008740023A8881A4685217FDF21E007A840
:102DB000FFF7DEFB00281FD0064600200D90039988
:102DC0000C224A431219D27A1C235A436A4B0F90A1
:102DD000D2180E921C2251431A46C4328918109000
:102DE00009910A900B900C903A1DA88809AB00211C
:102DF0007FDF0028C1D19DE069460798887103995B
:102E00000C2251430919C872D7E7787A0C2140087F
:102E10004000787203986F46024648430119844681
:102E20008B7AFB2003408B7214203874287A002898
:102E300006D058067ED4C87AFFF7E8FB2E7A79E0F0
:102E4000687A400776D5B879FF2873D008273B43C6
:102E50008B726B7B9B0708D51C2503466B43464D45
:102E60005B199D7E6D086D009D76CB7AFF2B61D03E
:102E70006346E35C022B10D01C2250433E4D0722D8
:102E800040191030FDF7A6F9684680791C214843A7
:102E90004019817EFD2211400DE01C214A43334937
:102EA000583951184A8A1C21484333494018028333
:102EB000817E490849008176012101A8FFF7FEFAC9
:102EC00038E0287A0209012A23D10007000F0128DF
:102ED0001FD103980C2242431219927A120718D577
:102EE0003021484321493C39401826210830FDF75C
:102EF0008AF916206946087403980C214843011981
:102F0000887A602210438872787A022108437872A6
:102F10000FE003980C2250430019827A80231A4351
:102F2000827215206A461074B87A8000095801A888
:102F300088470026324604A901A8FDF7E9FD684646
:102F4000007C122800D082E603980C214143091925
:102F5000897A0129F7D0FFF72DFA78E607A100203A
:102F6000FDF7C8FA73E60000640000202813002073
:102F700098550000FFFF00000C1200204C45443320
:102F8000205357495443480A00000000F0B5064654
:102F900026480C460178264889B000293FD0811D7B
:102FA000002E3ED0002C3CD03178002937D1214969
:102FB00000250968002932D0B078072833D21C21B7
:102FC0001D4F4843C019807EFF282CD0E560B078A3
:102FD00065614843C01920611648A5600C306060E7
:102FE000684620601148B17807AA103001F05CFAF9
:102FF000002814D11C231A4607A9684601F00EFBCD
:1030000000280CD1E560B1781C225143C9196561D3
:1030100021610849A5600C3161606946216009B0F1
:10302000F0BD0846FBE702480830F8E764000020DE
:1030300008800000281300200C12002030B5044640
:10304000002903D00878002814D101E00B4830BDD6
:103050000B480023006800280CD0094AFF20887024
:103060000C3A15890520A542F1D14B70D07A8870B1
:10307000002030BD0148801F30BD00000E800000E0
:1030800028130020002806D0FF21017041708170B4
:10309000C170002070470148704700000E8000009A
:1030A000F0B585B0040036D029480025056045728A
:1030B00085722846FFF77EF9254830213C38FDF718
:1030C000A2F80026FF27304601F08AF921488755EB
:1030D000761C072EF7D38021684681800721C180A6
:1030E0001D481C4900900831684601F0EBFA0028A1
:1030F0000FD1184E0120083E3070207800280CD0E7
:1031000069468888C988484381B23046103001F04A
:10311000F5F905B0F0BD1148FBE7114F00240D484B
:10312000A1B202AA083001F0BFF9002809D11C2081
:103130006043C01900231C2202A901F06FFA002885
:1031400001D03570E5E7641C072CE8D3E1E7000007
:10315000281300206C000020E53100000E800000E4
:103160000C1200200B4610B51A491B4A0978002999
:1031700020D0911D002805D0002B03D00178002914
:1031800018D101E0084610BD14490968002911D082
:10319000114A8178D21EFF290ED01C2041431048CD
:1031A0000918887E800705D4072218461031FDF7DC
:1031B00011F80022104610BD4078FF28FAD00C21EB
:1031C000484306490C394118887A8007F2D507220E
:1031D0001846ECE764000020088000002813002057
:1031E0000C120020FFB55C4891B000681A9F1E4683
:1031F000002873D0802F71D86846FFF743FF00285E
:1032000001D0FDF779FC002468460470047125465E
:1032100005970696A9B20FAA504801F045F9002873
:1032200006D108220FA91198FCF7FFFF002817D03C
:103230006D1C072DEED368468578FF2D4ED0129871
:10324000032810D046481C21301AFCF799FF0127AB
:1032500007281ED204A80290139800280BD011E072
:1032600068468570E7E7802F03D0402069460871E3
:103270006BE02020FAE738463849A8401039496801
:10328000084260D0284602F017F8202069460871ED
:1032900049E031481C215838301AFCF771FF0028EA
:1032A0001DD02D4830213C38301AFCF769FF010051
:1032B0002C482BD040216A4611712B498E4244D0B4
:1032C000274AA9001C3A5158B1423CD104A90291A5
:1032D000C07A854227D16846447024E033E004A8D0
:1032E00002902020694608714C701B490B940C31E8
:1032F0000C9164390791694689781C225143184A18
:1033000005908918089107A906910CE030226946BA
:103310000A714C70CF70807A800704D41148302134
:103320003038FCF770FF129869460228087910D0EF
:10333000022108436946087104A8029001A9684661
:10334000139AFDF7E5FB15B0F0BD69460879032136
:10335000EFE73843EFE70000281300207400002057
:103360000C1200201C1300207455000070B5064696
:1033700018480D46007800280ED01749002E0ED0B0
:10338000002D0CD02868002809D0144C2168002991
:1033900007D011480A3870BD0F48801F70BD08461D
:1033A00070BD20600522691D201DFCF713FF2879E0
:1033B000A072207A0221400840000843FB221040FE
:1033C0002072E0790123184308431040E071002087
:1033D000307070BD640000200E80000028130020B3
:1033E00010B50E4900234A788C78A24212D0521CA4
:1033F000D2B24A70022A00D14B704A78074B920031
:1034000018339A580260086910180002000A08610F
:10341000012010BD0360002010BD0000BC00002092
:1034200010B5002803D0112802D0FDF78DFB10BD88
:103430000248082241681143416010BD7C00002011
:1034400010B51C4C217820464068012906D002297D
:1034500029D0032912D1000717D513E0000711D492
:1034600015481422017851430818C188A28B891A83
:103470000904090CC18002D001F0A4FC10BDFEF7C4
:1034800093FE10BD00F01AFC10BD6069401C606125
:1034900000F0F6F9002803D0207801F07FFB10BD82
:1034A000FEF71AFE10BD6078044980000858804776
:1034B00010BD00007C000020C8130020BC55000097
:1034C00010B528DFFFF7ACFF10BD10B529DFFFF7FF
:1034D000A7FF10BD002804D00349496D01600020FA
:1034E000704703207047000014150020002070472B
:1034F0000020704700207047F8B50646407830211C
:1035000004464C4324490C2250436118224A0025AA
:103510004B6830328018AE462F469C46002B0CD0AC
:10352000827A1346D20908D05A0606D40D461A4AA2
:10353000614689B2175908358E46174C00893034D8
:103540003B4672462946A9DF0B2819D0002800D037
:103550001248012F13D170780C21484300190089BB
:103560000F4AA7DF00280AD00E49884212D0082847
:1035700010D0891C88420DD011280BD00020F8BD36
:1035800070780C21484301230019008972462946AE
:10359000A9DFE0E70148F8BDEC12002041800000FF
:1035A000FFFF00000230000070B50C460146607855
:1035B0003022084D50434019382301F02FF80028DD
:1035C00007D161783022514349194A68521C00D111
:1035D0004A6070BDEC120020F3B58BB00D4626207A
:1035E0006946088568780C2103274843224E3B46EC
:1035F000801900890AAA6946AADF002838D16878AC
:1036000030214843741A001969460A8D0830FCF7C6
:103610000CFE0028687807D030214843011949681A
:1036200000290DD0154E0CE00C2141438919897AEF
:1036300089071DD4302148430019FCF7E4FD17E049
:103640000F4E27506846028D687830214843001994
:10365000426068784843001969460830FCF7BAFDB3
:103660006878302148430119382330220B98B0473D
:1036700000200DB0F0BD00001C1300205D480000CC
:103680008147000010B5FFF737FF10BD10B5FFF7F9
:103690008BFF10BD10B5FFF79FFF10BDF8B50746B3
:1036A000104E0125BD403068FDF7FAFA00280DD113
:1036B0000D4C2069284207D1384600F0BDFC002897
:1036C000E06804D0284303E0A8432061F8BDA84384
:1036D000E0602069002228432061A1683068FDF77E
:1036E000A1FAF8BDD0550000A800002070B51B4C11
:1036F000207900072ED41A481422017851430D185E
:103700002E6900F05FFF0146E8882A89761E80183E
:103710008019FCF735FD21690025002909D0616970
:10372000814206D1E56060680121084360600020A5
:103730000AE000F0A5F8002802D00220E56003E0CE
:103740002069002803D0032001F018FC70BDFEF7AB
:10375000C3FC70BD01F006FC70BD00007C000020C1
:10376000C8130020F8B51C4C2078002833D02069FD
:10377000002807D00026E068002805D00025002E8C
:1037800004D011E00126F6E70125F8E7684652DF8C
:10379000052804D0002804D0FDF7AEF904E0012686
:1037A00002E0216900988847002D10D160886946A1
:1037B0000880A06861DF052804D0002804D0FDF748
:1037C0009BF904E0012502E0E168A0688847002E2B
:1037D000DCD0002DD3D0F8BDEC000020F7B50025DB
:1037E000164604462F4616E0A80001210904A94008
:1037F000FF3041302258002A0BD003221202A218B7
:1038000052680A4205D02750019A01991268496806
:1038100090476D1CEDB2B542E6D3FEBD4188054828
:103820000288914204D34088814201D80120704728
:1038300000207047540000201048018CC9B20129B3
:1038400017D1818C090714D1018D09060A0F03D104
:10385000828D1206120F0ED0090F012903D1828D1D
:103860001206120F07D0032903D1808D0006000F26
:1038700001D000207047012070470000C00F00F009
:1038800070B50E481422017851430C18256900F0D8
:1038900099FE0146E08822896D1E80184019FCF7C8
:1038A0006FFC07494A69824206D3824202D1086905
:1038B000002801D0002070BD012070BDC813002079
:1038C0007C000020800701D0002070470120704755
:1038D00030B51588EC1C9C4201D90C2030BD022467
:1038E0004C5513881C255B1C9BB21380CD54138848
:1038F0005B1C9BB21380012807D0022807D0032845
:1039000007D0042807D0072030BD002004E00120A4
:1039100002E0CC5401E00320C8541088401C108001
:10392000002030BD10B50448017AC90702D00078E4
:10393000FEF7EAF910BD000018000020F8B52C4988
:10394000C8680A690C780F798968864694460091A0
:103950003EE00099E20055182A7836E018235343D8
:103960006968521CC918AB78D2B2934200D10022C8
:103970000B78022B02D0032B27D123E04E6803469D
:10398000014603E0B14204D00B46C96900291CD0AE
:10399000F8E7002919D08B4208D1C069002805D169
:1039A000144F0126BE600026B44601270E68C9697F
:1039B000D961002909D00B689B190B6005E00174DF
:1039C000C06900E000210028F9D169789142C5D191
:1039D0002146641EE4B20029BBD1054962460A6152
:1039E000C8600F71704501D00120F8BD0020F8BDFE
:1039F000BC00002000100140F8B504463148002604
:103A0000C168009107784EE02E48F90080680D18D3
:103A100043E0002C02D02046E4691FE028781821FA
:103A200041436A68401CC0B251182870AA7890427D
:103A300000D12E700A784868012A30D1027C002A11
:103A40002DD18A684260CA6882600A69C260496989
:103A500081611C490979002900D0466019494368F1
:103A60000A699C46991A0902174B090A994202D21F
:103A70008268891807E06146511A09028268090ABA
:103A80008A4202D9511A016000E0066046600121B5
:103A900086600174C66101F0EFFA002CB9D1287874
:103AA00069788842BAD138467F1EFFB20028ABD170
:103AB0000448C1680098814201D00120F8BD00206F
:103AC000F8BD0000BC000020FFFF7F00084A30B4B2
:103AD000821814680023002C08D0064C64680C423D
:103AE00004D013600449496830BC084730BC7047B3
:103AF0000030014000330140A0000020002398B0B6
:103B00005F4A05211846FDF745F8002801D0FCF76B
:103B1000F3FF00F04BF95B4A00215B48FDF724F806
:103B2000002801D0FCF7E8FF5748584A0021001D43
:103B3000FDF71AF8564A57490320FEF795F8002872
:103B400001D0FCF7D9FF69460020FDF753FF00289C
:103B500001D0FCF7D1FF6846007802287ED0002112
:103B600068460171FDF764FE68460079FEF774FD52
:103B700001200146103168460173052246A103A8C1
:103B80007CDF002801D0FCF7B7FF0024009450210F
:103B9000684601940180A0214180FF2184809131F9
:103BA000C1807ADF002801D0FCF7A6FF382101A8E8
:103BB000FCF729FB02206946087101258D71062258
:103BC000CA7188823648069024210FA8FCF71BFB97
:103BD00010A90D72FF202D301390B4200094149082
:103BE000304B0FAA002101A8FDF7D4F8002801D01E
:103BF000FCF782FFFDF760FE002801D0FCF77CFF98
:103C00002948019000940294684605806946274837
:103C1000FDF77CFB002801D0FCF76EFF2448FEF77F
:103C2000BDFD1F4808384078FEF74AFD1C21684654
:103C3000FCF7E9FA0520C00301900F200004029070
:103C40000094032168460173C481047419480590E7
:103C5000194806906846FDF7AFFA00E007E0002833
:103C600001D0FCF749FF0320FDF7B0F902E0012184
:103C700076E748DF0028FCD0FCF73EFFF9E70000BC
:103C80004C0100206D4A0000D05400005524000073
:103C9000A11B0000CD0C0000506567677900000093
:103CA0000800002053410000D92600005C030020DA
:103CB000ED480000754100001523000010B50448D0
:103CC0000822416891434160007800F067FF10BD11
:103CD0007C00002070B5144682880E460546208878
:103CE000111D4118921C994201D8FE2A01D90C20BD
:103CF00070BD521C32542088FF21401C80B22080AD
:103D000031542088401C80B220808119288801F01D
:103D1000CDFA2188401880B22080AA88002A09D0D4
:103D2000A968002908D08019FCF754FA2088A988CE
:103D300040182080002070BD072070BD10B5012103
:103D40000848C905C1601121490581600648012163
:103D5000002289030068FCF765FF002801D0FCF70A
:103D6000CBFE10BD000500506C55000010B50121C0
:103D700008484905C160C10381600748012100224C
:103D800089030068FCF74EFF002801D0FCF7B4FE61
:103D900010BD0000000500506C55000015200249C0
:103DA0004005C860704700000005005010B5054A86
:103DB00000210548FCF7D8FE002801D0FCF79CFE46
:103DC00010BD00009D3D00006C550000F8B50F4689
:103DD000017814460546012902D16878002806D0EA
:103DE0002088821C9A422DD8012902D006E00720A3
:103DF000F8BD69784118891C994223D8181A801E89
:103E000086B2684606802188B81C081869467DDF9E
:103E10000028EDD12878022805D169460988B142E9
:103E200001D809210AE00821012805D16878B042AB
:103E300002D86A46108001E068460680684600881D
:103E4000FE2801D90C20F8BD2288401CB8542088D7
:103E5000401C80B22080395420886946401C208054
:103E60000988401820800020F8BD002070470020FD
:103E7000704700207047000031B5054C04E0401E3B
:103E800000902046FCF726F900980028F7D138BDAD
:103E9000E70300008207D30EFF229A408907090E2C
:103EA00010B5994000280BDA03071B0F083B9C084C
:103EB0000C4BA400E318DC6994430C43DC6107E07D
:103EC0008408094BA400E418236893430B43236040
:103ED000C106C90E012088400449086004490860F1
:103EE00010BD000000ED00E000E400E080E200E032
:103EF00000E100E0F3B581B00F46019800F0A8FAA8
:103F0000012400281E4E019817D0FDF793FF801959
:103F10004030007C8009032802D0012806D007E049
:103F20001848006901998C40204201D1022100E02B
:103F30000321019800F0E6F8FEBD00F095FA002894
:103F4000FAD00198FDF776FF05468100C81D0E4A9C
:103F5000F93089180A6980B222430A610B49401876
:103F600000210160002FE7D00198FDF763FF80007A
:103F700030580028E0D00648AC404460FEBD000048
:103F80004C13002000050050006500400060004018
:103F900000630040FEB5044623480E460019342154
:103FA00041560027C8171346401C01D0082738E0A7
:103FB000F27819462046FDF719FF0546401C2FD020
:103FC000B078002807D01948A10009180868022213
:103FD0009043086007E000217378204600910A466C
:103FE000019100F07DF8F078002810D01048AA0068
:103FF0001018317802690F4B1A400261E206D20CA8
:104000008907890B0A4301690A43026109E00648EE
:10401000327840194030017C92011143017400E074
:1040200004273846FEBD00004C1300200007005056
:1040300000650040FFE0FCFF03490969C140C80773
:10404000C00F00D0012070470005005070B5124D20
:10405000687F002801D0082070BD0F49002040393A
:10406000421E0B182033401CC0B21A752028F8D30A
:1040700000242046FDF7ACFE641CE4B20D2CF8D3FE
:1040800003210620FFF706FF01200449C00748600E
:1040900001206877002070BD8C1300200063004071
:1040A0000248407F002800D0012070478C13002078
:1040B00007480122026007490020086048608860C4
:1040C000C86005480260054902200870704700007A
:1040D000003501400031014000300140A0000020C7
:1040E00030B552000A439900039C0A432102049D03
:1040F0000A4329040A43024980004018026030BD87
:1041000000070050820006481018026803231B04B1
:104110009A430260026809040A4302607047000083
:1041200000070050034940180068012800D0002013
:1041300070470000006000404058002800D0012077
:1041400070470322120280184068084000D0012006
:10415000704710B5002809D0032806D10220FDF7CA
:1041600075FD002801D0FCF7C7FC10BD00F002FD72
:1041700010BD000010B50078002807D104483B218D
:10418000408876DF002801D0FCF7B6FC10BD0000A7
:1041900000000020F0B58BB00C46054602216846B1
:1041A000017301268674228982826289C282204636
:1041B0000C3000270690089768460184478407A8BA
:1041C0000990A98A288808AAA5DF002804D0E96AEE
:1041D000002919D0884717E06846808BC007C00FB8
:1041E00012D068460782288803A9A8DF002812D1C8
:1041F000217B20460D300B00FCF797FA09420F1C7B
:1042000022242729402B4200FF20FE3069460882E5
:10421000288803A9A8DF0BB0F0BD6A4617700BE031
:1042200006221BE069460E720190AA6A2846904752
:104230000020F0E76A4616706289022AF2D2EFE7A0
:10424000022000E00320694614E00420FBE705207B
:10425000F9E76189032905D2032208212846FDF7E1
:10426000DFF8D8E741780278080210436946888071
:1042700002D006200870D8E70720FBE70920E2E714
:104280000322EBE71CB509780B00FCF74EFA111678
:104290001616161616161616161616161616160ACA
:1042A0001600818E808F6A46A5DF0198007801286C
:1042B00004D0002801D1FFF741FD1CBDFFF756FDDA
:1042C0001CBDF0B50E4605460988428902208DB016
:1042D00091420DD1296800290AD069460870707B87
:1042E000317B00020843694688802A682846904747
:1042F0003088A98B88420ED1286800280BD007206F
:1043000069460870707B317B0002084369468880EB
:104310002A68284690473088698C34460C34884295
:104320002FD1286800282CD00A2069460870B77A57
:1043300001AA384621460692FCF7DCFC21180590BC
:10434000069A381AC0B2121DFCF7D4FC0146059833
:10435000069A0818C0B221180590381AC0B208325F
:10436000FCF7C8FC01460598069A0818C0B2211847
:10437000381AC0B20C32FCF7BDFC2A6869462846E0
:1043800090473088A98D88420BD12868002808D032
:104390000D2168460170217801712A686946284616
:1043A00090473088A98E88420DD1286800280AD00D
:1043B00010216846017021780171617841712A6885
:1043C0006946284690470DB0F0BD0021425C002AA6
:1043D00001D001207047491C0629F7D300207047FF
:1043E00070B505461C200D4968434418204611301D
:1043F0000621FBF708FF20461021FBF704FFFF21F1
:1044000021740020A176C0432083284600F054FF89
:10441000024A0020A9001C3A505070BD0C12002026
:1044200010B502780A7042784A7082788A70C27831
:10443000CA7002790A7142794A710830891DFCF705
:1044400067FC801DC0B210BD007808700120704765
:104450000449081834214156042901DB0120704722
:10446000002070474C13002004490818342141569D
:10447000042901D201207047002070474C1300200E
:1044800007490979490701D408207047002804D05A
:10449000044949780160002070470E2070470000F1
:1044A0007C000020C813002030B5124B1B795B073D
:1044B00001D4082030BD002805D0002A03D00468AC
:1044C000002C10D101E00E2030BD0B4B1D68002DDB
:1044D00009D045681889414369185D894543586882
:1044E0002818884201D8072030BD14600020516090
:1044F00030BD00007C00002094140020FEB505466D
:1045000025480E460079400701D40820FEBD002D45
:1045100003D02868002834D101E00E20FEBD1F4CD6
:10452000216800292DD0608921894843616841189C
:104530006868814225D9FFF7C5F900280FD068685F
:10454000019029680C2251430F1979680091401A93
:1045500039890C46FBF714FE002912D101E0102026
:10456000FEBD21463046FBF70BFE002909D1002E87
:1045700007D0788944430198811900980019814235
:1045800001D90720FEBD002002460090334629468F
:104590000320FDF7DFFDFEBD7C0000209414002009
:1045A00010B507484469601C06D000F00BF80146BE
:1045B0002046FBF7E5FD10BD01200007406910BD56
:1045C0000010001001200007006980B27047000051
:1045D00070B500240F482546047044702846FDF746
:1045E000A9FD6D1C0A2DF9D30B4D6C80FFF7D8FF88
:1045F000861EFFF7E7FF46430648AE60CC306C618D
:104600000460048144812C70AC610420EC6168601A
:10461000002070BDC81300207C000020FFB5274893
:1046200081B000791F4616460D46400702D4082087
:1046300005B0F0BD002D06D00198002803D02868F1
:10464000002815D101E00E20F2E71D4C206800285B
:104650000ED0618920896268414389186A68914255
:1046600006D9002E04D0B04202D3F119814201D9FB
:104670000720DDE70198FFF725F900281BD0384611
:10468000FFF720F9002816D06868FFF71BF900280B
:1046900011D068683246C1190198FBF79BFD00965E
:1046A00028680C2148432458002202212846019BF7
:1046B000A0470020BCE71020BAE700007C000020E3
:1046C00094140020F8B52C4D044628790E46400776
:1046D00001D40820F8BD002C20D0002E1ED0206868
:1046E00000281BD0FFF76EFF0146A088814213D33C
:1046F000102811D3E08800280ED0FFF751FF471E85
:10470000FFF760FF4743E288A188A8684A43121870
:10471000974201D3890703D00720F8BD0E20F8BDCA
:104720006988012926D031600C22144B51437060F6
:10473000CA18506020685850A0881081E0885081C5
:10474000FFF740FF0646FFF73DFFA188E288401EC5
:10475000514340183146FBF729FD0446FFF732FF6D
:104760000146A86861430818A8606888401C6880F2
:104770000020F8BD0420F8BD7C0000209414002027
:10478000F8B5044620481E46007915460F464007F6
:1047900001D40820F8BD002F05D0002C03D02068DC
:1047A000002815D101E00E20F8BD18480168002945
:1047B0000ED04289018940684A43101862689042CD
:1047C00006D9002D04D0A94202D3A819884201D9E4
:1047D0000720F8BD3846FFF775F8002811D030469D
:1047E000FFF770F800280CD06068FFF76BF800281E
:1047F00007D02B463A46214601200096FDF7AAFC39
:10480000F8BD1020F8BD00007C00002094140020AA
:1048100010B5114902460878002811D004280FD09D
:10482000022A16D0032A0BD10A79120711D48A69F9
:10483000521C8A61032A08D0022802D000F0AEF987
:1048400010BD487800F09AFB10BD0D20FCF77CF9F4
:1048500010BDFEF7F5FD10BD7C000020F8B5044644
:1048600020481E46007915460F46400701D408200F
:10487000F8BD002F05D0002C03D02068002815D1EA
:1048800001E00E20F8BD1848016800290ED04289C9
:10489000018940684A4310186268904206D9002D89
:1048A00004D0A94202D3A819884201D90720F8BD33
:1048B0003846FFF707F8002811D03046FFF702F816
:1048C00000280CD06068FEF7FDFF002807D02B46BB
:1048D0003A46214604200096FDF73CFCF8BD102026
:1048E000F8BD00007C0000209414002010B5104892
:1048F00010494088884205D0132176DF03E0FCF799
:10490000FBF802E074DF0028F9D10020FDF79EF9E2
:10491000002801D0FCF7F0F8FCF7C0FC002801D01B
:10492000FCF7EAF8FF20F530FFF7A6FA10BD00000B
:1049300000000020FFFF000070B501240B49600457
:1049400008600B4940108860094940398860094D6A
:104950006C602F20FBF7CEFBAC60074D00242F20AE
:104960002C61FBF7C7FBEC7070BD000080E100E03C
:104970004013014000100140BC00002030B50A483F
:10498000FF21C57D0022094C0931094B002D6250E1
:1049900007D09969437EC268D154417E491C417653
:1049A00030BD986930BD0000AC13002000200040ED
:1049B000002500401FB501236A461370107203489A
:1049C000019106C8684690471FBD0000AC13002047
:1049D00008B502490020009108BD00000000002039
:1049E00010B50121202805DA1A4A8140114201D16F
:1049F000194810BD8107C90E002808DA0207120FF6
:104A0000083A9208154B9200D218D26904E0820845
:104A1000134B9200D2181268CA401106890F04295C
:104A200011D200290FD002290DD00E494C68C306BF
:104A3000DB0E01229A40002C08D0400980000B5860
:104A400013430B5004E00448401C10BD06480260AC
:104A5000002010BDFC06FFBC0120000000ED00E0BE
:104A600000E400E00001002000E100E010B5104883
:104A70000E49C1600121890281600E4C207803003B
:104A8000FBF753FE061204060C0E1009042000E08A
:104A9000012000F093FA0020207010BD0220F8E7FA
:104AA0000820F6E71020F4E72020F2E7405101004B
:104AB0000005005000000020FFB50746806A81B065
:104AC000144600283DD0002538462030009033E0C1
:104AD0000C20B96A68430E18B088801CFE2802D9E1
:104AE0000C2005B0F0BD22880299401C8854208813
:104AF0001622401C80B2208002990A542088401C53
:104B000080B2208002994118308800F0CFFB2188C4
:104B1000401880B22080B288002A0AD0B1680029EB
:104B20000FD0029BC018FBF755FB2088B1884018B6
:104B300020806D1C0098EDB2007BA842C8D80020F0
:104B4000CFE70720CDE700B500220A700300FBF78E
:104B5000ECFD060406080A0C0E10002008E01120E7
:104B600006E0212004E0312002E0122000E02220B3
:104B7000087000BD10B50020FDF768F8002801D0CE
:104B8000FBF7BAFFFCF79CFF002801D0FBF7B4FF4E
:104B90003CDF002801D0FBF7AFFF10BD10B50F4977
:104BA0000028087009D0012811D0022812D003284B
:104BB00002D14869FEF784FC10BD00208861C861FD
:104BC000074840780028F7D0FDF798FA10BD00F0AC
:104BD000F9F810BD00F058F810BD00007C0000206E
:104BE000C8130020002803D00249C8600020704785
:104BF0000E207047EC0000201CB503490191009184
:104C0000694660DF1CBD00000000002070B50E4644
:104C10000546144614211046FBF7F5FA02202080C1
:104C200000202061207326726572002D01D00120C2
:104C3000A072002070BD10B5FBF750FF10BD000042
:104C400070B5002901D08C0701D0072070BD074C3A
:104C50000125A16062800649636010DF0028F5D15C
:104C600025701620FFF7BCFE70BD0000EC00002090
:104C7000374C0000002803D002490861002070472B
:104C80000E207047EC000020F8B5164C1422606826
:104C90004008400060601448017851430E1837699D
:104CA000FFF790FC01463846FBF76AFA054660615B
:104CB000FFF788FC0146F0887F1EC019FBF760FAF9
:104CC00002228542606801D1104300E09043606099
:104CD000E1681040084303D0002000F04FF9F8BD10
:104CE0000220FAE77C000020C813002010B502481B
:104CF0004069FEF7E5FB10BD7C00002010B5FFF712
:104D00004FFC441EFFF75EFC4443FFF75BFC044985
:104D10004A69521E5043CA682146FEF7D6FB10BDB1
:104D20007C000020F8B510481422017851430C187B
:104D30002569FFF747FC0146E08822898018401961
:104D4000FBF71EFA0F46FFF72BFC461EFFF73AFC57
:104D50004643E0882289F1198018044A40191269F3
:104D6000FEF7B3FBF8BD0000C81300207C00002054
:104D700070B5FFF727FC0546FFF712FC441EFFF74E
:104D800021FC60432946FBF7FBF9FEF799FB70BD58
:104D900070B5FFF717FC8608FFF714FC074949694F
:104DA00048430446FFF7FCFB451EFFF70BFC684336
:104DB00032462146FEF789FB70BD00007C000020D2
:104DC0000020704770B514481422017851430C1824
:104DD000241DFFF7F7FB6188104E884211D2FFF7C0
:104DE000F1FB61880D1AFFF7EDFB8208A188E068EE
:104DF0004018216940194919FEF767FBFFF7E2FBEC
:104E000007E0A288E06880188A082169FEF75DFB48
:104E10006088F06170BD0000C81300207C00002095
:104E200070B5454C06462078444D002807D0607880
:104E30000C22504340196168816000202070414875
:104E400000223F490068FBF7EDFE412E54D01BDCE9
:104E5000082E42D00DDC012E31D0022E35D0042E8A
:104E600006D160780C21484340198178491C817033
:104E700070BD102E38D0202EFAD160780C21484316
:104E800041194879401C18E0482E44D00BDC422ED2
:104E900039D0442EECD160780C21484341198878F0
:104EA000401E887070BD502E3DD0602EFAD16078C3
:104EB0000C21484341194879401E487170BD607803
:104EC0000C214843295C491C1BE060780C214843B5
:104ED00040194178491C417070BD60780C214843ED
:104EE0004119C878401C1CE060780C2148434019E7
:104EF0000179491C017170BD60780C214843295C1F
:104F0000491E295470BD60780C21484341194878E6
:104F1000401E487070BD60780C2148434119C87824
:104F2000401EC87070BD60780C2148434119087953
:104F3000401E087170BD0000100000200C0400200D
:104F4000C05D0000EC54000010B505480079000772
:104F500003D4012000F012F810BD00F003F810BDDA
:104F60007C00002010B5044808224168914341604C
:104F7000407800F003F810BD7C0000200249487022
:104F800002498000085800477C000020A855000016
:104F900010B50446FFF73CFC2046FBF7CBFF10BDE5
:104FA00010B505480079000702D4FDF795F810BD4B
:104FB000FFF7D8FF10BD00007C00002008B50749AE
:104FC000074A898F914205D0694608700348FCF76B
:104FD00083FA08BDFFF724FF08BD00008C03002002
:104FE000FFFF0000FEB51F4C00252769E068029016
:104FF0006846FEF7F5F90190FEF7A0FC0646019819
:10500000002822D000230098E16817E00E680A46C5
:10501000864202D9301A086012E0801BF31800267D
:105020001660D668D169B446002E07D0FE18360245
:10503000360A566066469660D56115460029E5D168
:105040002846E160FEF7D8FC06E02846FEF7D4FCCF
:10505000002801D1002E02D00298FDF7C3F80020ED
:105060002071FEBDBC00002001200249000508603F
:105070007047000000E200E010B50E4BD96800292F
:1050800006D002680C68A24204D8A21A0A60C16164
:10509000D86010BD0B4604E00B46C969121B0029FD
:1050A00004D00C689442F7D3A41A0C600260C1616A
:1050B000D86110BDBC000020F8B51D4DEC68002C77
:1050C00034D01C48002740682969401A0602360A75
:1050D0002068B04218D8361AC7192246107CE469F5
:1050E00000280FD0002010746B69002B07D0916945
:1050F00050699847002805D0FBF7FEFC02E0516993
:1051000090698847002CE3D16978A878814206D15C
:10511000401CC0B2A870022801D10020A870044928
:105120000006800D18310F50FFF79EFFF8BD0000FC
:10513000BC00002000150140FF2107481D3100225E
:1051400042500648828A8168895C828A521C828227
:105150000348C1617047000000200040AC130020EC
:10516000002500401FB500216A46117010720448E6
:1051700082680192817506C8684690471FBD00008D
:10518000AC130020F0B5454D012185B049022846F9
:10519000FEF7D7FF01270026414C002824D0FF212D
:1051A00025312846FEF7C8FF00281DD0FF202530F6
:1051B0002E5081203B4980008860A07E002800D1CD
:1051C0006F600221684601703749086808600390E3
:1051D000E17D68460172E0680190E675267606CCAE
:1051E0006846083C90472BE004212846FEF7A9FFBB
:1051F000002825D0FF2109312846FEF79DFF002811
:105200001ED0FFF7BBFBE07D617E884218D1207E77
:10521000002808D0627EE168E0752069E0602676AB
:10522000667610460AE0A07E002800D16F608120DB
:105230001C4980008860E675607EE168FFF7BAFB74
:10524000FF211D312846FEF777FF00280DD0A18AE7
:10525000A07D814202D2FFF76FFF06E0FF211D31E2
:105260006E50002801D0FFF77DFFFF214531284611
:10527000FEF762FF00280ED0FF2045302E50A07EA2
:10528000002800D02F60E07D002804D0E675607E05
:10529000E168FFF78FFB05B0F0BD00000020004083
:1052A000AC13002000230040802400400870000A56
:1052B0004870022070470000012181400248426886
:1052C0008A434260704700006400002038B51549E9
:1052D000154A488890420FD04A78144C521CD2B2DA
:1052E0004A70237B934208D3091D75DF002803D041
:1052F000A169002900D0884738BD00254D70217C68
:10530000002907D03B2176DF002803D0A1690029BE
:1053100000D0884761690029EED06846057088474B
:1053200038BD000050000020FFFF0000D411002015
:10533000EFF30580C005C00D1AD0103840B2002828
:1053400008DA0107090F083989080C4A8900891809
:10535000C96904E081080A4A890089180968800738
:10536000C00EC1400806800F012803D0032803D0D7
:1053700002207047002070470120704700ED00E0D8
:1053800000E400E042788378521CD2B2934200D10C
:1053900000220378934201D1002070470A704168CF
:1053A0004078182250430818704770B50C460646DE
:1053B000FBF7AEFC05466119301DFBF7A9FC40194F
:1053C000C5B2304661190830FBF7A2FC4019C5B2DE
:1053D000304661190C30FBF79BFC4019C0B270BD20
:1053E000FFB583B016460C9D0D9C1F46022200950A
:1053F0000194039800F00CF8002807D13B461022D6
:10540000314600950194039800F002F807B0F0BD12
:10541000FFB583B0074600200C9C864626880546CB
:105420003AE07868A900421811886846818051885E
:10543000C1800022694601A865DF002839D168468D
:1054400001780598814226D17046002801D00022BB
:1054500000E002222088891842180D998A4227D834
:10546000714600290AD1401C80B22080069A049916
:1054700011542088401C20800120864621880698EF
:105480000A18694601A865DF002812D169462088FC
:105490000978401820806D1C3888A842C1DC70460D
:1054A00000280AD02088801B401E80B2FF2802D925
:1054B0000C2007B0F0BD069988550020F9E7017966
:1054C000002902D1007B002800D001207047000095
:1054D0000C0100202C01002001000007636289CD2F
:1054E000D6A0AEAE78418EEE0000BEDECC0300202A
:1054F000EC0300200C1000202C1000207010002065
:105500001D000000160000001C0000000500000047
:1055100007000000090000000B0000000D00000063
:105520000F0000001D010000D51A00001601000048
:10553000D51A00001C010000D51A0000050000006B
:10554000D51A000007000000D51A0000090000006D
:10555000D51A00000B000000D51A00000D00000055
:10556000D51A00000F000100D51A0000901000208D
:10557000B4110020FFFFFFFF733E0000D93500008B
:10558000F5340000953600006F3E0000A93500009C
:10559000F13400008D3600006B3E0000F93400004D
:1055A000ED34000085360000714D0000914D000083
:1055B000ED4C0000254D0000FD4C0000494F00005F
:1055C0002D240000D9230000A14F0000ED3600007B
:1055D000B81400200300000023D1BCEA5F78231533
:1055E000DEEF12120000000008560000000000204C
:1055F0000C01000044070000145700000C010020BB
:10560000EC200000540700000000FFFF0000000035
:105610000A1801000A180100010000000000000043
:10562000000000000000000000000000000000007A
:10563000000000000000000000000000000000006A
:10564000FFFF00000000000000000000000000005C
:10565000000000000000000000000000000000004A
:10566000000000000000000000000000000000003A
:10567000000000000000000000000000000000002A
:10568000000000000000000000000000000000001A
:10569000000000000000000000000000000000000A
:1056A00000000000000000000000000000000000FA
:1056B00000000000000000000000000000000000EA
:1056C00000000000000000000000000000000000DA
:1056D00000000000000000000000000000000000CA
:1056E00000000000000000000000000099270000FA
:1056F00000000000000000000000000000000000AA
:105700000000000000000000000000000000000099
:045710000024F4007D
:04000005000000C136
:00000001FF
