:020000040001F9
:10B00000E02B0020F5B001000FB1010011B10100EB
:10B010000000000000000000000000000000000030
:10B0200000000000000000000000000013B101005B
:10B03000000000000000000015B1010017B1010080
:10B0400019B1010019B1010019B4010019B10100D1
:10B0500019B101000000000099B1010019B101000F
:10B0600019B1010019B1010019B1010019B10100B4
:10B0700019B1010019B1010019B1010019B10100A4
:10B0800019B1010031B3010019B1010019B101007A
:10B0900051B3010019B1010059B3010019B1010008
:10B0A00019B1010019B1010000000000000000000A
:10B0B0000000000000000000000000000000000090
:10B0C0000348854600F056F8004800475DC301007C
:10B0D000E02B0020401E00BF00BF00BF00BF00BF2C
:10B0E00000BF00BF00BF00BF00BF00BF00BFF1D165
:10B0F000704700000321094802680A4302600848BB
:10B1000002680A4302600748804707480047FEE795
:10B11000FEE7FEE7FEE7FEE7FEE70000240500404D
:10B120005405004079B30100C1B0010003460B4350
:10B130009B0703D009E008C9121F08C0042AFAD2ED
:10B1400003E00B780370401C491C521EF9D2704773
:10B15000D2B201E00270401C491EFBD270470022AF
:10B16000F6E710B513460A4604461946FFF7F0FF06
:10B17000204610BD064C0125064E05E0E36807CCCD
:10B180002B430C3C98471034B442F7D3FFF79CFF95
:10B1900068D0010088D00100F0B50025FF248BB0F5
:10B1A000013401262F460195204601F05DFB002861
:10B1B00008D047484068304204D046480021201853
:10B1C00035430160241D76007F1CA4B2042FEBD30D
:10B1D000FF207D3001F048FB002807D03E480021C9
:10B1E0000160400705433D48006901903C4C280739
:10B1F00012D0012700262F420AD03A48B200111877
:10B2000008690969C004C00E8903A258890F9047D4
:10B210007F00761C042EEED3002D57DA0020059017
:10B22000401E4DE0A119403108788506AD0E42B2AE
:10B23000521C39D00121A940089A0091114233D003
:10B2400080090390284600F087FD80002058049074
:10B25000002802D10398032826D1039800990328D7
:10B2600002D10598084305901F4AA800801800687D
:10B27000019A8003800F114202D0022802D013E00D
:10B28000032811D10399032907D102281CD00221D8
:10B29000284601F0D9FA7F1CFFB20498002803D099
:10B2A000049A284603999047761C042EBAD3002F9F
:10B2B0000CD00A4800690199884207D0019005988E
:10B2C00000273E460890ADE70321E1E70BB0F0BD53
:10B2D00000630040006000407C61004000050050B9
:10B2E0005C23002000650040000700508307FF2218
:10B2F000DB0E9A408907090E994000280BDA0007F7
:10B30000000F0838830808489B001818C369934346
:10B310000B43C3617047830804489B001B181868DF
:10B32000904308431860704700ED00E000E400E03F
:10B3300010B506490020086048608860C86003496D
:10B3400040390860486001F09FFC10BD4011014089
:10B3500010B501F02FFC10BD10B50648406800285C
:10B3600005D08047002801D000F000FA10BD00F0A1
:10B3700043FE10BDD420002010B500F087FE002849
:10B3800005D01F491D484860C8131E4988611E48E2
:10B39000018CC9B201290BD1828C120708D1028D10
:10B3A0001206120F042A03D1828D1206120F0AD040
:10B3B000012921D1818C09071ED1018D0906090FB0
:10B3C0000A2904D007E0114A01219160F5E7828D36
:10B3D0001206120F05D00D290ED1808D0006000F28
:10B3E0000AD10B480168012904D00A4901600168AB
:10B3F0000129FCD1C021416110BD0000DFFF07C061
:10B4000000050040006C0040C00F00F00006004046
:10B4100000EC06407593000010B501F09BFC10BDD8
:10B4200002E008C8121F08C1002AFAD1704770470D
:10B43000002001E001C1121F002AFBD17047F7B5BF
:10B4400084B00025168807461580406B14460028F6
:10B4500013D003780598032E51D30221017021885F
:10B460001122491C89B2218042542188491C89B289
:10B47000218043542088401C2080386B00281DD038
:10B4800005462088059902461232B24237D8112269
:10B490000A5420881022401C80B220800A54208840
:10B4A000401C20800F202A5C2388401ECA5422881A
:10B4B00040B2521C22800028F5DA002538462030A0
:10B4C0000290807B002806D033462246059900F082
:10B4D00001FE050014D10298407B002806D03246B8
:10B4E0002146059800F0BAFA050009D1B87800287D
:10B4F00023D0059886462088001DB04202D90C2032
:10B5000007B0F0BD684679DF0028F9D12188032013
:10B510007246505420881921401C80B2208011545A
:10B5200020887146401C80B22080411868460088FF
:10B5300001F0A4FC218840182080F878002817D05A
:10B54000218803230A46FB56C91C0598B142D6D868
:10B550000221815421880122491C89B22180425450
:10B560002188491C89B2218043542088401C2080B6
:10B570007868002817D021880023C3560A46C91CC2
:10B580000598B142BBD80221815421880A22491C66
:10B5900089B2218042542188491C89B221804354B8
:10B5A0002088401C2080388900280AD00094384622
:10B5B0000196062202210830059B01F0D4FC05000B
:10B5C0009ED1388A00280AD0009438460196072276
:10B5D00003211030059B01F0C6FC050090D1388B8B
:10B5E00000280AD0009438460196152214211830FC
:10B5F000059B01F0B8FC050082D1386A002806D00E
:10B6000033462246059900F003FC0500D8D1786A3C
:10B61000002806D033462246059900F04DFF05006C
:10B62000CED10298007B002807D033462246384608
:10B63000059901F031FA0500C2D13878002807D009
:10B64000334622463846059900F06AFF0500B7D117
:10B65000284655E710B586B018216846FFF77FFDEC
:10B6600000246846047001940472402101824482DF
:10B6700073DF002801D000F079F801210248490564
:10B68000C160846006B010BD0005005070B5002494
:10B69000074D05E06968E000085C00F0C1FF641C2C
:10B6A00028788442F6D30348006800F007F970BD9B
:10B6B000A020002060D0010070B50024064D06E0F7
:10B6C0006968E000085C012100F0CEFF641C287866
:10B6D0008442F5D3002070BDA0200020F8B51546A7
:10B6E0000C460646052A01D20720F8BD01F092F863
:10B6F000002803D101F064F80028F6D11049002099
:10B700004E600C70C8608D6008610E4D0DE0E00069
:10B7100069688019009181786A46517000780A4AF8
:10B72000694600F0F1FF0028DFD12046641EE4B234
:10B730000028ECD1054A0021024800F023F8F8BDAA
:10B74000A020002060D00100A9BF010009BF0100B6
:10B75000BFF34F8F04490348C860BFF34F8F00BF4A
:10B76000FDE700000400FA0500ED00E00EB5002141
:10B77000029000916A4601910148FFF7E9FF0EBD72
:10B7800001400000094B9B68002B07D0002A07D01E
:10B79000002805D00068037C002B03D008207047E8
:10B7A000072070474174426100207047B420002098
:10B7B000FFB59007002581B014460E46002832D10F
:10B7C0001B4F002C31D001F0CDF804987861032094
:10B7D000387033461821224600204B43BC60183491
:10B7E000C10089180D704D708E704C601C19401C82
:10B7F0000328F5DBFD607D7001240E48BD70240533
:10B80000046003211420FFF771FD0B4804600B4C0A
:10B810000198A06003211120FFF768FD606838617E
:10B82000002005B0F0BD0720FBE7BD60FBE700008E
:10B83000B420002080E200E000E100E000150140BB
:10B84000FEB50D461B4917468968044600292AD0D3
:10B85000002C28D0052D01D20720FEBD60690028EC
:10B8600021D0607C012820D0002601F03FFBC000E1
:10B870001049019089684018694601F061FB002871
:10B8800015D0012101700C49446049680830E2C0BC
:10B89000084901988968411868460078487001F0A5
:10B8A000CBF90020FEBD0820FEBD2E46DDE70420BA
:10B8B000FEBD0000B420002000150140F8B5134D76
:10B8C0000446A96800291CD0002C1AD06069002801
:10B8D00017D00026267401F009FBC700A868694646
:10B8E000381801F02DFB00280DD0022101704460B2
:10B8F000A868391868460078487001F09DF930460C
:10B90000F8BD0820F8BD0420F8BD0000B4200020D8
:10B91000F0B50C4693B01F216A4611800726002718
:10B920009180002809D0C17849070DD502A9FFF7F9
:10B9300086FD002809D102AD01E000251780002C0A
:10B940000ED0E078002802D0304613B0F0BD01AA36
:10B950000AA92046FFF773FD0028F6D10AAA02E0E3
:10B9600068460022878068468088C3B2684600889F
:10B97000C1B2284672DFE8E770B5054601461C22D1
:10B980000E48FFF7D3FB0E4C0026267029680029CD
:10B9900006D00822201DFFF7C9FB201D7ADF02E038
:10B9A0000748001D7BDF002807D1401E60806670BD
:10B9B000044A00210448FFF7E5FE70BD4023002043
:10B9C0008C20002089CE01004CD00100F8B5214C1C
:10B9D000028800271E4DE689102A15D01E49112A1B
:10B9E00021D0122A2DD0502A1CD1C288801DB242EB
:10B9F00018D14289022A15D1427B037B10021843D9
:10BA0000C007C00F0CD112E0818869800146104840
:10BA1000082218310C30FFF789FB6F70002E01D11E
:10BA200000F03EFAF8BD0020C04368806F700868DF
:10BA3000FFF744FF0028F5D0A1690029F2D088471C
:10BA4000F8BD0822811802480C30FFF76FFBE7E7CA
:10BA50008C200020402300204CD001007CB50546FE
:10BA600008880C460930904201D90C207CBD6846FC
:10BA700071DF0028FAD121880820685420881B2112
:10BA8000401C80B220802954208800A9401C80B22C
:10BA90002080401906220131FFF748FB20886946C3
:10BAA000801D80B220800978002900D0012129540E
:10BAB0002088401C208000207CBD000010B504467A
:10BAC00000F0EAFE2046FFF781FF2146014800F022
:10BAD00033F810BD0423002030B50446002085B0A3
:10BAE000C043A0820868124B0D46A0610FCB0393A0
:10BAF0006B4607C321461231684663DF002814D124
:10BB0000A17C684681740B490182224604A9012068
:10BB1000A0DF002809D12946204600F083F800283C
:10BB200003D12946204600F0FFFA05B030BD0000E1
:10BB300050D00100231500000A88102A10D0112AC5
:10BB400010D0502A11D1CA884388891D9A420CD13D
:10BB50004A89012A09D18269002A06D0097B104747
:10BB6000898801E00021C9438182704703B585B00F
:10BB700001216A46118200220092019202920392F0
:10BB80006A4691704189118006A9039104A9029126
:10BB9000808A6946A6DF07B000BD000000B51D48D9
:10BBA00089B040680790002348221B4907A800F08D
:10BBB000E7FF002801D0FFF7D9FD6A4601210020E8
:10BBC00000F0C6FF002801D0FFF7D0FD134800F0B9
:10BBD00015FF002801D0FFF7C9FD684600F0AEFF51
:10BBE000002801D0FFF7C2FD05A871DF002801D0B1
:10BBF000FFF7BCFD05A9002070DF002801D0FFF78A
:10BC0000B5FD074800F090FF002801D0FFF7AEFD1A
:10BC100009B000BD44D00100BC220020E81F002074
:10BC2000BDBA010070B500240546601C90B0000745
:10BC3000000F08A9103008940870601C0007000F5E
:10BC4000103048708878F9263040801C88701C219C
:10BC500001A8FFF784FA694608791221084369466A
:10BC60000871029408A80494059407940690A87C8F
:10BC700008A98871144869468884112000940870C6
:10BC8000002048708878F7213040801C0840EF2160
:10BC90000840400840006946887014210AA8FFF750
:10BCA0005EFA09A80A9068460B900120694608864A
:10BCB0004C8688860E942B4628880A330AAA01A946
:10BCC000A2DF10B070BD00002415000010B51128CF
:10BCD00009D10648FFF74AFF002806D004498842E8
:10BCE00003D0082801D0FFF741FD10BD0423002038
:10BCF000023000000022D243830004490428CA50C5
:10BD000002D3081820300277704700005C2300201F
:10BD1000F0B50025ED43002A02D00023042601E0FF
:10BD2000042308260B4C04E09F00E7597F1C04D035
:10BD30005B1CB342F8D32846F0BD26185DB220360E
:10BD400035709E00A151002AF5D1E1182031087705
:10BD5000F1E700005C230020024909182020085662
:10BD6000704700005C230020F8B52348C168002913
:10BD70003ED00E6821494C680769C078E11B0D026E
:10BD80002D0AED1C002814D101201D4A000450602A
:10BD90001B4A403A50601B49400008601A4908603D
:10BDA0001A49012008602F20FFF794F91249012059
:10BDB000C870B54200D23546E81900020F4B000AA0
:10BDC000403318600D4A5168001B091B0902090A1B
:10BDD0000002000AC91C814209D9506818602F204E
:10BDE000FFF778F901200749400480390860F8BD61
:10BDF00000F0B8FDF8BD0000B4200020001501409F
:10BE00004013014080E200E000E100E0001001404A
:10BE1000F8B50646108814468446801D0D469842A3
:10BE200001D90C20F8BD32880720062AFAD3192739
:10BE3000FF01184BBA4201D99A42F3D17188062901
:10BE4000F0D3B94201D99942ECD19A4203D0994238
:10BE500001D08A42E6D80521604629542088122163
:10BE6000401C80B2208029542088401C80B2208051
:10BE70004119308801F002F82188401880B22080F2
:10BE80004119708800F0FAFF2188401820800020B6
:10BE9000F8BD0000FFFF000010B5FFF767FC10BD04
:10BEA000F8B5164800F0E4F8144D00260C3D144C8B
:10BEB000002807D0616900291CD001206A46107053
:10BEC000684616E02878002805D06169002911D05D
:10BED000684606700DE0687800280DD0A168094812
:10BEE00000220068FFF7ACFC002803D0A1690029FC
:10BEF00000D088472E70F8BD6168F0E798200020D8
:10BF0000402300204CD00100F8B500260124154D37
:10BF100023E06968F0004718387821462A69814093
:10BF2000114218D08A432A6100F040FC3A78214639
:10BF3000EB68914019400346934099420BD17978C0
:10BF4000012901D0012100E000217B684140002B44
:10BF500001D010469847761CF6B228788642D8D38E
:10BF6000F8BD0000A020002010B50E4900234A783B
:10BF70008C78A24212D0521CD2B24A70022A00D14E
:10BF80004B704A78074B920018339A580260086940
:10BF900010180002000A0861012010BD0360002093
:10BFA00010BD0000B4200020F8B50746104E012552
:10BFB000BD403068FFF782FC00280DD10D4C206990
:10BFC000284207D1384600F0F1FB0028E06804D091
:10BFD000284303E0A8432061F8BDA843E06020693E
:10BFE000002228432061A1683068FFF729FCF8BDD2
:10BFF00060D00100A0200020F8B51C4C207800285B
:10C0000033D02069002807D00026E068002805D03A
:10C010000025002E04D011E00126F6E70125F8E7FF
:10C02000684652DF052804D0002804D0FFF79EFBA5
:10C0300004E0012602E0216900988847002D10D114
:10C04000608869460880A06861DF052804D0002860
:10C0500004D0FFF78BFB04E0012502E0E168A06853
:10C060008847002EDCD0002DD3D0F8BDD42000208E
:10C07000418805480288914204D34088814201D812
:10C080000120704700207047902000201048018C4C
:10C09000C9B2012917D1818C090714D1018D090674
:10C0A0000A0F03D1828D1206120F0ED0090F01293B
:10C0B00003D1828D1206120F07D0032903D1808D80
:10C0C0000006000F01D000207047012070470000DB
:10C0D000C00F00F030B51588EC1C9C4201D90C2033
:10C0E00030BD02244C5513881C255B1C9BB2138069
:10C0F000CD5413885B1C9BB21380012807D0022803
:10C1000007D0032807D0042807D0072030BD00201F
:10C1100004E0012002E0CC5401E00320C854108860
:10C12000401C1080002030BD30B58FB005461C216A
:10C130006846FFF714F8694608780A2108436946FB
:10C140000870002401940394049405940694A87C38
:10C1500008A98870154869460884601C0007000F0C
:10C1600010300794087711204877887FF92108401C
:10C17000F721801C0840EF21084040084000694634
:10C180008877142109A8FEF7EAFF08A8099007A8F4
:10C190000A90012069468885CC8508860D942888F8
:10C1A000AB1C09AAA2DF0FB030BD000025150000AE
:10C1B00001230022DB050448002902D0C36082600D
:10C1C00070478360C260704700050050F8B52C4985
:10C1D000C8680A690C780F79896886469446009188
:10C1E0003EE00099E20055182A7836E018235343C0
:10C1F0006968521CC918AB78D2B2934200D10022B0
:10C200000B78022B02D0032B27D123E04E68034684
:10C21000014603E0B14204D00B46C96900291CD095
:10C22000F8E7002919D08B4208D1C069002805D150
:10C23000144F0126BE600026B44601270E68C96966
:10C24000D961002909D00B689B190B6005E00174C6
:10C25000C06900E000210028F9D169789142C5D178
:10C260002146641EE4B20029BBD1054962460A6139
:10C27000C8600F71704501D00120F8BD0020F8BDE5
:10C28000B420002000100140F8B5044631480026D3
:10C29000C168009107784EE02E48F90080680D18BB
:10C2A00043E0002C02D02046E4691FE028781821E2
:10C2B00041436A68401CC0B251182870AA78904265
:10C2C00000D12E700A784868012A30D1027C002AF9
:10C2D0002DD18A684260CA6882600A69C260496971
:10C2E00081611C490979002900D0466019494368D9
:10C2F0000A699C46991A0902174B090A994202D207
:10C300008268891807E06146511A09028268090AA1
:10C310008A4202D9511A016000E00660466001219C
:10C3200086600174C66100F08FFC002CB9D12878BA
:10C3300069788842BAD138467F1EFFB20028ABD157
:10C340000448C1680098814201D00120F8BD002056
:10C35000F8BD0000B4200020FFFF7F000020012571
:10C36000022747499EB0032604462A46824012020D
:10C37000520F02D0820052181660401C2028F4D3BD
:10C380000721404849058160C46000233E4A0521D9
:10C390001846FFF70DFA002801D0FFF7E7F93B4AEE
:10C3A00001213B48FFF79AF9002801D0FFF7DEF999
:10C3B000FFF7F4FB1120694608720D2235A102A88F
:10C3C0007CDF002801D0FFF7D1F9009450216846A6
:10C3D00001940180A0214180FF2184809131C1809E
:10C3E0007ADF002801D0FFF7C1F92E480090694696
:10C3F0002D48FFF771FB002801D0FFF7B7F92B4854
:10C4000000681C902848817C18A8817438216846EF
:10C41000FEF7A5FE6846077085700621C1703821B9
:10C420000EA8FEF79CFE10A805811CA813900EA96B
:10C430006846FFF76DFA002801D0FFF797F91C2135
:10C440006846FEF78CFE05204004019080100290A3
:10C45000009468460673C481047415480590154815
:10C4600006906846FFF788FA002801D0FFF77EF9AA
:10C47000FFF7F0F848DF0028FCD0FFF777F9F9E77D
:10C480000007005000050050F42000206606000060
:10C49000842000204E6F726469635F426C696E6B2A
:10C4A00079000000B1C101000423002044D0010044
:10C4B00015C9010099BE010070B5144682880E4668
:10C4C00005462088111D4118921C994201D8FE2A68
:10C4D00001D90C2070BD521C32542088FF21401C11
:10C4E00080B2208031542088401C80B22080811985
:10C4F000288800F0C3FC2188401880B22080AA88D8
:10C50000002A09D0A968002908D08019FEF70EFE7C
:10C510002088A98840182080002070BD072070BDA9
:10C52000F8B50F46017814460546012902D168780E
:10C53000002806D02088821C9A422DD8012902D0DA
:10C5400006E00720F8BD69784118891C994223D874
:10C55000181A801E86B2684606802188B81C081802
:10C5600069467DDF0028EDD12878022805D169468B
:10C570000988B14201D809210AE00821012805D122
:10C580006878B04202D86A46108001E068460680AA
:10C5900068460088FE2801D90C20F8BD2288401C7E
:10C5A000B8542088401C80B22080395420886946C5
:10C5B000401C20800988401820800020F8BD000021
:10C5C0008207D30EFF229A408907090E10B59940C1
:10C5D00000280BDA03071B0F083B9C080C4BA40038
:10C5E000E318DC6994430C43DC6107E08408094BE1
:10C5F000A400E418236893430B432360C106C90ECB
:10C6000001208840044908600449086010BD00000A
:10C6100000ED00E000E400E080E200E000E100E086
:10C6200010B5044600F086F9002804D00021204609
:10C6300000F00AF910BD204600F088F90028F9D072
:10C640002046FFF789FB0649820051180A69520803
:10C6500052000A61012181400248816010BD000042
:10C660000065004000630040F3B581B00F460198BB
:10C6700000F060F9012400281E4E019817D0FFF742
:10C680006BFB80192030007F8009032802D001282D
:10C6900006D007E01848006901998C40204201D17A
:10C6A000022100E00321019800F0CEF8FEBD00F069
:10C6B0004DF90028FAD00198FFF74EFB054681009E
:10C6C000C81D0E4AF93089180A6980B222430A61EE
:10C6D0000B49401800210160002FE7D00198FFF7B7
:10C6E0003BFB800030580028E0D00648AC40446056
:10C6F000FEBD00005C2300200005005000650040E6
:10C700000060004000630040FEB5044623480E462A
:10C710000019202141560027C8171346401C01D09C
:10C72000082738E0F27819462046FFF7F1FA054667
:10C73000401C2FD0B078002807D01948A100091854
:10C74000086802229043086007E0002173782046C1
:10C7500000910A46019100F065F8F078002810D0A9
:10C760001048AA001018317802690F4B1A40026174
:10C77000E206D20C8907890B0A4301690A43026168
:10C7800009E00648327840192030017F92011143B8
:10C79000017700E004273846FEBD00005C2300203E
:10C7A0000007005000650040FFE0FCFF03490969F5
:10C7B000C140C807C00F00D00120704700050050DD
:10C7C00070B5124D2879002801D0082070BD0F499E
:10C7D00000204039421E0B182033401CC0B21A7092
:10C7E0002028F8D300242046FFF784FA641CE4B222
:10C7F000082CF8D303210620FFF7E2FE01200449AC
:10C80000C007486001202871002070BD9C230020D3
:10C810000063004002480079002800D001207047E2
:10C820009C23002030B552000A439900039C0A4320
:10C830002102049D0A4329040A430249800040184A
:10C84000026030BD000700508200064810180268E0
:10C8500003231B049A430260026809040A4302602E
:10C860007047000000070050034940180068012885
:10C8700000D00020704700000060004040580028B1
:10C8800000D001207047032212028018406808403F
:10C8900000D001207047000070B5058801240022F7
:10C8A000A4051A491A4B102D0CD0112D18D018467A
:10C8B0000088132D22D0522D11D100231A4619467B
:10C8C000A9DF1FE0CC608A60012464058C60CA6027
:10C8D00080881880FEF7F0FE14E0FEF747FF70BD79
:10C8E0008C60CA600020C0431880FEF7CFFE00288D
:10C8F00001D0FEF73BFFFEF7ADFE70BD00231A46E8
:10C9000085217FDF0028E8D170BD000000050050C0
:10C910008020002010B50078002807D104483B2172
:10C92000008876DF002801D0FEF720FF10BD000050
:10C93000802000200449081820214156042901DBE9
:10C9400001207047002070475C230020044908182C
:10C9500020214156042901D2012070470020704750
:10C960005C23002070B501240B49600408600B496A
:10C9700040108860094940398860094D6C602F205B
:10C98000FEF7A8FBAC60074D00242F202C61FEF7BA
:10C99000A1FBEC7070BD000080E100E0401301409D
:10C9A00000100140B420002030B50A48FF21C57DA9
:10C9B0000022094C0931094B002D625007D09969BA
:10C9C000437EC268D154417E491C417630BD98698E
:10C9D00030BD0000A42300200020004000250040BE
:10C9E0001FB501236A46137010720348019106C8EF
:10C9F000684690471FBD0000A423002008B50249E7
:10CA00000020009108BD00008020002010B5012109
:10CA1000202805DA1A4A8140114201D1194810BD77
:10CA20008107C90E002808DA0207120F083A920897
:10CA3000154B9200D218D26904E08208134B920081
:10CA4000D2181268CA401106890F042911D2002990
:10CA50000FD002290DD00E494C68C306DB0E01220F
:10CA60009A40002C08D0400980000B5813430B500B
:10CA700004E00448401C10BD06480260002010BDC0
:10CA8000FC06FFBC0120000000ED00E000E400E037
:10CA9000E820002000E100E0FFB50746806A81B091
:10CAA000144600283DD0002538462030009033E061
:10CAB0000C20B96A68430E18B088801CFE2802D981
:10CAC0000C2005B0F0BD22880299401C88542088B3
:10CAD0001622401C80B2208002990A542088401CF3
:10CAE00080B2208002994118308800F0C7F921886F
:10CAF000401880B22080B288002A0AD0B16800298C
:10CB00000FD0029BC018FEF711FB2088B188401897
:10CB100020806D1C0098EDB2007BA842C8D8002090
:10CB2000CFE70720CDE70000002803D00249C86006
:10CB3000002070470E207047D42000201CB5034908
:10CB400001910091694660DF1CBD0000802000203B
:10CB500070B50E460546144614211046FEF7FFFA3E
:10CB60000120002120802161217326726572002D31
:10CB700000D0A072002070BD10B5FEF7E9FD10BD19
:10CB800070B5002901D08C0701D0072070BD074C7B
:10CB90000125A16062800649636010DF0028F5D19D
:10CBA00025701620FFF732FF70BD0000D420002052
:10CBB00079CB0100FEB51F4C00252769E068029083
:10CBC0006846FFF7D1F90190FFF700FB0646019890
:10CBD000002822D000230098E16817E00E680A467A
:10CBE000864202D9301A086012E0801BF318002632
:10CBF0001660D668D169B446002E07D0FE183602FA
:10CC0000360A566066469660D56115460029E5D11C
:10CC10002846E160FFF738FB06E02846FFF734FBC3
:10CC2000002801D1002E02D00298FFF79DF80020C5
:10CC30002071FEBDB42000200120024900050860DB
:10CC40007047000000E200E010B50E4BD9680029E3
:10CC500006D002680C68A24204D8A21A0A60C16118
:10CC6000D86010BD0B4604E00B46C969121B0029B1
:10CC700004D00C689442F7D3A41A0C600260C1611E
:10CC8000D86110BDB4200020F8B51D4DEC68002C13
:10CC900034D01C48002740682969401A0602360A29
:10CCA0002068B04218D8361AC7192246107CE469A9
:10CCB00000280FD0002010746B69002B07D09169F9
:10CCC00050699847002805D0FEF750FD02E05169F1
:10CCD00090698847002CE3D16978A878814206D111
:10CCE000401CC0B2A870022801D10020A8700449DD
:10CCF0000006800D18310F50FFF79EFFF8BD0000B1
:10CD0000B420002000150140FF2107481D310022FA
:10CD100042500648828A8168895C828A521C8282DB
:10CD20000348C1617047000000200040A423002098
:10CD3000002500401FB500216A461170107204489A
:10CD400082680192817506C8684690471FBD000041
:10CD5000A4230020F0B5454D012185B049022846A5
:10CD6000FFF791FD01270026414C002824D0FF2128
:10CD700025312846FFF782FD00281DD0FF202530F1
:10CD80002E5081203B4980008860A07E002800D181
:10CD90006F60022168460170374908680860039097
:10CDA000E17D68460172E0680190E675267606CC62
:10CDB0006846083C90472BE004212846FFF763FDB6
:10CDC000002825D0FF2109312846FFF757FD00280C
:10CDD0001ED0FFF7E9FDE07D617E884218D1207EFC
:10CDE000002808D0627EE168E0752069E060267660
:10CDF000667610460AE0A07E002800D16F60812090
:10CE00001C4980008860E675607EE168FFF7E8FDF8
:10CE1000FF211D312846FFF731FD00280DD0A18AE2
:10CE2000A07D814202D2FFF76FFF06E0FF211D3196
:10CE30006E50002801D0FFF77DFFFF2145312846C5
:10CE4000FFF71CFD00280ED0FF2045302E50A07E9D
:10CE5000002800D02F60E07D002804D0E675607EB9
:10CE6000E168FFF7BDFD05B0F0BD00000020004007
:10CE7000A423002000230040802400400870000A02
:10CE8000487002207047000038B51549154A488897
:10CE900090420FD04A78144C521CD2B24A70237B75
:10CEA000934208D3091D75DF002803D0A16900292A
:10CEB00000D0884738BD00254D70217C002907D05F
:10CEC0003B2176DF002803D0A169002900D08847E4
:10CED00061690029EED068460570884738BD0000BA
:10CEE0008C200020FFFF000040230020EFF305808E
:10CEF000C005C00D1AD0103840B2002808DA01076A
:10CF0000090F083989080C4A89008918C96904E0A1
:10CF100081080A4A8900891809688007C00EC14043
:10CF20000806800F012803D0032803D00220704791
:10CF3000002070470120704700ED00E000E400E0B1
:10CF400042788378521CD2B2934200D100220378F7
:10CF5000934201D1002070470A704168407818223E
:10CF6000504308187047FFB583B016460C9D0D9CC2
:10CF70001F46022200950194039800F00CF8002847
:10CF800007D13B461022314600950194039800F0EA
:10CF900002F807B0F0BDFFB583B0074600200C9C37
:10CFA0008646268805463AE07868A9004218118826
:10CFB000684681805188C1800022694601A865DFEA
:10CFC000002839D1684601780598814226D17046FB
:10CFD000002801D0002200E002222088891842188F
:10CFE0000D998A4227D8714600290AD1401C80B287
:10CFF0002080069A049911542088401C208001202A
:10D000008646218806980A18694601A865DF002827
:10D0100012D1694620880978401820806D1C388814
:10D02000A842C1DC704600280AD02088801B401E20
:10D0300080B2FF2802D90C2007B0F0BD06998855B0
:10D040000020F9E72315000001000007202300203D
:10D0500023D1BCEA5F782315DEEF12120000000036
:10D06000C02300200300000088D0010080200020A1
:10D070007400000020B40100FCD00100F420002066
:10D08000EC0A000030B40100FFFF000011000300B3
:10D09000CDBC010000000000000000000000000006
:10D0A0000000000000000000000000000000000080
:10D0B0000000000000000000000000000000000070
:10D0C0000000000000000000000000000000000060
:10D0D0000000000000000000000000000000000050
:10D0E0000000000000000000000000000000000040
:0CD0F00000000000000000000024F4001C
:040000050001B0C185
:00000001FF
