:020000040001F9
:10B000002036002049B1010063B1010065B10100A3
:10B010000000000000000000000000000000000030
:10B0200000000000000000000000000067B1010007
:10B03000000000000000000069B101006BB10100D8
:10B040006DB101006DB101005DB601006DB101008F
:10B050006DB101000000000019B301006DB10100E5
:10B060006DB101006DB101006DB101006DB1010064
:10B070006DB101006DB101006DB101006DB1010054
:10B080006DB10100DDB401006DB101006DB40100CE
:10B0900095B501006DB101009DB501006DB10100D4
:10B0A0006DB101006DB10100000000000000000062
:10B0B0000000000000000000000000000000000090
:10B0C0000348854600F0D2F80048004715EB010020
:10B0D00020360020401E00BF00BF00BF00BF00BFE1
:10B0E00000BF00BF00BF00BF00BF00BF00BFF1D165
:10B0F00070470000401E00BF00BF00BF00BF00BF80
:10B1000000BF00BF00BF00BF00BF00BF00BFF1D144
:10B1100070470000056885F308884068FF2464B222
:10B12000EFF30585002D01D1A646004725460646CA
:10B1300021273FBAF0B40024002500260027F0B4F0
:10B14000F92040B2004700000321094802680A4381
:10B150000260084802680A430260074880470748BF
:10B160000047FEE7FEE7FEE7FEE7FEE7FEE700003A
:10B170002405004054050040BDB50100C1B00100E8
:10B1800030B50B46014600202022012409E00D467F
:10B19000D5409D4205D31D469540491B2546954007
:10B1A00040191546521E002DF1DC30BD70B500244B
:10B1B0002546002801DA01244042002901DA012550
:10B1C0004942FFF7DDFFAC4200D04042002C00D0E6
:10B1D000494270BD03460B439B0703D009E008C9F1
:10B1E000121F08C0042AFAD203E00B780370401C37
:10B1F000491C521EF9D27047D2B201E00270401CC5
:10B20000491EFBD270470022F6E710B513460A46E6
:10B2100004461946FFF7F0FF204610BD421C017896
:10B22000401C0029FBD1801A704730B5044600202D
:10B23000034600E05B1C934203D2E05CCD5C401B04
:10B24000F8D030BD03460A780270401C491C002A21
:10B25000F9D1184670470321001D401E03781202E1
:10B260001A43491EF9D5104670470000064C0125C7
:10B27000064E05E0E36807CC2B430C3C984710349E
:10B28000B442F7D3FFF720FFCC050200EC05020023
:10B2900010B503F03FFF1C4C00221A49206800F053
:10B2A000EDFC1B481949C1601A490A78130000F0E7
:10B2B00068FA060410151A1F240FFF22013282605B
:10B2C0000120087005210022C903606800F0D6FC47
:10B2D00010BD012292028260022011E001221203BD
:10B2E000826003200CE0012212048260042007E047
:10B2F000012292038260052002E040228260002049
:10B30000087010BDCD0C0000B004020040550100D3
:10B310000005005080200020F0B50025FF248BB0F0
:10B32000013401262F460195204603F093FF0028A3
:10B3300008D047484068304204D0464800212018D1
:10B3400035430160241D76007F1CA4B2042FEBD38B
:10B35000FF207D3003F07EFF002807D03E4800210B
:10B360000160400705433D48006901903C4C2807B7
:10B3700012D0012700262F420AD03A48B2001118F5
:10B3800008690969C004C00E8903A258890F904753
:10B390007F00761C042EEED3002D57DA0020059096
:10B3A000401E4DE0A119603108788506AD0E42B20D
:10B3B000521C39D00121A940089A0091114233D082
:10B3C00080090390284601F061FD80002058049018
:10B3D000002802D10398032826D103980099032856
:10B3E00002D10598084305901F4AA80080180068FC
:10B3F000019A8003800F114202D0022802D013E08C
:10B40000032811D10399032907D102281CD0022156
:10B41000284603F00FFF7F1CFFB20498002803D0DA
:10B42000049A284603999047761C0C2EBAD3002F15
:10B430000CD00A4800690199884207D0019005980C
:10B4400000273E460890ADE70321E1E70BB0F0BDD1
:10B4500000630040006000407C6100400005005037
:10B4600080270020006500400007005010B5012132
:10B47000080203F037FBFF200221053003F032FB06
:10B48000FF200421093003F02DFBFF2008210D309F
:10B4900003F028FB10BD00008307FF22DB0E9A405B
:10B4A0008907090E994000280BDA0007000F0838B9
:10B4B000830808489B001818C36993430B43C36172
:10B4C0007047830804489B001B1818689043084382
:10B4D0001860704700ED00E000E400E010B5064998
:10B4E0000020086048608860C860034940390860EF
:10B4F000486004F0D1FD10BD4011014070B5074B0C
:10B500000646187814460D46002801D100F0AAF826
:10B5100022462946304600F003F870BD6C2D00200D
:10B5200070B50E4618214843134914464518E86A79
:10B530001835002804D001280FD0022805D113E0C7
:10B54000284600F0C5F8A04201D2002411E02246AE
:10B550003146284600F0F7F80BE0284600F0B8F82E
:10B56000A042F4D20446F2E73146284600F0BBF888
:10B570000446204670BD00006C2D002070B50546C5
:10B580000C460846FFF74AFE024621462846FFF7CA
:10B59000B5FF70BD10B504F015FD10BD10B506481F
:10B5A0004068002805D08047002801D000F0D0FA7C
:10B5B00010BD03F003F910BD5C21002010B503F0AD
:10B5C00047F9002805D01F491D484860C8131E4987
:10B5D00088611E48018CC9B201290BD1828C1207E7
:10B5E00008D1028D1206120F042A03D1828D120691
:10B5F000120F0AD0012921D1818C09071ED1018D9A
:10B600000906090F0A2904D007E0114A01219160B7
:10B61000F5E7828D1206120F05D00D290ED1808D0F
:10B620000006000F0AD10B480168012904D00A491D
:10B63000016001680129FCD1C021416110BD0000F9
:10B64000DFFF07C000050040006C0040C00F00F0A5
:10B650000006004000EC06407593000010B504F0B1
:10B6600081FD10BD10B5124C02202061606111A057
:10B67000A0611348E0610120800220620020A062E6
:10B6800060620CA1A1642146E0621039E1641021DE
:10B690002165A0656065E0650AA1E01DFFF7D2FDA8
:10B6A00009A12046FFF7CEFD2020A07110BD0000AB
:10B6B0006C2D00205465726D696E616C0000000095
:10B6C0005C2900205254540053454747455200001E
:10B6D0000269C1688A4203D88068401A801800E075
:10B6E000501A401E7047F7B5064682B00020009001
:10B6F000F46817463069A04201D9051B02E0B16821
:10B70000201A0D1AB0686D1E001BA84200D805460D
:10B71000BD4200D33D4670682A4600190399FFF7E1
:10B7200059FD00987F1B4019009003986419401937
:10B730000390B068A04200D10024F460002FD9D15A
:10B74000009805B0F0BDF7B5C66817460446806896
:10B75000851B6068BD4206D980190199FFF73AFD43
:10B76000F019E060FEBD2A4680190199FFF732FD0D
:10B7700001987E1B411932466068FFF72BFDE66099
:10B78000FEBD30B47446641E2578641CAB4200D202
:10B790001D46635D5B00E31830BC184702E008C833
:10B7A000121F08C1002AFAD170477047002001E03B
:10B7B00001C1121F002AFBD17047F7B584B00025E4
:10B7C000168807461580406B1446002813D003786E
:10B7D0000598032E51D30221017021881122491CA2
:10B7E00089B2218042542188491C89B22180435466
:10B7F0002088401C2080386B00281DD005462088FA
:10B80000059902461232B24237D811220A542088D2
:10B810001022401C80B220800A542088401C2080C6
:10B820000F202A5C2388401ECA54228840B2521C32
:10B8300022800028F5DA0025384620300290807BEF
:10B84000002806D033462246059903F04DF805003E
:10B8500014D10298407B002806D032462146059834
:10B8600000F050FD050009D1B878002823D00598D4
:10B8700086462088001DB04202D90C2007B0F0BDDA
:10B88000684679DF0028F9D1218803207246505498
:10B8900020881921401C80B22080115420887146D4
:10B8A000401C80B2208041186846008804F0EEFCFD
:10B8B000218840182080F878002817D02188032399
:10B8C0000A46FB56C91C0598B142D6D802218154BC
:10B8D00021880122491C89B2218042542188491CB7
:10B8E00089B2218043542088401C20807868002839
:10B8F00017D021880023C3560A46C91C0598B142B7
:10B90000BBD80221815421880A22491C89B2218096
:10B9100042542188491C89B2218043542088401C0C
:10B920002080388900280AD00094384601960622E3
:10B9300002210830059B04F043FD05009ED1388AA2
:10B9400000280AD0009438460196072203211030BF
:10B95000059B04F035FD050090D1388B00280AD0F6
:10B96000009438460196152214211830059B04F0E6
:10B9700027FD050082D1386A002806D033462246CA
:10B98000059901F0AFFC0500D8D1786A002806D0EF
:10B9900033462246059903F0C1F90500CED102983D
:10B9A000007B002807D0334622463846059904F02C
:10B9B0001BF90500C2D13878002807D0334622464B
:10B9C0003846059903F024FA0500B7D1284655E713
:10B9D00010B501220221002001F03CF9002801D01D
:10B9E000072812D107220221012001F033F9002893
:10B9F00001D0072809D100210A22084601F02AF9BE
:10BA0000002801D0072800D1002010BD044842685A
:10BA1000FF2101310B46934383600A40C2607047A7
:10BA20000005005070B50024064D06E06968E0008E
:10BA3000085C012103F090FA641C28788442F5D355
:10BA4000002070BD28210020F8B515460C4606469A
:10BA5000052A01D20720F8BD03F054FB002803D1CA
:10BA600003F026FB0028F6D1104900204E600C7030
:10BA7000C8608D6008610E4D0DE0E00069688019B6
:10BA8000009181786A46517000780A4A694603F04D
:10BA9000B3FA0028DFD12046641EE4B20028ECD1BE
:10BAA000054A0021024800F08BF8F8BD282100204B
:10BAB000B4050200F5E60100B5D401003EB5044628
:10BAC00004200190164802906946204601F0B0FF1C
:10BAD000002805D01349884201D000F039F83EBD56
:10BAE0000F480838017AC90714D00F4A0C21408842
:10BAF000A7DF00280ED00D4988420BD0082809D0B6
:10BB0000891C884206D0112804D00949884201D0F6
:10BB100000F01EF8204601F041FF0028DDD13EBDB7
:10BB20008820002040800000FFFF0000023000005D
:10BB300001340000BFF34F8F04490348C860BFF3CE
:10BB40004F8F00BFFDE700000400FA0500ED00E0A4
:10BB50000EB50021029000916A4601910148FFF75D
:10BB6000E9FF0EBD01400000014B1B6818470000B3
:10BB70005C27002038B50C46A2680C235A43064BBC
:10BB800009789D58054A126A0092024620460830FC
:10BB90002369A84738BD0000D8280020FC200020D9
:10BBA00010B5064914230A785A435118091DFFF7A6
:10BBB000E1FF042004F08AF810BD00000C280020EA
:10BBC000094B9B68002B07D0002A07D0002805D01E
:10BBD0000068037C002B03D00820704707207047C3
:10BBE00041744261002070473C210020FFB590075E
:10BBF000002581B014460E46002832D11B4F002C80
:10BC000031D003F031FF0498786103203870334657
:10BC10001821224600204B43BC601834C10089180B
:10BC20000D704D708E704C601C19401C0328F5DBA4
:10BC3000FD607D7001240E48BD7024050460032161
:10BC40001420FFF729FC0B4804600B4C0198A060FE
:10BC500003211120FFF720FC60683861002005B047
:10BC6000F0BD0720FBE7BD60FBE700003C210020A2
:10BC700080E200E000E100E000150140FEB50D4665
:10BC80001B4917468968044600292AD0002C28D071
:10BC9000052D01D20720FEBD6069002821D0607CFF
:10BCA000012820D0002604F033FBC0001049019089
:10BCB00089684018694604F055FB002815D0012119
:10BCC00001700C49446049680830E2C00849019895
:10BCD0008968411868460078487004F0B5F900207A
:10BCE000FEBD0820FEBD2E46DDE70420FEBD00009F
:10BCF0003C21002000150140F8B5134D0446A96809
:10BD000000291CD0002C1AD06069002817D000260A
:10BD1000267404F0FDFAC700A8686946381804F0D4
:10BD200021FB00280DD0022101704460A868391859
:10BD300068460078487004F087F93046F8BD08205E
:10BD4000F8BD0420F8BD00003C21002070B5154668
:10BD50000C460846FFF77FFA0002E178000A090660
:10BD600008432860042070BD02780A700288120A15
:10BD70004A700268120C8A700068000EC8700420B5
:10BD80007047F0B50C4693B01F216A461180072614
:10BD900000279180002809D0C17849070DD502A954
:10BDA000FFF70BFD002809D102AD01E00025178047
:10BDB000002C0ED0E078002802D0304613B0F0BD41
:10BDC00001AA0AA92046FFF7F8FC0028F6D10AAA22
:10BDD00002E068460022878068468088C3B26846D1
:10BDE0000088C1B2284672DFE8E7000070B50D4652
:10BDF00004991646040042D0002E40D0424800224A
:10BE00004271C3600161242231464048FFF7E2F9E4
:10BE100000F0D4F83D493431084610380160203133
:10BE2000816038215C38FFF7EEF9384821783838DE
:10BE30000170A1788170E178C170617841706269A8
:10BE4000216942610161E268A168C26081600146C6
:10BE5000E369A269CB618A61616A002919D0014650
:10BE6000AC310246B83241628A60636A1B880B803B
:10BE7000616A436A898899800021436A06E00E203E
:10BE800070BD666AB668765C5654491C9E888E42C0
:10BE9000F7D8A16A00291CD01C4AAC3211460C39D3
:10BEA0008A608162A36A9B888B80A16A836A098801
:10BEB00019800021836A04E0A66AB668765C56544D
:10BEC000491C9E888E42F7D82C210A5D0F491839EB
:10BED0000A73216A002909D00B4914310162226AD0
:10BEE00052884A80216A026A0988118061680029A3
:10BEF00004D00549891D41606168416003482946B5
:10BF00003838FFF73EFF70BDB02000202825002004
:10BF100010B502881C4C102A17D00021112A1AD003
:10BF20001B2A11D1007A00280ED1607901281ED079
:10BF3000022822D0032822D0042805D12171E268EA
:10BF40000846002A00D0904710BD817D0129FBD111
:10BF50008088208110BD6170808821898842F9D154
:10BF6000012005E021690029F4D0884710BD022096
:10BF700000F058F80028F5D110BD0320F8E70320A1
:10BF800020710420F4E70000B020002010B5022842
:10BF900001D003280ED1084C207800280AD00020B8
:10BFA0002070607900F03EF8002803D02169002954
:10BFB00000D0884710BD0000B020002010B5072138
:10BFC0000148FFF720F910BDC820002010B5134824
:10BFD000007801281FD1124C607800281BD16079AD
:10BFE000002802D074DF002816D101200B496070B0
:10BFF00006203839C870094800213838FFF7C1FEDB
:10C00000002809D1607900F00DF8002803D02169DB
:10C01000002900D08847002010BD000028250020FE
:10C02000B0200020F0B5784C87B06071002606A8DB
:10C03000069603F0BDFA0127082802D0002808D18F
:10C0400004E006A802F072FA002804D1069800283D
:10C0500001D02770D4E0FFF7B1FF6C4D687800285D
:10C0600002D06079012807D0A87800280CD0607928
:10C07000012801D0022824D1E168002903D0E7700B
:10C080000820884700E0E6706079012808D16878C8
:10C09000002809D05C48193003F02FFA002803D09B
:10C0A0006079022802D00CE002206071A878002894
:10C0B00005D05548193003F020FA002801D103209B
:10C0C0006071287B002804D16079032801D1042005
:10C0D0006071287E002804D16079042801D166713E
:10C0E0002671E16800290AD06079032801D004286C
:10C0F00005D12878002802D06078002817D0A670D3
:10C1000018216846FFF77FF86846067001960672A8
:10C110000396607901280ED0022815D03B4E2436B4
:10C1200037465C3F03281BD004285DD13AE0A77056
:10C1300007208847E4E734481830019068460770C4
:10C1400046820682277152E02F48183001906846D7
:10C15000077029894182A98801820220207146E066
:10C16000A88A69464882288A08822848243004F030
:10C1700096F9002805D02878002802D06078002899
:10C1800001D003202FE002206946087204200396A4
:10C19000F8701E4800213838FFF7F3FD002830D131
:10C1A000052020E0A88B69460882288C4882174821
:10C1B000243004F074F9002805D02878002802D033
:10C1C0006078002801D004200DE002206946087242
:10C1D00004200396F8700D4800213838FFF7D1FD90
:10C1E00000280ED1062020716079002803D068460F
:10C1F00073DF002805D1E168002901D02079884744
:10C20000002007B0F0BD0000B0200020282500204D
:10C2100070B5054601461C220E48FEF7DBFF0E4CAA
:10C22000002626702968002906D00822201DFEF766
:10C23000D1FF201D7ADF02E00748001D7BDF0028C8
:10C2400007D1401E60806670044A00210448FFF751
:10C25000B7FC70BD14260020D0200020AD020200E3
:10C2600048050200F8B5214C028800271E4DE689DA
:10C27000102A15D01E49112A21D0122A2DD0502A59
:10C280001CD1C288801DB24218D14289022A15D120
:10C29000427B037B10021843C007C00F0CD112E091
:10C2A0008188698001461048082218310C30FEF759
:10C2B00091FF6F70002E01D101F05CF8F8BD0020F5
:10C2C000C04368806F700868FFF716FD0028F5D03E
:10C2D000A1690029F2D08847F8BD082281180248D8
:10C2E0000C30FEF777FFE7E7D0200020142600206F
:10C2F0004805020010B502480068FFF7FDFC10BDBC
:10C30000480502007CB5054608880C460930904275
:10C3100001D90C207CBD684671DF0028FAD1218844
:10C320000820685420881B21401C80B2208029549A
:10C33000208800A9401C80B22080401906220131CB
:10C34000FEF748FF20886946801D80B2208009786A
:10C35000002900D0012129542088401C2080002081
:10C360007CBD000030B585B00D46040039D0002DED
:10C3700037D06868002834D00020C0431A4B208092
:10C380000FCB049301AB07C318486946088001A886
:10C39000811E63DF002822D1221D69460120A0DF13
:10C3A00000281CD168468078A071204601F06CFA04
:10C3B000002814D1204601F023FA00280FD1294685
:10C3C000204601F0A3FA002809D16868A062A86895
:10C3D000002800D0E062064901200870002005B066
:10C3E00030BD0E20FBE70000BC0502003015000048
:10C3F000802100203EB5002828D0002926D0826A5E
:10C40000002A23D00A88102A21D0112A30D0502A9D
:10C410001FD0512A1AD10A460446891D08780228DD
:10C4200014D14888238A984210D1907B04280DD0DB
:10C4300006280BD0052809D02046891C02F042FFAF
:10C44000002803D0E16A002900D088473EBD8988D2
:10C4500010E0CB8802899342F8D108226B461A700B
:10C460000A7C1A7212310191826A694690473EBD78
:10C470000021C94301803EBD30B585B0002822D0DF
:10C480000388134CA34220D0124B1B78002B1CD0E6
:10C49000104B10255B1C1D705970002401259A70EB
:10C4A000032269460A820094019402940394028A4A
:10C4B0000A808D708C8004A90291039300886946DC
:10C4C000A6DF05B030BD0E20FBE70820F9E700002D
:10C4D000FFFF00008021002070B5044601F08CFBB6
:10C4E0002046FFF7BFFE204600F0D6FA21460E4850
:10C4F000FFF780FF2046FFF70BFD20880B4D10282B
:10C5000002D011280CD108E0072000F0C7FB00285A
:10C5100001D0FFF71DFBA08801E00020C043688028
:10C52000204600F019FA70BDDC2300208020002096
:10C5300030B50A460446808F10498BB088421AD025
:10C54000002500950195029504A91046039500F079
:10C5500053FE014668468184E18801800121817093
:10C5600009A802906846858004A80390A08F6946B8
:10C57000A6DF0BB030BD0820FBE70000FFFF000086
:10C58000F0B5D9B00446086820600020C043A087F9
:10C590009F480D460FC830AE0FC644A930A863DFD0
:10C5A00000287DD140A8017C28A881732921090297
:10C5B00020A88185221D2BA90120A0DF00286FD192
:10C5C000686843901C2124A8FEF71DFE914920A80D
:10C5D000018228A8817B20A881741427878245A91D
:10C5E00043A800F009FE014620A8C18245A8269074
:10C5F00020A8417F1020014320A84177012628A8C8
:10C60000867020A80677A088A21D24A900F046FC09
:10C61000002845D12846083007C83AAB07C36879D7
:10C62000A0731C211DA8FEF7EEFD7A4910A8891CF5
:10C63000818628A8817B18A8817510A807874AA938
:10C640003AA802F085FF014610A841874AA81F902A
:10C6500020A84178FD200140A07B2246C007800F22
:10C66000014320A8417006710670A08810321DA9F0
:10C6700000F014FC002813D1686942901C2116A810
:10C68000FEF7C1FD634910A8491C018328A8817BDE
:10C6900010A8817687834FA942A802F06DFF00E0C1
:10C6A00094E0014610A8C1834FA8189018A84179BA
:10C6B0002020014318A84171012181720171224695
:10C6C000A088183216A900F0E9FB00287ED1284680
:10C6D00018300FC82CAE0FC62646687D2036307045
:10C6E000A87D70701C216846FEF78DFD494968469B
:10C6F000C91C018028A8817B684681701421818033
:10C7000054A92CA803F041FE01466846C18054A8F4
:10C7100002906846417BFD20014030780122C0072D
:10C72000800F0143684641730274F720014070781E
:10C73000C007000F01436846417342740273A0882A
:10C74000B21C694600F0AAFB00285ED12920475D93
:10C7500010A807752820405DB0721C210EA8FEF7B6
:10C7600052FD2C496846091D018728A8817B08A82D
:10C77000817614216846818738A8077501276846A5
:10C78000C7873DA8109010A84179F7200140B07AE2
:10C790002246C007000F014310A84171477207717C
:10C7A000A0882C320EA900F079FB00282DD1698DCC
:10C7B00010A881821C2107A8FEF725FD15496846AF
:10C7C000491D818328A8817B684600E01DE08177B0
:10C7D0001421018410A8017D30A8017510A8417DA5
:10C7E00030A8417502216846418435A8099008A8FF
:10C7F000417A0820014308A8417247730772224614
:10C80000A088343207A900F049FB59B0F0BD000000
:10C81000BC0402000129000070B50A88102A2BD040
:10C82000112A2BD0502A2DD0512A24D105468C1DF7
:10C830008879091D02281ED1887A04281BD0062871
:10C8400019D0052817D06088698C884203D1A11CB3
:10C85000284602F0CEFD6088A98D884203D1A11C34
:10C86000284602F0C6FD6088A98E884203D1A11C2B
:10C87000284602F0BEFD70BD898801E00021C94351
:10C88000818770BD891DF4E700B51A4887B08068BC
:10C89000059000234822184905A803F069FA0028EA
:10C8A00001D0FFF755F96A460121002003F046FA4E
:10C8B000002801D0FFF74CF9104803F021F90028B7
:10C8C00001D0FFF745F9684603F02EFA002801D0A1
:10C8D000FFF73EF90A4803F01DFA002801D0FFF7E0
:10C8E00037F9084803F05EFA002801D0FFF730F965
:10C8F00007B000BDB004020094230020E81F002010
:10C90000D9C4010099FF010000B58BB02C21684605
:10C91000FEF779FC0E48009000206A461071012154
:10C920005171029010735073049010755175917588
:10C9300006900790089008AA0990117250729072A0
:10C94000D07269460348FFF71BFE0BB000BD000024
:10C95000B5F301000C24002010B501460148FFF793
:10C960005BFF10BD0C2400201CB5044681786A468C
:10C970000C4802F031FE002812D160781C21484397
:10C9800009491C2340181A46694602F0DFFE064892
:10C9900006494C30807A80000A5821466846904704
:10C9A0001CBD0000F42000201027002060050200BC
:10C9B000F8B5054608206946088001236A461A49E9
:10C9C0002846AADF194800688047B12044DF0028C4
:10C9D00001D0FFF7BDF811DF002801D0FFF7B8F84C
:10C9E000134C606913DF002801D0FFF7B1F8284627
:10C9F00000F0B0FE01210F4A880510600E48026861
:10CA00000D4B002080330D468540154204D0C606EC
:10CA1000F60E0D46B5401D60401C2028F3D360691A
:10CA200000F00CF8F8BD0000182E0020782100203E
:10CA30000010001080E200E000E100E010B5FEF719
:10CA400069FB10BD7CB5134E00250C4630600029F3
:10CA500018D06946002000F0B5F8002819D101A9C6
:10CA6000012000F0AFF8002813D1684601790020BA
:10CA7000002901D0022004E069460978002900D08D
:10CA80000B2020707068002802D1FEF7A1FF054638
:10CA900028467CBDA820002010B51C4C0188606889
:10CAA00010290DD011290AD1401E606007D1FEF770
:10CAB0008FFF002803D02168002900D0884710BDCF
:10CAC00000281ED100210122084600F0C3F80028EA
:10CAD00001D0072811D107220221012000F0BAF865
:10CAE000002801D0072808D104220221002000F0EC
:10CAF000B1F8002805D0072803D02168002900D00C
:10CB000088476068401C606010BD0000A8200020BD
:10CB100010B5032000F064F9002801D0062800D1E8
:10CB2000002010BDF8B507460024234802E0641C2D
:10CB3000092C1AD2A2008258BA42F8D1092C14D278
:10CB40001D481E4E0C38002929D001290ED002297B
:10CB50000BD16000201880194578002D05D01848A9
:10CB6000C168002901D028468847F8BD61006118D6
:10CB7000755C8E19717800290CD011490A22496818
:10CB8000806851430E4A521CFFF778F8002801D103
:10CB90000B4847700948B1781B300155DDE78068C4
:10CBA000FFF7AAF80548610061181B308919005D7C
:10CBB0008D78A842D1D0F8BDD80402008C24002082
:10CBC0009820002009280CD2074A1269074B8000E0
:10CBD0001B5C01209840904300D001200870002089
:10CBE00070470020FAE7000000050050D80402005A
:10CBF00010B5001F0300FEF7C4FD120D0C0C170C3E
:10CC00000C0A0C0C0C0C0C1C1E202224260C03F00D
:10CC100049F810BD0E481321408876DF06E0002851
:10CC2000F7D0FEF795FF10BDFFF7D0F90828F6D131
:10CC300010BD602008E0502006E0482004E04420B9
:10CC400002E0422000E0412002F038F910BD00006F
:10CC50008020002070B50023092811D24400041957
:10CC60000D4D012A02D101290DD000224600801964
:10CC7000094E801900290CD0012906D0022906D0BE
:10CC80000723184670BD0D30C2B22A55F9E742702D
:10CC9000F7E78270F5E700008C24002010B5054A04
:10CCA0000146127A0020D20702D0084600F054F85C
:10CCB00010BD00009820002070B50E461F490546A3
:10CCC0004E608D600020CA60A9071ED50024012295
:10CCD00011462046FFF7BEFF641C092C02D2002833
:10CCE000F5D012E0002810D1720809211448FEF78F
:10CCF000ABFE002809D1FEF795FE002805D11048AB
:10CD0000104A00212838FEF75BFFE90705D00F49DC
:10CD10000D4ACA6000238B608A6100280DD1084843
:10CD20000B4A00213038FEF74BFF002805D104489C
:10CD3000084A01212C38FEF743FF70BD98200020DF
:10CD4000FC0402001DCE01004855A1020005005060
:10CD50003DE901000DBA0100F8B51E4B0146FF2266
:10CD60000027082691321C4D1C485C68012906D01A
:10CD7000022904D0072920D00C2920D121E04768BE
:10CD80003F0708D5C660022902D07D20400108E097
:10CD9000E120C00005E08660022901D1C82000E042
:10CDA000104619706421FEF7EBF96043014600223A
:10CDB0002868FEF763FF074601E086601970384671
:10CDC000F8BD47683F0703D5C6607D20C000E8E78F
:10CDD0008660E5E798200020CC04020000050050A2
:10CDE000F0B500210B4C0C4D03273F048A00A258DC
:10CDF00092005619326801238B40034000D0032370
:10CE0000BA431B0413433360491C0929EED30020A5
:10CE1000F0BD0000D80402000007005010B50078F3
:10CE20000221FFF77FFE10BD0022D2438300044998
:10CE30000428CA5002D30818403002777047000017
:10CE400080270020F0B50025ED43002A02D0002302
:10CE5000042601E0042310260B4C04E09F00E75950
:10CE60007F1C04D05B1CB342F8D32846F0BD2618C3
:10CE70005DB2403635709E00A151002AF5D1E1180F
:10CE800040310877F1E700008027002002490918A7
:10CE9000402008567047000080270020F7B58878AA
:10CEA000012592B00C46002817D008A98877208861
:10CEB0006946888700260796207C07A902F0DBFEDA
:10CEC00007A9607C013102F0D6FEA07B00286846ED
:10CED000807F05D00821084304E008A88577E6E7AD
:10CEE000F721084069468877E17B002902D01021AC
:10CEF000084301E0EF21084069468877217B00293B
:10CF000001D0284301E04008400069468877F927AE
:10CF1000E17C3840002901D0022100E001214900D4
:10CF20000843694688771C216846FEF76CF9607BE8
:10CF3000C10601D4800610D50E960EA9A07C013141
:10CF400002F099FE0120014608A810310176817E89
:10CF50003940891C81760EA80590617B6846017076
:10CF6000142109A8FEF74FF90FA8099007A80A9005
:10CF7000A18868460186A068002804D0E088694638
:10CF80008885A0680D906069002844D008960188C3
:10CF900068460181606908AE4188684641816069E0
:10CFA00008A94068049601906069007B02F063FE66
:10CFB0006069711C407B02F05EFE6069807A002827
:10CFC00008A8807802D00821084301E0F721084032
:10CFD00008A988706169C97A002902D01021084324
:10CFE00001E0EF21084008A988706169097A0029E9
:10CFF00001D0284301E04008400008A98870616919
:10D000003840897B002901D0022100E0012149003C
:10D01000084308A98870A069002800D0039009AAD5
:10D020006946149B1298A2DF15B0F0BDF8B53E48D2
:10D030001422017851430C18E0680C2148433A4906
:10D040002769CC314018058941890091241D466823
:10D0500002F050FB01463846FEF792F8002932D024
:10D0600000200099A2884D436188AE198918CD1916
:10D0700000222E4900280A6109D002F03BFB61889A
:10D08000884222D0B54202D1A08800281DD0A068D5
:10D0900002281AD002F02EFBA188CA1901461046B8
:10D0A000FEF76EF8214C8808E06002F023FB014691
:10D0B0002846FEF765F8002911D00020B5422FD090
:10D0C00000280ED02CE00120CBE702F013FB014634
:10D0D0003846FEF755F815494861032021E0012044
:10D0E000ECE7ADB2B7B202F005FB01463846FEF7F9
:10D0F00047F8064602F0FEFA01462846FEF740F8D9
:10D10000864201D1781B09E002F0F4FA064602F0EB
:10D11000F1FA01462846FEF733F8701A80082061BC
:10D12000022002F0D3FDF8BD0C280020FC200020D6
:10D1300010B50748142201785143081800790428D3
:10D1400002D000F05DF810BD012002F0BFFD10BD5F
:10D150000C28002010B50B48142201785143081800
:10D16000094AC18811620079012806D0032801D03C
:10D17000042801D1FFF75AFF10BD012002F0A6FDDF
:10D1800010BD00000C280020FC2000201422504379
:10D19000054A002180180171C18001220161C2602D
:10D1A00041610181704700000C280020F8B5104C47
:10D1B000069E65780A2D19D027787D190A2D00D38F
:10D1C0000A3D14277D432D1928716A6103C929611D
:10D1D000E860EB802E816078401C60700548007824
:10D1E000002801D1FFF7B6FF0020F8BD0420F8BDEC
:10D1F0000C280020FC2000200078087001207047D7
:10D2000010B50D4C14212078484301190020091D48
:10D21000FEF7B0FC2078FFF7B9FF6078401E607021
:10D220002078401CC0B220700A2801D10020207054
:10D23000002002F04BFD10BD0C280020F8B523485B
:10D24000C16800293ED00E6821494C680769C07842
:10D25000E11B0D022D0AED1C002814D101201D4AEE
:10D26000000450601B4A403A50601B49400008606F
:10D270001A4908601A49012008602F20FDF73AFF7B
:10D2800012490120C870B54200D23546E8190002A3
:10D290000F4B000A403318600D4A5168001B091BF0
:10D2A0000902090A0002000AC91C814209D9506812
:10D2B00018602F20FDF71EFF012007494004803928
:10D2C0000860F8BD02F0D0FBF8BD00003C21002052
:10D2D000001501404013014080E200E000E100E061
:10D2E00000100140F8B50646108814468446801D9B
:10D2F0000D46984201D90C20F8BD32880720062A35
:10D30000FAD31927FF01184BBA4201D99A42F3D137
:10D3100071880629F0D3B94201D99942ECD19A42D9
:10D3200003D0994201D08A42E6D8052160462954AB
:10D3300020881221401C80B2208029542088401C63
:10D3400080B220804119308802F0A0FF2188401867
:10D3500080B220804119708802F098FF218840181F
:10D3600020800020F8BD0000FFFF000010B5FEF790
:10D37000EFFB10BDF8B5164801F05CFA144D00261D
:10D380000C3D144C002807D0616900291CD00120F5
:10D390006A461070684616E02878002805D0616952
:10D3A000002911D0684606700DE0687800280DD07D
:10D3B000A168094800220068FEF760FC002803D03D
:10D3C000A169002900D088472E70F8BD6168F0E798
:10D3D000DC200020142600204805020070B5094B0F
:10D3E00004469E7A082000250E4207D00648844253
:10D3F00002D01889A04202D10020156070BD05201E
:10D4000070BD000050270020FFFF00000C214843A2
:10D41000064910B5012240188272911E0181FF2138
:10D42000C1720721FDF7EFFE10BD0000502700205C
:10D4300010B5134C207900071FD46069401C60614F
:10D44000E068002801D0042004E001F025FA00285B
:10D4500003D0022002F096FD10BD2069002809D0FB
:10D460006068C10701D00320F4E701210843606030
:10D470000020EFE7FFF75CFE10BD02F077FD10BD66
:10D48000FC20002010B5084841680A0708D48A0724
:10D4900002D5012211434160022002F073FD10BD4C
:10D4A00002F064FD10BD0000FC20002010B501F06A
:10D4B00041FE10BDF8B500260124154D23E0696832
:10D4C000F0004718387821462A698140114218D067
:10D4D0008A432A6101F0E2FD3A782146EB689140E7
:10D4E00019400346934099420BD17978012901D024
:10D4F000012100E000217B684140002B01D0104653
:10D500009847761CF6B228788642D8D3F8BD00003A
:10D5100028210020FEB50E46044681786A4623483D
:10D5200002F05AF8002826D160780C21204F484399
:10D53000C019807A40061FD4022E1DD0012E1DD0A6
:10D540001C4DA0781C2148431B49002341181C2274
:10D550006846A847002813D0022E0CD020780C2152
:10D56000484313490C314018807A144980000A5806
:10D57000214668469047FEBD114DE2E7114DE0E7B8
:10D58000022EF8D060780C214843C019817ABF225E
:10D590001140817260781C21484305494039411887
:10D5A0001C231A466846A847D8E70000F42000204C
:10D5B00050270020F1FE01004C26002050050200FB
:10D5C0008DF90100B1F8010070B50546114A124805
:10D5D00000241C2363431B189B7EFF2B04D0641C78
:10D5E000072CF6D3104670BD0A78022A09D01C22F7
:10D5F00062431018FD22827607221030FDF7EAFD03
:10D6000004E01C2161430818FE2181762C70002261
:10D61000E8E70000438000004C260020F7B5052510
:10D620000F4F06460024002E0AD01C206043C0196C
:10D63000072231461030FDF7F8FD002807D00AE038
:10D640001C206043C019018B0298814203D10198CC
:10D650000025046002E0641C072CE4D32846FEBDCC
:10D660004C2600207CB5054681B26A46074801F089
:10D67000B3FF040008D17421684601F0D7FF04000D
:10D6800002D1284601F044FF20467CBDF420002052
:10D6900070B505460C46100001D0FEF759FA207807
:10D6A000152802D12846FEF709FA002070BD0000B7
:10D6B0001FB56946087302F023F8002801D0FEF771
:10D6C00047FA03A800F018FD002801D0FEF740FA41
:10D6D00001A805210130FDF796FD69464979012031
:10D6E00001438122114030314A06520E69464A7187
:10D6F00007228A711022CA71054900916946087192
:10D70000044800F05FFE002801D0FEF721FA1FBD9B
:10D7100091D601008120002001B50449684600F03F
:10D720004BFA002801D0FEF713FA08BD7C21002037
:10D7300010B50978002908D003220121FEF79CFECC
:10D74000002801D0FEF704FA10BD0088FFF730F979
:10D7500010BD000010B58AB000242349009400F0E9
:10D7600099FC002813D101A91F4800F03BFC0028B8
:10D770000FD01E491C4800F021FD002801D0FEF703
:10D78000E7F91A4800DF002801D0FEF7E1F90AB0F6
:10D7900010BD0599072215481031FDF71BFD1348F0
:10D7A0001022C01D0599FDF715FD104811221830F3
:10D7B0000199FDF70FFD0D4801990A222A30123117
:10D7C000FDF708FD094800DF002801D0FEF7C0F989
:10D7D00001200090042008906846099007A907944A
:10D7E000014800F07FF9CEE77C210020E42D0020E5
:10D7F0007047000001490860704700007821002050
:10D8000030B58FB005461C216846FDF7FCFC694623
:10D810000878082108431022104369460870002444
:10D8200001940394049405940694A87908A9887037
:10D83000144869460884601C00070794000F0C77A1
:10D8400010304877887FF9210840F721801C084074
:10D8500010430121084369468877142109A8FDF780
:10D86000D2FC08A8099007A80A9069468C85172061
:10D87000CC8508860D942B46A888103309AAA2DF10
:10D880000FB030BD3115000030B58FB005461C21FA
:10D890006846FDF7B8FC69460878042108436946E4
:10D8A0000870002401940394049405940694A879C4
:10D8B00008A98870144869460884601C000707940A
:10D8C000000F0C77103048778A7FF9200240F7204C
:10D8D000921C0240EF200240012002438A7714216B
:10D8E00009A8FDF790FC08A8099007A80A906946C6
:10D8F0008C851420CC8508860D942B46A888083387
:10D9000009AAA2DF0FB030BD32150000F0B58FB00C
:10D910000F4605461C216846FDF775FC68460178F0
:10D920000226314301700024019403940494059469
:10D930000694A97908A88170174968460184601C7B
:10D940000107090F6846103107940177002001464E
:10D9500068464177817FF9200140F720891C01400A
:10D96000EF2001400120014368468177142109A876
:10D97000FDF749FC08A8099007A80A906846868523
:10D98000C48506860D972B46A888203309AA6946C8
:10D99000A2DF0FB0F0BD0000341500003EB5044614
:10D9A0001E4801781E48002930D0002C2FD0217845
:10D9B00000292BD11B4900250968002926D0A17810
:10D9C000072927D21C20184A48438018807EFF2848
:10D9D00020D012486A46103001F0FEFD002815D113
:10D9E00060230422694602A801F0B0FE0299491C96
:10D9F0000CD0602304220D49684601F0C7FF0028BF
:10DA000004D1A178084A89001C3A55503EBD04480B
:10DA1000801D3EBD024808303EBD0000E4200020CD
:10DA2000088000005C2700204C2600204C050200E6
:10DA30003EB50C4627490A782749002A30D08A1D6E
:10DA4000002805D0002C03D00278002A28D101E05C
:10DA500010463EBD214A1268002A21D0817807294C
:10DA600020D21C221E4B4A43D218927EFF2A19D084
:10DA70001B4AA3681C3A002B17D0890053508178A9
:10DA800014486A46103001F0A7FD0028E1D1602358
:10DA90000422694602A801F059FE002809D016E0C8
:10DAA00008463EBD0C4808303EBD89005158A16073
:10DAB000E5E70298401C0AD0642310226946A0685A
:10DAC00001F044FE0028EFD1029961603EBD02489A
:10DAD00038303EBDE4200020088000005C27002094
:10DAE0004C260020FEB505462D480C4601782D48F1
:10DAF000002925D0811D002D23D0002C21D0A26823
:10DB0000002A1ED0297800291AD12749096800293E
:10DB100016D0A978072916D21C22244B4A43D218C2
:10DB2000927EFF2A0FD06A780C235A431E4B0C3B7F
:10DB3000D218927A120703D56068042806D207200B
:10DB4000FEBD0846FEBD17480830FEBD1448184EFD
:10DB50006A46103001F040FD0028F6D1602304220F
:10DB6000694602A801F0F2FD002803D10298401C8A
:10DB700000D0104E60230422211D6846B0470028C3
:10DB8000E3D1642310226846A16801F0FFFE00285B
:10DB9000DBD1AA78054B92001C3BA1689950FEBDD1
:10DBA000E4200020088000005C2700204C26002094
:10DBB000B1F801008DF901000C4A13780C4A002BD2
:10DBC00011D0931D002905D0002803D0007800282B
:10DBD00009D101E018467047064B1B68002B02D0A4
:10DBE000087000207047104670470000E4200020B5
:10DBF000088000005C270020F0B591B00546FF24A6
:10DC0000002007940290EE48007800284BD0ED4F9A
:10DC10003868002847D001A800F060FA002801D039
:10DC2000FDF796FF281D05902C2069460883FF20EC
:10DC3000002688710E710396E24C28880C3C10284F
:10DC40000ED0A88803AA0221FFF7C8FB002807D13D
:10DC500003980C2141430919CA7A69468A714871AF
:10DC60002A881320192A7DD00FDC102A1DD0112AF2
:10DC700057D0132A77D0142A15D103980C21484382
:10DC80000019C07AFF2877D093E0CF491A2A6CD0C8
:10DC90001E2A6ED0232A6AD0522A04D1B87A800074
:10DCA000095801A8884711B0F0BDC84F03AA012147
:10DCB0003846FFF793FB0028F5D103990C20484321
:10DCC00002220019827211236A4613745171A988C5
:10DCD00001812946083107220091FDF77BFAE87D92
:10DCE000C10707D04108B6480830405CFF2808D07B
:10DCF000079006E03A4607A90098FFF78FFC002836
:10DD00000ED103990C22514309190798C8728A7AD7
:10DD100008231A438A726946887101A8FEF724FE17
:10DD200034E103980C2148430119887AFD22104000
:10DD30008872010706D5C0090DD0002101A8FFF7A0
:10DD4000E9FB08E068468079FF2804D001F0E0FB99
:10DD5000FF206946887103980C2210215043001956
:10DD6000817205E07DE035E006E0D6E001E021E1EA
:10DD700012206946087409E12A8A07A90020FFF7E2
:10DD80004DFC00280ED103990C2251430919079824
:10DD9000C8728A7A08231A438A726946887101A870
:10DDA000FEF7E2FD03980C2148430019C07AFF28D2
:10DDB00006D003981C21484382494C3940180290F0
:10DDC00003981C21484382494218A88800230299DD
:10DDD00086DF68E76946087403980C2148430119F7
:10DDE000887A042210438872CA7AFF2A0BD0402214
:10DDF000104388721620694608740023A8881A46C2
:10DE000085217FDF21E007A8FFF7DEFB00281FD078
:10DE1000064600200D9003990C224A431219D27A2B
:10DE20001C235A436A4B0F90D2180E921C22514366
:10DE30001A46C4328918109009910A900B900C90E0
:10DE40003A1DA88809AB00217FDF0028C1D19DE0E1
:10DE500069460798887103990C2251430919C872C1
:10DE6000D7E7787A0C2140084000787203986F4613
:10DE700002464843011984468B7AFB2003408B728B
:10DE800014203874287A002806D058067ED4C87A20
:10DE9000FFF7E8FB2E7A79E0687A400776D5B87903
:10DEA000FF2873D008273B438B726B7B9B0708D5F9
:10DEB0001C2503466B43464D5B199D7E6D086D0026
:10DEC0009D76CB7AFF2B61D06346E35C022B10D0AA
:10DED0001C2250433E4D072240191030FDF77AF9BD
:10DEE000684680791C2148434019817EFD221140FB
:10DEF0000DE01C214A4333494C3951184A8A1C21F0
:10DF00004843334940180283817E4908490081769D
:10DF1000012101A8FFF7FEFA38E0287A0209012A58
:10DF200023D10007000F01281FD103980C22424380
:10DF30001219927A120718D5242148432149303901
:10DF400040181A210830FDF75EF91620694608745A
:10DF500003980C2148430119887A60221043887283
:10DF6000787A0221084378720FE003980C2250431C
:10DF70000019827A80231A43827215206A4610742F
:10DF8000B87A8000095801A888470026324604A9BB
:10DF900001A8FDF7E9FD6846007C122800D082E662
:10DFA00003980C2141430919897A0129F7D0FFF719
:10DFB0002DFA78E607A10020FDF7E0FA73E60000ED
:10DFC000E42000205C27002070050200FFFF000015
:10DFD0004C2600204C454433205357495443480AAB
:10DFE00000000000F0B5064626480C460178264899
:10DFF00089B000293FD0811D002E3ED0002C3CD09E
:10E000003178002937D1214900250968002932D00B
:10E01000B078072833D21C211D4F4843C019807E99
:10E02000FF282CD0E560B07865614843C0192061B5
:10E030001648A5600C306060684620601148B178D1
:10E0400007AA103001F0C8FA002814D11C231A4680
:10E0500007A9684601F07AFB00280CD1E560B17889
:10E060001C225143C919656121610849A5600C3121
:10E0700061606946216009B0F0BD0846FBE70248CF
:10E080000830F8E7E4200020088000005C2700202A
:10E090004C26002030B50446002903D0087800281B
:10E0A00014D101E00B4830BD0B4800230068002864
:10E0B0000CD0094AFF2088700C3A15890520A5422A
:10E0C000F1D14B70D07A8870002030BD0148801F9C
:10E0D00030BD00000E8000005C270020002806D024
:10E0E000FF21017041708170C170002070470148AC
:10E0F000704700000E800000F0B585B0040036D0F7
:10E10000294800250560457285722846FFF77EF98B
:10E11000254824213038FDF776F80026FF273046C1
:10E1200001F0F6F921488755761C072EF7D37421A4
:10E13000684681800721C1801D481C490090083134
:10E14000684601F057FB00280FD1184E0120083E09
:10E150003070207800280CD069468888C9884843E8
:10E1600081B23046103001F061FA05B0F0BD1148BF
:10E17000FBE7114F00240D48A1B202AA083001F0BC
:10E180002BFA002809D11C206043C01900231C224F
:10E1900002A901F0DBFA002801D03570E5E7641C24
:10E1A000072CE8D3E1E700005C270020EC200020EA
:10E1B0003DE201000E8000004C2600200B4610B509
:10E1C0001A491B4A0978002920D0911D002805D042
:10E1D000002B03D00178002918D101E0084610BDBA
:10E1E00014490968002911D0114A8178D21EFF29EB
:10E1F0000ED01C20414310480918887E800705D4A2
:10E20000072218461031FCF7E5FF0022104610BD2A
:10E210004078FF28FAD00C21484306490C394118B0
:10E22000887A8007F2D507221846ECE7E420002020
:10E23000088000005C2700204C260020FFB55C48C9
:10E2400091B000681A9F1E46002873D0742F71D8B1
:10E250006846FFF743FF002801D0FDF779FC002452
:10E26000684604700471254605970696A9B20FAA60
:10E27000504801F0B1F9002806D108220FA91198E1
:10E28000FCF7D3FF002817D06D1C072DEED368468E
:10E290008578FF2D4ED01298032810D046481C21B7
:10E2A000301AFCF76DFF012707281ED204A8029040
:10E2B000139800280BD011E068468570E7E7742FAB
:10E2C00003D04020694608716BE02020FAE7384609
:10E2D0003849A84010394968084260D0284601F002
:10E2E000DBFF20206946087149E031481C214C3889
:10E2F000301AFCF745FF00281DD02D482421303866
:10E30000301AFCF73DFF01002C482BD040216A4613
:10E3100011712B498E4244D0274AA9001C3A51580A
:10E32000B1423CD104A90291C07A854227D1684606
:10E33000447024E033E004A802902020694608716C
:10E340004C701B490B940C310C915839079169465C
:10E3500089781C225143184A05908918089107A909
:10E3600006910CE0302269460A714C70CF70807AB9
:10E37000800704D4114824212438FCF744FF129864
:10E3800069460228087910D00221084369460871BD
:10E3900004A8029001A96846139AFDF7E5FB15B0A1
:10E3A000F0BD694608790321EFE73843EFE7000045
:10E3B0005C270020F42000204C260020502700205D
:10E3C0004C05020070B5064618480D460078002836
:10E3D0000ED01749002E0ED0002D0CD02868002832
:10E3E00009D0144C2168002907D011480A3870BDA3
:10E3F0000F48801F70BD084670BD20600522691D52
:10E40000201DFCF7E7FE2879A072207A022140083F
:10E4100040000843FB2210402072E079012318439A
:10E4200008431040E0710020307070BDE4200020EF
:10E430000E8000005C27002010B50E4900234A78AA
:10E440008C78A24212D0521CD2B24A70022A00D159
:10E450004B704A78074B920018339A58026008694B
:10E4600010180002000A0861012010BD036000209E
:10E4700010BD00003C21002010B5002803D0112859
:10E4800002D0FDF78DFB10BD024808224168114300
:10E49000416010BDFC20002010B51C4C21782046A6
:10E4A0004068012906D0022929D0032912D100078A
:10E4B00017D513E0000711D41548142201785143F1
:10E4C0000818C188A28B891A0904090CC18002D0DE
:10E4D00001F010FD10BDFEF793FE10BD00F012FC20
:10E4E00010BD6069401C606100F0D6F9002803D0BF
:10E4F000207801F0EBFB10BDFEF71AFE10BD60782E
:10E50000044980000858804710BD0000FC2000200E
:10E510000C2800209405020010B528DFFFF7ACFF9F
:10E5200010BD10B529DFFFF7A7FF10BD002804D0EC
:10E530000349496D016000207047032070470000C7
:10E5400004290020002070470020704700207047F9
:10E55000F8B506464078242104464C4324490C2251
:10E5600050436118224A00254B6824328018AE4679
:10E570002F469C46002B0CD0827A1346D20908D035
:10E580005A0606D40D461A4A614689B2175908350B
:10E590008E46174C008924343B4672462946A9DF33
:10E5A0000B2819D0002800D01248012F13D1707801
:10E5B0000C214843001900890F4AA7DF00280AD020
:10E5C0000E49884212D0082810D0891C88420DD0EC
:10E5D00011280BD00020F8BD70780C21484301238E
:10E5E0000019008972462946A9DFE0E70148F8BD15
:10E5F0002C27002041800000FFFF000002300000B7
:10E6000070B50C46014660782422084D50434019ED
:10E61000382301F09BF8002807D161782422514368
:10E6200049194A68521C00D14A6070BD2C2700204D
:10E63000F3B589B00D461A206946888368780C21A5
:10E6400003274843224E3B468019008907AA6946A2
:10E65000AADF002838D1687824214843741A0019A9
:10E6600069468A8B0830FCF7E0FD0028687807D0FF
:10E67000242148430119496800290DD0154E0CE0AA
:10E680000C2141438919897A89071DD424214843E3
:10E690000019FCF7B8FD17E00F4E27506846828B33
:10E6A000687824214843001942606878484300197B
:10E6B00069460830FCF78EFD68782421484301192B
:10E6C000382324220998B04700200BB0F0BD000089
:10E6D000502700208DF90100B1F8010010B5FFF7B7
:10E6E00037FF10BD10B5FFF78BFF10BD10B5FFF75A
:10E6F0009FFF10BDF8B50746104E0125BD4030689C
:10E70000FDF7FAFA00280DD10D4C2069284207D1F7
:10E71000384600F0C3FC0028E06804D0284303E03A
:10E72000A8432061F8BDA843E06020690022284387
:10E730002061A1683068FDF7A1FAF8BDB4050200B8
:10E740002821002070B51B4C207900072ED41A48D0
:10E750001422017851430D182E6900F0CBFF0146B9
:10E76000E8882A89761E80188019FCF709FD21693E
:10E770000025002909D06169814206D1E560606801
:10E7800001210843606000200AE000F085F80028BD
:10E7900002D00220E56003E02069002803D00320B6
:10E7A00001F0F0FB70BDFEF7C3FC70BD01F0DEFBB5
:10E7B00070BD0000FC2000200C280020F8B51C4C87
:10E7C0002078002833D02069002807D00026E06890
:10E7D000002805D00025002E04D011E00126F6E720
:10E7E0000125F8E7684652DF052804D0002804D048
:10E7F000FDF7AEF904E0012602E0216900988847A0
:10E80000002D10D1608869460880A06861DF052866
:10E8100004D0002804D0FDF79BF904E0012502E0B4
:10E82000E168A0688847002EDCD0002DD3D0F8BD69
:10E830005C210020418805480288914204D3408829
:10E84000814201D80120704700207047D420002069
:10E850001048018CC9B2012917D1818C090714D144
:10E86000018D09060A0F03D1828D1206120F0ED0F8
:10E87000090F012903D1828D1206120F07D0032937
:10E8800003D1808D0006000F01D0002070470120C9
:10E8900070470000C00F00F070B50E4814220178D8
:10E8A00051430C18256900F025FF0146E0882289B4
:10E8B0006D1E80184019FCF763FC07494A698242C3
:10E8C00006D3824202D10869002801D0002070BD21
:10E8D000012070BD0C280020FC200020800701D002
:10E8E000002070470120704730B51588EC1C9C4211
:10E8F00001D90C2030BD02244C5513881C255B1C0B
:10E900009BB21380CD5413885B1C9BB213800128EB
:10E9100007D0022807D0032807D0042807D00720F3
:10E9200030BD002004E0012002E0CC5401E00320CF
:10E93000C8541088401C1080002030BD10B5044819
:10E94000017AC90702D00078FEF706FA10BD000070
:10E9500098200020F8B52C49C8680A690C780F790E
:10E9600089688646944600913EE00099E200551879
:10E970002A7836E0182353436968521CC918AB78CB
:10E98000D2B2934200D100220B78022B02D0032B8B
:10E9900027D123E04E680346014603E0B14204D08C
:10E9A0000B46C96900291CD0F8E7002919D08B4211
:10E9B00008D1C069002805D1144F0126BE60002689
:10E9C000B44601270E68C969D961002909D00B68CE
:10E9D0009B190B6005E00174C06900E0002100286C
:10E9E000F9D169789142C5D12146641EE4B200296B
:10E9F000BBD1054962460A61C8600F71704501D0FC
:10EA00000120F8BD0020F8BD3C210020001001408D
:10EA1000F8B5044631480026C168009107784EE0F9
:10EA20002E48F90080680D1843E0002C02D02046E3
:10EA3000E4691FE02878182141436A68401CC0B28D
:10EA400051182870AA78904200D12E700A78486830
:10EA5000012A30D1027C002A2DD18A684260CA681E
:10EA600082600A69C260496981611C49097900298B
:10EA700000D04660194943680A699C46991A090200
:10EA8000174B090A994202D28268891807E0614649
:10EA9000511A09028268090A8A4202D9511A016090
:10EAA00000E006604660012186600174C66101F0E5
:10EAB000D3FA002CB9D1287869788842BAD138467F
:10EAC0007F1EFFB20028ABD10448C1680098814284
:10EAD00001D00120F8BD0020F8BD00003C2100203D
:10EAE000FFFF7F00084A30B4821814680023002C0E
:10EAF00008D0064C64680C4204D01360044949688D
:10EB000030BC084730BC7047003001400033014042
:10EB100020210020002398B0694A05211846FDF7FE
:10EB200065F8002801D0FDF713F800F061F9654A97
:10EB300000216548FDF744F8002801D0FDF708F8EA
:10EB40006148624A0021001FFDF73AF8002801D011
:10EB5000FCF7FEFF5E4A5F490320FEF7ADF8002890
:10EB600001D0FCF7F5FF69460020FDF76BFF002898
:10EB700001D0FCF7EDFF6846007802287ED0002126
:10EB800068460171FDF780FE68460079FEF790FD4A
:10EB90000120014610316846017305224EA103A8E9
:10EBA0007CDF002801D0FCF7D3FF00240094502123
:10EBB000684601940180A0214180FF218480913129
:10EBC000C1807ADF002801D0FCF7C2FF382101A8FC
:10EBD000FCF719FB022168460171012585710621A8
:10EBE000C17185823E48069024210FA8FCF70BFBDB
:10EBF00010A80572FF202D301390B42000941490BB
:10EC0000384B0FAA002101A8FDF7F0F8002801D029
:10EC1000FCF79EFFFDF778FE002801D0FCF798FF77
:10EC200031480190009402946846058069462F4857
:10EC3000FDF798FB002801D0FCF78AFF2C48FEF76F
:10EC4000D9FD2748001F4078FEF766FD1C21684665
:10EC5000FCF7D9FA0520C00301900F2000040290B0
:10EC60000094032168460173C4810474214805900F
:10EC7000214806906846FDF7CBFA00E01EE0002828
:10EC800001D0FCF765FF16481C49083000F06AFA0D
:10EC9000002801D0FCF75CFF00F04CFA0320FDF7E0
:10ECA000C1F9002801D0FCF753FF154940208860C6
:10ECB00048DF0028FCD0FCF74BFFF9E701215FE7B4
:10ECC000CC2100209DFB0100B4040200ADD4010062
:10ECD000F1CB0100CD0C00005065676779000000A2
:10ECE0008420002083F2010031D70100DC230020C2
:10ECF0001DFA0100A5F201006DD3010091B20100DF
:10ED00000005005010B50448082241689143416055
:10ED1000007800F0DBFF10BDFC20002070B5144629
:10ED200082880E4605462088111D4118921C994282
:10ED300001D8FE2A01D90C2070BD521C3254208803
:10ED4000FF21401C80B2208031542088401C80B2BA
:10ED500020808119288801F099FA2188401880B212
:10ED60002080AA88002A09D0A968002908D0801923
:10ED7000FCF730FA2088A98840182080002070BD58
:10ED8000072070BD10B501210848C905C1601121D7
:10ED9000490581604113064800220068FCF76EFFB8
:10EDA000002801D0FCF7D4FE10BD00000005005083
:10EDB0004405020010B5012107484905C160C1039F
:10EDC00081604113054800220068FCF757FF0028C6
:10EDD00001D0FCF7BDFE10BD000500504405020047
:10EDE000152002494005C86070470000000500502A
:10EDF00010B5054A00210548FCF7E2FE002801D0C5
:10EE0000FCF7A6FE10BD0000E1ED01004405020084
:10EE1000F8B50F46017814460546012902D16878F5
:10EE2000002806D02088821C9A422DD8012902D0C1
:10EE300006E00720F8BD69784118891C994223D85B
:10EE4000181A801E86B2684606802188B81C0818E9
:10EE500069467DDF0028EDD12878022805D1694672
:10EE60000988B14201D809210AE00821012805D109
:10EE70006878B04202D86A46108001E06846068091
:10EE800068460088FE2801D90C20F8BD2288401C65
:10EE9000B8542088401C80B22080395420886946AC
:10EEA000401C20800988401820800020F8BD0020E8
:10EEB00070470020704700207047000008B50549E2
:10EEC000054A898F914204D0694608700148FDF7D0
:10EED0002FFB08BD0C240020FFFF000031B5054CBE
:10EEE00004E0401E00902046FCF7F4F8009800284B
:10EEF000F7D138BDE70300008207D30EFF229A4006
:10EF00008907090E10B5994000280BDA03071B0F7B
:10EF1000083B9C080C4BA400E318DC6994430C43A9
:10EF2000DC6107E08408094BA400E41823689343DC
:10EF30000B432360C106C90E0120884004490860C4
:10EF40000449086010BD000000ED00E000E400E0AE
:10EF500080E200E000E100E0F3B581B00F460198E7
:10EF600000F00EFB012400281E4E019817D0FDF77B
:10EF70008DFF80194030007F8009032802D00128CE
:10EF800006D007E01848006901998C40204201D161
:10EF9000022100E00321019800F04CF9FEBD00F0D1
:10EFA000FBFA0028FAD00198FDF770FF05468100B2
:10EFB000C81D0E4AF93089180A6980B222430A61D5
:10EFC0000B49401800210160002FE7D00198FDF7A0
:10EFD0005DFF800030580028E0D00648AC40446017
:10EFE000FEBD0000802700200005005000650040A5
:10EFF0000060004000630040FEB5044623480E4612
:10F000000019402141560027C8171346401C01D063
:10F01000082738E0F27819462046FDF713FF054629
:10F02000401C2FD0B078002807D01948A10009183B
:10F03000086802229043086007E0002173782046A8
:10F0400000910A46019100F0E3F8F078002810D012
:10F050001048AA001018317802690F4B1A4002615B
:10F06000E206D20C8907890B0A4301690A4302614F
:10F0700009E00648327840194030017F920111437F
:10F08000017700E004273846FEBD000080270020FD
:10F090000007005000650040FFE0FCFF03490969DC
:10F0A000C140C807C00F00D00120704700050050C4
:10F0B00070B5124D287B002801D0082070BD0F4983
:10F0C00000206039421E0B184033401CC0B21A7039
:10F0D0002028F8D300242046FDF7A6FE641CE4B2E5
:10F0E000102CF8D303210620FFF706FF0120044966
:10F0F000C007486001202873002070BDE027002071
:10F10000006300400248007B002800D001207047C7
:10F11000E02700200449002008600449012008601D
:10F120000349022008707047003501400430014057
:10F1300020210020074801220260074900200860C2
:10F1400048608860C8600548026005490220087070
:10F15000704700000035014000310140003001409F
:10F1600020210020F8B5244C2278002A01D0082064
:10F17000F8BD002800D12148214B01225A60214AC4
:10F180000025156003785B075B0F93600368DE431F
:10F19000760702D1DB03DB0FD36003799B079B0F5C
:10F1A0001362194E3560194B0F279F60002911D04B
:10F1B0006160017A176815605568ED08ED000D4330
:10F1C000556017600179002914D0012904D0022963
:10F1D00004D102E00720F8BD042159603268012102
:10F1E0000A433260417A1320FFF786FE0120207027
:10F1F0000020F8BD0821F0E720210020A80502002A
:10F200000030014000350140003201400033014030
:10F2100030B552000A439900039C0A432102049D21
:10F220000A4329040A43024980004018026030BDA5
:10F2300000070050820006481018026803231B04D0
:10F240009A430260026809040A43026070470000A2
:10F2500000070050034940180068012800D0002032
:10F2600070470000006000404058002800D0012096
:10F2700070470322120280184068084000D0012025
:10F28000704710B5002809D0032806D10220FDF7E9
:10F2900005FD002801D0FCF75BFC10BD00F002FD6D
:10F2A00010BD000010B50078002807D104483B21AC
:10F2B000408876DF002801D0FCF74AFC10BD000032
:10F2C00080200020F0B58BB00C4605460221684630
:10F2D000017301268674228982826289C282204655
:10F2E0000C3000270690089768460184478407A8D9
:10F2F0000990A98A288808AAA5DF002804D0E96A0D
:10F30000002919D0884717E06846808BC007C00FD6
:10F3100012D068460782288803A9A8DF002812D1E6
:10F32000217B20460D300B00FCF72BFA09420F1C05
:10F3300022242729402B4200FF20FE306946088204
:10F34000288803A9A8DF0BB0F0BD6A4617700BE050
:10F3500006221BE069460E720190AA6A2846904771
:10F360000020F0E76A4616706289022AF2D2EFE7BF
:10F37000022000E00320694614E00420FBE705209A
:10F38000F9E76189032905D2032208212846FDF700
:10F3900073F8D8E7417802780802104369468880FC
:10F3A00002D006200870D8E70720FBE70920E2E733
:10F3B0000322EBE71CB509780B00FCF7E2F9111604
:10F3C0001616161616161616161616161616160AE9
:10F3D0001600818E808F6A46A5DF0198007801288B
:10F3E00004D0002801D1FFF7CDFC1CBDFFF7E2FCE3
:10F3F0001CBDF0B50E4605460988428902208DB035
:10F4000091420DD1296800290AD069460870707BA5
:10F41000317B00020843694688802A682846904765
:10F420003088A98B88420ED1286800280BD007208D
:10F4300069460870707B317B00020843694688800A
:10F440002A68284690473088698C34460C348842B4
:10F450002FD1286800282CD00A2069460870B77A76
:10F4600001AA384621460692FCF770FC2118059047
:10F47000069A381AC0B2121DFCF768FC01460598BE
:10F48000069A0818C0B221180590381AC0B208327E
:10F49000FCF75CFC01460598069A0818C0B22118D2
:10F4A000381AC0B20C32FCF751FC2A68694628466B
:10F4B00090473088A98D88420BD12868002808D051
:10F4C0000D2168460170217801712A686946284635
:10F4D00090473088A98E88420DD1286800280AD02C
:10F4E00010216846017021780171617841712A68A4
:10F4F0006946284690470DB0F0BD0021425C002AC5
:10F5000001D001207047491C0629F7D3002070471D
:10F5100070B505461C200D4968434418204611303B
:10F520000621FBF770FE20461021FBF76CFEFF2141
:10F5300021740020A176C0432083284600F0ACFE51
:10F54000024A0020A9001C3A505070BD4C260020F1
:10F5500010B502780A7042784A7082788A70C27850
:10F56000CA7002790A7142794A710830891DFCF724
:10F57000FBFB801DC0B210BD0078087001207047F1
:10F580000449081840214156042901DB0120704735
:10F590000020704780270020044908184021415668
:10F5A000042901D2012070470020704780270020E5
:10F5B00007490979490701D408207047002804D079
:10F5C000044949780160002070470E207047000010
:10F5D000FC2000200C28002030B5124B1B795B0763
:10F5E00001D4082030BD002805D0002A03D00468CB
:10F5F000002C10D101E00E2030BD0B4B1D68002DFA
:10F6000009D045681889414369185D8945435868A0
:10F610002818884201D8072030BD146000205160AE
:10F6200030BD0000FC200020D8280020FEB5054693
:10F6300025480E460079400701D40820FEBD002D64
:10F6400003D02868002834D101E00E20FEBD1F4CF5
:10F65000216800292DD060892189484361684118BB
:10F660006868814225D9FFF739F900280FD068680A
:10F67000019029680C2251430F1979680091401AB2
:10F6800039890C46FBF77CFD002912D101E01020DE
:10F69000FEBD21463046FBF773FD002909D1002E3F
:10F6A00007D0788944430198811900980019814254
:10F6B00001D90720FEBD00200246009033462946AE
:10F6C0000320FDF773FDFEBDFC200020D82800209C
:10F6D00010B507484469601C06D000F00BF80146DD
:10F6E0002046FBF74DFD10BD01200007406910BD0D
:10F6F0000010001001200007006980B27047000070
:10F7000070B500240F482546047044702846FDF764
:10F710003DFD6D1C0A2DF9D30B4D6C80FFF7D8FF12
:10F72000861EFFF7E7FF46430648AE60CC306C61AB
:10F730000460048144812C70AC610420EC61686039
:10F74000002070BD0C280020FC200020FFB52748B9
:10F7500081B000791F4616460D46400702D40820A6
:10F7600005B0F0BD002D06D00198002803D0286810
:10F77000002815D101E00E20F2E71D4C206800287A
:10F780000ED0618920896268414389186A68914274
:10F7900006D9002E04D0B04202D3F119814201D91A
:10F7A0000720DDE70198FFF799F800281BD03846BD
:10F7B000FFF794F8002816D06868FFF78FF8002844
:10F7C00011D068683246C1190198FBF703FD009615
:10F7D00028680C2148432458002202212846019B16
:10F7E000A0470020BCE71020BAE70000FC20002062
:10F7F000D8280020F8B52C4D044628790E4640073D
:10F8000001D40820F8BD002C20D0002E1ED0206886
:10F8100000281BD0FFF76EFF0146A088814213D35A
:10F82000102811D3E08800280ED0FFF751FF471EA3
:10F83000FFF760FF4743E288A188A8684A4312188F
:10F84000974201D3890703D00720F8BD0E20F8BDE9
:10F850006988012926D031600C22144B5143706015
:10F86000CA18506020685850A0881081E0885081E4
:10F87000FFF740FF0646FFF73DFFA188E288401EE4
:10F88000514340183146FBF791FC0446FFF732FF25
:10F890000146A86861430818A8606888401C688011
:10F8A0000020F8BD0420F8BDFC200020D82800204E
:10F8B000F8B5044620481E46007915460F46400715
:10F8C00001D40820F8BD002F05D0002C03D02068FB
:10F8D000002815D101E00E20F8BD18480168002964
:10F8E0000ED04289018940684A43101862689042EC
:10F8F00006D9002D04D0A94202D3A819884201D903
:10F900000720F8BD3846FEF7E9FF002811D0304641
:10F91000FEF7E4FF00280CD06068FEF7DFFF002848
:10F9200007D02B463A46214601200096FDF73EFCC3
:10F93000F8BD1020F8BD0000FC200020D8280020D1
:10F9400010B5114902460878002811D004280FD0BC
:10F95000022A16D0032A0BD10A79120711D48A6918
:10F96000521C8A61032A08D0022802D000F0AEF9A6
:10F9700010BD487800F006FB10BD0D20FCF710F913
:10F9800010BDFEF789FD10BDFC200020F8B504462F
:10F9900020481E46007915460F46400701D408202E
:10F9A000F8BD002F05D0002C03D02068002815D109
:10F9B00001E00E20F8BD1848016800290ED04289E8
:10F9C000018940684A4310186268904206D9002DA8
:10F9D00004D0A94202D3A819884201D90720F8BD52
:10F9E0003846FEF77BFF002811D03046FEF776FF41
:10F9F00000280CD06068FEF771FF002807D02B4666
:10FA00003A46214604200096FDF7D0FBF8BD1020B1
:10FA1000F8BD0000FC200020D828002010B51048B8
:10FA200010494088884205D0132176DF03E0FCF7B7
:10FA30008FF802E074DF0028F9D10020FDF72EF9DD
:10FA4000002801D0FCF784F8FCF754FC002801D012
:10FA5000FCF77EF8FF20F530FFF740FA10BD0000FC
:10FA600080200020FFFF000070B501240B496004D6
:10FA700008600B4940108860094940398860094D89
:10FA80006C602F20FBF736FBAC60074D00242F2065
:10FA90002C61FBF72FFBEC7070BD000080E100E0F3
:10FAA00040130140001001403C21002030B50A48BD
:10FAB000FF21C57D0022094C0931094B002D625000
:10FAC00007D09969437EC268D154417E491C417672
:10FAD00030BD986930BD0000F027002000200040B4
:10FAE000002500401FB501236A46137010720348B9
:10FAF000019106C8684690471FBD0000F02700200E
:10FB000008B502490020009108BD000080200020B7
:10FB100010B50121202805DA1A4A8140114201D18D
:10FB2000194810BD8107C90E002808DA0207120F14
:10FB3000083A9208154B9200D218D26904E0820864
:10FB4000134B9200D2181268CA401106890F04297B
:10FB500011D200290FD002290DD00E494C68C306DE
:10FB6000DB0E01229A40002C08D0400980000B587F
:10FB700013430B5004E00448401C10BD06480260CB
:10FB8000002010BDFC06FFBC0120000000ED00E0DD
:10FB900000E400E07021002000E100E070B5104CAE
:10FBA0000E48E0600F4D28780300FBF7EAFD0614CD
:10FBB00004060E101209042000E00120FFF77EF970
:10FBC000002028704020A06070BD0220F6E70820C9
:10FBD000F4E71020F2E72020F0E700004055010094
:10FBE0000005005080200020FFB50746806A81B0E4
:10FBF000144600283DD0002538462030009033E0E0
:10FC00000C20B96A68430E18B088801CFE2802D9FF
:10FC10000C2005B0F0BD22880299401C8854208831
:10FC20001622401C80B2208002990A542088401C71
:10FC300080B2208002994118308800F027FB21888B
:10FC4000401880B22080B288002A0AD0B16800290A
:10FC50000FD0029BC018FBF7BDFA2088B18840186E
:10FC600020806D1C0098EDB2007BA842C8D800200F
:10FC7000CFE70720CDE700B500220A700300FBF7AD
:10FC800080FD060406080A0C0E10002008E0112072
:10FC900006E0212004E0312002E0122000E02220D2
:10FCA000087000BD10B50020FCF7F8FF002801D057
:10FCB000FBF74EFFFCF72CFF002801D0FBF748FFB5
:10FCC0003CDF002801D0FBF743FF10BD10B50F4902
:10FCD0000028087009D0012811D0022812D003286A
:10FCE00002D14869FEF718FC10BD00208861C86188
:10FCF000074840780028F7D0FDF72CFA10BD00F037
:10FD0000F9F810BD00F058F810BD0000FC200020EC
:10FD10000C280020002803D00249C860002070474A
:10FD20000E2070475C2100201CB503490191009111
:10FD3000694660DF1CBD00008020002070B50E46C3
:10FD40000546144614211046FBF75DFA0220208078
:10FD500000202061207326726572002D01D00120E1
:10FD6000A072002070BD10B5FBF7E4FE10BD0000CE
:10FD700070B5002901D08C0701D0072070BD074C59
:10FD80000125A16062800649636010DF0028F5D17B
:10FD900025701620FFF7BCFE70BD00005C2100201E
:10FDA00067FD0100002803D0024908610020704768
:10FDB0000E2070475C210020F8B5164C14226068B4
:10FDC0004008400060601448017851430E183769BC
:10FDD000FFF790FC01463846FBF7D2F90546606113
:10FDE000FFF788FC0146F0887F1EC019FBF7C8F9B1
:10FDF00002228542606801D1104300E090436060B8
:10FE0000E1681040084303D0002000F0BBF8F8BDC3
:10FE10000220FAE7FC2000200C28002010B5024840
:10FE20004069FEF779FB10BDFC20002010B5FFF7FC
:10FE30004FFC441EFFF75EFC4443FFF75BFC0449A4
:10FE40004A69521E5043CA682146FEF76AFB10BD3C
:10FE5000FC200020F8B510481422017851430C18FA
:10FE60002569FFF747FC0146E08822898018401980
:10FE7000FBF786F90F46FFF72BFC461EFFF73AFC0F
:10FE80004643E0882289F1198018044A4019126912
:10FE9000FEF747FBF8BD00000C280020FC200020E6
:10FEA00070B5FFF727FC0546FFF712FC441EFFF76D
:10FEB00021FC60432946FBF763F9FEF72DFB70BD7B
:10FEC00070B5FFF717FC8608FFF714FC074949696E
:10FED00048430446FFF7FCFB451EFFF70BFC684355
:10FEE00032462146FEF71DFB70BD0000FC200020BD
:10FEF0000020704770B514481422017851430C1843
:10FF0000241DFFF7F7FB6188104E884211D2FFF7DE
:10FF1000F1FB61880D1AFFF7EDFB8208A188E0680C
:10FF20004018216940194919FEF7FBFAFFF7E2FB77
:10FF300007E0A288E06880188A082169FEF7F1FAD4
:10FF40006088F06170BD00000C280020FC200020BB
:10FF500010B505480079000703D4012000F012F81D
:10FF600010BD00F003F810BDFC20002010B50448BF
:10FF70000822416891434160407800F003F810BDC9
:10FF8000FC200020024948700249800008580047C0
:10FF9000FC2000208005020010B50446FFF7D0FCCD
:10FFA0002046FBF7F3FF10BD10B5054800790007A8
:10FFB00002D4FDF7BDF810BDFFF7D8FF10BD00005B
:10FFC000FC200020FEB51F4C00252769E068029048
:10FFD0006846FEF731FA0190FEF7BCFC0646019830
:10FFE000002822D000230098E16817E00E680A4636
:10FFF000864202D9301A086012E0801BF3180026EE
:020000040002F8
:100000001660D668D169B446002E07D0FE183602B5
:10001000360A566066469660D56115460029E5D1D8
:100020002846E160FEF7F4FC06E02846FEF7F0FC07
:10003000002801D1002E02D00298FDF7FFF8002021
:100040002071FEBD3C21002001200249000508600E
:100050007047000000E200E010B50E4BD96800299F
:1000600006D002680C68A24204D8A21A0A60C161D4
:10007000D86010BD0B4604E00B46C969121B00296D
:1000800004D00C689442F7D3A41A0C600260C161DA
:10009000D86110BD3C210020F8B51D4DEC68002C46
:1000A00034D01C48002740682969401A0602360AE5
:1000B0002068B04218D8361AC7192246107CE46965
:1000C00000280FD0002010746B69002B07D09169B5
:1000D00050699847002805D0FBF73AFD02E05169C6
:1000E00090698847002CE3D16978A878814206D1CD
:1000F000401CC0B2A870022801D10020A870044999
:100100000006800D18310F50FFF79EFFF8BD00006C
:100110003C21002000150140FF2107481D3100222D
:1001200042500648828A8168895C828A521C828297
:100130000348C1617047000000200040F027002004
:10014000002500401FB500216A4611701072044856
:1001500082680192817506C8684690471FBD0000FD
:10016000F0270020F0B5454D012185B04902284611
:10017000FFF77FF801270026414C002824D0FF21FB
:1001800025312846FFF770F800281DD0FF202530C4
:100190002E5081203B4980008860A07E002800D13D
:1001A0006F60022168460170374908680860039053
:1001B000E17D68460172E0680190E675267606CC1E
:1001C0006846083C90472BE004212846FFF751F889
:1001D000002825D0FF2109312846FFF745F80028DF
:1001E0001ED0FFF763FCE07D617E884218D1207E3F
:1001F000002808D0627EE168E0752069E06026761C
:10020000667610460AE0A07E002800D16F6081204B
:100210001C4980008860E675607EE168FFF762FC3B
:10022000FF211D312846FFF71FF800280DD0A18AB5
:10023000A07D814202D2FFF76FFF06E0FF211D3152
:100240006E50002801D0FFF77DFFFF214531284681
:10025000FFF70AF800280ED0FF2045302E50A07E70
:10026000002800D02F60E07D002804D0E675607E75
:10027000E168FFF737FC05B0F0BD0000002000404A
:10028000F027002000230040802400400870000A6E
:1002900048700220704700000121814002484268F6
:1002A0008A43426070470000E420002038B51549B9
:1002B000154A488890420FD04A78144C521CD2B24A
:1002C0004A70237B934208D3091D75DF002803D0B1
:1002D000A169002900D0884738BD00254D70217CD8
:1002E000002907D03B2176DF002803D0A16900292F
:1002F00000D0884761690029EED0684605708847BC
:1003000038BD0000D0200020FFFF00001426002090
:10031000EFF30580C005C00D1AD0103840B2002898
:1003200008DA0107090F083989080C4A8900891879
:10033000C96904E081080A4A8900891809688007A8
:10034000C00EC1400806800F012803D0032803D047
:1003500002207047002070470120704700ED00E048
:1003600000E400E042788378521CD2B2934200D17C
:1003700000220378934201D1002070470A7041683F
:100380004078182250430818704770B50C4606464E
:10039000FBF7EAFC05466119301DFBF7E5FC401947
:1003A000C5B2304661190830FBF7DEFC4019C5B212
:1003B000304661190C30FBF7D7FC4019C0B270BD54
:1003C000FFB583B016460C9D0D9C1F46022200957A
:1003D0000194039800F00CF8002807D13B46102246
:1003E000314600950194039800F002F807B0F0BD83
:1003F000FFB583B0074600200C9C8646268805463C
:100400003AE07868A90042181188684681805188CE
:10041000C1800022694601A865DF002839D16846FD
:1004200001780598814226D17046002801D000222B
:1004300000E002222088891842180D998A4227D8A4
:10044000714600290AD1401C80B22080069A049986
:1004500011542088401C208001208646218806985F
:100460000A18694601A865DF002812D1694620886C
:100470000978401820806D1C3888A842C1DC70467D
:1004800000280AD02088801B401E80B2FF2802D995
:100490000C2007B0F0BD069988550020F9E70179D6
:1004A000002902D1007B002800D001207047000005
:1004B0008C210020AC21002001000007636289CD5F
:1004C000D6A0AEAE78418EEE0000BEDE4C240020F9
:1004D0006C240020B02400201D0000001600000045
:1004E0001C000000050000000700000009000000DB
:1004F0000B0000000D0000000F0000001D010300B4
:1005000025CB01001601030025CB01001C010300CF
:1005100025CB01000500010025CB010007000100EB
:1005200025CB01000900010025CB01000B000100D3
:1005300025CB01000D00010025CB01000F000100BB
:1005400025CB0100D0240020F4250020FFFFFFFF71
:10055000B7EE010031E601004DE50100EDE60100D6
:10056000B3EE010001E6010049E50100E5E6010006
:10057000AFEE010051E5010045E50100DDE60100B7
:10058000A1FE0100C1FE01001DFE010055FE01009B
:100590002DFE010051FF010085D4010031D401007E
:1005A000A9FF010045E70100030000000200000070
:1005B00000030000E42800200300000023D1BCEA6F
:1005C0005F782315DEEF121200000000EC05020038
:1005D000802000200C0100009CB70100F8060200FA
:1005E0008C21002094140000ACB701000000FFFF34
:1005F0000A180100000000000400000001000000D3
:1006000005000000000000000000000000000000E5
:1006100000000000000000000000000000000000DA
:1006200000000000FFFF00000000000000000000CC
:1006300000000000000000000000000000000000BA
:1006400000000000000000000000000000000000AA
:10065000000000000000000000000000000000009A
:10066000000000000000000000000000000000008A
:10067000000000000000000000000000000000007A
:10068000000000000000000000000000000000006A
:10069000000000000000000000000000000000005A
:1006A000000000000000000000000000000000004A
:1006B000000000000000000000000000000000003A
:1006C000000000000000000000000000000000002A
:1006D000000000000000000000000000000000001A
:1006E00000000000F1D70100000000000000000041
:0806F000000000000024F400EA
:040000050001B0C185
:00000001FF
