:020000040003F7
:10C00000983F00208DE80300A7E80300A9E803009B
:10C010000000000000000000000000000000000020
:10C02000000000000000000000000000ABE803007A
:10C030000000000000000000ADE80300AFE80300CE
:10C04000B1E80300B1E80300BDC70300B1E8030095
:10C05000B1E8030000000000B1E80300B1E803000C
:10C06000B1E80300B1E80300B1E80300B1E8030060
:10C07000B1E80300B1E80300B1E80300B1E8030050
:10C08000B1E8030005CF0300B1E80300B1E8030005
:10C0900021CF0300B1E803007FE70300B1E803000C
:10C0A000B1E80300B1E80300000000000000000058
:10C0B0000000000000000000000000000000000080
:10C0C0000348854602F0A8FC00480047CFC10300A2
:10C0D000983F0020401E00BF00BF00BF00BF00BF50
:10C0E00000BF00BF00BF00BF00BF00BF00BFF1D155
:10C0F00070470000401E00BF00BF00BF00BF00BF70
:10C1000000BF00BF00BF00BF00BF00BF00BFF1D134
:10C1100070470000056885F308884068FF2464B212
:10C12000EFF30585002D01D1A646004725460646BA
:10C1300021273FBAF0B40024002500260027F0B4E0
:10C14000F92040B20047000010B500F08DFC10BD92
:10C1500030B575498BB00A1D3CCA059206AA38C293
:10C1600009680991002805D005A818DF002801D02A
:10C1700000F028FD0F20800313DF002801D000F01D
:10C1800021FD6A4B48226A4909A802F0DBFA00281F
:10C1900001D000F017FD01216A46084602F0FDFAC1
:10C1A000002801D000F00EFD0120694608736846A2
:10C1B00002F008FB002801D000F004FD5D4802F009
:10C1C000D6FA002801D000F0FDFC0BB030BD1CB544
:10C1D0005948C1690026B12953D0002415251827D4
:10C1E00001220096002311462846019600F080F8AF
:10C1F0006D1CBD42F4D90F20504D4005A860504839
:10C200000F2140698903884202D0002000F0DAFC47
:10C2100001200007006901218902884202D0002024
:10C2200000F0D0FC474B484A0521002000F07CFE7E
:10C23000002801D000F0C6FC032300221420114680
:10C240000096019300F054F801F088F901F0C8F964
:10C250000127FE05002817D0EE6001F0D0F9002874
:10C2600001D000F0AFFC20467840FFF771FF00F0EE
:10C270004FF801F0E4F9002801D000F0A3FCAE6013
:10C2800008E00124C661A9E720467840FFF760FF77
:10C2900000F03EF82869000DC007C00F04D0002050
:10C2A00020432A4C07D101E00120F9E7A06801F002
:10C2B000B2F8002807D1EE6001F062F9002801D041
:10C2C00000F080FCAE60A06801F0A5F8002806D060
:10C2D00001F086F9002802D1A06801F05DF9BFF3F2
:10C2E0004F8F1C491A48C860BFF34F8F00BFFDE74E
:10C2F00030B552000A439900039C0A432102049D71
:10C300000A4329040A43144980004018026030BDE2
:10C31000074A10B548321421082000F06DFC0028AF
:10C3200001D000F04FFC10BD5CEA03007BE8030085
:10C33000B82E002049C10300000500400005005050
:10C34000001000105FD30300F02C0020003000002C
:10C350000400FA0500ED00E0000700501CB501786C
:10C360003B4C012908D0022914D000291FD10320F9
:10C3700069460870684618E0042269460A704068F9
:10C380000078087132480121401C00F060F901205A
:10C39000A07009E002216A461170C06801902C4823
:10C3A0000121401C00F053F96846616888471CBDB4
:10C3B00070B588B0154604461E46202225496846B9
:10C3C00002F006FBA06806902079002801D0012128
:10C3D00000E000216846017506776079002800D0EA
:10C3E0000E2069464875E0780290A0780390207886
:10C3F0000190607800901648002145608170207996
:10C4000002280ED01449684600F066F8002806D1CC
:10C4100000F03EF90E480121401C00F018F908B068
:10C4200070BD0620FBE710B50949087001210848D6
:10C4300000F0E8F8112803D0002800D0032010BD38
:10C44000042010BD10B500F09CF8002010BD0000C5
:10C45000002C002070EA03005DC3030031B5054CD9
:10C4600004E0401E00902046FFF734FE00980028AC
:10C47000F7D138BDE70300008207D30EFF229A40B0
:10C480008907090E10B5994000280BDA03071B0F26
:10C49000083B9C080C4BA400E318DC6994430C4354
:10C4A000DC6107E08408094BA400E4182368934387
:10C4B0000B432360C106C90E01208840044908606F
:10C4C0000449086010BD000000ED00E000E400E059
:10C4D00080E200E000E100E0F3B5FF4C0746E07EBB
:10C4E00081B0002801D00820FEBD002F00D1FB4FF5
:10C4F0000126387831468140F9488160386800F07B
:10C500006BF90021786800F071F9F64DB86968623E
:10C51000787D397D0843E86603CFE8606961387B40
:10C52000083F01280FD10021B86800F05FF9387B7F
:10C5300031468140EA488160F86800F04DF9F968B9
:10C54000B868A96028610298606039692160002894
:10C550000ED0FF23E4481D33397F0022C250FF2351
:10C560004533C250E24AE14850600220FFF784FFA1
:10C57000042028600020E0752076A075E676A0767D
:10C58000FEBDF8B5D74900260E60D34840680028A4
:10C5900005D0D74AD7489060D74A04201060CA68AF
:10C5A0004F698D680C690020C043C860486188608D
:10C5B0000861104600F023F9384600F020F9601CAD
:10C5C00002D0204600F01BF9681C02D0284600F07B
:10C5D00016F9C148C6764660F8BDFF21C2481D3134
:10C5E00000224250BC48828A8168895C828A521C3F
:10C5F0008282BC48C1617047B748807D002800D066
:10C600000120704710B50346FFF7F6FF002801D060
:10C61000112010BDB04A002091759360908200F007
:10C62000F7F810BD30B5AC48FF21C57D0022AE4CF7
:10C630000931AC4B002D625007D09969437EC26826
:10C64000D154417E491C417630BD986930BDF8B562
:10C65000A14B81245E680022A400A54D002E00D0CD
:10C66000AC60DF7D002F0BD01A7E002A04D0002E94
:10C6700000D06C601120F8BD18610122197604E029
:10C68000D9750024D8605C761C7600F002F9F8BDFC
:10C6900010B5914CA07E002803D100F0EFF80120E6
:10C6A000A07610BDF0B5904D012185B04902284615
:10C6B00000F08AF801270026874C002825D0FF21AA
:10C6C0002531284600F07BF800281ED0FF202530B9
:10C6D0002E508120864980008860A07E002800D1ED
:10C6E0006F600221684601707E49803908680860E1
:10C6F0000390E17D68460172E0680190E675267658
:10C7000006CC6846083C90472BE00421284600F000
:10C710005BF8002825D0FF210931284600F04FF8AA
:10C7200000281ED0FFF77EFFE07D617E884218D191
:10C73000207E002808D0627EE168E0752069E06014
:10C740002676667610460AE0A07E002800D16F604B
:10C750008120674980008860E675607EE16800F0AE
:10C76000F3F8FF211D31284600F029F800280DD0EC
:10C77000A18AA07D814202D2FFF72FFF06E0FF21B0
:10C780001D316E50002801D000F0E9F8FF2145313D
:10C79000284600F014F800280ED0FF2045302E5017
:10C7A000A07E002800D02F60E07D002804D0E67530
:10C7B000607EE16800F0C8F805B0F0BD72E740584F
:10C7C000002800D001207047032212028018406820
:10C7D000084000D0012070471CB5002100910B4695
:10C7E00001220191114600F0C7F81CBD1CB50022C2
:10C7F0000B4600921146019200F0BEF81CBD1CB51C
:10C80000002100910B460122019100F0B5F81CBDFA
:10C81000F8B50026344FFF251D357E510120B86044
:10C82000FFF7DBFE2C4C6168002910D022E0FF27C7
:10C83000013729462C48FFF7C2FF002802D1A08A01
:10C84000B842F6D1A08AB84201D0FFF7C6FEA08A4E
:10C85000A17D8842EBD3A18AC81FF9380CD0224FA2
:10C8600029463846FFF7ABFF0028F9D00120F860D1
:10C870000020A0753046F8BD0F26F9E7FF221A48C0
:10C88000253200218150FF220932815001210160AF
:10C890007047F8B5104DA87E104301D1FFF7EEFFA9
:10C8A0006868114C002805D081201149800048603B
:10C8B0000020F8BDFF20453000212150FF21253107
:10C8C0002046FFF77CFF0546FF2109312046FFF790
:10C8D00076FF0746FF2111E05030002090EA030068
:10C8E00000050050002500400020004080000200AC
:10C8F000002300408402020080E100E04531204630
:10C90000FFF75DFF0646394631432943D6D0284616
:10C91000304306D1FFF786FE1F48C17D407E81422D
:10C92000CCD800211C48002DC17501D00320F8BDD2
:10C93000002E01D00F20F8BD817E0120002901D0FA
:10C940002060B5E76060B3E71FB501236A46137046
:10C9500010721148019106C8684690471FBD1FB567
:10C9600000216A46117010720B488268019281752D
:10C9700006C8684690471FBD30B552000A4399006B
:10C98000039C0A432102049D0A4329040A430349E4
:10C9900080004018026030BD503000200007005079
:10C9A00018225043854A002180180171816041613D
:10C9B000032281610261C160704770B57F4C18220B
:10C9C00021780F2051430A197D4916795369121DA8
:10C9D0004D68012E0FD0032E0CD1012000070069F5
:10C9E00081B2184601F0DEFF401928DF002801D18E
:10C9F0000121A17070BDA802556851692D1A09184E
:10CA000092681818101801229202954202D2AA08C0
:10CA100029DFEBE7FF22013229DFE7E7F8B5674CB2
:10CA2000069E65780A2D1DD027787D19EDB20A2D56
:10CA300001D30A3DEDB218277D432D192871AA6153
:10CA400003C9EE60AB6069612861A178002000290C
:10CA500004D1FFF7B2FF112800D100206178491CF2
:10CA60006170F8BD0420F8BDF8B5544C0022A178DF
:10CA700001293ED10023A3700646214608781827D5
:10CA8000054678434118022E03D0032E31D10D20E4
:10CA90002CE04B484668761C46608968B6028E4298
:10CAA00014D343606078401E6070681CC0B2207070
:10CAB0000A2801D30A38207018206843011910464B
:10CAC000091D00F06BF82846FFF76AFF6078002820
:10CAD0000FD0A07800280CD1FFF76FFF002808D0F6
:10CAE000112806D02178182251430919091D00F098
:10CAF00055F8F8BD70B50024314E304874600470AC
:10CB00004470847025462846FFF74AFF6D1C0A2DA5
:10CB1000F9D32A4934600020F43174608200401C4B
:10CB20008C500328FAD3002070BD10B5244B1A682E
:10CB3000032A09D00A60214C9100F4340068605047
:10CB4000521C00201A6010BD042010BDF8B5074625
:10CB50001D4616460C46084600F01AF800280CD070
:10CB6000601900F015F8002807D0334622463946F0
:10CB700001200095FFF752FFF8BD1020F8BD08B561
:10CB80000B460022014603200092FFF747FF08BD35
:10CB9000800701D0002070470120704738B50C464F
:10CBA000E268064B9200F4339D580978626800925F
:10CBB000024620460C306369A84738BD6C3000201F
:10CBC000082C00200EB50021029000916A460191C8
:10CBD000014800F003F80EBD01400000BFF34F8F85
:10CBE00004490348C860BFF34F8F00BFFDE7000052
:10CBF0000400FA0500ED00E030B5CB0008339DB22B
:10CC000093070024002B01D0072030BD404B9A60D1
:10CC10005219DA605C701C7058809980002030BD19
:10CC2000F7B53B4C82B060880E4681423FD8002564
:10CC30006846384F057000F09DFB22786078A18827
:10CC4000884201DA401C00E00020C0B2904204D1CA
:10CC50006846007800F0A6FB27E065786078884297
:10CC600001DA401C00E0002060706846007800F0A7
:10CC700099FBBD4219D0A068EF000499C1510299F7
:10CC800000290CD0002E0AD0608832464543E06867
:10CC9000281801F09DFEA0683818868002E0002167
:10CCA00038188180002005B0F0BD0420FBE7092082
:10CCB000F9E70EB504E068468188029A009890472B
:10CCC00002AA01A9684600F003F80028F3D00EBDBF
:10CCD00070B50F4B05241D785E78AE4215D01D78D7
:10CCE0001C789E88B44201DA641C00E000241C70A9
:10CCF0005C88DE686C43A41904609B68E800C41873
:10CD0000A4880C80185800241060204670BD0000D4
:10CD1000102C0020FFFF00008307FF22DB0E9A404B
:10CD20008907090E994000280BDA0007000F083820
:10CD30008308F9489B001818C36993430B43C361E8
:10CD400070478308F5489B001B18186890430843F8
:10CD50001860704770B50124F14960040860F1491A
:10CD600040108860EF4940398860EF4D6C602F209B
:10CD7000FFF7C0F9AC60ED4D00242F202C61FFF7C8
:10CD8000B9F9EC7070BDF8B5E849C8680A690C7863
:10CD90000F7989688646944600913EE00099E2004A
:10CDA00055182A7836E0182353436968521CC9186D
:10CDB000AB78D2B2934200D100220B78022B02D082
:10CDC000032B27D123E04E680346014603E0B1421E
:10CDD00004D00B46C96900291CD0F8E7002919D0F6
:10CDE0008B4208D1C069002805D1CF4F0126BE6013
:10CDF0000026B44601270E68C969D961002909D007
:10CE00000B689B190B6005E00174C06900E000210C
:10CE10000028F9D169789142C5D12146641EE4B257
:10CE20000029BBD1C14962460A61C8600F717045D3
:10CE300001D00120F8BD0020F8BDF8B50446BB487C
:10CE40000026C168009107784EE0B848F900806874
:10CE50000D1843E0002C02D02046E4691FE028783A
:10CE6000182141436A68401CC0B251182870AA7842
:10CE7000904200D12E700A784868012A30D1027C95
:10CE8000002A2DD18A684260CA6882600A69C2603D
:10CE900049698161A5490979002900D04660A34903
:10CEA00043680A699C46991A0902A14B090A9942EA
:10CEB00002D28268891807E06146511A0902826825
:10CEC000090A8A4202D9511A016000E006604660F0
:10CED000012186600174C66100F000F9002CB9D10F
:10CEE000287869788842BAD138467F1EFFB2002878
:10CEF000ABD18E48C1680098814201D00120F8BDB5
:10CF00000020F8BD10B58B4900200860486088609B
:10CF1000C860884940390860486000F016F910BDC3
:10CF200010B500F04DF910BDFFB59007002581B098
:10CF300014460E46002833D17C4F002C32D0FFF728
:10CF400009FF04987861032038703346182122467F
:10CF500000204B43BC601834C10089180D704D701F
:10CF60008E704C601C19401C0328F5DBFD607D7041
:10CF700001247148BD702405046003211420FFF7CB
:10CF8000CBFE6748803804606C4C0198A060032198
:10CF90001120FFF7C1FE60683861002005B0F0BDC8
:10CFA0000720FBE7BD60FBE7604B9B68002B07D0C9
:10CFB000002A07D0002805D00068037C002B03D08E
:10CFC0000820704707207047417442610020704775
:10CFD000EFF30580C005C00D1AD0103840B200280C
:10CFE00008DA0107090F083989084B4A89008918AE
:10CFF000C96904E08108494A8900891809688007DD
:10D00000C00EC1400806800F012803D0032803D0BA
:10D01000022070470020704701207047FEB50D4682
:10D02000424917468968044600292AD0002C28D096
:10D03000052D01D20720FEBD6069002821D0607C4B
:10D04000012820D00026FFF7C3FFC0003749019018
:10D0500089684018694600F0F3F8002815D00121CE
:10D0600001703649446049680830E2C02F49019890
:10D070008968411868460078487000F061F800201F
:10D08000FEBD0820FEBD2E46DDE70420FEBDF8B53E
:10D09000264D0446A96800291CD0002C1AD06069CE
:10D0A000002817D000262674FFF792FFC700A86853
:10D0B0006946381800F0C4F800280DD0022101702C
:10D0C0004460A868391868460078487000F038F85D
:10D0D0003046F8BD0820F8BD0420F8BD10B5134B4C
:10D0E000D968002906D002680C68A24204D8A21AA6
:10D0F0000A60C161D86010BD0B4604E00B46C969E7
:10D10000121B002904D00C689442F7D3A41A0C60B7
:10D110000260C161D86110BD00ED00E000E400E0F4
:10D1200080E100E04013014000100140202C00206D
:10D13000FFFF7F004011014080E200E00015014048
:10D1400001207B49000508607047F8B5794DEC680F
:10D15000002C34D07848002740682969401A06021C
:10D16000360A2068B04218D8361AC7192246107CF1
:10D17000E46900280FD0002010746B69002B07D0E1
:10D18000916950699847002805D0FFF71BFD02E020
:10D19000516990698847002CE3D16978A878814269
:10D1A00006D1401CC0B2A870022801D10020A8708E
:10D1B00060490006800D18310F50FFF7C1FFF8BD20
:10D1C000FEB55C4C00252769E0680290684600F0D7
:10D1D0004AF80190FFF7D7FD06460198002822D0B3
:10D1E00000230098E16817E00E680A46864202D9DB
:10D1F000301A086012E0801BF31800261660D6680B
:10D20000D169B446002E07D0FE183602360A5660A1
:10D2100066469660D56115460029E5D12846E1604D
:10D22000FFF70BFE06E02846FFF707FE002801D1B6
:10D23000002E02D0029800F033F800202071FEBDCD
:10D2400042788378521CD2B2934200D100220378F4
:10D25000934201D1002070470A704168407818223B
:10D2600050430818704710B5324900234A788C782B
:10D27000A24212D0521CD2B24A70022A00D14B7084
:10D280004A782C4B920018339A580260086910189B
:10D290000002000A086101203DE7036000203AE730
:10D2A000F8B52448C16800293ED00E6822494C6870
:10D2B0000769C078E11B0D022D0AED1C002815D16D
:10D2C00001201E4A000450601C4A403A5060184930
:10D2D0004000803108601A4908601A49012008603E
:10D2E0002F20FEF707FF13490120C870B54200D276
:10D2F0003546E8190002104B000A403318600E4A08
:10D300005168001B091B0902090A0002000AC91C16
:10D31000814208D9506818602F20FEF7EBFE0120EB
:10D32000034940040860F8BDFFF714FDF8BD000094
:10D3300000E200E0202C00200015014040130140D5
:10D3400000E100E00010014010B50446082902D0B9
:10D350000020FFF737FC21686068884710BD1CB5C6
:10D3600001910090024A08216846FFF759FC1CBD54
:10D3700049D3030030B5EFF3108172B6134A5468F5
:10D380000123002C04D00370002900D162B630BD07
:10D3900053600F4B1D680F4C254015601C60002228
:10D3A0000270F1E709494A68002A0DD000280BD124
:10D3B000EFF3108072B60A68054B803B1A600022BA
:10D3C0004A60002800D162B670470000E42C0020BB
:10D3D00080E100E0FC06FFBC10B5AF480378012BEC
:10D3E00003D1012901D102210170100001D0FFF702
:10D3F000E9FB10BD10B5A84C48DF002801D0FFF7AD
:10D40000E1FBFFF756FC2078022803D0032801D067
:10D410000428F1D110BD38B50068401C19D0002493
:10D42000684600F041F900980178012910D141883F
:10D4300000290AD08168032000038068002200F0E0
:10D440003DF900994988814201D1012400E000247E
:10D45000204638BD10B504468F481C21001DFFF73B
:10D460008EFB002801D0FFF7ADFB8B4800231C2268
:10D470002146001DFFF76AFB002801D0FFF7A2FB41
:10D4800010BD0FB4F8B5684600F00EF96846027E8C
:10D49000418B0123804CFF258048002A12D0012AAD
:10D4A00016D0032A2AD00021022A36D0052A46D0D7
:10D4B000042A4CD0062A01D104202070F8BC08BCF4
:10D4C00004B018474180099981600370057110E02C
:10D4D0004180089A07998918099A89188160A521BD
:10D4E000017005710799C1600899426101610A994B
:10D4F000816123706948FFF7ADFFDFE700990A7883
:10D5000002704A88428089688160AA210171079966
:10D51000C1600899016109990BE0009A1678A52E5F
:10D5200009D0067056884680926882600571C16095
:10D5300001614161DDE7418081600570F6E700F03F
:10D5400027FD002801D0FFF73DFB0320B5E7418010
:10D5500081600570009909790171CBE70EB5504AD9
:10D560006B4607CA07C3FFF7C5FA002807D14A4927
:10D57000FF208002091D48606846FFF7D6FA0EBDFD
:10D5800010B500F0AAF9002805D100F0E3FC04462C
:10D59000FFF730FF204610BD70B511DF002801D025
:10D5A000FFF710FB3F4900200A683E4B0121803302
:10D5B0000C468440144204D0C506ED0E0C46AC4027
:10D5C0001C60401C2028F3D303242403A06813DF2D
:10D5D000002801D0FFF7F6FAA06800F06BF870BDE4
:10D5E00008B5684600F060F800980178A52904D0D5
:10D5F0000079AA2801D0002008BD012008BD10B57F
:10D6000000F061FB002803D100F039FB002815D0A1
:10D610006420FEF723FF00F0D5FA002801D0FFF7C1
:10D62000D1FA00F050FB002801D0FFF7CBFA00F050
:10D6300003FB041E01D0FFF7C5FA204610BD00B55C
:10D64000174987B014220C3101A801F0C1F90598DF
:10D65000009001A80FC8FFF714FFFFF7CBFE0020D2
:10D6600007B000BD38B50446684600F01DF80098C4
:10D670000078207000984088608000988168A160E0
:10D6800001792171C168E1600169216141696161CC
:10D690008069A06138BD0000402C00206C31002062
:10D6A000B0EA030000E100E00149016070470000BA
:10D6B00000FC030010B5FEF72DFD10BD10B50446AB
:10D6C000002A02D01088002210E00A48FBE7030A73
:10D6D00000020343A05C584003061B0F434018039D
:10D6E000584083B21806C00C5840521C8A42EED3F0
:10D6F00010BD0000FFFF000070B5FD4C1E466078B5
:10D700001546012902D0032916D108E0052813D1B6
:10D710006369002B10D03246294604200BE0022812
:10D720000AD1F44840688047032060706369002B89
:10D7300002D0324629469847280001D0FFF742FA26
:10D7400070BD00B5EA4987B0012008700520694620
:10D7500008710598009001A80FC8FFF792FE07B066
:10D7600000BD10B5E2480078002801D0082010BDA7
:10D77000E14C2068FFF78BFC002801D0FFF722FA6C
:10D780000F21002289042068FFF748FC041E01D005
:10D79000FFF718FA204610BDD54910B5D4482031FE
:10D7A000016102214170C1682030FFF7E8F90028CB
:10D7B00001D0FFF707FA10BDCD4910B5CC4818319C
:10D7C0000161022141700320000381680F20800362
:10D7D000401A4105490D401A4108C5481830FFF765
:10D7E000CEF9002801D0FFF7EDF910BD704700B564
:10D7F000C14987B01422091D01A801F0E9F8059874
:10D80000009001A80FC8FFF73CFEA8E700B587B05D
:10D81000012168460171B64881886846C1800320AD
:10D82000000380680590B348903841680291816890
:10D830000391C0680490059800900A46049B0299E1
:10D840000198FFF71EFE002089E730B5A94CA848D3
:10D85000903C87B02030E168FFF791F9002801D0B3
:10D86000FFF7B0F9A248E268183041680023083099
:10D87000FFF76CF9050012D1142101A801F0C1F8DD
:10D880000021684601719A4881886846C180E06835
:10D8900004900598009001A80FC8FFF7F2FD2846F4
:10D8A00007B030BD00B587B00321684601719048CC
:10D8B00081886846C1808F489038416802918168AC
:10D8C0000391C0680490059800900A46049B029951
:10D8D0000198FFF7D6FD002041E7FEB5864E6B4666
:10D8E0003046183007C807C3814C0025A570214673
:10D8F000A58020316846FFF718F9002801D065702F
:10D90000FEBD03207A490003806820314860203939
:10D910000A46126A8A610F218903091A4A05520DC3
:10D92000891A490808187249744A18314860002158
:10D930007148FFF739FB002801D0FFF743F90F21A9
:10D94000002289043068FFF769FB002801D0FFF747
:10D9500039F90120A56060700020FEBD644948616E
:10D96000704770B54268634814685368916890388E
:10D97000D26804604360C26081600078440701D5CA
:10D98000840705D19C0703D18C0701D1940701D0EE
:10D99000062070BD5B189A18554D0F239B02EA6054
:10D9A000994216D8564B5749524CC60709D0986829
:10D9B000081A90420DD3544820605448606054487F
:10D9C00012E09B68C91A4B055B0DC91A49089142C0
:10D9D00001D20C2070BD4F4921604F496160800722
:10D9E00001D54E4800E04E48A0606878012802D07A
:10D9F0000826304670BDFFF7B4FE0600FAD1216854
:10DA0000E8688847F5E770B5050004D0287A8007F4
:10DA100003D0102070BD0E2070BD354C60780328F7
:10DA200003D0042801D0052801D0082070BD686803
:10DA3000E1688600A0688019884204D90020C043AC
:10DA4000A0600C2070BDFFF78CFE0028FAD1A968F9
:10DA50003246A3682069FFF779F80028F2D1A1685F
:10DA60008919A160E2689142ECD0092070BD10B51F
:10DA70001F4C0820A168002900D010BD617804293E
:10DA8000FBD11C48A178803800F064F9002802D04E
:10DA90000021A17010BD0521617010BDF8B5144CB6
:10DAA00007466078032804D0042804D008252846B7
:10DAB000F8BD04206070A068002801D00820F8BDDF
:10DAC000FFF74FFE0500FAD178688600A07881192B
:10DAD000802901D90920F8BD064AB968803A101892
:10DAE000324600F075FFA0788019A070DFE70000D3
:10DAF0004C2C002038320020D0EA030043D703002A
:10DB00000030000000C0030099D70300EFD70300E6
:10DB10000DD80300B9D70300EDD70300A5D8030043
:10DB20004BD8030010B5884C6078052813D1E16804
:10DB3000A06888420FD106206070FFF712FE00280F
:10DB400008D12069E168406800F03FF9002801D160
:10DB50000721617010BD082010BD10B57A484078CB
:10DB6000072801D0082010BD78480068FFF78FFA19
:10DB7000002801D0FFF726F875488068804710BD5F
:10DB8000F8B51C4617460D46064600F0C8F80028B2
:10DB900017D001200003854207D92346291B301BDB
:10DBA0001A46FFF7EDFF00280BD13A4629463046CA
:10DBB00000F0C0F8002804D13A462946304600F06B
:10DBC000AEF8F8BDF0B589B06846FFF74BFD039895
:10DBD00000282AD001210903069A4018904226D92C
:10DBE000501A45081046039A0C46871802466800EA
:10DBF00016180019079003200003806803998842D3
:10DC00000DD261190846042200F094F800280CD1C6
:10DC100021460422084600F08DF8002805D1BA1BE1
:10DC20002B4630460799FFF7ABFF09B0F0BD039ACA
:10DC3000069800F07FF8F8E700B58DB06846FFF76A
:10DC400011FD049800280DD0039800280CD00399EA
:10DC500006984018089000210498079180080990C0
:10DC600007A818DF0DB000BD0320000381680F2056
:10DC70008003401A4205520D801A4008E9E700B5BA
:10DC80008BB004A8FFF7EEFC0898002810D00F21F5
:10DC90000798890300280DD0079A0A9801918018E7
:10DCA000029003220898009280080390684618DFCB
:10DCB0000BB000BD032000038268881A43055B0D8A
:10DCC000C01A4008EAE730B58FB06846FFF7CAFCD3
:10DCD0000398002814D001210903069A40189042A5
:10DCE00014D9501A43081046039A5C008218001990
:10DCF000611803242403A468039DAC4202D20E20C1
:10DD00000FB030BD121AFFF73BFFF9E703200BAB52
:10DD100007C3039880080E900BA818DFF0E71FB523
:10DD2000032301909008039000930291684618DF46
:10DD300004B010BD1FB5012301909008039000931B
:10DD40000291684618DFF3E74C2C0020D0EA03006C
:10DD50003832002070B500250C290ED30446431834
:10DD6000008941000919581A0A38C2B21E48022A0D
:10DD7000027002D30A318B4201D2092070BD1B48C8
:10DD800000F026FE1A481B4902888A4202D02388E6
:10DD9000934218D14088884202D06188814212D1D2
:10DDA000144A0323521E20891B03A8420BD9690081
:10DDB00009194989914204D09E896D1CB6B2B142BD
:10DDC000F3D1002070BD0B2070BD10B50022FFF70D
:10DDD00075FC064A5178127809021143884201D035
:10DDE0000B2010BD002010BD742C002044320020F8
:10DDF00080100010FFFF00000C2250436A4A0021EF
:10DE00001150801881604160704710B5042817D206
:10DE10000C21654A41438B1851589C6800290DD04C
:10DE2000114620310A7C521E0A74FFF7E5FF201FBD
:10DE300000F02EFC002801D0FEF7C4FE002010BD2B
:10DE4000072010BD10B5080001D0FEF7BBFE10BDC5
:10DE500070B5554D2E4620362AE000240C21614332
:10DE600048190268002A20D0695801290ED00329D8
:10DE700007D0042902D0052910D11DE0FFF7C3FD0A
:10DE80000CE081684160FFF76CFD03E0FFF706FEE0
:10DE9000FFF7EDFD002801D0FEF794FEE0B2FFF79A
:10DEA000B4FF002801D0FEF78DFE641C042CD5D3EE
:10DEB000307C0028D1D170BDFFF734FEFFF74DFE56
:10DEC00070BDFEB5002069468880009001A96846B3
:10DED00000F0BFFB002814D1009802AD04780420A4
:10DEE000002C1BD0304A2032117C032909D02E4B44
:10DEF00000210C264E439E59002E11D0491C0429A6
:10DF0000F7D30099002908D0002806D0084600F071
:10DF1000BFFB002801D0FEF755FEFEBD0720F0E74D
:10DF200029700C2041435C50107C401C10746846E2
:10DF300080880C2281086846007A491E5043C01828
:10DF400041600099194A091D816000210846FEF7C9
:10DF500067FED6E7144810B50021203001740C4646
:10DF6000E0B2FFF749FF641C042CF9D31048FFF717
:10DF7000F5FC00F027FB002801D0FEF723FE0D483A
:10DF800000F00DFB002801D0FEF71CFE002010BDA4
:10DF900010B50024E0B2FFF738FF641C042CF9D35D
:10DFA00000F03BFB10BD00005032002051DE0300AA
:10DFB00045DE0300C3DE03004F48002101705048D6
:10DFC0004E4A02608160C16001610222416142608B
:10DFD0008161084670470020704710B500291FD0A6
:10DFE00000220A60464A5368002B1DD04B24E400EF
:10DFF000A04217D85B1E5360D0689723401CD060A6
:10E0000010699B0014684343E3180B6001210C4620
:10E01000936984402343814393610020116110BDC3
:10E020000E2010BD0C2010BD042010BDF0B5344BE7
:10E030008446996800292BD05A691020511AC907C3
:10E04000C90F96461D680A4601279726B6004E431B
:10E05000AE19664506D13D469C698D406C40002056
:10E060009C6104E00E463946B1438E45EDD13D46F4
:10E070009C698D43394691400C420AD19968002928
:10E0800007D0491E996059682A46491C5960F1E732
:10E090000420F0BD1A4A012113691268994397239D
:10E0A0009B0059431B1FC91850500020704770B582
:10E0B00000281CD000291AD0114AD368002B18D090
:10E0C0005B1ED360936897265B1C93605369B60010
:10E0D0001D4614687343E61806604B20C0001818EC
:10E0E000205808600120A8435061002070BD0E2018
:10E0F00070BD042070BD0000752C0020A4320020EB
:10E100005C37002010B5864CA1692069405CFEF7A1
:10E110008AF9002802D1A169491CA16110BD10B57E
:10E12000C020FEF780F9002805D17D498A69002AC0
:10E1300001D17C4A8A6010BD10B5794CA169206973
:10E14000405CC02803D0DB2803D0042010BDDC20B5
:10E1500000E0DD20FEF767F90028F7D1A169491C2E
:10E16000A1617049A16010BD10B5DB20FEF75BF91D
:10E17000002802D16A4A6C49916010BD70B5694DA2
:10E180006A4E674C12E0A1692069415CC02903D046
:10E19000A169405CDB2803D1A068A84200D1A66039
:10E1A000A0688047042815D0112813D0A0696169A0
:10E1B0008842E8D35E48A060FFF7B1FF002809D18C
:10E1C00001202070E368002B04D05A48A26900683F
:10E1D0002169984770BD30B4514B5A6A002A09D062
:10E1E000DC68002C06D00020D9695862D861A446AA
:10E1F00030BC604730BC7047C02808D04849DB2895
:10E2000006D0CB694A6A9854521C4A627047E2E7CA
:10E2100049484860704710B5414CC02808D0214695
:10E220004A6ACB69511CDC2805D0DD2806D104E000
:10E23000FFF7D1FF04E0C02000E0DB2098546162CA
:10E240003E48606010BDC02802D135493B48486057
:10E25000704770B505460078314C032804D120780A
:10E26000022812D1FFF78AFF287804280DD1E1692E
:10E27000002903D0626A206A824207D3E368002B38
:10E2800003D02C48626AC068984770BD61682879DD
:10E29000884770BD2249C860002070473EB5204CB9
:10E2A0002078002801D000203EBD224A6D46183259
:10E2B00007CA07C50323224A00216846FEF778F8FB
:10E2C0000028F1D1012121703EBD10B51449002074
:10E2D0000870FEF7B7F810BD10B5002807D0104A37
:10E2E0001378012B05D0022B0FD0082010BD102071
:10E2F00010BD0023936151611061022010700C4821
:10E300009060FFF73BFF002010BD042010BD044AC1
:10E310001162D061002050620A48506000207047AE
:10E32000782C002005E1030039E1030069E10300D6
:10E330001FE10300F4EA030017E20300F9E1030020
:10E3400053E2030047E2030010B5DA48D94C007DE0
:10E35000E41CC000207000206070A070204600F017
:10E360009CF9E07004212046FFF7B6FF10BDF3B51D
:10E3700081B04B26029FF600CE4C0546042F5DD996
:10E38000287841065AD5010658D569780A07120F30
:10E390000E2A53D14118AA78E878101808180006F8
:10E3A000000E4BD100222846B91EFFF787F9E91964
:10E3B0001E394A7F0B7F1102194388423ED12878CB
:10E3C000012741076069490FC2B28A422BD1401C24
:10E3D0004007400F6061FFF7B7FF67700298FFF7D3
:10E3E00059FE002801D0FEF7EDFBB249304610314E
:10E3F000FFF7F3FD002808D0042802D00020FEF724
:10E40000E1FBAC480521283001E031462069FFF7E7
:10E410007EFF002801D0FEF7D5FBE168002901D07E
:10E4200000208847FEBD31462069FFF770FF0028B5
:10E4300001D0FEF7C7FBFFF787FFFEBD314620691D
:10E44000FFF765FF0028F8D0FEF7BCFBFEBD70B5F6
:10E45000984C994B2578002D12D02246116AD2692A
:10E46000012D1CD0022D19D1002824D002282ED035
:10E47000032813D1207E401C4007400FA06132E0EA
:10E4800000280BD11868FEF702FE002801D0FEF725
:10E4900099FBA168002901D0A078884770BD0128A8
:10E4A000FCD11046891DFFF717FF002801D0FEF7A9
:10E4B00089FB022018E00020024660627F4918684C
:10E4C000FEF7ACFD0028E9D0FEF77CFB70BD606A6A
:10E4D000052806D0401C60621046891DFFF7FCFE2F
:10E4E00070BD0120A070002000F0E0F870BD37B5CD
:10E4F00068460078002808D0012802D0022849D1B7
:10E500004BE00120FFF7A3FF3EBD0299694C019843
:10E51000042921D341780807000F06D00E281BD10B
:10E5200002990198FFF723FF3EBD01980378827896
:10E53000C078591810180818C0B2002200280BD152
:10E540009806410F207E401C4007400F884203D1AF
:10E55000A2700320FFF77BFF4B252069ED00002808
:10E5600001D0294612E0534928461031FFF735FD06
:10E57000002806D0042802D00020FEF723FB052146
:10E5800002E02946206901E04A482830FFF7BFFE33
:10E590000028C9D0FEF716FB3EBD0521F4E710B5F3
:10E5A00004464448C4604648FFF774FE002801D082
:10E5B000FEF708FB002C01D0002010BD0E2010BD7E
:10E5C000022044E770B53B4C0020E06120626062AD
:10E5D0006070207001206061A061A0700146394A1E
:10E5E0003548FEF7E1FC002810D1FFF7E5FC0028D4
:10E5F0000DD1FFF753FE002809D14B252146ED0030
:10E6000010312846FFF7E9FC002801D0032070BD37
:10E6100029462069FFF77BFE70BD10B52548002113
:10E620008160C160FFF7D7FC002801D0FEF7CAFA6D
:10E63000FFF74BFE002801D0FEF7C4FA1E48006821
:10E64000FEF725FD042802D10020FEF7BBFA0020CA
:10E6500010BD38B50D46040017D0002D15D0002090
:10E66000144900904A78002A0DD048706946204627
:10E67000FFF71DFD02460098801F0090288020684B
:10E68000001D206002E0042200E00E22104638BD8A
:10E6900010B5001FFFF7CAFC10BD017842788078E2
:10E6A00051184018C043401CC0B27047014908705F
:10E6B0000020CCE6A02C002018EB0300DF4F000068
:10E6C000EFE40300C1E5030010B5FEF787FA10BDC3
:10E6D000F8B55D4C2078002833D02069002807D099
:10E6E0000026E068002805D00025002E04D011E0A7
:10E6F0000126F6E70125F8E7684652DF052804D031
:10E70000002804D0FEF75EFA04E0012602E0216949
:10E7100000988847002D10D1608869460880A0685D
:10E7200061DF052804D0002804D0FEF74BFA04E08E
:10E73000012502E0E168A0688847002EDCD0002DAA
:10E74000D3D0F8BD70B5002901D08C0701D00720C7
:10E7500070BD3D4C0125A16062803C49636010DFC3
:10E760000028F5D12570162000F033F870BD002880
:10E7700003D035490861002070470E20704710B55E
:10E7800031484068002805D08047002801D0FEF7B6
:10E7900019FA10BDFFF79CFF10BD70B50E46054677
:10E7A00014461421104600F02CF90220208000208D
:10E7B0002061207326726572002D01D00120A072A5
:10E7C000002070BD1CB5224901910091694660DFAF
:10E7D0001CBD10B50121202805DA1E4A81401142D6
:10E7E00001D11D4810BD8107C90E002808DA0207B3
:10E7F000120F083A9208194B9200D218D26904E01D
:10E800008208174B9200D2181268CA401106890F6D
:10E81000042912D2002910D002290ED00A4914313D
:10E820004C68C306DB0E01229A40002C08D0400938
:10E8300080000B5813430B5004E00748401C10BDE8
:10E8400008480260002010BDD02C0020C9E603005B
:10E85000002C0020FC06FFBC0120000000ED00E0C1
:10E8600000E400E000E100E010B5002902D0002043
:10E87000FEF7A8F9FFF72CFF10BD10B50021024AE2
:10E880000846FEF7CDF910BD69E8030003210948E9
:10E8900002680A430260084802680A4302600748A7
:10E8A000804707480047FEE7FEE7FEE7FEE7FEE792
:10E8B000FEE700002405004054050040C5E80300C1
:10E8C000C1C0030010B500F03EF8002805D02F4964
:10E8D0002D484860C8132E4988612E48018CC9B262
:10E8E00001290BD1828C120708D1028D1206120F5A
:10E8F000042A03D1828D1206120F0AD0012921D1D8
:10E90000818C09071ED1018D0906090F0A2904D03F
:10E9100007E0214A01219160F5E7828D1206120F6E
:10E9200005D00D290ED1808D0006000F0AD11B489D
:10E930000168012904D01A49016001680129FCD14C
:10E94000C021416110BD1348018CC9B2012917D102
:10E95000818C090714D1018D09060A0F03D1828D1C
:10E960001206120F0ED0090F012903D1828D120653
:10E97000120F07D0032903D1808D0006000F01D0AC
:10E980000020704701207047DFFF07C000050040EE
:10E99000006C0040C00F00F00006004000EC064094
:10E9A0007593000030B50B4601460020202201245B
:10E9B00009E00D46D5409D4205D31D469540491BB3
:10E9C0002546954040191546521E002DF1DC30BDFC
:10E9D00003460B439B0703D009E008C9121F08C078
:10E9E000042AFAD203E00B780370401C491C521E23
:10E9F000F9D27047D2B201E00270401C491EFBD22E
:10EA000070470022F6E710B513460A460446194639
:10EA1000FFF7F0FF204610BD064C0125064E05E02D
:10EA2000E36807CC2B430C3C98471034B442F7D32F
:10EA3000FDF74AFB1CEB03003CEB030002E008C8B7
:10EA4000121F08C1002AFAD170477047002001E068
:10EA500001C1121F002AFBD170470000010000070E
:10EA600002000000000000000000000000000000A4
:10EA7000090000000B0000000A0000000800000070
:10EA8000000000000000000000E0D70103000000CB
:10EA9000090000000B0000000A0000000800000050
:10EAA000000000000000000000E0D70103000000AB
:10EAB000D9D30300000000000000000002000000A5
:10EAC0000000000000000000000000000000000046
:10EAD0008831002004000000000000000000000059
:10EAE0000000000000000000F9D603000000000054
:10EAF0000000000001000000000000000000000015
:10EB00000200000000000000000000000B09080ADD
:10EB10000100000000509D00783700203CEB03000E
:10EB2000002C0020F00000003CEA03002CEC030065
:10EB3000F02C0020A81200004CEA030000000000A6
:10EB400000000000000000000000000000000000C5
:10EB500000000000000000000000000000000000B5
:10EB600000000000000000000000000000000000A5
:10EB70000000000000000000000000000000000095
:10EB80000000000000000000000000000000000085
:10EB90000000000000000000000000000000000075
:10EBA0000000000000000000000000000000000065
:10EBB000000000000000000047E2030005E1030040
:10EBC0000000000000000000000000000000000045
:10EBD0000000000000000000000000000000000035
:10EBE0000000000000000000000000000000000025
:10EBF0000000000000000000000000000000000015
:10EC00000000000000000000000000000000000004
:10EC100000000000000000000000000000000000F4
:0CEC200000000000000000000024F400D0
:020000041000EA
:0410140000C0030015
:040000050003C0C173
:00000001FF
