:020000040001F9
:10B00000C8390020F5B001000FB1010011B10100F5
:10B010000000000000000000000000000000000030
:10B0200000000000000000000000000013B101005B
:10B03000000000000000000015B1010017B1010080
:10B0400019B1010019B10100B9BC010019B1010029
:10B0500019B101000000000089B4010019B101001C
:10B0600019B1010019B1010019B1010019B10100B4
:10B0700019B1010019B1010019B1010019B10100A4
:10B0800019B10100A9B7010019B1010019B10100FE
:10B090000FBC010019B1010019BC010019B1010078
:10B0A00019B1010019B1010000000000000000000A
:10B0B0000000000000000000000000000000000090
:10B0C0000348854600F092F90048004751FD010011
:10B0D000C8390020401E00BF00BF00BF00BF00BF36
:10B0E00000BF00BF00BF00BF00BF00BF00BFF1D165
:10B0F000704700000321094802680A4302600848BB
:10B1000002680A4302600748804707480047FEE795
:10B11000FEE7FEE7FEE7FEE7FEE70000240500404D
:10B120005405004055BC0100C1B0010030B50B46CC
:10B13000014600202022012409E00D46D5409D4211
:10B1400005D31D469540491B254695404019154697
:10B15000521E002DF1DC30BD70B5002425460028BC
:10B1600001DA01244042002901DA01254942FFF7B2
:10B17000DDFFAC4200D04042002C00D0494270BDFF
:10B1800003460B439B0703D009E008C9121F08C000
:10B19000042AFAD203E00B780370401C491C521EAB
:10B1A000F9D27047D2B201E00270401C491EFBD2B6
:10B1B00070470022F6E710B513460A4604461946C2
:10B1C000FFF7F0FF204610BD30B5044600200346CF
:10B1D00000E05B1C934203D2E05CCD5C401BF8D0E6
:10B1E00030BD0000F0B51FB488B00B990998002459
:10B1F00048400999C00F490049080991C0070B99B7
:10B200000090490049080B9109990898A6460843FF
:10B210001CD00B990A98084318D0099801244000C3
:10B22000420D4800410D099824050003000B2043FE
:10B2300009900B980003000B20430B9050181C49F9
:10B240004018002201901446104605E000200146F7
:10B250000DB0F0BD032801DA034600E003239C464D
:10B26000C11A0AAE0AE05F0008ADED5B4F00F75B64
:10B270007D430027AA187C41491C5B1E6145F2DD15
:10B28000410004AB5A522104120C0A43240C401C06
:10B290000828DFDB01980290009970460191009028
:10B2A000059B049A0799069800F04EF8D0E7000035
:10B2B0000DFCFFFF0EB505490291002100910A46E1
:10B2C0000B46019100F040F803B000BD33040000CC
:10B2D0004A0009030123090B1B051943094B10B54B
:10B2E000520D9A4201DA002010BD064B34339A42C7
:10B2F00003DC9A1A00F00AF810BD0349511888407F
:10B3000010BD0000FF030000CDFBFFFF10B5202A99
:10B3100004DB0846203AD040002110BD0B46D34044
:10B32000D0402024A21A91400843194610BD10B500
:10B33000002B08DA0024401C614192185B411A433B
:10B3400001D14008400010BDF0B51FB482B00546E1
:10B350000C0003D0084600F0EDFD02E000F0EAFD2D
:10B360002030024600902146284600F051F8049B08
:10B37000059A04460F4618431143084314D0184653
:10B3800010431BD0009840210A1A18460599FFF770
:10B39000BDFF05460E46009A0599049800F038F85E
:10B3A000084305D0012004E02046394607B0F0BD2F
:10B3B0000020C11705430E432C43374300990E98D4
:10B3C0006305401A7905E40A00220C43FD0A0A309D
:10B3D00002D500200146E9E70105101969410C9CDE
:10B3E0000D9D00196941FFF7A2FFDFE7064C01251B
:10B3F000064E05E0E36807CC2B430C3C984710341D
:10B40000B442F7D3FFF760FEC0270200E027020036
:10B4100010B5202A04DB0146203A9140002010BDDF
:10B42000914020239C1A0346E3401943904010BDED
:10B4300070B58C180578401C6B075B0F01D1037841
:10B44000401C2A1106D10278401C03E006780E70D9
:10B45000401C491C5B1EF9D12B0705D40023521E4A
:10B460000DD40B70491CFAE70378401CCB1A921CD0
:10B4700003E01D780D70491C5B1C521EF9D5A142DA
:10B48000D8D3002070BD0000F0B58BB0002700209D
:10B490000A90FF20013009900125002416E0099848
:10B4A00004F0E2FE00280BD000BF7048406828403E
:10B4B000002805D0099804F0CFFE384628430746F7
:10B4C0006D000998001D80B20990641C042CE6D31D
:10B4D000FF207D3004F0C8FE00280AD0FF207D3018
:10B4E00004F0BAFE0120C007074300BF60480069AE
:10B4F0000A903807000F00282AD00125002425E0F3
:10B500002846384000281FD000BF5A485121090161
:10B510004018A10040581F2109020840000A089065
:10B5200000BF5448512109014018A100405803218F
:10B5300009040840000C0790204602F0A1FA0646D4
:10B5400007990898B04700BF6D00641C042CD7D33E
:10B55000F80FC00700287DD0002008900790401EFB
:10B56000069000BF00200890002464E04248005D7F
:10B570000590C0210598884306463F480057401C67
:10B58000002857D00120B04006990840002851D02B
:10B59000C0210598084080110490304602F0B4FAAA
:10B5A000029002F06DFA03900398002802D10498EB
:10B5B00003283ED10120B04005460498032802D15B
:10B5C00007982843079000BF0520000707210902BC
:10B5D0004018B1004058032109040840000C0290B3
:10B5E0000A982840002802D00298022806D00A981B
:10B5F000284000281CD10298032819D10498032858
:10B600000FD10298022801D1032000E0022001900E
:10B610003046019904F0F7FD0898401CC0B208902C
:10B6200000BF0398002803D03046039A049990473E
:10B6300000BF00BF641C042C98D3089800280ED0CB
:10B6400000BF0B49096908460A99884203D10021C5
:10B65000089103E008E00A900799069100BF089856
:10B66000002800D07EE700BF0BB0F0BD00630040B3
:10B670000005005000600040FC270020C206D20EEA
:10B6800001219140014A11607047000080E200E012
:10B69000C206D20E01219140014A1160704700009C
:10B6A00000E100E0C206D20E01219140014A116082
:10B6B0007047000000E200E010B5002819DA1A4ACD
:10B6C00003071B0F083B9B089B00D2588307DC0E27
:10B6D000FF23A3409A438B071B0E8407E40EA3406D
:10B6E0001A43114B0407240F083CA408A4001A5164
:10B6F00018E00E4A03231B02D21883089B00D2587D
:10B700008307DC0EFF23A3409A438B071B0E84079D
:10B71000E40EA3401A43054B032424021B1984089A
:10B72000A4001A5110BD00001CED00E000E100E093
:10B7300010B5002819DA1A4A03071B0F083B9B08AB
:10B740009B00D2588307DC0EFF23A3409A438B074C
:10B750001B0E8407E40EA3401A43114B0407240F69
:10B76000083CA408A4001A5118E00E4A03231B0247
:10B77000D21883089B00D2588307DC0EFF23A34016
:10B780009A438B071B0E8407E40EA3401A43054B14
:10B79000032424021B198408A4001A5110BD0000C0
:10B7A0001CED00E000E100E010B500200749086052
:10B7B0000021064841608160C16000200349403992
:10B7C0000860486006F086F910BD00004011014095
:10B7D000F8B504460D4616461F4600F071FA1448A7
:10B7E0004069A04220D9002C15D018206043104990
:10B7F00048310D50182060434018466018206043BF
:10B800004018876000221820604340180261182009
:10B8100060434018C26018216143054A48328918C4
:10B82000069848610020F8BD0020C043FBE70000F7
:10B8300030220020F8B504460D4616461F4600F09B
:10B840003FFA14480069A04220D9002C15D01820D6
:10B850006043104918310D5018206043401846606D
:10B860001820604340188760002218206043401869
:10B870000261182060434018C26018216143054AE4
:10B8800018328918069848610020F8BD0020C0438E
:10B89000FBE7000030220020F7B582B004461646D0
:10B8A00000F00EFA1820604348494018007D8007D8
:10B8B000800F02281ED01820604340180769182006
:10B8C00060434018C068381A451E002D04DA18205D
:10B8D0006043401880684519AE420BDD1820604374
:10B8E0003A494018007D8007800F002801D105B03B
:10B8F000F0BD2E46002E01D10020F8E70020019077
:10B9000000BF182060433149401807691820604380
:10B910004018C068381A451E002D04DA182060430C
:10B9200040188068451918206043284940188268EB
:10B93000182060434018C068101AA84201DD28464C
:10B9400009E01820604321494018826818206043AC
:10B950004018C068101A0546B54201DA284600E0D2
:10B960003046054618216143184A89184A6818214B
:10B970006143164BC918C96850182A460399FFF746
:10B98000FFFB019840190190039840190390761B22
:10B99000182060430D494018C068421918206043C0
:10B9A0004018C260182060434018C26818206043E5
:10B9B00040188068824204D1002218206043401859
:10B9C000C260002E9DD1019891E70000482200201E
:10B9D00070B505460C46204600F0E0FA06463246B1
:10B9E00021462846FFF758FF70BD0FB438B504460E
:10B9F00006A800906A462046059900F004F838BC75
:10BA000008BC04B01847F7B59AB00D46144602A812
:10BA1000159040201690002017901A981990002039
:10BA2000189000BF2E786D1C002E00D1DCE0252E72
:10BA300074D1002700BF2E78232E12D02B2E0CD0CD
:10BA40002D2E02D0302E10D103E0012007436D1CB3
:10BA50000CE0022007436D1C08E0042007436D1C26
:10BA600004E0082007436D1C00E001E000BFE2E7AE
:10BA70000020129000BF2E78302E01DB392E00DD21
:10BA800008E06D1C0A2112984843314630394018AD
:10BA90001290F0E700BF002013902E782E2E11D1C7
:10BAA0006D1C00BF2E78302E01DB392E00DD08E042
:10BAB0006D1C0A21139848433146303940181390C1
:10BAC000F0E700BF2E7800BF6C2E01D0682E02D1A7
:10BAD0002E786D1C00E000E0F6E700BF702E62D00B
:10BAE00008DC252E70D0582E38D0632E09D0642E55
:10BAF0006FD114E0732E40D0752E1FD0782E68D1F0
:10BB00002BE02168081D2060086814901498C0B2CA
:10BB1000019015A8019900F0EBF95AE05CE021686A
:10BB2000081D2060086814901298019700900A225E
:10BB300015A8139B149900F0C4F84AE02168081D69
:10BB40002060086814901298019700900A2215A8A6
:10BB5000139B149900F03CF93BE000BF2168081DDD
:10BB6000206008681490129801970090102215A880
:10BB7000139B149900F02CF92BE02168081D20601C
:10BB80000868019000BF01980678401C0190002EC3
:10BB900000D106E0314615A800F0AAF9189800284F
:10BBA000F1DA00BF15E02168081D206008681490D4
:10BBB000002008210B4610220091019015A814992D
:10BBC00000F006F905E0FFE7252115A800F090F93F
:10BBD00000BF00BF6D1C03E0314615A800F088F9D6
:10BBE0001898002800DB1DE700BF189800280BDD1F
:10BBF0001798002804D002A9179A1A98FFF74CFE4C
:10BC0000179918984018189018981DB0F0BD10B5E5
:10BC100005F074FE10BD000070B50C4800680028E7
:10BC200011D00A4800688047044600BF2546002D11
:10BC300007D000BF064AFF216731284600F0C4FB49
:10BC400000BF00BF01E003F0DDFD70BD64210020F6
:10BC50008C21020010B503F063FE002805D01048C7
:10BC600010494860C8131049886103F03DFE002860
:10BC700002D001200D49886003F0B4FE00280ED0E8
:10BC80000B480068012807D00A480949086000BF2E
:10BC9000074800680128FBD1C0200549486110BD54
:10BCA000DFFF07C000050040006C004000060040B8
:10BCB00000EC06407593000010B505F0EFFF10BDD5
:10BCC0007047FFB585B007460E460F9D0E9C002EAF
:10BCD00001DA704200E0304603900120049007E052
:10BCE00007990398FFF722FA03900498401C0490E8
:10BCF000079903988842F3D204990898884201D999
:10BD000008980490002C06D0002E03DB0420284065
:10BD1000042800D1641E02202840002802D0089880
:10BD2000002816D0E807C00F002812D1002C10D030
:10BD300008E02021384600F0DBF8F868002801DA36
:10BD400009B0F0BD002C04D02046641E049988423E
:10BD5000EFD8002E08DA76422D21384600F0C8F8D8
:10BD6000F86800280CDAEBE704202840042807D103
:10BD70002B21384600F0BCF8F868002800DADFE72D
:10BD800002202840022818D1E807C00F002814D14B
:10BD90000898002811D1002C0FD007E03021384638
:10BDA00000F0A6F8F868002800DAC9E7002C04D0F3
:10BDB0002046641E04998842F0D8019500943146CB
:10BDC0003846089B079A00F003F800BFB8E7000068
:10BDD000FFB585B015461E460E9C012706980390B8
:10BDE0000120029007E029460398FFF79FF903908E
:10BDF0000298401C02900398A842F4D2029886420E
:10BE000000D902960F98C007C00F00281FD1002C40
:10BE10001DD002210F980840022804D1002E02D123
:10BE20003020019001E02020019009E0019905985F
:10BE300000F05EF80598C068002801DA09B0F0BD8E
:10BE4000002C04D02046641E02998842EED802E0FD
:10BE500038466843074639460698FFF767F9A8420F
:10BE600001D3012000E000203146761E012901DDCA
:10BE7000012100E0002108430028E9D100BF394634
:10BE80000698FFF753F90490049878430699081A26
:10BE90000690164A0498115C059800F029F8059858
:10BEA000C068002800DA06E029463846FFF73EF968
:10BEB0000746002FE3D100BF0F98C007C00F00282E
:10BEC00012D0002C10D008E02021059800F010F8C6
:10BED0000598C068002800DAB0E7002C04D020469E
:10BEE000641E02998842EFD800BFA7E73021020004
:10BEF00070B504460E46A568681C6168814206DB81
:10BF000020684655681CA060E068401CE0606168DD
:10BF1000A06888420DD1A26821682069FFF7BCFCA7
:10BF2000A168884203D00020C043E06001E0002007
:10BF3000A06070BD2021020C01D010211046020A21
:10BF400001D010460839020901D01046091F8208A5
:10BF500001D01046891E420801D0881E7047081A79
:10BF6000704730B47446641E2578641CAB4204D319
:10BF7000635D5B00E31830BC18471D46F8E702E03C
:10BF800008C8121F08C1002AFAD170477047002064
:10BF900001E001C1121F002AFBD1704701460022B7
:10BFA000002900D1704700BF0878002800D102E0C6
:10BFB000521C491CF8E700BF1046F3E7F7B582B002
:10BFC000044616460025378800203080606B002824
:10BFD0000ED0616B08783B463246039905F084F831
:10BFE000054600BF002D02D0284605B0F0BD00BFB9
:10BFF000206B00280CD03B463246206B039905F09D
:10C00000DBFD054600BF002D01D02846EDE700BF4F
:10C010002E20005D00280DD02E21085D3B463246C3
:10C02000039903F03AFD054600BF002D01D02846D4
:10C03000DBE700BF2D20005D00280BD03A463146DB
:10C04000039800F004FF054600BF002D01D02846EC
:10C05000CBE700BFA07800280BD03A4631460398C2
:10C0600000F00AFB054600BF002D01D02846BCE7C2
:10C0700000BFE07800280DD0E17848B23B46324658
:10C08000039903F069F8054600BF002D01D028464A
:10C09000ABE700BF606800280ED00020616808563A
:10C0A0003B463246039905F0DDFD054600BF002DF5
:10C0B00001D0284699E700BF208900280FDD0197AD
:10C0C00000960622022120460830039B05F030FF2F
:10C0D000054600BF002D01D0284686E700BF208A14
:10C0E00000280FDD0197009607220321204610301B
:10C0F000039B05F01DFF054600BF002D01D028461B
:10C1000073E700BF208B00280FDD019700961522F2
:10C11000142120461830039B05F00AFF054600BF96
:10C12000002D01D0284660E700BF206A00280CD00F
:10C130003B463246206A039901F0C6FE054600BF21
:10C14000002D01D0284650E700BF606A00280CD0BF
:10C150003B463246606A039903F05EFE054600BF27
:10C16000002D01D0284640E700BF2C20005D0028AC
:10C170000CDD3B4632462046039904F0D0FF0546CD
:10C1800000BF002D01D028462FE700BF20780028EF
:10C190000CD03B4632462046039903F079FE054613
:10C1A00000BF002D01D028461FE700BF28461CE72E
:10C1B0000146C87804221040002801D107207047AA
:10C1C0000020FCE710B501220221002001F078F8E0
:10C1D000044600BF002C03D0072C01D0204610BD20
:10C1E00000BF07220221012001F06AF8044600BFC7
:10C1F000002C03D0072C01D02046F0E700BF0A2214
:10C200000021084601F05CF8044600BF002C03D072
:10C21000072C01D02046E2E700BF0020DFE7000046
:10C2200030B5A7B0382119A8FEF7C3FF022118A81E
:10C2300001710621C17101218171242110A8FEF72D
:10C24000B8FF012110A8017332201490B42015907A
:10C25000114800680F90382101A8FEF7AAFF0121BC
:10C26000684681820FA9069100200C4B10AA01A9F3
:10C27000009019A800F078FA044600BF2546002D6A
:10C2800007D000BF06A2FF21EB31284600F09CF842
:10C2900000BF00BF27B030BD78200200E1020200DD
:10C2A0002E2E5C2E2E5C2E2E5C6D61696E2E630030
:10C2B000014600BF064A50680122D2058243044B62
:10C2C0009A600122D2050240DA6000BF7047000088
:10C2D0000005005010B5002407E0E100064A12688E
:10C2E000505C012103F05CFE641C04480078844229
:10C2F000F3D3002010BD00002021002024210020C5
:10C30000FEB506460C461746052F01D20720FEBD96
:10C3100003F05CFF002808D103F030FF054600BFA2
:10C32000002D01D02846F2E700BF174806601748E5
:10C330000470174807600020164908601649086015
:10C3400017E0E000801901901448006800900198FF
:10C3500080786946487001990878114A694603F067
:10C3600083FE054600BF002D01D02846CFE700BF61
:10C3700000BF2046611ECCB20028E2D1094A00214C
:10C38000094800F0AFF8C2E7202100202421002056
:10C39000282100202C210020302100202C21020007
:10C3A00015F701004DE201002821020070B5044696
:10C3B0000D4616460C2000F0B1FF324629462046B5
:10C3C00000F012F870BD0000FEB504460E4615469A
:10C3D00069460E80019502946A4600210148FFF7E4
:10C3E000E5FFFEBD0140000018B5012400946B4636
:10C3F0001B781E4B186059609A601D4BC318002BA8
:10C400000CD0012B19D1194BDA60DB681B88174C53
:10C41000A3612346DB685B68E3610EE0134B1A619E
:10C420001B699B68114C636123461B691B88A361D0
:10C4300023461B695B68E36100BF00BF0B4B1B68B1
:10C440000A4B5B68094B9B68084BDB68074B1B6911
:10C45000064B5B69054B9B69044BDB6972B600BFF9
:10C460006B461B78002BFBD162B618BD2429002037
:10C47000FFBFFFFFF8B504460D46164603480768A0
:10C48000324629462046B847F8BD000098270020CC
:10C49000F8B505460C4627780C21A06848430649A4
:10C4A0000E580648006800902A4639462046083053
:10C4B0002369B047F8BD0000EC28002018210020B7
:10C4C00010B504460648007814225043044A121D51
:10C4D00081182046FFF7DCFF042004F0ABFE10BDFE
:10C4E0002028002010B503460C4600BF0D48006808
:10C4F000002801D1082010BD00BF002A01D107206B
:10C50000F9E7002B01D10720F5E71868007C002827
:10C5100001D00820EFE71968002008744C744A61C4
:10C5200000BFE8E738210020FFB581B00E46144671
:10C530001F4620468107890F002901D1012100E013
:10C540000021002902D1072005B0F0BD002C04D144
:10C5500000201C4908600720F6E704F0A7FC1A48F1
:10C560000760032019490870164804601834002534
:10C570000CE0E900134A126888180021017041702C
:10C5800086704460182171430C196D1C032DF0DB7B
:10C5900000200F4908600F4908700F4908701420E7
:10C5A000FFF76CF803211420FFF7C2F81420FFF7FF
:10C5B0006FF8019804F050FC04F048FC074908604B
:10C5C0000020C1E738210020502100203421002024
:10C5D0003C2100204C2100204D2100204021002042
:10C5E000FEB504460D461746264600BF12480068B1
:10C5F000002801D10820FEBD00BF002C01D1082079
:10C60000F9E7052D01D20720F5E77069002801D16F
:10C610000820F0E7707C012801D1284600E00020C6
:10C62000029005F05BFC009701902A463146029B80
:10C6300005F004FADFE700003821002070B5044659
:10C64000254600BF0B480068002801D1082070BDB6
:10C6500000BF002C02D06869002801D10820F6E74D
:10C660000020287405F03AFC0646294605F012FA27
:10C67000EDE7000038210020F8B505460C461746C6
:10C680002088001DB84201D90C20F8BD684679DF2A
:10C69000064600BF002E01D03046F6E700BF03205B
:10C6A000218868542088401C2080192021886854E3
:10C6B0002088401C2080208841196846008805F0A9
:10C6C000A7FB2188401820800020DEE77047F3B5E3
:10C6D00093B00D461F21129111911398002818D084
:10C6E0001398FFF765FD044600BF002C02D02046DA
:10C6F00015B0F0BD00BF12AA09A91398FFF75EFCA0
:10C70000044600BF002C01D02046F1E700BF09AE6F
:10C7100002E0002600201290002D17D0284604F0D9
:10C720008BFE044600BF002C01D02046E0E700BF8E
:10C7300011AA01A92846FFF741FC044600BF002CBE
:10C7400001D02046D4E700BF01AF02E0002700205F
:10C75000119010A88088C3B210A80089C1B23A46CF
:10C76000304672DFC4E70000F8B504460F461546B0
:10C770001E4600BF002C01D10E20F8BD00BF00BF37
:10C78000002D01D10E20F8E700BF002048490870B5
:10C7900048480660484906980860242229464748C8
:10C7A000FEF7EEFC00F050F945484649086046485F
:10C7B000886038214548FEF7FCFC20784349087022
:10C7C000A0788870E078C8706078487062692069E5
:10C7D0004A6108610846E268A168C2608160E26956
:10C7E000A169C2618161606A00281BD0384837495D
:10C7F000486238498160606A00883449496A088023
:10C80000606A80883149496A8880002005E0616A51
:10C810008968095C2F4A1154401C2C49496A89884F
:10C820008142F4D8A06A002824D02B492B4881608B
:10C830002649886228492548806A8160A06A8088E4
:10C840002249896A8880A06A00882049896A08800C
:10C85000002005E0A16A8968095C1F4A1154401C48
:10C860001A49896A89888142F4D82C20015D1748C9
:10C8700020300173206A00280BD019481349086240
:10C88000206A4088096A4880206A00880F49096A3E
:10C8900008806068002804D012480C49486060682D
:10C8A000486039460948FFF712FF0090009864E796
:10C8B000C0200020B8200020BC20002064250020DB
:10C8C0009825002088250020B82500202C25002050
:10C8D000D8250020E4250020102600200426002072
:10C8E000C4200020C820002070B5044620881028ED
:10C8F00004D0112809D01B286CD11DE0A07D01288F
:10C9000002D1A0883549088065E0002034490870CC
:10C91000A0883249098888420DD1012000F0DEF854
:10C920000546002D07D02F480068002803D0284670
:10C930002C49096888474EE0207A002849D12A48C6
:10C940000078012806D0022813D0032820D004281C
:10C950003DD12FE0022000F0C1F80546002D07D0A0
:10C9600020480068002803D028461E4909688847E7
:10C970002EE0032000F0B2F80546002D07D019483C
:10C980000068002803D028461649096888471FE038
:10C99000032016490870042000F0A0F80546002D79
:10C9A00007D010480068002803D028460D490968C0
:10C9B00088470DE000200D4908700D4800680028E8
:10C9C00004D0084600780A490968884700E000BF9B
:10C9D00000BF00E000BF00BF70BD0000CA20002003
:10C9E000C1200020BC200020C0200020B420002056
:10C9F000B820002070B504460025022C02D0032C7C
:10CA000018D100E000BF0D480078002811D00020A8
:10CA10000A4908700A48007800F060F80546002DC1
:10CA200007D008480068002803D02846054909684F
:10CA3000884700E000BF00BF70BD0000AC200020B0
:10CA4000C0200020BC20002010B507210148FEF7BF
:10CA5000B0FB10BDAD20002010B51B4800780128A8
:10CA60002FD11A48007800282BD1194800780028C7
:10CA700007D074DF044600BF002C01D0204610BD53
:10CA800000BF01201149087006201249C87000211A
:10CA90001048FFF71CFE044600BF002C01D02046C2
:10CAA000EDE700BF0A48007800F018F80446002CB3
:10CAB00007D009480068002803D0204606490968C5
:10CAC00088470020DBE7000064250020C12000200B
:10CAD000C02000202C250020BC20002030B587B0CD
:10CAE0000546A248057002F052FB002805D001203F
:10CAF0009F490870002007B030BDFFF7A5FF9D4893
:10CB00004078002803D09948007801280FD0994830
:10CB10008078002803D095480078012807D09548F0
:10CB20008078002812D09148007802280ED19248CF
:10CB30000068002807D001209049087008208E491D
:10CB40000968884702E000208C490870874800780F
:10CB500001280BD187484078002804D0884803F08A
:10CB60003DFD002802D10220804908707F480078EE
:10CB700002280BD17F488078002804D0804803F039
:10CB80002DFD002802D10320784908707948007BE8
:10CB9000002806D175480078032802D10420734983
:10CBA00008707448007E002808D170480078042876
:10CBB00004D100206D490870724908706E48006801
:10CBC000002817D069480078032803D06748007808
:10CBD00004280FD16748007800280BD06A480078F5
:10CBE000002807D1012069490870072062490968B7
:10CBF000884702E0002065490870182101A8FEF767
:10CC0000D8FA00216846017100200290684601733D
:10CC10000020049055480078012806D0022811D041
:10CC2000032823D004287CD152E05548401E0290AE
:10CC30000121684601710021C18281820120514990
:10CC4000087079E04E48401E02900121684601714B
:10CC50004848008981B26846C1824648808881B2CE
:10CC60006846818202204749087065E04148808A11
:10CC700081B26846C1823F48008A81B2684681829B
:10CC8000434805F0EBF900281ED03A480078002808
:10CC90001AD03D480078002816D102206946087352
:10CCA0003B48049004203B49C87000213948FFF7F5
:10CCB0000EFD044600BF002C01D020461BE700BF3C
:10CCC00005203049087002E003202E49087033E047
:10CCD0002848808B81B2684681822648008C81B2C8
:10CCE0006846C1822A4805F0B9F900281FD02148BA
:10CCF000007800281BD024480078002817D1022093
:10CD0000694608732248049004202249C870002113
:10CD10002048FFF7DCFC044600BF002C02D0204670
:10CD2000E9E608E000BF06201649087002E004208A
:10CD30001449087000E000BF00BF0C4800780028CC
:10CD400008D001A873DF044600BF002C01D02046A4
:10CD5000D1E600BF08480068002804D009480078E0
:10CD60000549096888470020C5E60000C02000206A
:10CD7000AC20002064250020B8200020C320002023
:10CD8000AE200020B4200020C1200020C2200020BE
:10CD9000882500202C25002070B505461C22294638
:10CDA0001448FEF7EDF900201349087028680028A0
:10CDB0000BD0082211482968FEF7E2F90F487ADF04
:10CDC0000446002C08D0204670BD0C487BDF04468A
:10CDD000002C01D02046F7E70020C0430849088016
:10CDE000002008490870084A00210848FFF77AFB2C
:10CDF000EAE7000030260020E0200020CC200020C0
:10CE0000D6200020D4200020411E0200C8200200AD
:10CE100010B504462088102806D0112808D0122802
:10CE20000ED0502810D107E0204603F0DFFA0CE0C6
:10CE3000204603F0F9FA08E0204603F017FB04E06F
:10CE4000204603F0C7FA00E000BF00BF10BDFEB5EA
:10CE500005460C46174620880930B84201D90C20F7
:10CE6000FEBD684671DF064600BF002E01D0304689
:10CE7000F6E700BF0820218868542088401C2080E5
:10CE80001B20218868542088401C20802188481954
:10CE9000062200A90131FEF773F92088801D208049
:10CEA00068460078002802D12188685402E00120F9
:10CEB000218868542088401C20800020D0E710B5CD
:10CEC0000446204601F086FB2046FFF7A1FF2046DE
:10CED00000F0DCF8204603F029FA2046FFF704FDB5
:10CEE00010BD000070B586B03B480068059000BFDB
:10CEF00000234822394905A804F058FA054600BF26
:10CF00002E46002E07D000BF35A2FF2154313046F7
:10CF1000FFF75AFA00BF00BF00BF6A460121002098
:10CF200004F022FA044600BF2546002D07D000BFBA
:10CF30002BA2FF215A312846FFF746FA00BF00BF57
:10CF400001206946087300BF294E304604F01AF8E4
:10CF5000044600BF2546002D07D000BF20A2FF21B8
:10CF60005F312846FFF730FA00BF00BF00BF6846B8
:10CF700004F078F9044600BF2546002D07D000BF15
:10CF800017A2FF2163312846FFF71EFA00BF00BF3A
:10CF9000184804F059F9044600BF2546002D07D073
:10CFA00000BF0FA2FF2167312846FFF70DFA00BF2F
:10CFB00000BF114804F032FA044600BF2546002D98
:10CFC00007D000BF06A2FF216B312846FFF7FCF90E
:10CFD00000BF00BF06B070BD74200200782400209E
:10CFE0002E2E5C2E2E5C2E2E5C6D61696E2E6300E3
:10CFF000E81F0020BFCE0100E91702007CB50446FF
:10D00000A1786A460D4803F0BFFB0546002D13D1F9
:10D0100061781C2251430A4A88181C231A46694623
:10D0200003F0EEFC0748807A800007490A58214641
:10D0300068469047054600BF7CBD0000E420002004
:10D040004C27002098270020DC20020070B5054600
:10D050000C4600260B480560002C09D0204604F041
:10D06000F3F9064600BF002E01D0304670BD00BF68
:10D0700005480068002802D1FFF7A4F806463046AC
:10D08000F4E70000A4200020A820002070B5054689
:10D090002888102802D0112832D118E01A480068D8
:10D0A00000280ED100F0D8FF044600BF002C07D0A6
:10D0B00016480068002803D02046144909688847AC
:10D0C00000BF11480068401C0F49086019E00E4875
:10D0D0000068401E0C4908600846006800280ED110
:10D0E000FFF770F8044600BF002C07D0074800681F
:10D0F000002803D0204605490968884700BF00E0A2
:10D1000000BF00BF70BD0000A8200020A4200020A8
:10D1100010B5032000F032FC044600BF002C03D001
:10D12000062C01D0204610BD00BF0020FBE7000008
:10D13000F3B581B006460025002400E0641C042CF1
:10D1400004D2A00029490858B042F7D1042C42D299
:10D150000298002825D0012802D002283AD133E0D5
:10D160006000201822490D5C6000201840184078AB
:10D1700000280ED01F4800680A22504301461E4A6C
:10D180001E480068FFF72CFA0746002F01D11A4805
:10D190000670600020181649401880781849085514
:10D1A00018E016480068FFF749FA1548005D61006D
:10D1B00061180F4A89188978884204D160002018C4
:10D1C00011464018857805E060002018084940188D
:10D1D000457800BF00BF002D07D00A48006800282E
:10D1E00003D02846074909688847FEBD98200200F9
:10D1F000002500208C2000209C200020942002008C
:10D200009D2000209820002010B50246042A0FD24D
:10D21000094B1B69D8439300084CE45C0123A340ED
:10D220000340002B01D0012300E000230B7001E03C
:10D2300000200870002010BD00050050982002005A
:10D2400070B50546042D06D0072D19D00A2D2AD118
:10D2500003F0B8FF28E013211448008876DF044665
:10D26000082C0CD000BF2646002E07D000BF10A20D
:10D27000FF2180313046FFF7A7F800BF00BF13E061
:10D28000FFF7EAFB0446082C0CD000BF2646002E10
:10D2900007D000BF06A2FF2188313046FFF794F87F
:10D2A00000BF00BF00E000BF00BF70BD82200020B3
:10D2B0002E2E5C2E2E5C2E2E5C6D61696E2E630010
:10D2C00030B503460020042B24D2012A07D10129BE
:10D2D00003D11C460D34E4B200E0002422460029AC
:10D2E0000FD0012902D0022911D104E05C001C19E1
:10D2F000094D2A550DE05C001C19074D6419627038
:10D3000007E05C001C19044D6419A27001E00720BD
:10D3100000BF00E0072030BD0025002070B50446A6
:10D32000002506480078C007C00F002803D020461B
:10D3300000F070F80546284670BD000090200020DF
:10D34000F7B505460E4600242748066027480560C5
:10D3500027490298086002202840002822D0002790
:10D3600006E0012211463846FFF7AAFF04467F1C5B
:10D37000042F01D2002CF4D0002C05D17208042116
:10D380001C48FEF7BDFF0446002C02D1FEF7A2FFA9
:10D390000446002C05D1184A00211848FFF7A2F8CE
:10D3A000044600BFE807C00F00280AD000BF0F20C6
:10D3B0004005134988600020C86000BF0F20400569
:10D3C0008861002C05D10F4A00210F48FFF78AF829
:10D3D0000446002C05D10D4A01210D48FFF782F8C3
:10D3E00004462046FEBD00008C2000209020002036
:10D3F00098200020A8200200D9D901009420020022
:10D400000005005005FB01008C200200B1C20100A4
:10D4100090200200F8B50446002500262300FEF700
:10D42000A0FD180D1E1F68B1F9F8F7F6F5F4F3F238
:10D43000F1F0EFEEEDECEBEAE9E8E7E600BFF748E4
:10D4400001680F20400588430F2149050840F44931
:10D4500088600020C86000BFF248047080E200BF0E
:10D4600000BFEE4801680720800588430F21490569
:10D470000840EB4988600020C86000BF084640684B
:10D480000F214905484001214905084000280FD0D7
:10D4900000BF0846E24988600020C86000BF022C37
:10D4A00002D1E120C00001E07D20400106460EE0EF
:10D4B00000BF01204005DA49C8600020886000BF35
:10D4C000022C01D1C82001E0FF2091300646D5484A
:10D4D000047064213046FDF729FED34909684843AA
:10D4E000074600223946D1480068FFF779F805461B
:10D4F00036E200BFC94801680720800588430F2134
:10D5000049050840C64988600020C86000BF084639
:10D5100040680F214905484001214905084000287D
:10D520000FD000BF0846BE4988600020C86000BF19
:10D53000032C02D11920400101E07D204001064664
:10D540000EE000BF01204005B549C860002088609A
:10D5500000BF032C01D1C82001E0FF209130064616
:10D56000B048047064213046FDF7E0FDAE4909681B
:10D570004843074600223946AC480068FFF730F8B8
:10D580000546EDE100BFA5480168072080058843F6
:10D590000F2149050840A24988600020C86000BFEB
:10D5A000084640680F2149054840012149050840C7
:10D5B00000280FD000BF0846994988600020C86045
:10D5C00000BF042C02D17D20400101E07D204001FC
:10D5D000064623E000BF012040059149C8600020B5
:10D5E000886000BF042C16D1FF20913015E0B6E111
:10D5F000AAE1A8E195E182E16FE163E127E125E19C
:10D6000023E121E11FE113E1F0E0D9E0C0E0A9E06E
:10D6100090E05DE014E0FF20913006468148047000
:10D6200064213046FDF782FD7F490968484307467B
:10D63000002239467D480068FEF7D2FF05468FE19B
:10D6400000BF764801680720800588430F214905FF
:10D650000840734988600020C86000BF08464068E1
:10D660000F214905484001214905084000280ED0F6
:10D6700000BF08466A4988600020C86000BF052CCA
:10D6800001D1C82001E07D20400106460EE000BF28
:10D69000012040056249C8600020886000BF052C59
:10D6A00001D1C82001E0FF20913006465D4804709A
:10D6B00064213046FDF73AFD5B4909684843074657
:10D6C0000022394659480068FEF78AFF054647E1BF
:10D6D00000BF524801680720800588430F21490593
:10D6E00008404F4988600020C86000BF0846406875
:10D6F0000F2149054840012149050840002806D06E
:10D7000000BF0846464988600020C86007E000BFA7
:10D71000012040054249C8600020886000BF4148A0
:10D72000047041480022016840480068FEF758FF35
:10D73000054615E100BF3948016807208005884388
:10D740000F2149050840364988600020C86000BFA5
:10D7500000BF01204005C8600020886000BF31483C
:10D760000470FDE000BF2E4948680121890581430E
:10D770002B4A9160012189050140D16000BF2A48F0
:10D780000022016829480068FEF72AFF0546E7E005
:10D7900000BF23494868012189058143204A9160DF
:10D7A000012189050140D16000BF1F480068820047
:10D7B000811800221D480068FEF712FF0546CFE0E1
:10D7C00000BF17494868012189058143144A9160C7
:10D7D000012189050140D16000BF13480022016882
:10D7E00012480068FEF7FCFE0546B9E000BF0C4990
:10D7F0004868012189058143094A91600121890511
:10D800000140D16000BF08480068820081180022F2
:10D8100006480068FEF7E4FE0546A1E094200020DB
:10D8200000050050882000208C2000208C20020061
:10D8300000BF0F2040054C49C8600020886000BF31
:10D840004A4804708CE000BF00BF00BF00BF4848DA
:10D850000068FEF7F3FE05461120061B002E23D0BC
:10D86000002D21D10120C00542490860012E10D9A8
:10D87000C821714308466421FDF758FC3E490968F8
:10D88000484307460022394639480068FEF7A8FE9B
:10D89000054600BF374800680F2149050840324956
:10D8A000C860002088600CE000BF324800680F218B
:10D8B000490508402C4988600020C86000BF2D49F8
:10D8C00008604DE000BF0F20400527498860002018
:10D8D000C86000BF2548047042E000BF07208005F3
:10D8E000214988600020C86000BF00BF01204005BA
:10D8F000C8600020886000BF1C48047030E000BF92
:10D900000D204005184988600020C86000BF00BF96
:10D9100001208005C8600020886000BF13480470A3
:10D920001EE000BF0320C0050F4988600020C860CA
:10D9300000BF00BF03204005C8600020886000BF12
:10D940000A4804700CE000BF00BF0F2040050649E4
:10D95000C8600020886000BF0448047000E000BF79
:10D9600000BF2846F8BD00000005005088200020B8
:10D9700090200200942000208C20002070B50246E8
:10D98000002021E08400124D2C59A400114D64198F
:10D990002168012484401440002C01D0032400E0BD
:10D9A0000024234603252D040C46AC4321461C04C9
:10D9B00021430524240707252D0264198500044E00
:10D9C0007559AD006151401C0428DBD3002070BDA7
:10D9D000982002000007005010B50446207802216C
:10D9E000FFF7A6FB10BD0000F8B50546164A17491B
:10D9F0000320FFF7A5FC044600BF2646002E07D0F3
:10DA000000BF13A2FF21FA313046FEF7DDFC00BF54
:10DA100000BF69460020FFF719FB044600BF2646F9
:10DA2000002E07D000BF0AA2FF21FD313046FEF7CD
:10DA3000CBFC00BF00BF68460078022801D101205E
:10DA400000E000202870F8BD41D20100CD0C00009C
:10DA50002E2E5C2E2E5C2E2E5C6D61696E2E630068
:10DA60000021C9438200054B9950042804DB0B4672
:10DA7000011F024A4032535470470000BC27002067
:10DA800001468800014A105870470000BC2700205A
:10DA9000F7B585B00B460020C0430490002A01D0A2
:10DAA000002000E004200390002A01D0042000E0C0
:10DAB0000820029003991EE08800124C2058401C58
:10DAC000002817D10846059C0093019246B20D4DDF
:10DAD00020352E5585000B4E009B7351019A002A6C
:10DAE00004D166B2051F074F40377E5500BF48B2CC
:10DAF000049003E0491C02988142DDD300BF0498E2
:10DB000008B0F0BDBC2700200146014840567047D0
:10DB1000DC270020F0B587B03E4800781421484348
:10DB20003C49091D4418E7680C21A06848433A495C
:10DB30004018008906900C21A068484336494018D7
:10DB4000408905900C21A06848433349401840683B
:10DB5000049002F00BFF014602903846FDF7E6FA0A
:10DB6000002901D1012000E00020039005990698CA
:10DB70004843049946186088C019A18845180020B8
:10DB8000264908600398002804D002F0EFFE61885F
:10DB900088420AD00398002804D0B54202D1A08858
:10DBA000002802D0A06803280CD102F0DFFE014655
:10DBB00002903846FDF7BAFA19490860032003F0CD
:10DBC00039FB24E002F0D2FE0190A188C819019926
:10DBD000FDF7ACFA88081349086002F0C7FE014659
:10DBE00001902846FDF7A2FA002901D1012000E0AA
:10DBF00000200290B54206D00298002803D1B1B2AD
:10DC0000A8B203F00BFE022003F014FB00BF07B024
:10DC1000F0BD000020280020EC2800200821002072
:10DC20000C2100200421002010B5084800781421A0
:10DC300048430649091D44182078042802D000F002
:10DC4000A5F801E003F05EFD10BD000020280020D3
:10DC500010B50F480078142148430D49091D441898
:10DC600060880C4908602078012804D0032805D07A
:10DC7000042809D105E003F045FD06E0FFF74AFF5F
:10DC800003E004F0CEF800E000BF00BF10BD0000CC
:10DC9000202800201821002010B5034840780028D3
:10DCA00001D0FFF7D5FF10BD20280020002314214C
:10DCB00041430C4A53541421414389184B80022399
:10DCC0001421414389188B60002314214143891892
:10DCD000CB601421414389180B61142141438918F9
:10DCE0008B80704724280020FFB581B00646174678
:10DCF0001C4840780A2830D01A48007819494978D9
:10DD000044180A2C00D30A3C142060431549091D0D
:10DD10000E541420604340180761142060434118DA
:10DD2000029805C8CA608860142161430D4A121D1B
:10DD30008918049848801421614389180A988880BA
:10DD4000101F4078401C111F4870074800780028B9
:10DD500001D1FFF77DFF002500E00425284605B02E
:10DD6000F0BD0000202800200021002010B5002078
:10DD7000054908704870002403E02046FFF796FF2D
:10DD8000641C0A2CF9D310BD2028002010B50848C7
:10DD9000007814225043064A121D81180020FEF715
:10DDA00077FB00F007F8002003F044FA10BD0000F4
:10DDB0002028002010B509490878FFF777FF0748A9
:10DDC0004078401E0549487008460078401CC0B2A3
:10DDD00008700A2801D10020087010BD20280020FA
:10DDE000FEB51F480068002836D01D480068056849
:10DDF00003F02CF801901B4804682146019803F0B9
:10DE000039FDC61C18480078002801D103F030F80D
:10DE1000AE4201D2284600E0304604192402240A0A
:10DE2000204603F00DF803F011F8009001990098D6
:10DE300003F020FDC71C2046019903F01BFD87421B
:10DE400009D903F003F8074602F0FAFF2F20FDF787
:10DE500041F903F089FE01E003F028F8FEBD00005F
:10DE60003C21002040210020542100200146088848
:10DE7000062808DB08881922D201904205DD0888AF
:10DE8000104A904201D0072070474888062808DBD6
:10DE900048881922D201904205DD4888094A9042FB
:10DEA00001D00720F0E70888064A904208D0488849
:10DEB000904205D008884A88904201DD0720E3E7B8
:10DEC0000020E1E7FFFF0000FFB581B006460D46E8
:10DED00014462088801D0499884202D90C2005B080
:10DEE000F0BD3046FFF7C2FF074600BF002F01D04C
:10DEF0003846F4E700BF0520218868542088401C7C
:10DF000020801220218868542088401C208022888C
:10DF10005119308803F07CFF218840182080228826
:10DF20005119708803F074FF218840182080002068
:10DF3000D5E7000010B5044600BF03A2BE2120466D
:10DF4000FEF742FA00BF10BD2E2E5C2E2E5C2E2E48
:10DF50005C6D61696E2E630030B587B01C21684628
:10DF6000FDF727F9002000900520C00301900F2045
:10DF7000000402900321684601730021C1810174ED
:10DF80000A4805900A4806906846FEF705FF0446D1
:10DF900000BF2546002D06D000BF06A2D521284689
:10DFA000FEF712FA00BF00BF07B030BD91030200B8
:10DFB00035DF01002E2E5C2E2E5C2E2E5C6D6169ED
:10DFC0006E2E630038B51F4801F07CFC002829D173
:10DFD0001D48007800280AD01C484069002820D03D
:10DFE00000200090194841696846884719E01848A0
:10DFF0000078002802D11548456801E0134885687B
:10E000000022294613480068FEF7EAFA0446002C6D
:10E0100007D00E488069002803D00C48816920464B
:10E0200088470AE009484069002806D0012000908E
:10E03000064841696846884700BF002002490870C9
:10E0400038BD0000D8200020E0200020302600202D
:10E05000D4200020C820020010B50122002108466B
:10E06000FFF72EF9044600BF002C03D0072C01D087
:10E07000204610BD00BF072202210120FFF720F932
:10E08000044600BF002C03D0072C01D02046F0E747
:10E0900000BF042202210020FFF712F9044600BF4E
:10E0A000002C03D0072C01D02046E2E700BF00205F
:10E0B000DFE7000070B503460C460820002115E09C
:10E0C0000C254D430B4EAD19AD7A2540002D0CD0DB
:10E0D000094DAB4205D00C254D43AD192D899D420C
:10E0E00002D11160002003E00520491C0029E7D07F
:10E0F00000BF70BD8C270020FFFF000010B5044654
:10E1000001210C2060430A4A80188172891E0C206C
:10E11000604380180181FF210C2060438018C17288
:10E120000C21614388180721FDF743F810BD00005A
:10E130008C27002010B500BFEFF30580C105C90D85
:10E1400000291FD00A46103A50B200280CDA0E4BB4
:10E150000407240F083CA408A4001B598407E40EFC
:10E16000E3401B069B0F0BE0084B032424021B1902
:10E170008408A4001B598407E40EE3401B069B0F90
:10E18000D8B210BD0420FCE71CED00E000E100E087
:10E1900010B51C4800680821084000282FD11A48F3
:10E1A0000068401C1849086018480068002803D01F
:10E1B000042003F00FFB24E001F0E8FB002803D06B
:10E1C000022003F007FB1CE011480068002813D070
:10E1D0000C480078C007C00F002809D10948006822
:10E1E0000121084307490860002003F0F3FA08E022
:10E1F000032003F0EFFA04E003F0C0FA01E003F0BB
:10E20000CDFA10BD1C2100200C210020042100208B
:10E210000821002010B50C4800680821084000289B
:10E220000FD10948006802210840002805D006489F
:10E2300000680121084304490860022003F0CAFA7B
:10E2400001E003F0ABFA10BD1C210020F8B5002559
:10E2500035E0E8001C49096844182178012088400D
:10E2600006461A4800683040002826D01748006843
:10E27000B04316490860207801F070FF0746217806
:10E2800001208840124909680840227839469140A7
:10E29000884211D16078012800D100E00020784048
:10E2A0000121484000906068002804D0009BD9B24A
:10E2B00020786268904700BF00BF681CC5B205485F
:10E2C00000788542C5DBF8BD2021002030210020E8
:10E2D0002C21002024210020FEB504460E46A17802
:10E2E0006A46284802F050FA0546002D49D1607868
:10E2F0000C21484324494018807A40210840402896
:10E3000001D0022E01D1214F04E0012E01D1204F76
:10E3100000E0204FA0781C2250431F4A81180023A0
:10E320001C226846B8470546002D1AD1022E18D087
:10E3300060780C21484314494018807A4021884372
:10E3400061780C225143104A8918887260781C2227
:10E350005043124A81181C231A466846B84705469E
:10E3600000BF022E0DD020780C2148430C494018E4
:10E37000807A80000B490A58214668469047054636
:10E3800000BFFEBDE42000208C270020490D0200C4
:10E390001D0C020099160200882600204C27002040
:10E3A00098270020CC200200F8B505460E461B4FEA
:10E3B00000242EE01C20604319494018807EFF286D
:10E3C00026D13078022814D01C2060434018807E6B
:10E3D000022188431C216143114A891888761C2137
:10E3E000614389180846103007223146FCF7C8FE01
:10E3F0000BE01C2060430A494018807E4108490018
:10E400001C206043064A801881762C70002702E0A9
:10E41000641C072CCED300BF3846F8BD43800000F3
:10E4200088260020F8B505460E46174605200090C0
:10E4300000241BE0002D06D11C2060430E4940182B
:10E44000008BB8420DD0002D0FD01C2161430A4A29
:10E4500089180846103007222946FCF7B5FE002827
:10E4600003D134600020009002E0641C072CE1D34B
:10E4700000BF0098F8BD0000882600207CB5054646
:10E48000A9B26A46084802F07FF90446002C09D177
:10E490007421684602F0CAF90446002C02D12846CD
:10E4A00002F0AAF820467CBDE4200020F8B506461C
:10E4B0000F46144600BF2546002D07D000BF05A219
:10E4C000FF219A312846FDF77FFF00BF00BF0020E3
:10E4D000F8BD00002E2E5C2E2E5C2E2E5C6D616928
:10E4E0006E2E63007FB50546039502F045FA04469B
:10E4F00000BF2646002E07D000BF30A2FF21B43156
:10E500003046FDF761FF00BF00BF03A800F098FB95
:10E51000044600BF2646002E07D000BF27A2FF21D9
:10E52000B7313046FDF750FF00BF00BF052101A8FD
:10E530000130FCF73EFE6846407941084900491C1D
:10E54000684641714079022188430146684641711D
:10E550004079042188430146684641714079082189
:10E5600088430146684641714079702188430146DD
:10E5700030316846417140798021884301466846C0
:10E580004171072181711021C17110480090012152
:10E590006846017169460E4800F0FEFC044600BF63
:10E5A0002646002E07D000BF04A2FF21C731304607
:10E5B000FDF70AFF00BF00BF7FBD00002E2E5C2EBE
:10E5C0002E5C2E2E5C6D61696E2E6300ADE4010041
:10E5D00080200020F0B591B00446FF200F90002667
:10E5E0000020099000BFF9480078002801D111B03F
:10E5F000F0BD00BF00BFF6480068002800D1F6E774
:10E6000000BF0EA800F00EFB054600BF2F46002FEE
:10E6100006D000BFEF4AF0493846FDF7D5FE00BFEF
:10E6200000BF00200A900025201D0C902C21684678
:10E630008186FF2108A881760021017600201090B4
:10E640002088102813D0A08810AA0221FFF732FDDD
:10E650000546002D0BD10C2110984843DF49401886
:10E66000C17A08A881761098C1B208A8417620889E
:10E6700019287DD008DC10280DD011287ED0132851
:10E6800078D0142877D1B7E01A2875D01E2874D016
:10E690005228F7D18DE210AF3A460121D048FFF75A
:10E6A00009FD08900898002807D102210C2238683B
:10E6B0005043CA4A8018817201E0042008900898EB
:10E6C0000546002D53D10126112108A80173109889
:10E6D000C1B208A84176A1880C2210985043BF4AC5
:10E6E0008018018102210C2210985043BB4A8018E7
:10E6F00081720C2210995143B84A8818072221468A
:10E700000831FCF73DFDE07D304000280AD0E07D77
:10E710004008B449085CFF280BD0E07D4008085C45
:10E720000F9006E0AE4A0FA920460830FFF77AFEA8
:10E730000546002D1BD10F98C1B20C2210985043F2
:10E74000A64A8018C1720C211098484311464018FF
:10E75000807A082108430C22109951439F4A891856
:10E76000887208A90F9888760EA8FEF747FC2FE25A
:10E77000FCE003E085E02AE2B8E123E20C211098F6
:10E78000484396494018807A022188430C22109908
:10E790005143924A891888720C21109848431146B7
:10E7A0004018807A0821084008280ED10C211098C2
:10E7B000484311464018807A8021084080280FD1B4
:10E7C00000210EA8FFF788FD0AE008A8807EFF2838
:10E7D00006D008A9887E01F00FFFFF2008A98876DF
:10E7E00010210C22109850437C4A80188172012617
:10E7F000122008A90873EBE10C21109848437749CF
:10E800004018C07AFF2823D1228A0FA90020FFF7E1
:10E8100009FE0546002D1BD10F98C1B20C2210989D
:10E8200050436E4A8018C1720C211098484311461B
:10E830004018807A082108430C2210995143674AF6
:10E840008918887208A90F9888760EA8FEF7D6FB5B
:10E850000C211098484361494018C07AFF2805D020
:10E860001C21109848436049401809901C231099B6
:10E8700059435E4BCA18A0880023099986DF0546D4
:10E88000A6E1132008A908730C21109848435349A6
:10E890004018807A042108430C22109951434F4AB2
:10E8A0008918887201260C21109848431146401897
:10E8B000C07AFF283ED10C22109850430A46811896
:10E8C0000FA8FFF771FD0546002D0BD108A90F9881
:10E8D00088760F98C1B20C22109850433F4A801896
:10E8E000C17201E00A950126002005900C211098C4
:10E8F00048433A494018C07A1C2148433B494118D3
:10E9000006910021079108911C211098484336492F
:10E91000401801900020029003900490A08801AB61
:10E920002B4A121D00217FDF0546002D01D00A95DC
:10E9300000261AE00C211098484328494018807A94
:10E94000402108430C2210995143244A89188872A7
:10E95000162008A90873A08800231A4685217FDFA6
:10E960000546002D01D00A95002631E11848407A6D
:10E9700040084000164948720C2110984843174936
:10E980004018807A042188430C2210995143134A7D
:10E9900089188872142008A908730126207A002893
:10E9A00026D00C211098484311464018807A402107
:10E9B0000840402809D00C2210995143074A891871
:10E9C000C87AFFF75BFD207A0A908EE0F0200020E5
:10E9D0009827002040210200F10900008C27002028
:10E9E000FFFF0000F12000204C2700208826002097
:10E9F000607A4007C00F002877D008A8807EFF28E3
:10EA000073D00C21109848437F494018807A082120
:10EA100008430C22109951437B4A89188872607B05
:10EA20008007C00F00280FD008A8807E1C21484313
:10EA300076494018807E4108490008A8807E1C2243
:10EA40005043724A801881760C21109848436E49D1
:10EA50004018C07AFF2848D00C21109848436A49D2
:10EA6000085C022820D00C23109A5A430B46D11878
:10EA700008AA927E1C235A43644BD21810461030C9
:10EA80000722FCF77DFB08A8807E1C2148435F49D4
:10EA90004018807E0221884308A9897E1C225143A8
:10EAA0005A4A891888761CE01C2110984843584916
:10EAB0004018418A08A8807E1C225043534A80187F
:10EAC000018308A8807E1C21484311464018807E9F
:10EAD0004108490008A8807E1C2250434B4A8018F8
:10EAE000817601210EA8FFF7F7FB71E0207A00097B
:10EAF00001283DD1207A0007000F012838D10C21D0
:10EB00001098484340494018807A08210840082856
:10EB10002ED12422109951433E4A891808181A21EF
:10EB2000FCF747FB162008A908730C2110984843EE
:10EB300035494018807A202108430C22109951430E
:10EB4000314A891888720C211098484311464018A0
:10EB5000807A402108430C22109951432A4A89188F
:10EB600088722D48407A022108432B4948721CE0E4
:10EB70000C211098484324494018807A802108438A
:10EB80000C2210995143204A89188872152008A92F
:10EB900008732148807A8000204A11580EA88847BF
:10EBA0000546002D01D01E480A9000200A9001263B
:10EBB0000EE01948807A8000184A11580EA888473C
:10EBC0000A9005E0132008A90873012600E000BFA1
:10EBD00000BF002E16D00BA90EA80A9AFDF74AFC1A
:10EBE00008A8007B12280DD100BF0C2110984843C3
:10EBF00005494018807A012802D01098FFF77EFA64
:10EC000000BF00BF00BFF2E48C2700208826002050
:10EC10004C2700206827002098270020EC200200C5
:10EC2000418000000146002901D104487047FF20BF
:10EC3000087048708870C8700020F7E70E800000E8
:10EC40007FB50646002E02D1374804B070BD0024BF
:10EC50000FE000BF00210C206043344A11500C200B
:10EC60006043801841720C2060438018817200BF9D
:10EC7000641C002CEDD0002403E02046FFF73EFA90
:10EC8000641C002CF9D024212948FCF792FA0024B6
:10EC900006E0204601F0B0FCFF2026490855641C20
:10ECA000072CF6D37421684681810721C18122484F
:10ECB0000290224902A801F021FF0546002D30D123
:10ECC00001201F4908703078002821D100241CE061
:10ECD000A1B26A46194801F057FD0546002D0FD133
:10ECE0001C216143174A881800231C22694601F041
:10ECF00087FE0546002D07D000201149087006E068
:10ED000000200F49087002E0641C072CE0D308E0E3
:10ED10006A469089D289504381B2084801F086FD45
:10ED20000546284691E700000E8000009827002045
:10ED300068270020F120002049ED0100E420002098
:10ED4000F020002088260020FFB593B01D4600BFAC
:10ED500085480068002801D117B0F0BD00BF1C989D
:10ED6000742800D9F8E7012009900FA8FFF75AFF8F
:10ED7000064600BF3746002F06D000BF7B4A7C49BD
:10ED80003846FDF721FB00BF00BF002108A801772E
:10ED900010A801700E951C980D90002712E0B9B2D2
:10EDA0000AAA744801F0F0FC0646002E09D1082298
:10EDB0000AA91398FCF708FA002802D108A98F774E
:10EDC00002E07F1C072FEAD300BF08A8807FFF283E
:10EDD00079D0149803280AD11C98742803D12020D4
:10EDE00010A908709AE0402010A9087096E06249C6
:10EDF000681A1C21FCF79AF90446072C1DD20CA8AE
:10EE000011901598002810D108A9887F0121814010
:10EE10005A4A12681140002901D0012100E0002166
:10EE2000002902D10020099078E008A9887F02F02B
:10EE3000FDFF202010A9087070E05149681A1C21BC
:10EE4000FCF774F90446002C1BD10CA8119020216A
:10EE500010A8017008A84477002005904949069140
:10EE60001C20604346494018019008A8807F1C215F
:10EE7000484341494018029001A80E9020200D906F
:10EE80004CE04149681A2421FCF750F90446002C53
:10EE90001AD1302110A8017008A844770121C17748
:10EEA0000C20604339494018807A0221084002282A
:10EEB00034D008A9497F24225143334A8818242199
:10EEC000FCF777F92AE04DE000200990402010A9D6
:10EED00008702F48854204D1032014900120099026
:10EEE0001CE008A8807F80002A490858A84215D154
:10EEF000012009900CA8119000200CE008A98A7F3D
:10EF00000C214143214BC918C97A8A4202D108AA6F
:10EF1000507702E0401C0028F0D000BF099801287B
:10EF200020D11498032806D110A90878032108439A
:10EF300010A908700FE01498022806D110A90878CB
:10EF40000121084310A9087005E010A908780221E2
:10EF5000084310A908700CA8119010A90FA8159AC1
:10EF6000FDF788FA00BFF7E698270020402102004D
:10EF7000A1050000E420002088260020EC200020CD
:10EF80004C270020A4270020682700208C27002081
:10EF9000FC2002006C26002070B505460C4600BF20
:10EFA00029480078002801D1284870BD00BF002DF5
:10EFB00002D12648801DF8E7002C02D12348801D8D
:10EFC000F3E72068002802D12048801DEDE72048A3
:10EFD0000068002834D11E49206808600522611DA0
:10EFE0001B48001DFCF7CCF82079194988720846A7
:10EFF000007A4008400008720846007A02218843DF
:10F00000801C134908720846007A0421884310497D
:10F0100008720846C07940084000401CC871084684
:10F02000C07902218843801C0949C8710846C0790B
:10F03000042188430649C87100202870002601E099
:10F04000024E361F3046B0E7F02000200880000056
:10F0500098270020014614480078144A12789042FC
:10F060001DD011480078401C0F4A107010460078DF
:10F07000022801D1002010700B48007880000C4A53
:10F08000105808600B4A086812688018094A106016
:10F09000104600680002000A10600120704700203E
:10F0A000086000BFFAE700004C2100204D2100203D
:10F0B000442100204021002010B50D48006808219F
:10F0C0000840002810D10B480068401C094908601E
:10F0D00000F05CFC002802D1FEF7A6FD06E0064821
:10F0E000007802F0A7F801E000F086FE10BD0000F5
:10F0F0001C2100200C21002000210020F0B5034637
:10F10000002420E0134E306806689E4203D906684A
:10F11000F61A06601BE006689B1B06683419002679
:10F1200006600C4E35680B4FC6693E60C668002EFF
:10F1300008D00E193602360A4660C6688660166820
:10F14000C661156000BF034800680028DAD100BF1F
:10F15000F0BD00003C21002030B504461088C01CE2
:10F16000984201D90C2030BD0220158848551088DE
:10F17000401C10800120158848551088401C1080C4
:10F1800015884C551088401C10800020EBE738B5DE
:10F1900000200090684601F0DFFA0446082C03D0F6
:10F1A000002C01D0012038BD082C07D1684600F0A2
:10F1B00071F80446002C01D00020F4E700980028E4
:10F1C00001D00120EFE70020EDE7000010B5044674
:10F1D000002C02D0112C08D100E00AE0064800689B
:10F1E000082108430449086003E02046FDF768F958
:10F1F00000BF00BF10BD00001C21002010B50C484E
:10F200000068401C0A49086003280DD009480078AE
:10F21000022804D00748007802F00CF807E00648FE
:10F22000007802F0D7FA02E00D20FDF749F910BD91
:10F2300010210020002100200121002010B50A48E3
:10F240000078012804D0022808D0032809D102E060
:10F2500002F05EFA06E0FFF72FFF03E002F0AEFADD
:10F2600000E000BF00BF10BD0021002070B50446C3
:10F27000204628DF0546FFF7A9FF70BDF8B5044614
:10F280000D46164632462946204629DF0746FFF737
:10F290009DFFF8BD0146002901D1032070470248B7
:10F2A000406D08600020F9E744290020FEB50446BF
:10F2B00020881038800030490A5830A10020FCF71F
:10F2C00094FBA28831A10020FCF78FFB2088102836
:10F2D00004D0112842D012284AD11FE0208BFBF71E
:10F2E000E9FF00222F4B01910090FBF77BFF0546C1
:10F2F000FBF7EEFF87B23A462BA10020FCF775FB27
:10F30000E08B0A21484302462DA10020FCF76DFB4B
:10F31000A28B31A10020FCF768FB2AE02089FBF7D3
:10F32000C9FF054600221F4BFBF75CFF01910090CF
:10F33000FBF7CEFF87B23A461BA10020FCF755FB36
:10F34000E0890A21484302461DA10020FCF74DFB3D
:10F35000A28921A10020FCF748FB0AE0207A12389C
:10F36000800022490A5822A10020FCF73EFB00E061
:10F3700000BF00BFFEBD0000802100200A474150B1
:10F38000204576743A2025730000000009436F6E13
:10F390006E2068616E646C653A20307825233032C7
:10F3A000780A00000000F43F094D494E5F434F4E7C
:10F3B0004E5F494E54455256414C3A2025640A004E
:10F3C00009434F4E4E5F5355505F54494D454F557D
:10F3D000543A2025640A000009534C4156455F4CBD
:10F3E0004154454E43593A2025640A001C2200200E
:10F3F0000925730A000000003EB500BF684600788A
:10F4000001090901491C009168460078F0218843F0
:10F410001030009000BF0A2216A168467CDF044627
:10F4200000BF2546002D06D000BF15A28B2128461F
:10F43000FCF7CAFF00BF00BF0020019002905021DE
:10F4400068468180A021C18000210181FF21913186
:10F45000418101A87ADF044600BF2546002D06D071
:10F4600000BF07A295212846FCF7AEFF00BF00BFF2
:10F470003EBD00004F75725365727669636500008A
:10F480002E2E5C2E2E5C2E2E5C6D61696E2E63001E
:10F4900001460020704702460020704702460020C7
:10F4A00070470000F8B505460027002000900026B0
:10F4B000687824214843334940184068002827D001
:10F4C00068780C21484330494018807A80210840F0
:10F4D00080281DD168780C2148432B494018807A38
:10F4E00040210840402813D068782421484325490A
:10F4F00040180746083768782421484321494018B6
:10F50000808880B200906878242148431D490E58B5
:10F5100069780C2251431C4A8918088933463946B8
:10F52000009AA9DF04460B2C0BD1012669780C2226
:10F530005143154A8918088933463946009AA9DF8C
:10F540000446002C00D0114C012E18D169780C22F1
:10F5500051430D4A891808890D4A0C21A7DF04463A
:10F56000002C0CD00B48844208D0082C06D0801CFC
:10F57000844203D0112C01D0002400E0034C20462B
:10F58000F8BD0000682700208C2700204180000083
:10F59000FFFF00000230000070B505460C466178A0
:10F5A000242251430D4A881838232422294601F089
:10F5B00027FA0646002E0FD16078242148430749D8
:10F5C00040184068401C002806D1002160782422A1
:10F5D0005043024A80184160304670BD68270020C1
:10F5E000F3B589B00C4603271A20089061780C22E5
:10F5F00051432E4A891808893B4608AA01A9AADF67
:10F600000646002E4FD1617824225143284A89189A
:10F610000846083069460A8C01A9FBF7D5FD002889
:10F6200012D160780C21484320494018807A022189
:10F630000840022837D06178242251431C4A881898
:10F640002421FBF7B6FD2EE06078242148431849B9
:10F6500040184068002801D0164D00E0164D607833
:10F660002421484312490F506946098C60782422AE
:10F6700050430F4A801841606178242251430C4A5C
:10F6800089180846083069460A8C01A9FBF778FDFD
:10F69000607824225043064A81183823242209988E
:10F6A000A847064600BF00200BB0F0BD8C27002005
:10F6B00068270020490D02001D0C020070B50546A8
:10F6C0002846FFF7EFFE0446002C02D100BF00BF22
:10F6D0000446204670BD70B505460E4631462846A4
:10F6E000FFF75AFF0446002C02D100BF00BF0446BA
:10F6F000204670BD70B505460E4631462846FFF7D8
:10F700006FFF0446002C02D100BF00BF0446204614
:10F7100070BD0000F8B505460F460120A84004461C
:10F7200018480068FCF78AFF0646002E00D0F8BD96
:10F7300015480068204000281DD1284600F00EFD25
:10F74000002805D01148006820431049086004E0F3
:10F750000E480068A0430D4908600B48006820432C
:10F760000949086000220A48016806480068FCF759
:10F7700037FF064604E004480068A04302490860D9
:10F7800000BFD4E728210200302100202C210020D6
:10F790002821002010B518480068082108400028DA
:10F7A00026D100F049F900280CD000201349086048
:10F7B00011480068012108430F490860002002F049
:10F7C00009F817E000F0E2F8002806D000200B4905
:10F7D0000860022001F0FEFF0CE0094800680028E4
:10F7E00003D0032001F0F6FF04E001F0C7FF01E0C1
:10F7F00001F0D4FF10BD00001C21002004210020D6
:10F8000008210020F8B529480078002800D1F8BD6B
:10F8100027480068002801D1012000E000200546AB
:10F8200024480068002801D1012000E0002006469D
:10F8300000BF002D14D1684652DF0446052C01D1CB
:10F8400001250CE0002C06D000BF1B4A9321204666
:10F85000FCF7BAFD03E0164900980968884700BF25
:10F86000002E1AD115480088009069461448006897
:10F8700061DF0446052C01D101260DE0002C06D0E5
:10F8800000BF0D4AB2212046FCF79EFD04E00C4863
:10F89000006808490968884700BF002D02D0002E83
:10F8A00000D000E0C5E700BF00BFB0E7682100203E
:10F8B00078210020742100208C210200702100207A
:10F8C0006C21002001464888064A1288904206DBD7
:10F8D0004888044A5288904201DC01207047002089
:10F8E000FCE70000CC2000200C48008CC0B20128AE
:10F8F00012D10A48808C0007000F00280CD107485D
:10F90000806AF0210840402806D10448C06A0840B7
:10F91000002801D1012070470020FCE7C00F00F053
:10F920001948008CC0B201282CD11748808C0007E0
:10F93000000F002826D11448806AF02108400028D2
:10F9400006D11148C06A0840002801D10120704743
:10F950000D48806AF0210840102806D10A48C06A84
:10F960000840002801D10120F1E70748806AF02112
:10F970000840302806D10448C06A0840002801D158
:10F980000120E4E70020E2E7C00F00F0F8B51248DC
:10F990000078142148431049091D4518EF6800F00C
:10F9A000E5FF00906988C919AA888918481E00993E
:10F9B000FBF7BCFB064609480068B04207D307487E
:10F9C0000068B04205D106480068002801D1012432
:10F9D00000E000242046F8BD202800200C21002053
:10F9E000082100201348008CC0B201281FD1114803
:10F9F000808C0007000F002819D10E48806AF02182
:10FA00000840A02806D10B48C06A0840002801D150
:10FA1000012070470748806AF0210840D02806D1AD
:10FA20000448C06A0840002801D10120F1E7002005
:10FA3000EFE70000C00F00F0F8B51048007814217F
:10FA400048430E49091D4518EE6800F08FFF0090ED
:10FA500069888919AA888918481E0099FBF766FBEE
:10FA6000074607480068002805D006480068B842E5
:10FA700001D1012400E000242046F8BD2028002008
:10FA8000082100200C21002001468807800F002853
:10FA900001D1012070470020FCE730B504461088F2
:10FAA000C01C984201D90C2030BD02201588485551
:10FAB0001088401C10801C20158848551088401C58
:10FAC0001080012C06D0022C08D0032C0AD0042C64
:10FAD00010D10BE00020158848550DE00120158855
:10FAE000485509E002201588485505E0032015888F
:10FAF000485501E00720D7E700BF1088401C108060
:10FB00000020D1E710B5044605480078C007C00FB3
:10FB1000002803D003480078FDF77CFC10BD0000EE
:10FB20009020002088200020F8B52148006800902F
:10FB3000204806782EE0F0001F490968441825780F
:10FB400024E01820684361680F18681CC5B2A078CB
:10FB5000A84200D100253878022802D0032812D10B
:10FB600003E0786801F032FF0EE007E01049086812
:10FB7000002101740E4AC169116000BF0C48006881
:10FB80000028F3D100E000BF00BF00BF6078A842AA
:10FB9000D7D100BF3046711ECEB20028CBD1044869
:10FBA00001680098814201D00120F8BD0020FCE7E7
:10FBB0003C2100203421002038210020FEB50646DB
:10FBC0003C48006801903C480078009063E0009851
:10FBD000C0003A490968451856E0002E02D0344664
:10FBE000E66924E02978182359436A68501829786F
:10FBF000491C29702978AA78914201D100212970E5
:10FC000044680178012902D1217C002900D03BE021
:10FC100081686160C168A1600169E1604169A161B9
:10FC200027490978002901D00021616000BF2549DA
:10FC300060680968401A0002000A2349884208D215
:10FC400020496068096801F015FEA168401820602D
:10FC50000FE01C486168006801F00CFE0746A068D0
:10FC6000B84203D9A068C01B206001E000202060DA
:10FC700000BF00206060A060012020740020E061CF
:10FC8000204601F06DFE00BF002EA6D128786978CD
:10FC90008842A2D100BF0098411EC9B2009100283D
:10FCA00095D1044801680198814201D00120FEBD30
:10FCB0000020FCE73C2100203421002038210020D6
:10FCC0005521002040210020FFFF7F0008B511488A
:10FCD0000078002801D0002008BD012083020E4AD0
:10FCE0000EA100900020FBF7A5FD002801D0082000
:10FCF000F2E7002010230B4A0BA10090FBF768FDF0
:10FD0000002801D00820E7E7012002490870002000
:10FD1000E2E70000562100209C2900204E6F726D02
:10FD2000616C00009C2D0020496E7075740000000D
:10FD30000FB438B5044606A800906A4620460599D7
:10FD4000FBF761FE0020009038BC08BC04B01847E7
:10FD500008B517A219A10020FBF747FE01F00AFF22
:10FD60006846FDF741FEFDF7BDF868460078FEF7EE
:10FD7000B9FBFFF741FB01F01DFAFCF751FAFEF762
:10FD8000EBF8FCF7A3FC0320FCF7A8FE044600BF39
:10FD90002546002D07D000BF13A211214901284696
:10FDA000FCF712FB00BF00BF00BF00F085FCFCE7C2
:10FDB00032323A30383A3433000000001B5B324AAA
:10FDC0005475746F7269616C2053746172742E2063
:10FDD0004D61696E2E6320636F6D70696C65642080
:10FDE000402025730A0A00002E2E5C2E2E5C2E2E3B
:10FDF0005C6D61696E2E630010B5054800680821CE
:10FE00008843034908600348007801F013FA10BDE5
:10FE10001C21002000210020FFB581B005460E46C0
:10FE20001446A888871C2088801CC1190498814228
:10FE300002D90C2005B0F0BDFE2F01D90C20F9E746
:10FE4000781C218870542088401C2080FF20218845
:10FE500070542088401C208022889119288801F045
:10FE6000D7FF218840182080A88800280EDDA868C8
:10FE7000002801D10720DDE7AA8823889819A968FE
:10FE8000FBF77EF92088A988401820800020D1E760
:10FE9000FFB583B005460F4614462878012805D1E2
:10FEA0006878002802D1072007B0F0BD2088801CA8
:10FEB0000699884209D82878012808D12088801C12
:10FEC000697841180698814201D90C20ECE7218815
:10FED0000698401A801E86B201962188891CC8198E
:10FEE00001A97DDF029000BF0298002801D002988E
:10FEF000DAE700BF2878022806D168468088B04239
:10FF000002DC092000900BE00820009028780128EE
:10FF100005D16878B04202DC6878019000E0019673
:10FF200068468088FE2801D90C20BDE76846808895
:10FF3000401C218878542088401C2080218800980B
:10FF400078542088401C20802188684680880818C2
:10FF500020800020A8E701460020704702460020CC
:10FF6000704702460020704770B504460D4629468A
:10FF70002046FBF7A1FB00BFE106C90E0120884027
:10FF80000549086000BF00BFE106C90E0120884096
:10FF90000249086000BF70BD80E200E000E100E0BF
:10FFA000FEB505460E46284600F062FB002820D02C
:10FFB0002846FDF7A9FD001F28490F5CBC11032C42
:10FFC0000CD100BF264800690121A9400840002843
:10FFD00001D0032000E00220019005E0012C01D1B6
:10FFE000022000E0032001902846019900F00BF95F
:10FFF00032E0284600F048FB00282DD02846FDF7C7
:020000040002F8
:1000000083FD0446A000FF30013080B201902046FD
:100010001449512212018918820089580122114382
:10002000104A51231B01D2188300D15000BF019800
:1000300000F012F9002E0ED02846FDF765FD009065
:10004000FDF71EFD0746002F04D00121A140084600
:1000500000F016F900BF00BFFEBD0000FC27002025
:100060000005005000600040F7B584B004460E461D
:1000700000200390204600F0EDFA002802D008206E
:10008000039060E0F27820460699FDF701FD0546F1
:10009000681C002854D0B078002810D000BFA10000
:1000A0002A4A89180968022291430846052109074E
:1000B000072212028918A200885000BF0BE077784F
:1000C000002000903B46024601460190204600F089
:1000D00087F800BF00BFF078002826D037781C488A
:1000E000512109014018A90040581A4908401849EF
:1000F000512212018918AA0088501548512109017E
:100100004018A900415820021F22120210403A0450
:1001100003231B041A40104301430D4851221201CE
:100120008018AA00815000BF0CE0281F0A49085C13
:1001300031788901084342B2281F07490A5401E077
:100140000420039000BF039807B0F0BD00070050E3
:1001500000600040FFE0FCFFFC270020014600BFDC
:1001600005480069C840C007C00F002801D0012021
:1001700070470020FCE700000005005010B5124851
:100180000079002801D0082010BD002404E020469A
:1001900000F08AFA601CC4B2202CF8DB002404E0D2
:1001A0002046FDF75DFC601CC4B2082CF8DB03217F
:1001B0000620FFF7D9FE0120C00700F061F80121F9
:1001C000014801710020DFE7FC2700200348007987
:1001D000002801D0012070470020FCE7FC27002008
:1001E000F0B5059C55000D439E003543260235436E
:1001F000069E360435430526360707273F02F619C3
:100200008700F551F0BD10B50522120707231B0228
:10021000D2188300D25803231B049A4305231B07DB
:10022000072424021B1984001A51052212070723F0
:100230001B02D2188300D2580B041A4305231B0754
:10024000072424021B1984001A5110BD01460148DD
:10025000081870470060004010B504462046FFF7BC
:10026000F5FF0021016010BD10B504462046FFF7E0
:10027000EDFF0068012800D110BD0020FCE7000060
:1002800001494860704700000063004001460922B0
:10029000D2018A1810680922D2018A1810607047AA
:1002A00002465058002801D0012070470020FCE78A
:1002B0000022425070470322120282189160704758
:1002C000024603200002101840680840002801D0B0
:1002D000012070470020FCE70122425070470000D7
:1002E00070B50546002D13D0032D14D10220FDF763
:1002F00015F8044600BF2646002E07D000BF07A20F
:10030000FF2103313046FCF75FF800BF00BF03E078
:1003100000F058FF00E000BF00BF70BD2E2E5C2E25
:100320002E5C2E2E5C6D61696E2E630070B50546E5
:10033000284600F0DBF92888102802D011281AD1AD
:1003400014E00720FCF7EAFF044600BF2646002E13
:1003500007D000BF09A2FF211B313046FCF734F85B
:1003600000BF00BFA8880949088005E00020C043FD
:100370000649088000E000BF00BF70BD2E2E5C2E35
:100380002E5C2E2E5C6D61696E2E63008220002033
:1003900070B505462878002810D13B210848008810
:1003A00076DF044600BF2646002E06D000BF05A219
:1003B000B3213046FCF708F800BF00BF70BD000055
:1003C000822000202E2E5C2E2E5C2E2E5C6D61690C
:1003D0006E2E630010B504460822A1180248FAF7F1
:1003E000CFFEFDF7EFFD10BDD820002010B504466C
:1003F000A088094908800822214618310748FAF7E1
:10040000BFFE0020064908700648C089002801D1B7
:10041000FDF7D8FD10BD0000D6200020D820002018
:10042000D42000203026002070B505460020C043AF
:100430000A49088000200A4908700A480068FCF749
:10044000FDF80446002C07D007488069002803D037
:10045000054881692046884770BD0000D6200020ED
:10046000D4200020C82002003026002070B50546A8
:10047000AC1D20881249C989884220D16089022890
:100480001DD100BF00BF217B627B120211430846D1
:10049000C107C90F002902D0FDF794FD0FE00948FC
:1004A0000068FCF7CBF80646002E07D004488069A8
:1004B000002803D0024881693046884700BF70BDDC
:1004C00030260020C820020070B586B005461F4BBC
:1004D0000FCB01AC0FC41E4869468882163101A8B3
:1004E00063DF044600BF2646002E06D000BF19A2D7
:1004F00038213046FBF768FF00BF00BF2A4605A938
:100500000120A0DF044600BF2646002E06D000BF13
:1005100010A23E213046FBF757FF00BF00BF13A1DA
:100520000020FBF755FA6846828A18A10020FBF7E5
:100530005CFA6846827D1BA10020FBF756FA2A88E8
:100540001FA10020FBF751FA06B070BD7C2002000D
:10055000CDAB00002E2E5C2E2E5C2E2E5C6F7572A5
:100560005F736572766963652E6300004578656325
:100570007475696E67206F75725F736572766963F3
:10058000655F696E697428292E0A000053657276CA
:1005900069636520555549443A2030782523303425
:1005A000780A0000536572766963652055554944A1
:1005B00020747970653A20307825233032780A002B
:1005C000536572766963652068616E646C653A2074
:1005D000307825233034780A0000000002460021DC
:1005E00005E0505C002801D001207047491C062915
:1005F000F7D30020F9E7000010B504461C21614341
:10060000124A8918084611300621FAF7D2FD1C213A
:1006100061430E4A88181021FAF7CBFDFF211C20F8
:1006200060430A4A801801741C2060438018817658
:100630000021C9431C20604380180183204601F03B
:10064000F5FB0020A100024A505010BD8826002072
:100650006C260020014605484056C017401C002863
:1006600001D0012070470020FCE70000DC270020BB
:10067000014604484056042801DB01207047002051
:10068000FCE70000DC270020014606484056002811
:1006900005DB04484056042801DA01207047002099
:1006A000FCE70000DC2700200022D24301490A5465
:1006B00070470000DC27002070B548DF044600BF0B
:1006C0002546002D06D000BF03A207492846FBF7A8
:1006D0007BFE00BF00BF70BD2E2E5C2E2E5C2E2E2A
:1006E0005C6D61696E2E63000702000070B50546FF
:1006F0002C88102C05D3302C03D82846FEF7D6FDC5
:1007000012E0502C0CD3A52C0AD828885038800031
:1007100006490B58224606A10020FBF766F903E0C4
:1007200008A10020FBF754F970BD0000BC21002097
:100730004576743A20307825233032782C20257382
:1007400000000000556E646566696E65642065761C
:10075000656E740D0A000000014600BF084800687D
:1007600004221040002801D10820704700BF002952
:1007700001D10E20F9E70348407808600020F4E733
:100780001C210020202800203CB5034600BF25483E
:10079000006804242040002801D108203CBD00BF8F
:1007A000002B01D10E20F9E7002A01D10E20F5E738
:1007B0001868022806D20C24186860431A4C205886
:1007C000002801D10720E9E75C68186801940090CF
:1007D000019C0C2518686843134D40190089484353
:1007E000201801900C24009860432C460019408981
:1007F0000C25009C6C430C4D6419248960430C2526
:10080000009C6C43084D641964680019019CA04267
:1008100001D80720C2E7019C0098546010600020B6
:10082000BCE700001C210020EC280020FEB5044697
:100830000D4600BF4148006804210840002801D14E
:100840000820FEBD00BF002C01D10E20F9E7206872
:10085000022806D20C21206848433949085800284C
:1008600001D10720EDE70C212068484334494018A6
:1008700040890C2221685143314A8918098948432B
:100880000C22216851432E4A891849684018616832
:10089000884201D80720D4E76068FFF7F5F8002800
:1008A00001D11020CDE70C2320685843244BC018F9
:1008B00062684068101A00900C22206850431A4663
:1008C000801801890098FAF731FC002901D007202F
:1008D000B7E70C2220685043194A8018018928463E
:1008E000FAF73AFC002901D1002D01D10720A8E731
:1008F0000C21206848431249401806890C222168BF
:1009000051430F4A891849894E43606847190C21A1
:1009100020684843114640184068801901900198AA
:10092000874201D907208CE700202B46024621464A
:1009300000900320FDF7D8F983E700001C21002078
:10094000EC28002070B508484469601C002807D0D6
:1009500000F00CF8054629462046FAF7E7FB70BD83
:10096000012000074069FAE700100010012000078D
:10097000006980B27047000010B5FDF7F7F900205C
:1009800017490880FFF7DEFFC41EFFF7EFFF44435F
:100990001448046000201449086000BF0DE00022E4
:1009A0000C214143114B5A500C214143C9180A8173
:1009B0000C214143C9184A81401C0228EFD3002072
:1009C0000B4908700B4908600B4908600B49086027
:1009D000094800680421084307490860002010BD49
:1009E000F8200020FC2000200C210020EC28002012
:1009F00000210020102100201C21002014210020B3
:100A0000FFB581B00C4615461E4600BF3948006848
:100A100004210840002802D1082005B0F0BD00BF25
:100A2000002C01D10E20F8E70198002801D10E20FA
:100A3000F3E72068022806D20C21206848432E499B
:100A40000858002801D10720E7E70C212068484317
:100A50002949401840890C2221685143264A8918A7
:100A6000098948430C2221685143234A891849685F
:100A700040186168884201D80720CEE7002D07D0D2
:100A80000C21206848431C4940180089A84201DA1B
:100A90000720C2E7A9190C2220685043164A801883
:100AA0000089814201DD0720B7E70198FEF7ECFFDE
:100AB000002809D03046FEF7E7FF002804D0606820
:100AC000FEF7E2FF002801D11020A6E76068811937
